:100000005CC0000082C0000080C000007EC0000014
:100010007CC000007AC0000078C0000076C00000FC
:1000200074C0000072C0000070C000006EC000000C
:100030006CC000006AC0000068C0000066C000001C
:100040000C94D25662C000000C94EC5E0C94185FC5
:100050005CC000005AC0000058C0000056C000003C
:1000600054C0000052C0000000000000240027001F
:100070002A0000000000250028002B0004040404CE
:100080000404040402020202020203030303030342
:10009000010204081020408001020408102001021F
:1000A00004081020000000080002010000030407FB
:1000B00000000000000000007F5F11241FBECFEF92
:1000C000D8E0DEBFCDBF13E0A0E0B1E0E0EAF0ECA5
:1000D00002C005900D92AC30B107D9F727E0ACE033
:1000E000B3E001C01D92A431B207E1F710E0CDE505
:1000F000D0E004C02197FE010E941B60CC35D107DF
:10010000C9F70E94EB530C944E607ACFCF93DF93E4
:1001100000D000D0CDB7DEB769837A838B839C8310
:1001200089819A81AB81BC810E97A105B10530F41C
:100130008981825F60E00E94E75804C0898160E0A5
:100140000E94E75889819A8101969C0189819A8150
:10015000AB81BC81A901BC01CD01B8D089819A8154
:1001600001960F900F900F900F90DF91CF9108950F
:10017000CF93DF93CDB7DEB729970FB6F894DEBFE4
:100180000FBECDBF9D838C837F836E835987488745
:10019000CE010496FC018081882399F0CE0104965B
:1001A000FC0180818150898389810E9497589B83BB
:1001B0008A832A813B818E819F81FC013183208348
:1001C00005C08E819F81FC0111821082000029965A
:1001D0000FB6F894DEBF0FBECDBFDF91CF9108956B
:1001E000CF93DF9300D01F92CDB7DEB79B838A8376
:1001F000CE010296FC018081882389F01982CE010C
:100200000296FC018081815089838981882F90E04A
:10021000A0E0B0E040E050E0BC01CD0157D00000CC
:100220000F900F900F90DF91CF910895CF93DF93B0
:10023000CDB7DEB729970FB6F894DEBF0FBECDBF9E
:100240006E837F83888799871C821B821A8219821A
:100250001D828E819F81A885B985689412F8B69514
:10026000A795979587951694D1F79C838B838E815C
:1002700087708D838B819C81845F9C4FFC014081C2
:100280008D81282F30E081E090E002C0880F991F17
:100290002A95E2F78423882F90E09A8389838981C5
:1002A0009A81892B31F08E819F8101969A8389836F
:1002B00002C01A82198289819A8129960FB6F89410
:1002C000DEBF0FBECDBFDF91CF910895CF93DF93F7
:1002D000CDB7DEB72A970FB6F894DEBF0FBECDBFFD
:1002E0006D837E838F8398875A8749871A82198204
:1002F0001B821C828D819E81AF81B885689412F823
:10030000B695A795979587951694D1F79A83898383
:100310008D8187708B838B81282F30E081E090E086
:1003200002C0880F991F2A95E2F78C8389859A85E8
:10033000892B99F48C8180958C8389819A81845F43
:100340009C4FFC0190818C81292F282389819A81DF
:10035000845F9C4FFC0120830FC089819A81845F58
:100360009C4FFC0190818C81292F282B89819A81B7
:10037000845F9C4FFC01208300002A960FB6F894FE
:10038000DEBF0FBECDBFDF91CF910895CF93DF9336
:1003900000D0CDB7DEB789836A838A81882329F4A8
:1003A00060E089810E94E7580CC08A81813029F47D
:1003B00061E089810E94E75804C062E089810E945F
:1003C000E75800000F900F90DF91CF910895CF93E1
:1003D000DF9300D0CDB7DEB789836A838A81882313
:1003E00029F061E089810E94115A04C060E089818E
:1003F0000E94115A00000F900F90DF91CF91089545
:10040000CF93DF9300D000D000D0CDB7DEB79C8370
:100410008B837E836D831A82198289819A812696C5
:100420000FB6F894DEBF0FBECDBFDF91CF91089518
:10043000CF93DF93CDB7DEB728970FB6F894DEBF22
:100440000FBECDBF9E838D8378876F831C821B82F6
:100450008D819E81892B19F48FEF9FEFB6C08F811C
:100460009885892B19F48FEF9FEFAFC080912602FA
:1004700090912702A0912802B09129028E3F9F4FB0
:10048000AF4FBF4F81F48F819885FC0180819181AE
:10049000A281B3818093260290932702A093280221
:1004A000B09329020FC08091260290912702A0915B
:1004B0002802B09129022F813885F9018083918328
:1004C000A283B3838091260290912702A0912802F3
:1004D000B09129028D819E81FC0182819381FC0172
:1004E00080819181A281B38180935A0390935B03B1
:1004F000A0935C03B0935D038D819E81FC0182819A
:100500009381FC0184819581A681B78180935E03EC
:1005100090935F03A0936003B09361038D819E81EC
:10052000FC0182819381FC0180859185A285B38540
:100530008093620390936303A0936403B093650375
:100540008D819E81FC0182819381FC01848595854A
:10055000A685B7858093660390936703A09368038D
:10056000B093690310926A0310926B0310926C03AC
:1005700010926D030E94E9171A8219821A82198259
:1005800010C089819A81880F991F8B5E9C4F24E14E
:1005900038E1FC013183208389819A8101969A8315
:1005A000898389819A81029760F30E94DB129C8380
:1005B0008B838B819C81892B31F481E090E0909337
:1005C0005903809358038B819C8128960FB6F89429
:1005D000DEBF0FBECDBFDF91CF910895CF93DF93E4
:1005E000CDB7DEB72C970FB6F894DEBF0FBECDBFE8
:1005F00069877A878B879C871A8219821B821C8263
:100600001D821E821F829091560381E0992309F07A
:1006100080E0888782E090E09093590380935803AC
:1006200089859A85AB85BC85892B8A2B8B2B59F4C0
:1006300080915603882339F480915703882319F455
:1006400081E090E002C080E090E08F8331C06AE0FA
:1006500070E080E090E00E94A2578B819C81AD8188
:10066000BE81805F984DAF4FBF4F8B839C83AD831E
:10067000BE8389859A85AB85BC858F3F9F4FAF4FE1
:10068000BF4F81F02B813C814D815E8189859A85A8
:10069000AB85BC8582179307A407B50718F481E0E2
:1006A00090E002C080E090E08F8380E00E943413ED
:1006B00080915603882339F480915703882319F4D5
:1006C0008F81882321F283E090E0909359038093F7
:1006D00058038F81882321F08CE99FEF9A838983C7
:1006E0008885882311F00E94111989819A812C969E
:1006F0000FB6F894DEBF0FBECDBFDF91CF91089546
:10070000CF93DF93CDB7DEB761970FB6F894DEBF16
:100710000FBECDBF9D878C874E875F87688B798B97
:100720001A82198281E08B838C859D858F3F91058C
:1007300021F018F08FEF9FEF63C0809158039091E4
:100740005903039731F08091580390915903019711
:1007500031F484E090E090935903809358038C85A2
:100760009D85029708F58C859D85880F991F8B5E66
:100770009C4FFC0180819181892BB1F00E94D01D9A
:100780009D838C838C819D81029771F48C859D85DE
:10079000880F991F8B5E9C4FFC01208131818C85D5
:1007A0009D85F90109958B838C859D859F838E831B
:1007B0002C853D858E859F85A889B989A901BC01B5
:1007C000CD010E94B712DC01CB0188879987AA87E7
:1007D000BB878B81882371F088859985AA85BB8525
:1007E0002E813F81AC01BD01C9010E949E1D9A83EB
:1007F000898304C08E819F810E94131E89819A8102
:1008000061960FB6F894DEBF0FBECDBFDF91CF91DA
:100810000895CF93DF9300D0CDB7DEB71A82198247
:1008200080E00E9434139A83898389819A810F9092
:100830000F90DF91CF910895CF93DF9300D0CDB784
:10084000DEB71A82198286E090E090935903809374
:1008500058030E94C4139A83898344E050E060E007
:1008600070E085E193E00E9447600E94A318109217
:1008700059031092580389819A810F900F90DF914C
:10088000CF910895CF93DF93CDB7DEB78091570313
:10089000DF91CF910895CF93DF93CDB7DEB78091ED
:1008A0006E03DF91CF910895CF93DF9300D000D0F6
:1008B000CDB7DEB769837A838B839C8389819A81E4
:1008C000AB81BC818093260290932702A0932802DB
:1008D000B093290280E090E00F900F900F900F905E
:1008E000DF91CF910895CF93DF93CDB7DEB72897EF
:1008F0000FB6F894DEBF0FBECDBF6D837E838F83AE
:1009000098878D819E81AF81B885BF7720E030E0E8
:1009100040E859E5BC01CD010E94365588230CF012
:1009200056C020E030E040E05FE36D817E818F8142
:1009300098850E946B568823BCF020E030E040E0B0
:100940005FE36D817E818F8198850E94BF54DC01B9
:10095000CB01BC01CD010E94A355DC01CB018983F1
:100960009A83AB83BC833BC020E030E040E05FEB88
:100970006D817E818F8198850E946B56181684F454
:1009800020E030E0A9016D817E818F8198850E94F1
:100990006F56DC01CB0189839A83AB83BC831FC074
:1009A00020E030E040E05FE36D817E818F819885BB
:1009B0000E94BE54DC01CB01BC01CD010E94235535
:1009C000DC01CB0189839A83AB83BC8308C08D8112
:1009D0009E81AF81B88589839A83AB83BC838981EB
:1009E0009A81AB81BC81BC01CD0128960FB6F894E9
:1009F000DEBF0FBECDBFDF91CF9108958F929F9242
:100A0000AF92BF92CF92DF92EF92FF920F931F931C
:100A1000CF93DF93CDB7DEB7E3970FB6F894DEBF81
:100A20000FBECDBF80910A07082E000C990B99A329
:100A300088A3198E188E88A199A182309105B1F0F2
:100A40008330910528F4009749F0019751F019C0BF
:100A50008330910581F0049789F013C0198E188EA8
:100A60000FC083E090E0998F888F0AC083E090E008
:100A7000998F888F05C0198E188E02C0198E188E16
:100A80000000888D80930A0780910907082E000CCA
:100A9000990B9BA38AA31B8E1A8E8AA19BA18230DD
:100AA0009105B1F08330910528F4009749F0019742
:100AB00051F019C08330910581F0049789F013C07B
:100AC0001B8E1A8E0FC083E090E09B8F8A8F0AC026
:100AD00083E090E09B8F8A8F05C01B8E1A8E02C028
:100AE0001B8E1A8E00008A8D809309076EE070E0DD
:100AF00080E090E09BDB9093DE068093DD068091A2
:100B0000DD069091DE069E012E5C3F4F43E050E0F3
:100B1000B9012EDBC090B001D090B101E090B201DC
:100B2000F090B3018AA99BA9CC01A0E0B0E0BC0180
:100B3000CD010E946655DC01CB019C01AD01C701CE
:100B4000B6010E946F56DC01CB0180937F06909323
:100B50008006A0938106B09382068091AC019091AB
:100B6000AD01A091AE01B091AF018093B706909313
:100B7000B806A093B906B093BA0680917F0690910B
:100B80008006A0918106B09182068093BB06909367
:100B9000BC06A093BD06B093BE0680910B078823C8
:100BA00009F440C08091BC019091BD01A091BE01AB
:100BB000B091BF018093EF069093F006A093F106E9
:100BC000B093F2068091C0019091C101A091C20141
:100BD000B091C3018093F3069093F406A093F506B9
:100BE000B093F6068091C4019091C501A091C60111
:100BF000B091C7018093F7069093F806A093F90689
:100C0000B093FA068091C8019091C901A091CA01E0
:100C1000B091CB018093FB069093FC06A093FD0658
:100C2000B093FE0680912402882309F43EC481E03B
:100C3000809311071092CB061092CC061092CD062D
:100C40001092CE06198A1A8A1B8A1C8A1E8A1D8A4D
:100C500074C08D899E890696880F991F880F991FE9
:100C60008952994FFC0180819181A281B3818EA329
:100C70009FA3A8A7B9A78D899E89880F991F99ABB3
:100C800088ABC090CB06D090CC06E090CD06F0901B
:100C9000CE0688A999A94B96880F991F880F991F8E
:100CA00080509F4FFC0180819181A281B3812EA150
:100CB0003FA148A559A5BC01CD010E946F56DC019A
:100CC000CB019C01AD01C701B6010E94BF54DC01FC
:100CD000CB018093CB069093CC06A093CD06B09326
:100CE000CE0688A999A901964B96880F991F880F5F
:100CF000991F80509F4FFC0180819181A281B38117
:100D00002EA13FA148A559A5BC01CD010E946F5657
:100D1000DC01CB019C01AD0169897A898B899C89B1
:100D20000E94BF54DC01CB01898B9A8BAB8BBC8BAF
:100D30008D899E8901969E8B8D8B8D899E890497C6
:100D40000CF487CFC090AC01D090AD01E090AE0123
:100D5000F090AF018091B4019091B501A091B601DE
:100D6000B091B7012091AC013091AD014091AE013D
:100D70005091AF01BC01CD010E946F56DC01CB0147
:100D80004C015D018091CB069091CC06A091CD06DF
:100D9000B091CE069C01AD01C501B4010E94BF54C3
:100DA000DC01CB019C01AD01C701B6010E94BE541C
:100DB000DC01CB018093BF069093C006A093C106CF
:100DC000B093C206C0907F06D0908006E090810666
:100DD000F09082068091B8019091B901A091BA017A
:100DE000B091BB012091AC013091AD014091AE01B9
:100DF0005091AF01BC01CD010E946F56DC01CB01C7
:100E000029893A894B895C89BC01CD010E94BF5474
:100E1000DC01CB019C01AD01C701B6010E94BE54AB
:100E2000DC01CB018093C3069093C406A093C50652
:100E3000B093C6061092CB061092CC061092CD0647
:100E40001092CE06198A1A8A1B8A1C8A1092C7062B
:100E50001092C8061092C9061092CA061D861E86F8
:100E60001F86188A1E8A1D8ACEC08D899E8940964B
:100E7000880F991F880F991F8158994FFC01808115
:100E80009181A281B3818EA39FA3A8A7B9A78D89C1
:100E90009E89880F991F880F991F99AB88ABC090C6
:100EA000CB06D090CC06E090CD06F090CE0688A977
:100EB00099A98396880F991F880F991F80509F4F7B
:100EC000FC0180819181A281B3812EA13FA148A51F
:100ED00059A5BC01CD010E946F56DC01CB019C01DC
:100EE000AD01C701B6010E94BF54DC01CB01809364
:100EF000CB069093CC06A093CD06B093CE0688A9DE
:100F000099A901968396880F991F880F991F805081
:100F10009F4FFC0180819181A281B3812EA13FA1CD
:100F200048A559A5BC01CD010E946F56DC01CB013B
:100F30009C01AD0169897A898B899C890E94BF5483
:100F4000DC01CB01898B9A8BAB8BBC8BC090C70625
:100F5000D090C806E090C906F090CA0688A999A961
:100F600002968396880F991F880F991F80509F4F74
:100F7000FC0180819181A281B3812EA13FA148A56E
:100F800059A5BC01CD010E946F56DC01CB019C012B
:100F9000AD01C701B6010E94BF54DC01CB018093B3
:100FA000C7069093C806A093C906B093CA0688A93D
:100FB00099A903968396880F991F880F991F8050CF
:100FC0009F4FFC0180819181A281B3812EA13FA11D
:100FD00048A559A5BC01CD010E946F56DC01CB018B
:100FE0009C01AD016D857E858F8598890E94BF54D7
:100FF000DC01CB018D879E87AF87B88B8D899E8959
:1010000001969E8B8D8B8D899E8902970CF42DCF36
:101010008D859E85AF85B8898093B3069093B4067D
:10102000A093B506B093B6068091C7069091C80606
:10103000A091C906B091CA068093AF069093B006FE
:10104000A093B106B093B20689899A89AB89BC890D
:101050008093AB069093AC06A093AD06B093AE061A
:101060008091CB069091CC06A091CD06B091CE0692
:101070008093A7069093A806A093A906B093AA060A
:1010800080910A07082E000C990B9DA38CA38CA1BC
:101090009DA19D8F8C8F8CA19DA18330910518F40B
:1010A000019768F403C0039731F009C082E090E033
:1010B0009D8F8C8F04C081E090E09D8F8C8F00000D
:1010C0008C8D80930A0781E0809310078091F3064E
:1010D0009091F406A091F506B091F6068EA39FA319
:1010E000A8A7B9A78091EF069091F006A091F1060C
:1010F000B091F2068093CB069093CC06A093CD06D8
:10110000B093CE068091F7069091F806A091F9066B
:10111000B091FA06898B9A8BAB8BBC8B8091FB06C6
:101120009091FC06A091FD06B091FE068093C70643
:101130009093C806A093C906B093CA061D861E8662
:101140001F86188A19821A821B821C821D821E82A7
:101150001F82188619861A861B861C861E8A1D8A7F
:101160004BC18D899E890E96880F991F880F991FF4
:101170008158994FFC01C080D180E280F3808D8935
:101180009E8902964B96880F991F880F991F805051
:101190009F4FFC0180819181A281B3812EA13FA14B
:1011A00048A559A5BC01CD010E946F56DC01CB01B9
:1011B0004C015D018D899E894B96880F991F880F80
:1011C000991F80509F4FFC0180819181A281B38142
:1011D0002091CB063091CC064091CD065091CE06A1
:1011E000BC01CD010E946F56DC01CB019C01AD0119
:1011F000C501B4010E94BF54DC01CB014C015D016B
:101200008D899E8904964B96880F991F880F991F88
:1012100080509F4FFC0180819181A281B3812989F7
:101220003A894B895C89BC01CD010E946F56DC0173
:10123000CB019C01AD01C501B4010E94BF54DC018A
:10124000CB014C015D018D899E8906964B96880FD6
:10125000991F880F991F80509F4FFC0180819181B9
:10126000A281B3812091C7063091C8064091C9067A
:101270005091CA06BC01CD010E946F56DC01CB0122
:101280009C01AD01C501B4010E94BF54DC01CB013A
:101290009C01AD01C701B6010E94BE54DC01CB0127
:1012A0008CA79DA7AEA7BFA78D899E89880F991F80
:1012B000880F991F99AB88AB88A999A94396880F85
:1012C000991F880F991F80509F4FFC018081918149
:1012D000A281B3812CA53DA54EA55FA5BC01CD0182
:1012E0000E946F56DC01CB019C01AD016D857E85AE
:1012F0008F8598890E94BF54DC01CB018D879E8722
:10130000AF87B88B88A999A901964396880F991F32
:10131000880F991F80509F4FFC0180819181A2818D
:10132000B3812CA53DA54EA55FA5BC01CD010E94B2
:101330006F56DC01CB019C01AD0169817A818B8103
:101340009C810E94BF54DC01CB0189839A83AB83CB
:10135000BC8388A999A902964396880F991F880F84
:10136000991F80509F4FFC0180819181A281B381A0
:101370002CA53DA54EA55FA5BC01CD010E946F56D1
:10138000DC01CB019C01AD016D817E818F8198854F
:101390000E94BF54DC01CB018D839E83AF83B8874D
:1013A00088A999A903964396880F991F880F991FBA
:1013B00080509F4FFC0180819181A281B3812CA537
:1013C0003DA54EA55FA5BC01CD010E946F56DC0175
:1013D000CB019C01AD0169857A858B859C850E9436
:1013E000BF54DC01CB0189879A87AB87BC878D8985
:1013F0009E8901969E8B8D8B8D899E8902970CF418
:10140000B0CE89859A85AB85BC858093A3069093E1
:10141000A406A093A506B093A6068D819E81AF81F8
:10142000B88580939F069093A006A093A106B093E1
:10143000A20689819A81AB81BC8180939B0690939F
:101440009C06A0939D06B0939E068D859E85AF85D4
:10145000B8898093970690939806A0939906B093C5
:101460009A0680910907082E000C990B9BA78AA762
:101470008AA59BA59F8F8E8F8AA59BA583309105FA
:1014800018F4019768F403C0039731F009C082E0B3
:1014900090E09F8F8E8F04C081E090E09F8F8E8FB1
:1014A00000008E8D809309078EC0809111078823DC
:1014B00009F442C08091040190910501A0910601B8
:1014C000B09107018093A7069093A806A093A90660
:1014D000B093AA068091040190910501A0910601A4
:1014E000B09107018093AB069093AC06A093AD0634
:1014F000B093AE068091040190910501A091060180
:10150000B09107018093AF069093B006A093B10607
:10151000B093B2068091040190910501A09106015B
:10152000B09107018093B3069093B406A093B506DB
:10153000B093B6061092110780911007882309F422
:1015400042C08091080190910901A0910A01B091D7
:101550000B018093970690939806A0939906B093F9
:101560009A068091080190910901A0910A01B09119
:101570000B0180939B0690939C06A0939D06B093CD
:101580009E068091080190910901A0910A01B091F5
:101590000B0180939F069093A006A093A106B093A1
:1015A000A2068091080190910901A0910A01B091D1
:1015B0000B018093A3069093A406A093A506B09375
:1015C000A606109210078091970690919806A09118
:1015D0009906B0919A062091EF063091F00640915D
:1015E000F1065091F206BC01CD010E94BF54DC010E
:1015F000CB018093830690938406A0938506B093D5
:10160000860680919B0690919C06A0919D06B091C4
:101610009E062091F3063091F4064091F506509114
:10162000F606BC01CD010E94BF54DC01CB018093C2
:10163000870690938806A0938906B0938A068091C6
:101640009F069091A006A091A106B091A2062091BC
:10165000F7063091F8064091F9065091FA06BC0160
:10166000CD010E94BF54DC01CB0180938B06909387
:101670008C06A0938D06B0938E068091A306909160
:10168000A406A091A506B091A6062091FB06309174
:10169000FC064091FD065091FE06BC01CD010E9462
:1016A000BF54DC01CB0180938F0690939006A093EA
:1016B0009106B093920680917F0690918006A0914A
:1016C0008106B09182068093CF069093D006A093B6
:1016D000D106B093D20680917F0690918006A091AA
:1016E0008106B09182062091DC013091DD014091AC
:1016F000DE015091DF01BC01CD010E946F56DC017B
:10170000CB018093C7069093C806A093C906B093F7
:10171000CA068091C7069091C806A091C906B091EB
:10172000CA062091FF0630910007409101075091B1
:101730000207BC01CD010E94BE54DC01CB018093A5
:10174000930690939406A0939506B0939606809185
:10175000930690919406A0919506B0919606809379
:10176000D3069093D406A093D506B093D6068FEFF8
:101770009FEFDC018093050790930607A09307076E
:10178000B09308078091200290912102A09122023B
:10179000B0912302BC01CD01A6D8DC01CB018EA300
:1017A0009FA3A8A7B9A720E030E040E853E46EA1CA
:1017B0007FA188A599A50E9436558823BCF420E016
:1017C00030E0A9016EA17FA188A599A50E946B5662
:1017D000882354F06EA17FA188A599A50E943A554F
:1017E000DC01CB018F8B04C01F8A02C08FEF8F8B6F
:1017F0006F8987E00E94E70120E030E040E853E491
:101800006EA17FA188A599A50E9436558823BCF4B6
:1018100020E030E0A9016EA17FA188A599A50E94D2
:101820006B56882354F06EA17FA188A599A50E94CC
:101830003A55DC01CB018F8B04C01F8A02C08FEFA9
:101840008F8B6F8988E00E94E70110920B0710923E
:10185000CB061092CC061092CD061092CE06198AB5
:101860001A8A1B8A1C8A1D861E861F86188A198260
:101870001A821B821C821E8A1D8AC4C08D899E8981
:101880000696880F991F880F991F8952994FFC015E
:1018900080819181A281B3818EA39FA3A8A7B9A7BC
:1018A0008D899E89880F991F880F991F99AB88ABE6
:1018B000C090CB06D090CC06E090CD06F090CE063E
:1018C00088A999A90396880F991F880F991F80509E
:1018D0009F4FFC0180819181A281B3812EA13FA104
:1018E00048A559A5BC01CD010E946F56DC01CB0172
:1018F0009C01AD01C701B6010E94BF54DC01CB01C0
:101900008093CB069093CC06A093CD06B093CE06E1
:1019100088A999A901960396880F991F880F991F86
:1019200080509F4FFC0180819181A281B3812EA1C3
:101930003FA148A559A5BC01CD010E946F56DC010D
:10194000CB019C01AD0169897A898B899C890E94B0
:10195000BF54DC01CB01898B9A8BAB8BBC8B88A9E4
:1019600099A902960396880F991F880F991F805096
:101970009F4FFC0180819181A281B3812EA13FA163
:1019800048A559A5BC01CD010E946F56DC01CB01D1
:101990009C01AD016D857E858F8598890E94BF541D
:1019A000DC01CB018D879E87AF87B88B88A999A969
:1019B00003960396880F991F880F991F80509F4F99
:1019C000FC0180819181A281B3812EA13FA148A514
:1019D00059A5BC01CD010E946F56DC01CB019C01D1
:1019E000AD0169817A818B819C810E94BF54DC01A9
:1019F000CB0189839A83AB83BC838D899E890196B1
:101A00009E8B8D8B8D899E8904970CF437CF8091A6
:101A1000CC019091CD01A091CE01B091CF01209148
:101A2000AC013091AD014091AE015091AF01BC01CC
:101A3000CD010E946F56DC01CB017C018D018091AC
:101A4000CB069091CC06A091CD06B091CE069C011C
:101A5000AD01C801B7010E94BF54DC01CB017C017C
:101A60008D018091A7069091A806A091A906B0913A
:101A7000AA069C01AD01C801B7010E94BF54DC0158
:101A8000CB018093EF069093F006A093F106B093FC
:101A9000F2068091D0019091D101A091D201B09134
:101AA000D3012091AC013091AD014091AE01509134
:101AB000AF01BC01CD010E946F56DC01CB01298929
:101AC0003A894B895C89BC01CD010E94BF54DC017D
:101AD000CB017C018D018091AB069091AC06A09169
:101AE000AD06B091AE069C01AD01C801B7010E94E0
:101AF000BF54DC01CB018093F3069093F406A093CE
:101B0000F506B093F6068091D4019091D501A0918D
:101B1000D601B091D7012091AC013091AD01409137
:101B2000AE015091AF01BC01CD010E946F56DC01A6
:101B3000CB012D853E854F855889BC01CD010E9482
:101B4000BF54DC01CB017C018D018091AF069091E7
:101B5000B006A091B106B091B2069C01AD01C801DA
:101B6000B7010E94BF54DC01CB018093F70690932C
:101B7000F806A093F906B093FA068091D8019091E7
:101B8000D901A091DA01B091DB012091AC01309133
:101B9000AD014091AE015091AF01BC01CD010E9459
:101BA0006F56DC01CB0129813A814B815C81BC01FC
:101BB000CD010E94BF54DC01CB017C018D018091DD
:101BC000B3069091B406A091B506B091B6069C01FB
:101BD000AD01C801B7010E94BF54DC01CB01809365
:101BE000FB069093FC06A093FD06B093FE06809141
:101BF000C7069091C806A091C906B091CA06809305
:101C0000FF0690930007A0930107B093020729E114
:101C100033E0F90186899789A08DB18D0196A11DC8
:101C2000B11DF901868B978BA08FB18F89E193E06D
:101C3000FC0186899789A08DB18D892B8A2B8B2BEE
:101C400079F429E133E0F901828D938DA48DB58D6E
:101C50000196A11DB11DF901828F938FA48FB58FBD
:101C60000000E3960FB6F894DEBF0FBECDBFDF9144
:101C7000CF911F910F91FF90EF90DF90CF90BF9089
:101C8000AF909F908F900895CF93DF93CDB7DEB73D
:101C900089E193E043E250E060E070E00E94476039
:101CA00029E133E080E090E0A0E8BFEBF901868F06
:101CB000978FA0A3B1A329E133E08CEA9DE3A7E1CC
:101CC000B8E8F90184839583A683B78329E133E0DB
:101CD0008EEB9AEAA8EAB5E8F90180879187A28796
:101CE000B38729E133E08DE99CE5ADEFB6E9F90171
:101CF00084879587A687B78729E133E08FE79BED37
:101D0000A4EDBAE0F901808B918BA28BB38B89E1B2
:101D100093E02CE333E0FC013383228388E493E0F7
:101D200090933D0380933C0386E592E090934903B2
:101D30008093480386E592E090934B0380934A0397
:101D400086E592E090934D0380934C038AE097E000
:101D500090934F0380934E0389E097E09093510353
:101D60008093500386E592E090935303809352034F
:101D700086E592E0909355038093540329E133E084
:101D800089E193E0FC01828193812C5E3F4FFC014D
:101D90003583248329E133E089E193E0FC018281EA
:101DA00093812C5F3F4FFC013383228389E193E0D1
:101DB000FC01228133818FEF9FEFDC01F9018087E5
:101DC0009187A287B38740E550E060E070E08FE73D
:101DD00096E00E9447604BE350E060E070E087EDE2
:101DE00096E00E94476048E050E060E070E08FECD1
:101DF00096E00E9447601092D70681E080930F071B
:101E000081E090E0A0E0B0E08093D8069093D906FE
:101E1000A093DA06B093DB066EE070E080E090E01D
:101E20000E9486009093DE068093DD0681E0809319
:101E3000DC0610921107109210071092E70681E05D
:101E400080930D0781E090E0A0E0B0E08093E80689
:101E50009093E906A093EA06B093EB0661E087E071
:101E60000E94C60181E08093EC061092DF0681E0BB
:101E700080930C0781E090E0A0E0B0E08093E00662
:101E80009093E106A093E206B093E30661E088E058
:101E90000E94C60181E08093E40681E080930B07F5
:101EA0008091000190910101A0910201B091030184
:101EB0008093FF0690930007A0930107B093020759
:101EC0008091040190910501A0910601B091070154
:101ED0008093A7069093A806A093A906B093AA069C
:101EE0008091080190910901A0910A01B0910B0124
:101EF0008093970690939806A0939906B0939A06BC
:101F00008091040190910501A0910601B091070113
:101F10008093AB069093AC06A093AD06B093AE064B
:101F20008091080190910901A0910A01B0910B01E3
:101F300080939B0690939C06A0939D06B0939E066B
:101F40008091040190910501A0910601B0910701D3
:101F50008093AF069093B006A093B106B093B206FB
:101F60008091080190910901A0910A01B0910B01A3
:101F700080939F069093A006A093A106B093A2061B
:101F80008091040190910501A0910601B091070193
:101F90008093B3069093B406A093B506B093B606AB
:101FA0008091080190910901A0910A01B0910B0163
:101FB0008093A3069093A406A093A506B093A606CB
:101FC0008FEF9FEFDC018093050790930607A093A6
:101FD0000707B09308070000DF91CF910895CF93D2
:101FE000DF93CDB7DEB78091D706882319F581E05E
:101FF0008093D7068091D8069091D906A091DA06F1
:10200000B091DB060197A105B105A1F48091DC0632
:10201000882381F06EE070E080E090E00E9416017D
:102020009093DE068093DD068091DD069091DE06BA
:102030000E94F0008091E706882319F481E08093E4
:10204000E7068091DF06882319F481E08093DF069C
:102050000000DF91CF9108950F931F93CF93DF93EB
:10206000CDB7DEB72A970FB6F894DEBF0FBECDBF4F
:102070009A8389834B835C836D837E830F83188768
:1020800029873A8729813A818B819C81AD81BE81E4
:10209000F90180839183A283B38389819A819C0112
:1020A0002C5F3F4F8F819885A985BA85F901808380
:1020B0009183A283B38300002A960FB6F894DEBF03
:1020C0000FBECDBFDF91CF911F910F910895EF9279
:1020D000FF920F931F93CF93DF93CDB7DEB76A972D
:1020E0000FB6F894DEBF0FBECDBF6D8B7E8B8F8B8E
:1020F000988F5A8F498F19821A821B821C82F894FA
:10210000898D9A8D892B09F00BC180918303909161
:102110008403A0918503B09186032D893E894F8960
:10212000588D281739074A075B07C8F08091830349
:1021300090918403A0918503B09186032D893E89F7
:102140004F89588D79018A01E81AF90A0A0B1B0B8D
:10215000D801C7018D839E83AF83B88718C0809153
:10216000830390918403A0918503B09186032D8908
:102170003E894F89588D79018A01E81AF90A0A0BBC
:102180001B0BD801C7018D839E83AF83B8878091D5
:10219000870390918803A0918903B0918A032D81D0
:1021A0003E814F815885820F931FA41FB51F898BD5
:1021B0009A8BAB8BBC8B8091870390918803A09105
:1021C0008903B0918A0329893A894B895C89281748
:1021D00039074A075B0798F480918B0390918C0331
:1021E000A0918D03B0918E030196A11DB11D809326
:1021F0008B0390938C03A0938D03B0938E038989F6
:102200009A89AB89BC898093870390938803A093B4
:102210008903B0938A0320918B0330918C03409102
:102220008D0350918E038091870390918803A09134
:102230008903B0918A0389019A01AC01BD018BE742
:1022400093E00ADF8D899E89AF89B88D80938303DF
:1022500090938403A0938503B09386032D813E81E0
:102260004F81588580E197E2DC010E9421609B014B
:10227000AC0180918F0390919003A0919103B09154
:102280009203820F931FA41FB51F80938F03909317
:102290009003A0939103B093920380918F03909148
:1022A0009003A0919103B091920389839A83AB83A9
:1022B000BC838091260290912702A0912802B091C0
:1022C00029028F3F9F4FAF4FBF4F09F43CC1809110
:1022D000260290912702A0912802B09129028E3FF8
:1022E0009F4FAF4FBF4F09F42EC12091870330910C
:1022F00088034091890350918A038091260290912E
:102300002702A0912802B091290261E0281739071D
:102310004A075B0708F460E0862F80936E0313C1C1
:1023200019861A861B861C861D861E861F86188A9D
:1023300080912A0290912B02A0912C02B0912D0243
:102340008F3F9F4FAF4FBF4FE1F080912A02909196
:102350002B02A0912C02B0912D029C01AD012F5FA8
:102360003F4F4F4F5F4F8D899E89AF89B88DBC011C
:10237000CD010E94F95FDC01CB018D8B9E8BAF8B71
:10238000B88F8091830390918403A0918503B091CD
:1023900086032D893E894F89588D281739074A07AA
:1023A0005B0708F447C08091830390918403A09158
:1023B0008503B09186032D893E894F89588D790117
:1023C0008A01E81AF90A0A0B1B0BD801C701898791
:1023D0009A87AB87BC872091830330918403409117
:1023E0008503509186038D899E89AF89B88D7901C7
:1023F0008A01E81AF90A0A0B1B0BD801C7018D875D
:102400009E87AF87B88B2D853E854F8558898985F6
:102410009A85AB85BC8582179307A407B50728F07A
:1024200019861A861B861C864BC01D861E861F8633
:10243000188A46C08091830390918403A0918503FC
:10244000B09186032D893E894F89588D79018A0183
:10245000E81AF90A0A0B1B0BD801C70189879A876A
:10246000AB87BC872091830330918403409185031F
:10247000509186038D899E89AF89B88D79018A0133
:10248000E81AF90A0A0B1B0BD801C7018D879E8732
:10249000AF87B88B2D853E854F85588989859A856C
:1024A000AB85BC8582179307A407B50728F019866A
:1024B0001A861B861C8604C01D861E861F86188AE7
:1024C00089859A85AB85BC85892B8A2B8B2BE1F07E
:1024D00029853A854B855C8580E197E2DC010E9485
:1024E00021609B01AC0180918F0390919003A0919A
:1024F0009103B0919203820F931FA41FB51F89838C
:102500009A83AB83BC831FC0E0908F03F09090034D
:1025100000919103109192032D853E854F85588936
:1025200080E197E2DC010E942160DC01CB01A8017F
:102530009701281B390B4A0B5B0BDA01C901898310
:102540009A83AB83BC83789489819A81AB81BC8167
:10255000BC01CD016A960FB6F894DEBF0FBECDBFA9
:10256000DF91CF911F910F91FF90EF900895CF933E
:10257000DF9300D000D000D0CDB7DEB769837A8377
:102580008B839C835E834D832D813E8189819A81DB
:10259000AB81BC81A901BC01CD0199DDDC01CB017E
:1025A000BC01CD0126960FB6F894DEBF0FBECDBF9D
:1025B000DF91CF910895CF93DF9300D000D000D06A
:1025C000CDB7DEB71C821B821E821D821A82198241
:1025D00010926F03109270031092710310927203A5
:1025E0001092730310927403109275031092760385
:1025F00010927703109278031092790310927A0365
:102600009E012B5F3F4FCE010396B9010E9472508D
:102610002D813E818B819C81B9010E94E03D9A838E
:10262000898389819A81892B19F089819A8113C0C4
:102630009E012B5F3F4FCE010396B9010E94965039
:102640002D813E818B819C81B9010E94721C9A83ED
:10265000898389819A8126960FB6F894DEBF0FBED2
:10266000CDBFDF91CF910895CF93DF9300D000D0FD
:102670001F92CDB7DEB78D831A8219821B8260E06C
:1026800070E0CB010E94A2571C820E94AC3F9A834B
:10269000898389819A81892B39F089819A8102966F
:1026A00019F081E08B830DC08C81882321F489810E
:1026B0009A81029619F081E090E002C080E090E0FB
:1026C0008C838B818823E1F40E94A51C9A838983E3
:1026D00089819A81892B39F089819A81029619F032
:1026E00081E08B830DC08C81882321F489819A81BC
:1026F000029619F081E090E002C080E090E08C83C7
:102700008B818823E1F40E94353F9A8389838981F4
:102710009A81892B39F089819A81029619F081E09A
:102720008B830DC08C81882321F489819A81029644
:1027300019F081E090E002C080E090E08C838D8110
:10274000882391F060E070E0CB010E94A2578B815A
:10275000882319F48C81882319F481E090E002C069
:1027600080E090E08B8302C081E08B838B818823A3
:1027700009F48ACF89819A810F900F900F900F9062
:102780000F90DF91CF910895CF93DF93CDB7DEB750
:1027900028970FB6F894DEBF0FBECDBF18861F82F4
:1027A00080916E03882329F060E070E0CB010E94E5
:1027B000F31D0E94D01D9E838D8319821A821B8275
:1027C0001C8218C06AE070E080E090E00E94A2578E
:1027D00089819A81AB81BC81805F984DAF4FBF4F9B
:1027E00089839A83AB83BC8381E03EDF0E94D01D46
:1027F0009E838D8389819A81AB81BC8181159748A5
:10280000A349B34020F48D819E81892BD9F60E9483
:10281000DB1D98878F830E94474198878F83109292
:1028200056031092570310925A0310925B031092B2
:102830005C0310925D0310925E0310925F0310928E
:10284000600310926103109262031092630310926E
:10285000640310926503109266031092670310924E
:1028600068031092690310926A0310926B0310922E
:102870006C0310926D038EEF9FEFAFEFBFEF80936D
:10288000260290932702A0932802B0932902109267
:102890006E0348E050E060E070E08BE793E00E9458
:1028A0004760109283031092840310928503109264
:1028B0008603109287031092880310928903109266
:1028C0008A0310928B0310928C0310928D03109246
:1028D0008E0310928F031092900310929103109226
:1028E00092038F81988528960FB6F894DEBF0FBEAD
:1028F000CDBFDF91CF910895CF93DF93CDB7DEB7F2
:1029000028970FB6F894DEBF0FBECDBF8091950318
:1029100090919603A0919703B09198039A8389832D
:1029200089819A81892B09F431C180919903882387
:1029300069F48091950390919603A0919703B091CB
:102940009803892B8A2B8B2B09F420C18091AD032E
:102950009091AE03029709F019C18091B7038823C3
:1029600009F014C189819A81FC0180819181A28141
:10297000B3818B839C83AD83BE838091B303882313
:1029800009F4F0C08091A6039091A703892B31F040
:102990008091A6039091A703029719F481E090E03B
:1029A00002C080E090E08F838091A6039091A703FE
:1029B000019731F08091A6039091A703029719F433
:1029C00081E090E002C080E090E088878F818823DA
:1029D00009F462C080919A0390919B03A0919C039B
:1029E000B0919D039C01AD016B817C818D819E81A5
:1029F0000E946B568823B4F08091AF039091B0038E
:102A0000A091B103B091B20320919A0330919B033E
:102A100040919C0350919D03BC01CD010E9436550D
:102A2000882344F180919A0390919B03A0919C0389
:102A3000B0919D039C01AD016B817C818D819E8154
:102A40000E946B56181644F58091AF039091B00325
:102A5000A091B103B091B20320919A0330919B03EE
:102A600040919C0350919D03BC01CD010E943655BD
:102A7000882391F48091A2039091A303A091A403D1
:102A8000B091A503892B8A2B8B2B19F481E08093BD
:102A9000B60381E08093B7038885882309F462C078
:102AA00080919A0390919B03A0919C03B0919D0308
:102AB0009C01AD016B817C818D819E810E94365588
:102AC0008823B4F48091AF039091B003A091B10337
:102AD000B091B20320919A0330919B0340919C03E3
:102AE00050919D03BC01CD010E946B56882344F593
:102AF00080919A0390919B03A0919C03B0919D03B8
:102B00009C01AD016B817C818D819E810E94365537
:102B1000882341F58091AF039091B003A091B10358
:102B2000B091B20320919A0330919B0340919C0392
:102B300050919D03BC01CD010E946B56181694F470
:102B40008091A2039091A303A091A403B091A50347
:102B5000892B8A2B8B2B19F481E08093B60381E0BB
:102B60008093B7039091B70381E0992309F080E047
:102B70008093B3038B819C81AD81BE818093AF0331
:102B80009093B003A093B103B093B20300002896D2
:102B90000FB6F894DEBF0FBECDBFDF91CF91089581
:102BA000CF93DF931F92CDB7DEB719828091AD032B
:102BB0009091AE03892BC9F41092A8031092B70329
:102BC00080913202882371F182E090E09093AE030D
:102BD0008093AD03109232028091A9039091AA03D1
:102BE000892B01F581E089831DC01092320280910A
:102BF000A803882349F01092B6031092AE031092F6
:102C0000AD031092A8030EC08091A9039091AA036E
:102C1000892B19F481E0898305C08091B7038983EA
:102C20001092B7038091AD039091AE03823091056D
:102C3000F9F08330910530F4009761F0019709F4C1
:102C40004CC1AEC18330910509F4EEC0049709F47C
:102C50006AC0A6C180913202882309F4ACC182E027
:102C600090E09093AE038093AD0310923202A3C123
:102C70008981882309F4A1C18091A2039091A303C3
:102C8000A091A403B091A503181619061A061B06F5
:102C9000ECF48091A9039091AA030197B9F4809173
:102CA000A2039091A303A091A403B091A5038093E4
:102CB000B8039093B903A093BA03B093BB0383E026
:102CC00090E09093AE038093AD0377C180912E0284
:102CD00090912F02A0913002B0913102892B8A2B62
:102CE0008B2BD1F081E08093B60380912E029091DE
:102CF0002F02A0913002B09131028093B8039093DB
:102D0000B903A093BA03B093BB0384E090E090931F
:102D1000AE038093AD0351C11092B6031092AE037F
:102D20001092AD034AC18091B8039091B903A0916C
:102D3000BA03B091BB03892B8A2B8B2B99F080911E
:102D4000B8039091B903A091BA03B091BB03019766
:102D5000A109B1098093B8039093B903A093BA0372
:102D6000B093BB038091B8039091B903A091BA03CB
:102D7000B091BB03892B8A2B8B2B09F020C180914A
:102D8000AB039091AC03019739F41092B603109203
:102D9000AE031092AD0313C180919E0390919F03E7
:102DA000A091A003B091A103892B8A2B8B2BC9F092
:102DB0001092B60380919E0390919F03A091A0036F
:102DC000B091A1038093B8039093B903A093BA0381
:102DD000B093BB0381E090E09093AE038093AD038A
:102DE000EEC089818823B9F080912E0290912F0244
:102DF000A0913002B09131028093B8039093B9034F
:102E0000A093BA03B093BB0384E090E09093AE0329
:102E10008093AD03D4C01092B60382E090E090930B
:102E2000AE038093AD03CBC08091B8039091B903FA
:102E3000A091BA03B091BB03892B8A2B8B2B99F0FD
:102E40008091B8039091B903A091BA03B091BB03EC
:102E50000197A109B1098093B8039093B903A09396
:102E6000BA03B093BB038091B8039091B903A091CA
:102E7000BA03B091BB03892B8A2B8B2B09F0A1C01D
:102E800080912E0290912F02A0913002B0913102D8
:102E9000892B8A2B8B2BD1F081E08093B603809114
:102EA0002E0290912F02A0913002B09131028093B6
:102EB000B8039093B903A093BA03B093BB0384E023
:102EC00090E09093AE038093AD037BC01092B60365
:102ED0001092AE031092AD0374C08091B80390912C
:102EE000B903A091BA03B091BB03892B8A2B8B2B1A
:102EF00099F08091B8039091B903A091BA03B09171
:102F0000BB030197A109B1098093B8039093B9035A
:102F1000A093BA03B093BB038091B8039091B90317
:102F2000A091BA03B091BB03892B8A2B8B2B09F09C
:102F30004AC08981882369F180912E0290912F02E5
:102F4000A0913002B0913102892B8A2B8B2BD1F0CA
:102F500081E08093B60380912E0290912F02A09180
:102F60003002B09131028093B8039093B903A093DB
:102F7000BA03B093BB0384E090E09093AE038093D8
:102F8000AD0321C01092B6031092AE031092AD03B0
:102F90001AC082E090E09093AE038093AD0313C01B
:102FA0001092B6031092B7031092A8031092AE03CA
:102FB0001092AD0309C0000007C0000005C000006A
:102FC00003C0000001C0000000000F90DF91CF910E
:102FD0000895CF93DF93CDB7DEB71092AF03109271
:102FE000B0031092B1031092B2031092B303809118
:102FF000A9039091AA039093B5038093B403109210
:10300000B6031092B7031092B8031092B90310924E
:10301000BA031092BB031092AE031092AD0380E08E
:1030200090E0DF91CF910895CF93DF9300D01F926E
:10303000CDB7DEB79B838A838A819B81892B09F078
:103040005BC02091A9033091AA038091B4039091B1
:10305000B50341E02817390709F440E0498380911E
:10306000A9039091AA039093B5038093B403898137
:10307000882381F01092B6031092B7031092B80320
:103080001092B9031092BA031092BB031092AE03D0
:103090001092AD038091A9039091AA03019761F565
:1030A0008091AD039091AE03892B21F4809132027F
:1030B000882391F48091AD039091AE030197E1F4E0
:1030C0008091B8039091B903A091BA03B091BB036A
:1030D0000197A105B10581F41092B8031092B903CC
:1030E0001092BA031092BB031092320282E090E079
:1030F0009093AE038093AD038091A9039091AA03AE
:10310000019751F480919303909194032A813B811C
:103110002817390709F4F0DB8A819B81892B21F478
:103120003FDD1092BD0307C08091BD03882319F0D5
:103130008091BC0302C08091B6030F900F900F9056
:10314000DF91CF910895CF93DF93CDB7DEB7109283
:10315000AF031092B0031092B1031092B203109219
:10316000B3031092AE031092AD031092B503109208
:10317000B40310929403109293031092B60310922A
:10318000B7031092B8031092B9031092BA031092C9
:10319000BB031092BC031092BD03109295031092D2
:1031A000960310929703109298031092990310922D
:1031B0009A0310929B0310929C0310929D0388EE39
:1031C00093E0A0E0B0E080932E0290932F02A093B2
:1031D0003002B093310210929E0310929F0310921E
:1031E000A0031092A1031092A2031092A3031092C5
:1031F000A4031092A5031092A7031092A60381E0E6
:10320000809332021092A8031092AA031092A9038D
:103210001092AC031092AB0380E090E0DF91CF916D
:103220000895CF93DF93CDB7DEB78091A903909136
:10323000AA03892B01F580913202882359F08091ED
:10324000A803882339F481E08093BC0381E0809354
:10325000BD0311C08091A803882351F080913202F0
:10326000882331F41092BC0381E08093BD0303C036
:103270001092BD0300C00000DF91CF910895CF935D
:10328000DF93CDB7DEB72C970FB6F894DEBF0FBE35
:10329000CDBF9E838D8378876F835A8749873C870C
:1032A0002B871A8219820E943C419C838B838D81DB
:1032B0009E81FC01808191810E941C448B859C85AC
:1032C00060E070E00E94A5409C018F819885FC0120
:1032D000318320830E948C409C0189859A85FC0162
:1032E000318320838F819885FC0180819181892B96
:1032F000E1F08F819885FC01208131818B819C8157
:10330000B9010E9472489C018D819E81FC0131832C
:1033100020838D819E81FC0180819181892B49F4DC
:1033200086EF9FEF9A83898304C088EF9FEF9A838B
:10333000898389819A812C960FB6F894DEBF0FBEDF
:10334000CDBFDF91CF910895CF93DF9300D000D010
:1033500000D0CDB7DEB79A8389837C836B835E838D
:103360004D8389819A81892B21F089819A810E94DC
:103370001C448D819E81FC011182108280E090E0CE
:1033800026960FB6F894DEBF0FBECDBFDF91CF916A
:103390000895CF93DF9300D000D000D0CDB7DEB733
:1033A0009A8389837C836B835E834D838D819E8129
:1033B00022E030E0FC01318320838FEF9FEF2696DF
:1033C0000FB6F894DEBF0FBECDBFDF91CF91089549
:1033D000CF93DF9300D000D0CDB7DEB78B836C8363
:1033E00085E090E09A8389838B81813F18F01A826F
:1033F000198229C08B81843E40F08B81813F28F463
:1034000081E090E09A8389831EC08B81833D18F010
:103410008B81833E48F08B81803C59F48C818823DA
:1034200041F08C81833028F482E090E09A83898394
:103430000AC08B81883C38F08B81833D20F483E087
:1034400090E09A83898389819A810F900F900F90E1
:103450000F90DF91CF910895CF93DF93CDB7DEB773
:1034600067970FB6F894DEBF0FBECDBF998B888BE0
:103470007B8B6A8B5D8B4C8B3F8B2E8B88899989DC
:103480009C838B838B819C81FC0180818D8319823D
:103490008D81803C49F48A899B89029728F08B8131
:1034A0009C81FC01818189838091BF039091C0033D
:1034B000892B09F455C069818D818ADF9B878A87B2
:1034C0001A828A859B850597C1F18A859B85880F1D
:1034D000991F8B539C4FFC01808191819D878C8724
:1034E0001F861E868C859D85892B39F18D81882FBD
:1034F00090E02C853D85F90109959F878E8721E015
:103500008E859F85892B09F420E02A838A81882370
:10351000A1F08E859F85FC01228133818C899D8954
:10352000FC01318320838E859F85FC0124813581B8
:103530008E899F89FC01318320838A81882309F049
:1035400053C08C899D8929EC39E1FC0131832083AA
:103550008E899F892CE53BE1FC013183208344C0A7
:103560008D818F3FA9F58091C5039091C6039F83FC
:103570008E838C899D89FC01118210828E899F899E
:10358000FC01118210828E819F81892B69F12E812D
:103590003F818FEF90E0F9010995998788878885A9
:1035A0009985892B09F188859985FC0122813381D0
:1035B0008C899D89FC013183208388859985FC0154
:1035C000248135818E899F89FC01318320830CC041
:1035D0008C899D8924EA39E1FC01318320838E891D
:1035E0009F89FC0111821082000067960FB6F89443
:1035F000DEBF0FBECDBFDF91CF910895CF93DF9394
:10360000CDB7DEB78091BF039091C003DF91CF911A
:103610000895CF93DF9300D0CDB7DEB79A83898327
:1036200089819A819093C0038093BF0300000F901B
:103630000F90DF91CF910895CF93DF93CDB7DEB791
:103640008091C103DF91CF910895CF93DF931F92B3
:10365000CDB7DEB789839091C1038981892B80938F
:10366000C10300000F90DF91CF910895CF93DF93B6
:103670001F92CDB7DEB78983898180959091C10370
:1036800089238093C10300000F90DF91CF910895AB
:10369000CF93DF93CDB7DEB78091C203DF91CF9197
:1036A0000895CF93DF93CDB7DEB78091C303909198
:1036B000C403DF91CF910895CF93DF93CDB7DEB7E9
:1036C0002A970FB6F894DEBF0FBECDBF9E838D83C1
:1036D00078876F835A8749878D819E81892B51F422
:1036E0008F8198859C838B838B819C812FEFFC013C
:1036F000208392C08F8198859A83898389819A815A
:103700002EEFFC0120838D819E81092E000CAA0BD7
:10371000BB0B4096A11DB11D80319105A105B105DE
:1037200008F074C08956944EFC010C941B60001C78
:10373000FA1BF41BEE1BE81BE21BD61BDC1BD01B89
:10374000CA1BC41BBF1BAD1BA71BB31BB91B8981A5
:103750009A8120E3FC0121835FC089819A8129E25B
:10376000FC01218359C089819A8122E2FC012183D5
:1037700053C089819A8120E2FC0121834DC0898157
:103780009A81FC01118248C089819A8123E2FC015F
:10379000218342C089819A8121E2FC0121833CC0BE
:1037A00089819A8121E1FC01218336C089819A8136
:1037B00027E2FC01218330C089819A812AE2FC0141
:1037C00021832AC089819A8120E1FC01218324C0C0
:1037D00089819A8124E2FC0121831EC089819A811A
:1037E00028E2FC01218318C089819A8126E2FC012C
:1037F000218312C089819A8121E3FC0121830CC0BD
:1038000089819A8123E3FC01218306C089819A8101
:1038100020E2FC01218300C000002A960FB6F89434
:10382000DEBF0FBECDBFDF91CF910895CF93DF9361
:10383000CDB7DEB72A970FB6F894DEBF0FBECDBF67
:103840009E838D8378876F835A8749871A8219826E
:103850008F819885892BD9F11C821B821C821B8247
:103860002BC02B813C81C901880F991F820F931FA8
:10387000880F991F9C018F819885820F931FFC01EF
:10388000808191812D813E812817390781F42B8118
:103890003C81C901880F991F820F931F880F991FC0
:1038A0009C018F819885820F931F9A8389838B81D6
:1038B0009C8101969C838B832B813C8189859A8591
:1038C0002817390720F489819A81892B51F289813F
:1038D0009A812A960FB6F894DEBF0FBECDBFDF9156
:1038E000CF910895CF93DF9300D000D0CDB7DEB74E
:1038F0009A8389837C836B838091BE03882319F02C
:1039000084EF9FEF1BC052D55DD59093C603809383
:10391000C5030E9494330E94AC339093CA038093F2
:10392000C9030E947E3C0E94893C9093C803809307
:10393000C70381E08093BE0380E090E00F900F907A
:103940000F900F90DF91CF910895EF92FF920F9318
:103950001F93CF93DF93CDB7DEB764970FB6F8947C
:10396000DEBF0FBECDBF1A8219821C821B82188651
:103970001F821A8619861C861B861E861D86188A3B
:103980001F861E821D821A8A198A1C8A1B8A8091B0
:10399000BE03882319F487EF9FEFC3C0BE01635FA6
:1039A0007F4F9E01255F3F4FAE01475F5F4FCE01C6
:1039B00007968B01BC0180E090E00E94EA3F9A8369
:1039C000898389819A81892B49F089819A8104961A
:1039D00029F089819A81059609F096C08F81988592
:1039E000892B59F02B853C858D859E85280F391FA5
:1039F00089859A858217930728F488EF9FEF9A8329
:103A0000898385C02F8138858B859C85820F931F84
:103A10009E838D836D857E859E012D5E3F4FAE0119
:103A20004F5E5F4F8D819E8117DD89899A89892B31
:103A300029F484EF9FEF9A83898369C029893A89A1
:103A40006B857C858F819885AE01415F5F4FF90161
:103A500009959C838B838B899C89892B09F451C0A0
:103A60008F859889892B09F44CC01A8219822D857B
:103A70003E858F8598892817390768F42F853889FE
:103A8000AE01455F5F4FBE01675F7F4FCE01079676
:103A9000F6DB9A8389832D853E858D819E81A901E0
:103AA00060E070E00E94476089819A81892B49F526
:103AB0002F8138858B859C85820F931F9E838D83F4
:103AC0002B893C894F8558896D817E818B819C81B2
:103AD000F90109956F8578894B855C8529853A853B
:103AE0008F8198857B018A01AC016FEF7FEF81E0C8
:103AF00090E00E94903E9A83898389819A81892BE4
:103B000029F489819A810DC0000001C000008F81D5
:103B10009885892B21F08F8198850E941C4489818A
:103B20009A8164960FB6F894DEBF0FBECDBFDF91C9
:103B3000CF911F910F91FF90EF900895CF93DF9356
:103B4000CDB7DEB728970FB6F894DEBF0FBECDBF56
:103B50009C838B834D835E836F8378871A8219825F
:103B60008091BE03882319F487EF9FEF10C08D81E9
:103B70009E81AF81B885EB81FC8120E0AC01BD0165
:103B8000CF010E94CA369A83898389819A812896B7
:103B90000FB6F894DEBF0FBECDBFDF91CF91089571
:103BA000CF93DF93CDB7DEB78091BF039091C00371
:103BB000DF91CF910895CF93DF93CDB7DEB70E9409
:103BC000A73C0E94FB3A1CD448E050E060E070E063
:103BD00085EC93E00E9447601092BE0380E090E085
:103BE000DF91CF910895CF93DF9300D000D000D024
:103BF000CDB7DEB76B837C838D839E838B819C8165
:103C0000AD81BE81BC01CD010E9488379A83898332
:103C100089819A8126960FB6F894DEBF0FBECDBF7C
:103C2000DF91CF910895CF93DF9300D000D01F9202
:103C3000CDB7DEB79D838C8381E089838C819D81A4
:103C4000298140E050E0BA010E94CA369B838A83F2
:103C50008A819B810F900F900F900F900F90DF91B2
:103C6000CF910895CF93DF9300D000D01F92CDB7AE
:103C7000DEB78D8381E090E09A8389830E94FE40C5
:103C80009C838B838D81282F30E08B819C8149819F
:103C90005A81BA010E94E55FCB0141E0281739073C
:103CA00008F040E0842F0F900F900F900F900F902E
:103CB000DF91CF910895CF93DF9300D000D01F9272
:103CC000CDB7DEB79C838B836D83A6D39A8389831C
:103CD0008091D203482F50E029813A818B819C81C9
:103CE000B9010E943E6000000F900F900F900F905E
:103CF0000F90DF91CF910895CF93DF93CDB7DEB7CB
:103D00002D970FB6F894DEBF0FBECDBF9987888779
:103D10007B876A875D874C871A8219822885398557
:103D20008A859B85820F931F9C838B838B819C81CB
:103D30009E838D831F820E94A6398F838F81882363
:103D400051F48C859D8522E030E0FC013183208395
:103D500085EF9FEF2DC08D819E81FC01818188239D
:103D600031F08D819E81FC018181813019F481E0E7
:103D700090E002C080E090E08F838F81882351F42F
:103D80008C859D8522E030E0FC01318320838EEF1D
:103D90009FEF0EC081E090E03CDC1A8219828C8596
:103DA0009D8528E030E0FC013183208389819A8160
:103DB0002D960FB6F894DEBF0FBECDBFDF91CF9129
:103DC0000895CF93DF93CDB7DEB728970FB6F89459
:103DD000DEBF0FBECDBF9C838B837E836D835887F0
:103DE0004F838B819C81892BA9F58D819E819A833C
:103DF000898389819A8148E050E060E070E00E9408
:103E0000476089819A812FEFFC01208325E0898119
:103E10009A81FC01218320E089819A81FC0122831F
:103E20000E94FE40282F89819A81FC0123830E94F1
:103E3000F5409C0189819A81FC0135832483898125
:103E40009A8121E0FC01268389819A8121E0FC018D
:103E5000278308C04F8158852D813E818B819C81AD
:103E6000B9012ADC000028960FB6F894DEBF0FBE19
:103E7000CDBFDF91CF910895CF93DF9300D000D0D5
:103E800000D01F92CDB7DEB79B838A837D836C837E
:103E90005F834E8381E089830E94A639898389816B
:103EA000882351F48E819F8122E030E0FC01318330
:103EB000208385EF9FEF0CC080E090E0AADB8E812D
:103EC0009F8121E030E0FC013183208380E090E09D
:103ED00027960FB6F894DEBF0FBECDBFDF91CF910E
:103EE0000895CF93DF9300D000D000D0CDB7DEB7D8
:103EF0009A8389837C836B835E834D838D819E81CE
:103F000026E030E0FC013183208380E090E02696BB
:103F10000FB6F894DEBF0FBECDBFDF91CF910895ED
:103F2000CF93DF93CDB7DEB728970FB6F894DEBFF7
:103F30000FBECDBF9C838B837E836D8358874F8359
:103F40008D819E819A83898389819A8146E050E0A0
:103F500060E070E00E94476089819A812FEFFC0148
:103F600020836ADB282F89819A81FC01218390DBE1
:103F7000282F89819A81FC01228393DB9C0189810E
:103F80009A81FC0135832483000028960FB6F894AB
:103F9000DEBF0FBECDBFDF91CF910895CF93DF93EA
:103FA00000D000D000D01F92CDB7DEB79B838A83AC
:103FB0007D836C835F834E8319820E948939898354
:103FC0008981882321F00E9422410E949A398E81A2
:103FD0009F8122E030E0FC01318320838BEF9FEF53
:103FE00027960FB6F894DEBF0FBECDBFDF91CF91FD
:103FF0000895CF93DF93CDB7DEB72D970FB6F89422
:10400000DEBF0FBECDBF998788877B876A875D87B4
:104010004C871A821982288539858A859B85820F6B
:10402000931F9C838B838B819C819E838D831F82B6
:104030008D819E81FC0123818D819E81FC01848183
:104040009581A681B781422FBC01CD01F4D18F8328
:104050008F81882351F48C859D8522E030E0FC011E
:104060003183208384EF9FEF09C08C859D8521E0FB
:1040700030E0FC013183208389819A812D960FB62F
:10408000F894DEBF0FBECDBFDF91CF910895CF93DF
:10409000DF93CDB7DEB72F970FB6F894DEBF0FBE14
:1040A000CDBF9B878A877D876C875F874E871A8203
:1040B00019822A853B858C859D85820F931F9C8361
:1040C0008B838B819C819E838D831F82A5D1998751
:1040D00088878D819E81FC018181C4DD8F838F81E2
:1040E000882351F48E859F8522E030E0FC013183E6
:1040F00020838EEF9FEF22C088859985892B51F40C
:104100008E859F8522E030E0FC013183208384EF9F
:104110009FEF14C08D819E81FC0181818093D20329
:104120008091D203882F90E09C012F5F3F4F8E85B6
:104130009F85FC013183208389819A812F960FB658
:10414000F894DEBF0FBECDBFDF91CF910895CF931E
:10415000DF93CDB7DEB72D970FB6F894DEBF0FBE55
:10416000CDBF998788877B876A875D874C878885DD
:104170009985892B91F550D19A8389838A859B856E
:104180009C838B838B819C8141E050E060E070E0F8
:104190000E9447608B819C812FEFFC0120838981E5
:1041A0009A81892B11F18091D203882F90E001969A
:1041B0002C853D8528173907C1F48A859B85019692
:1041C0009E838D831F828D819E816F8174DD80919E
:1041D000D20362D11092D20308C04C855D852A8536
:1041E0003B8588859985B90167DA00002D960FB661
:1041F000F894DEBF0FBECDBFDF91CF910895CF936E
:10420000DF93CDB7DEB72D970FB6F894DEBF0FBEA4
:10421000CDBF998788877B876A875D874C871A829D
:104220001982288539858A859B85820F931F9C83F7
:104230008B838B819C819E838D831F828D819E8148
:10424000FC0181810FDD8F838F81882351F48C8560
:104250009D8522E030E0FC01318320838EEF9FEFCB
:1042600031C08D819E81FC0123818D819E81FC0165
:1042700084819581A681B781422FBC01CD01DBD01D
:104280008F838F81882351F48C859D8522E030E0D7
:10429000FC013183208384EF9FEF14C08D819E81C8
:1042A000FC0181818093D2038091D203882F90E01A
:1042B0009C012F5F3F4F8C859D85FC0131832083BE
:1042C00089819A812D960FB6F894DEBF0FBECDBFBF
:1042D000DF91CF910895CF93DF93CDB7DEB72D97C0
:1042E0000FB6F894DEBF0FBECDBF998788877B8756
:1042F0006A875D874C8788859985892B91F58CD055
:104300009A8389838A859B859C838B838B819C81FF
:1043100041E050E060E070E00E9447608B819C814A
:104320002FEFFC01208389819A81892B11F18091E3
:10433000D203882F90E001962C853D8528173907F8
:10434000C1F48A859B8501969E838D831F828D8112
:104350009E816F81B0DC8091D2039ED01092D203F7
:1043600008C04C855D852A853B8588859985B9017E
:10437000A3D900002D960FB6F894DEBF0FBECDBFB7
:10438000DF91CF910895CF93DF9300D0CDB7DEB703
:104390009A83898389819A8147E050E067E572E0DA
:1043A00045DA0F900F90DF91CF910895CF93DF936F
:1043B000CDB7DEB783EC91E210D092D00000DF9150
:1043C000CF910895CF93DF93CDB7DEB78091D3031C
:1043D0009091D403DF91CF910895CF93DF9300D0D4
:1043E000CDB7DEB79A83898389819A819093D4036C
:1043F0008093D30300000F900F90DF91CF91089529
:10440000CF93DF93CDB7DEB773D080E090E0E5DFE8
:104410000000DF91CF910895CF93DF93CDB7DEB742
:104420008091CD039091CE03A091CF03B091D003A2
:10443000DF91CF910895CF93DF9300D000D01F92EA
:10444000CDB7DEB769837A838B839C834D838D815F
:10445000882351F489819A81AB81BC81892B8A2B75
:104460008B2B11F480E010C089819A81AB81BC81D3
:104470008093CD039093CE03A093CF03B093D0034A
:104480008D818093D10381E00F900F900F900F905A
:104490000F90DF91CF910895CF93DF931F92CDB707
:1044A000DEB789832091CD033091CE034091CF03B5
:1044B0005091D0038981882F90E0A0E0B0E0820F76
:1044C000931FA41FB51F8093CD039093CE03A09399
:1044D000CF03B093D00300000F90DF91CF910895E8
:1044E000CF93DF93CDB7DEB70000DF91CF91089572
:1044F000CF93DF93CDB7DEB70000DF91CF91089562
:10450000CF93DF9300D01F92CDB7DEB79B838A8312
:104510001982F8948091DB039091DC0321E0892BD0
:1045200009F020E029838981882309F4789489811E
:104530000F900F900F90DF91CF910895CF93DF935D
:1045400000D0CDB7DEB79A838983789400000F90AE
:104550000F90DF91CF910895CF93DF9300D0CDB727
:10456000DEB79A838983F8948091DB039091DC0312
:1045700001969093DC038093DB03789400000F9006
:104580000F90DF91CF910895CF93DF9300D0CDB7F7
:10459000DEB79A838983F8948091DB039091DC03E2
:1045A00001979093DC038093DB03789400000F90D5
:1045B0000F90DF91CF910895CF93DF9300D0CDB7C7
:1045C000DEB79A8389832091D5033091D603498140
:1045D0005A8163E1649FC001659F900D1124820F91
:1045E000931FFC0183819481029799F02091D50358
:1045F0003091D60349815A8163E1649FC001659F70
:10460000900D1124820F931FFC01838194810397E5
:1046100019F481E090E002C080E090E00F900F90EC
:10462000DF91CF910895CF93DF9300D01F92CDB744
:10463000DEB719821B821A821B821A8209C08A8104
:104640009B81BADF89838A819B8101969B838A83C0
:104650008091D7039091D8032A813B81281739078D
:1046600018F48981882359F381E09981992309F00D
:1046700080E00F900F900F90DF91CF910895CF932E
:10468000DF9300D000D01F92CDB7DEB79B838A8323
:104690006C834D838091D5039091D603892B09F4C7
:1046A00077C08091D7039091D8032A813B81281746
:1046B000390708F06DC02091D5033091D6034A81A7
:1046C0005B8163E1649FC001659F900D1124820F9F
:1046D000931FFC0180819181892B09F459C020919D
:1046E000D5033091D6034A815B8163E1649FC001A9
:1046F000659F900D1124820F931FFC0182819C8184
:10470000981708F045C02091D5033091D6034A810F
:104710005B8163E1649FC001659F900D1124820F4E
:10472000931FFC01208131818C81482F50E06DE086
:10473000649FC001659F900D1124820F931FFC019F
:1047400080819181892B21F12091D5033091D6036D
:104750004A815B8163E1649FC001659F900D1124D4
:10476000820F931FFC01208131818C81482F50E002
:104770006DE0649FC001659F900D1124820F931F0F
:10478000FC0182819D81981718F481E090E002C0BD
:1047900080E090E0898389810F900F900F900F90B7
:1047A0000F90DF91CF910895CF93DF93CDB7DEB710
:1047B00029970FB6F894DEBF0FBECDBF8C836D83F3
:1047C0002E833F834887598719828D81882F90E0F7
:1047D0009B838A838C818F3F41F48A819B818F3FA9
:1047E000910509F010F481E08983898129960FB63B
:1047F000F894DEBF0FBECDBFDF91CF910895CF9368
:10480000DF931F92CDB7DEB789838981882F90E02F
:104810008F7E21E0892B09F020E0822F0F90DF911D
:10482000CF910895CF93DF9300D0CDB7DEB78A83C1
:1048300019828A81882331F08A81813019F08A8136
:10484000823011F481E0898389810F900F90DF918C
:10485000CF910895CF93DF9300D0CDB7DEB78A8391
:1048600019828A81882331F08A81813019F08A8106
:10487000823011F481E0898389810F900F90DF915C
:10488000CF910895CF93DF93CDB7DEB781E0DF916D
:10489000CF910895CF93DF9300D01F92CDB7DEB7AD
:1048A0009B838A832091D5033091D6034A815B8113
:1048B00063E1649FC001659F900D1124820F931FD7
:1048C000FC0183858230D9F42091D5033091D60341
:1048D0004A815B8163E1649FC001659F900D112453
:1048E000820F931FFC012581368180913B029091BC
:1048F0003C022817390719F081E090E002C080E0FF
:1049000090E089838981882339F08A819B81892B72
:1049100019F481E090E002C080E090E08983898111
:104920000F900F900F90DF91CF910895CF93DF9369
:1049300000D000D000D01F92CDB7DEB79E838D830C
:104940006F838D819E81FC01208131818F81482F71
:1049500050E06DE0649FC001659F900D1124820FAF
:10496000931F9C838B838B819C81FC0143815481A9
:104970008D819E81FC0125853685429FC001439F24
:10498000900D529F900D112401969A8389838F81F7
:10499000882379F48D819E81FC018781882F90E0A6
:1049A00080719927892B29F089819A8104969A83AD
:1049B000898389819A8127960FB6F894DEBF0FBE4E
:1049C000CDBFDF91CF910895CF93DF93CDB7DEB701
:1049D0002B970FB6F894DEBF0FBECDBF9B878A879B
:1049E0001D821C821A8219821B821B821EC08A852C
:1049F0009B856B819BDF9F838E83198618868E81B2
:104A00009F8161E070E00E94A54099878887288592
:104A1000398589819A818217930720F48885998541
:104A20009A8389838B818F5F8B838A859B85FC0129
:104A300082819B819817D8F28A859B85AC014F5E55
:104A40005F4F8A859B85FC018281882F90E09C01C5
:104A5000220F331F89819A81B9010E941B459D83D2
:104A60008C838C819D81892B39F08A859B852FEFE2
:104A70003FEFFC01328B218B8C819D812B960FB6F1
:104A8000F894DEBF0FBECDBFDF91CF910895CF93D5
:104A9000DF9300D0CDB7DEB79A83898389819A816D
:104AA000FC0181899289019639F089819A81FC0102
:104AB000818992890E94BD4689819A812FEF3FEFBB
:104AC000FC01328B218B00000F900F90DF91CF9172
:104AD0000895CF93DF93CDB7DEB761970FB6F89403
:104AE000DEBF0FBECDBF9D878C877F876E87598BBA
:104AF000488B1A8219822C853D858E859F85820F71
:104B0000931F9C838B838B819C819E838D838D815E
:104B10009E81FC018281938198878F838D819E8104
:104B2000FC01848189878D819E81FC0185818A8732
:104B30001B868F8198854A856985A1DD8B878B854A
:104B4000882351F48889998922E030E0FC0131837F
:104B500020838EEF9FEF2BC08F8198852DDD982FBE
:104B600081E0992309F080E08B878B85882351F4BD
:104B70008889998922E030E0FC013183208388EF25
:104B80009FEF15C08F8198859093380280933702EC
:104B90008985809339028A8580933A028889998928
:104BA00021E030E0FC013183208389819A81619684
:104BB0000FB6F894DEBF0FBECDBFDF91CF91089541
:104BC000CF93DF93CDB7DEB763970FB6F894DEBF10
:104BD0000FBECDBF9F878E87798B688B5B8B4A8B8F
:104BE0001A8219822E853F8588899989820F931FA1
:104BF0009C838B838B819C819E838D8380913702E4
:104C00009091380298878F838091390289878091AB
:104C10003A028A871C861B861D868F8198854A8565
:104C200069852DDD8D878D85882351F48A899B893F
:104C300022E030E0FC01318320838AEF9FEF9AC0AD
:104C40008F819885B9DC982F81E0992309F080E065
:104C50008D878D85882351F48A899B8922E030E0F5
:104C6000FC013183208388EF9FEF84C08D819E817A
:104C7000FC0184819581A681B7812D813E81F90156
:104C800062812D813E81F90171819C01AD01872FE7
:104C90008BDD8D878D85882351F48A899B8922E05D
:104CA00030E0FC01318320838EEF9FEF63C02091C1
:104CB000D5033091D6034F81588563E1649FC001CD
:104CC000659F900D1124820F931FFC01208131817B
:104CD0008985482F50E06DE0649FC001659F900D6D
:104CE0001124820F931FFC01408151818A85282F56
:104CF00030E0C901880F991F880F991F880F991FED
:104D0000821B930B840F951F9C878B878D819E81BF
:104D1000FC0121818B859C85FC0120838D819E81F6
:104D2000FC0122818B859C85FC0121838D819E81E4
:104D3000FC0123818B859C85FC0122838D819E81D2
:104D4000FC0184819581A681B7812B853C85F90181
:104D500083839483A583B68380913A028F5F809387
:104D60003A028A899B8921E030E0FC01318320836B
:104D700089819A8163960FB6F894DEBF0FBECDBFCE
:104D8000DF91CF910895CF93DF93CDB7DEB72F9703
:104D90000FB6F894DEBF0FBECDBF9B878A877D8795
:104DA0006C875F874E871A8219822A853B858C859E
:104DB0009D85820F931F9C838B838B819C819E8317
:104DC0008D8318861F8219868091D5039091D60312
:104DD000892B79F08D819E81FC0122813381809124
:104DE000D7039091D8032817390718F481E090E091
:104DF00002C080E090E089878985882351F48E8500
:104E00009F8522E030E0FC01318320838EEF9FEF0D
:104E1000A3C02091D5033091D6038D819E81FC01E2
:104E20004281538163E1649FC001659F900D11240D
:104E3000820F931F98878F838D819E81FC018281D1
:104E40009381BADB982F81E0992309F080E089876C
:104E50008985882351F48E859F8522E030E0FC010E
:104E60003183208388EF9FEF77C08D819E81FC0185
:104E70008481958121E08038910508F020E0298720
:104E80008985882351F48E859F8522E030E0FC01DE
:104E9000318320838EEF9FEF5FC08D819E81FC0167
:104EA000978181E0992309F080E0898789858823AB
:104EB00051F48E859F8522E030E0FC013183208310
:104EC0008EEF9FEF49C08D819E81FC01818197DC2F
:104ED00089878985882351F48E859F8522E030E07B
:104EE000FC013183208386EF9FEF36C08D819E8148
:104EF000FC0121818F819885FC0127838D819E8112
:104F0000FC01248135818F819885FC0136832583BE
:104F10008D819E81FC0126818F819885FC012087EF
:104F20008D819E81FC0127818F819885FC012187DD
:104F30008F819885FC018085823028F48F81988547
:104F400021E0FC0120878E859F8521E030E0FC0177
:104F50003183208389819A812F960FB6F894DEBF22
:104F60000FBECDBFDF91CF9108950F931F93CF93C5
:104F7000DF93CDB7DEB76C970FB6F894DEBF0FBEE8
:104F8000CDBF988F8F8B7A8F698F5C8F4B8F1B86ED
:104F90001A862F89388D898D9A8D820F931F9D8750
:104FA0008C878C859D859F878E87198A188A8E8528
:104FB0009F85FC0182819381CC01A0E0B0E08A8BC7
:104FC0009B8BAC8BBD8B19821E8A8091D5039091EF
:104FD000D603892B99F08091D7039091D803CC0107
:104FE000A0E0B0E02A893B894C895D892817390700
:104FF0004A075B071CF481E090E002C080E090E08B
:1050000089838981882351F48B8D9C8D22E030E047
:10501000FC01318320838EEF9FEF40C28A899B89F8
:10502000AC89BD898093330290933402A0933502FA
:10503000B09336022091D5033091D6034A895B891B
:1050400063E1649FC001659F900D1124820F931F3F
:10505000998B888B8E859F85FC018181E3DB898319
:105060008981882351F48B8D9C8D22E030E0FC01F6
:105070003183208386EF9FEF11C204DC882309F47B
:105080007DC088899989FC0183819481892B09F0ED
:1050900075C088899989FC018781882F90E082708A
:1050A0009927892B81F188899989FC0180819181D7
:1050B000892B91F08091DA03282F30E08889998933
:1050C000FC018281882F90E0820F931F8138910527
:1050D0001CF481E090E002C080E090E08983898147
:1050E000882309F43EC02091DA0388899989FC015C
:1050F00022872091DA0388899989FC018281820FB5
:105100008093DA032EC088899989FC01808191817E
:10511000892B91F08091D903282F30E088899989D3
:10512000FC018281882F90E0820F931F8D3F9105B3
:105130001CF481E090E002C080E090E089838981E6
:10514000882379F02091D90388899989FC012287E5
:105150002091D90388899989FC018281820F8093EB
:10516000D9038981882351F48B8D9C8D22E030E016
:10517000FC013183208387EF9FEF90C18E859F854F
:10518000FC018181813039F08E859F85FC01818110
:10519000823009F0CBC01B821A8281E089831B8296
:1051A0001A82B5C01D821C821F821E821D821C8233
:1051B0002EC088899989FC01208131814A815B81D7
:1051C0006DE0649FC001659F900D1124820F931FB5
:1051D000FC01408151812C813D81C901880F991FBB
:1051E000880F991F880F991F821B930B840F951F9F
:1051F000FC018181882F90E02E813F81820F931FD7
:105200009F838E838C819D8101969D838C83888969
:105210009989FC01208131814A815B816DE0649F25
:10522000C001659F900D1124820F931FFC018281A4
:10523000882F90E02C813D81281739070CF4B9CFD5
:105240008A819B81892B21F588899989FC01878135
:10525000882F90E080719927892BD1F088899989CE
:10526000FC01458556852E813F81429FC001439FA9
:10527000900D529F900D11248C010B5F1F4F0E94C7
:10528000F54021E08017910708F420E0298319C038
:1052900088899989FC01458556852E813F81429FE9
:1052A000C001439F900D529F900D11248C010F5F00
:1052B0001F4F0E94F54021E08017910708F420E07D
:1052C00029838981882351F48B8D9C8D22E030E0E5
:1052D000FC013183208387EF9FEFE0C088899989A3
:1052E000FC01208131814A815B816DE0649FC001B6
:1052F000659F900D1124820F931F2E813F81FC0129
:10530000348323838A819B8101969B838A83888946
:105310009989FC018281882F90E02A813B8128179E
:10532000390724F48981882309F03CCF8889998939
:10533000FC0185819681E4D88E8B8E89882309F4BF
:105340009EC0198618868E859F85FC018181882FD5
:1053500090E081309105D1F08230910509F469C067
:10536000892B09F071C08889998921E030E0FC011E
:105370003483238358D9882309F463C081E090E003
:105380000E94091B80E40E94361B5BC088899989B2
:10539000FC01818992890196C9F588899989FC0166
:1053A0002581368180913B0290913C022817390774
:1053B00099F488899989AC014F5E5F4F20913F0233
:1053C0003091400280913D0290913E02B9010E94CD
:1053D000B647998788871AC08A899B89AC89BD8915
:1053E000181619061A061B068CF088899989FC0183
:1053F00085819681892B51F488899989E5DA998785
:10540000888788899989FC01108A178688859985FB
:10541000892BC9F48889998923E030E0FC01348321
:10542000238382E090E00E94091B80E40E94251BF8
:105430000AC08889998922E030E0FC013483238303
:1054400003C0000001C0000088899989FC018581A2
:10545000968174D88B8D9C8D22E030E0FC013183E5
:10546000208388859985892B51F08B8D9C8D22E036
:1054700030E0FC01318320838DEF9FEF0FC08E89D8
:10548000882351F48B8D9C8D22E030E0FC01318328
:10549000208385EF9FEF02C08A859B856C960FB6AF
:1054A000F894DEBF0FBECDBFDF91CF911F910F915A
:1054B0000895CF93DF93CDB7DEB728970FB6F89452
:1054C000DEBF0FBECDBF9C838B837E836D835887E9
:1054D0004F838B819C81892B29F58D819E819A83B5
:1054E000898389819A812FEFFC0120832091D50344
:1054F0003091D6038091330290913402A09135020D
:10550000B0913602AC0163E1649FC001659F900DCC
:105510001124820F931FFC01228589819A81FC014D
:10552000218309C04F8158852D813E818B819C81CB
:10553000B9010E945C1B000028960FB6F894DEBFEC
:105540000FBECDBFDF91CF910895CF93DF93CDB73D
:10555000DEB766970FB6F894DEBF0FBECDBF9A8B4D
:10556000898B7C8B6B8B5E8B4D8B18861F82298978
:105570003A898B899C89820F931F9A8789878985AD
:105580009A859C878B871D861E8619821A821B82AC
:105590001C828B859C85FC0181815CD98D878D85E2
:1055A000882351F48D899E8922E030E0FC0131830B
:1055B000208386EF9FEF20C28091D5039091D60380
:1055C000892B49F08091D7039091D803892B19F04A
:1055D00081E090E002C080E090E08D878D85882397
:1055E00051F48D899E8922E030E0FC0131832083D3
:1055F0008EEF9FEF01C20E9489398E878E858823A6
:1056000009F4EBC11E821D82188A1F868B859C853A
:10561000FC018181882F90E08130910509F456C00A
:105620008230910509F46CC1892B09F0BFC1198240
:105630001A821B821C8231C02091D5033091D6037F
:1056400049815A8163E1649FC001659F900D1124D7
:10565000820F931FFC0183819481892B99F0209103
:10566000D5033091D60349815A8163E1649FC0011B
:10567000659F900D1124820F931F21E030E0FC0103
:105680003483238389819A81AB81BC810196A11DDA
:10569000B11D89839A83AB83BC838091D70390919A
:1056A000D803CC01A0E0B0E029813A814B815C8134
:1056B000281739074A075B070CF4BECF81E090E05A
:1056C0000E94091B80E40E94361B70C119821A8255
:1056D0001B821C82ACC02091D5033091D603498136
:1056E0005A8163E1649FC001659F900D1124820F70
:1056F000931FFC0183819481029709F08DC0209152
:10570000D5033091D60349815A8163E1649FC0017A
:10571000659F900D1124820F931FFC01818992894E
:10572000019609F079C02091D5033091D6034981C3
:105730005A8163E1649FC001659F900D1124820F1F
:10574000931FFC012581368180913B0290913C02A0
:1057500028173907F9F42091D5033091D6034981F0
:105760005A8163E1649FC001659F900D1124820FEF
:10577000931FAC014F5E5F4F20913F02309140027A
:1057800080913D0290913E02B9010E94B6479E83EE
:105790008D8342C089819A81AB81BC81181619061C
:1057A0001A061B06CCF12091D5033091D60349810E
:1057B0005A8163E1649FC001659F900D1124820F9F
:1057C000931FFC0185819681892B31F52091D503AA
:1057D0003091D60349815A8163E1649FC001659F7E
:1057E000900D1124820F931FEFD89E838D832091FB
:1057F000D5033091D60349815A8163E1649FC0018A
:10580000659F900D1124820F931FFC01108A17864B
:1058100089819A81988B8F8789819A81AB81BC819C
:105820000196A11DB11D89839A83AB83BC838091AE
:10583000D7039091D803CC01A0E0B0E029813A8150
:105840004B815C81281739074A075B072CF48D814F
:105850009E81892B09F43FCF8D819E81892B09F090
:10586000A2C019821A821B821C8238C02091D503E3
:105870003091D60349815A8163E1649FC001659FDD
:10588000900D1124820F931FFC0183819481029754
:10589000D1F42091D5033091D60349815A8163E137
:1058A000649FC001659F900D1124820F931F23E018
:1058B00030E0FC013483238382E090E00E94091BE6
:1058C00080E40E94251B89819A81AB81BC8101966D
:1058D000A11DB11D89839A83AB83BC838091D703BB
:1058E0009091D803CC01A0E0B0E029813A814B81AE
:1058F0005C81281739074A075B070CF4B7CF53C000
:1059000019821A821B821C8231C02091D5033091EA
:10591000D60349815A8163E1649FC001659F900D60
:105920001124820F931FFC0183819481029799F4C3
:105930002091D5033091D60349815A8163E1649F58
:10594000C001659F900D1124820F931F21E030E06C
:10595000FC013483238389819A81AB81BC810196C8
:10596000A11DB11D89839A83AB83BC838091D7032A
:105970009091D803CC01A0E0B0E029813A814B811D
:105980005C81281739074A075B070CF4BECF0E94D9
:105990001323882351F081E090E00E94091B80E4EA
:1059A0000E94361B02C0000001C000000E949A390C
:1059B0008D819E81892B51F08D899E8922E030E076
:1059C000FC01318320838DEF9FEF16C08D899E8966
:1059D00021E030E0FC01318320838E85882351F45F
:1059E0008D899E8922E030E0FC013183208385EFA0
:1059F0009FEF02C08F81988566960FB6F894DEBF40
:105A00000FBECDBFDF91CF910895CF93DF9300D02C
:105A100000D000D0CDB7DEB79A8389837C836B83B7
:105A20005E834D838D819E8128E030E0FC013183CF
:105A3000208380E090E026960FB6F894DEBF0FBE7C
:105A4000CDBFDF91CF910895CF93DF93CDB7DEB770
:105A500028970FB6F894DEBF0FBECDBF9C838B8313
:105A60007E836D8358874F838D819E819A8389833E
:105A700089819A8148E050E060E070E00E944760D0
:105A800089819A812FEFFC01208389819A8121E10C
:105A9000FC01218389819A812FEF3FEFFC01338341
:105AA000228389819A8120E830E0FC0135832483B8
:105AB00089819A81FC01168289819A81FC01178271
:105AC000000028960FB6F894DEBF0FBECDBFDF9161
:105AD000CF910895CF93DF9300D000D000D0CDB701
