:1000000061C000000C9452120C94791283C000005D
:1000100081C000007FC000007DC000007BC00000E8
:1000200079C0000077C0000075C0000073C00000F8
:1000300071C000000C94880E6DC000006BC0000001
:100040000C94A01267C000000C9457150C948915ED
:1000500061C000005FC000005DC000005BC0000028
:1000600059C0000057C00000000000080002010055
:100070000003040700000000000000000102040863
:100080001020408001020408102001020408102002
:10009000040404040404040402020202020203032E
:1000A00003030303000000002300260029000000D2
:1000B0000000250028002B0000000000240027007D
:1000C0002A00AE1511241FBECFEFD8E0DEBFCDBF92
:1000D00011E0A0E0B1E0EAEFFCE202C005900D9271
:1000E000A43BB107D9F724E0A4EBB1E001C01D9215
:1000F000A933B207E1F710E0C2E6D0E004C02197CF
:10010000FE010E942A16C136D107C9F70E94260FA8
:100110000C947B1675CFCF93DF93882349F0EB01C6
:1001200081500E94251399838883DF91CF91089590
:10013000FB0111821082F9CF0F931F938B019C0159
:1001400083E036952795179507958A95D1F703543F
:100150001E4F462F477021E030E0F90102C0EE0F3C
:10016000FF1F4A95E2F7AF01F80120812423CB015C
:100170000196211102C090E080E01F910F91089537
:100180000F931F938B019C0183E03695279517955C
:1001900007958A95D1F7677081E090E001C0880FDC
:1001A0006A95EAF7F801E354FE4F2081452B31F4BC
:1001B0008095822380831F910F910895822BFACF1F
:1001C000CF92DF92EF92FF92CF93DF936B017C018E
:1001D00060E08EE0C816D104E104F10490F48EE0F2
:1001E0008C0D0E94C413E6012196AE01C701B60131
:1001F000C7DFCE01DF91CF91FF90EF90DF90CF90DE
:1002000008958C2DEECF882341F08150682F70E047
:1002100090E080E050E040E0B3CF0895CF93282FE6
:100220008823E1F0CB01BA01CFEFC20FEC2FF0E051
:10023000EA53FE4F2081213059F490580E94471014
:100240009B01AC016C2F70E090E080E0CF91A2C0E8
:100250000E9442108C2FCF910C944013CF9108959F
:100260000F931F938B019C0183E03695279517957B
:1002700007958A95D1F70C541E4F462F477021E001
:1002800030E0F90102C0EE0FFF1F4A95E2F7AF011F
:10029000F80120812423CB010196211102C090E0B6
:1002A00080E01F910F9108950F931F938B019C0184
:1002B00083E036952795179507958A95D1F767704E
:1002C00081E090E001C0880F6A95EAF7F801EC54EC
:1002D000FE4F2081452B31F48095822380831F912E
:1002E0000F910895822BFACF4F925F926F927F9277
:1002F0008F929F92AF92BF92CF92DF92EF92FF9236
:100300000F931F93CF93DF934B015C0129013A01B7
:10031000670161E0882D0E94C413E4012196AE01BB
:10032000C501B401C1DF20E030E0A901C801B60178
:100330000E94CA1118168CF4F401EA53FE4F81E0B2
:100340008083C801B6010E9447106B01C301B2014E
:100350000E944710A601C40121D0CE01DF91CF91A8
:100360001F910F91FF90EF90DF90CF90BF90AF90D3
:100370009F908F907F906F905F904F90089588230B
:1003800041F08150682F70E090E080E050E040E064
:100390008BCF0895862FB9010C9440139C01FC016A
:1003A000E859FF4FE491E33061F140F4E13011F19D
:1003B000E23021F160E0822F0C940014E730C1F1AB
:1003C000E83009F441C0E430A9F7809180008C7FC7
:1003D00082608093800090918100907E9061692B73
:1003E0006093810050938700409386008091800045
:1003F00080621BC084B5806884BDDCCF84B5806218
:10040000FBCF809180008C7F8260809380009091F0
:100410008100907E9061692B6093810050938700EA
:100420004093860080918000806880938000C2CFD6
:100430008091B00080688093B0008091B100887F87
:10044000682B6093B100B6CF8091B0008062F3CF8B
:10045000FC01A781B0858C9191858923A481B58108
:100460009C9140815181628173812681922359F050
:1004700081110BC04F5F5F4F6F4F7F4F40835183A0
:100480006283738308958111F5CF41505109610949
:100490007109F4CF8BED91E0DBCF86EE91E0D8CF00
:1004A00081EF91E0D5CF8CEF91E0D2CFFC01A48118
:1004B000B5818C9196818923A781B0859C914081DB
:1004C0005181628173812185922359F0882359F0EB
:1004D0004F5F5F4F6F4F7F4F4083518362837383C2
:1004E00008958823A9F34150510961097109F4CF96
:1004F0008BED91E0DBCF86EE91E0D8CF81EF91E0FC
:10050000D5CF8CEF91E0D2CF0F931F93CF93DF9392
:10051000082F162FEA01A091DA018BE0A89FD001E5
:100520001124A552BE4F1D921D921D921C9213972D
:1005300081E01A968C931A97802F90E0FC01E45882
:10054000FF4FE4911696EC931697FC01E057FF4F8E
:10055000E491F0E0EE0FFF1FEC55FF4F8591949171
:1005600015969C938E931497862F90E0FC01E45887
:10057000FF4FE4911996EC931997FC01E057FF4F58
:10058000E491F0E0EE0FFF1FEC55FF4F8591949141
:1005900018969C938E93179760E0802F0E94C41347
:1005A00060E0812F0E94C4138091DA01813081F1D3
:1005B000A0F0823009F445C0833009F45BC080911B
:1005C000DA0191E0980F9093DA01888390E080E05F
:1005D000DF91CF911F910F91089580E0023021F0BB
:1005E0008FEF033009F481E041E050E06AE472E00B
:1005F0000E94321280E0123021F08FEF133009F4A4
:1006000081E041E050E068E772E00E943212D7CF0B
:1006100080E0023021F08FEF033009F481E041E007
:1006200050E06DE472E00E94321280E0123021F05E
:100630008FEF133009F481E041E050E06BE772E0A6
:10064000E4CF80E0023021F08FEF033009F481E045
:1006500041E050E060E572E00E94321280E012302A
:1006600021F08FEF133009F481E041E050E06EE7B4
:1006700072E0CBCF80E0023021F08FEF033009F43D
:1006800081E041E050E063E572E00E94321280E0D8
:10069000123021F08FEF133009F481E041E050E097
:1006A00061E872E0B2CF9BE0899FF0011124E5522E
:1006B000FE4F80819181A281B381FB018083918370
:1006C000A283B38390E080E008959BE0899FF001CE
:1006D0001124E552FE4F108211821282138290E0A3
:1006E00080E0089590E080E00895611102C00C94CC
:1006F000C4136130E1F362E0FACF662319F061E0E0
:100700000C94001460E0FCCFFC0191E080910A029F
:10071000811190E091830895FC0117A610AA11AAF7
:1007200012AA13AA14AA15AA16AA17AA10AE11AED5
:1007300012AE13AE14AE15AE16AEDC01DF9640E07D
:1007400050E060E87FE34D935D936D937C93139746
:10075000ED5BFF4F10821182128213820895FC011B
:100760001082DC01A95BBF4F21E02C9381E090E077
:10077000A0E0B0E081839283A383B48387A390A792
:10078000A1A7B2A783A794A7A5A7B6A717A610AA43
:1007900011AA12AA13AA14AA15AA16AA17AA10AE69
:1007A00011AE12AE13AE14AE15AE16AEDF01DF966B
:1007B00040E050E060E87FE34D935D936D937C9360
:1007C000139714961D921D921D921C9213972583C8
:1007D000168208952F923F924F925F926F927F926E
:1007E0008F929F92AF92BF92CF92DF92EF92FF9241
:1007F0000F931F93CF93DF93CDB7DEB72C970FB630
:10080000F894DEBF0FBECDBF6D837E838F83988744
:100810005A8749873C872B87D90116968C91169762
:10082000882311F016961C92E985FA8510821182B0
:1008300012821382AB85BC859F962D913D914D917F
:100840005C91D2976D817E818F8198850E945F0F28
:1008500069837A838B839C832B843C84B3E42B0E43
:10086000311CF101C080D180E280F380EB85FC85F2
:10087000FF9680809180A280B380C501B4010E9460
:1008800042108B010150110920E030E0A901C7019D
:10089000B6010E94D60F000F111F000F111F412C2F
:1008A000512C3201811110C0EB85FC85E00FF11F46
:1008B00023A934A945A956A969817A818B819C8194
:1008C0000E945F0F2B013C01EB85FC85E00FF11FBF
:1008D0008D819E81AF81B88583AB94ABA5ABB6AB60
:1008E00020E030E040E450E4C501B4010E94D60F9E
:1008F000882309F460C020E030E040E85FE3C501F0
:10090000B4010E945F0F4B015C0120E030E0A901BF
:10091000C701B6010E94D60F81110EC020E030E061
:1009200040E85EE3C301B2010E94CE11E985FA8579
:10093000608371838283938389819A81AB81BC8137
:10094000EB85FC8587A790ABA1ABB2ABFF9680820D
:100950009182A282B38220E030E0A901C701B601F2
:100960000E94CA1118160CF057C020E030E040E891
:100970005FE3C701B6010E945E0FF10160837183DE
:10098000828393832C960FB6F894DEBF0FBECDBF43
:10099000DF91CF911F910F91FF90EF90DF90CF905B
:1009A000BF90AF909F908F907F906F905F904F908F
:1009B0003F902F900895AB85BC85DB962D913D919E
:1009C0004D915C91DE97D7966D917D918D919C9123
:1009D000DA970E945F0F9B01AC01EB85FC8527AB8A
:1009E00030AF41AF52AF63A974A985A996A90E94FF
:1009F0005F0FAB85BC85D3966D937D938D939C9350
:100A0000D697812C912C80E8A82E8FE3B82E1982DE
:100A10001A821B821C8279CFD1011D921D921D92D8
:100A20001C921397AFCFFC018081811118C081E027
:100A3000808381819281A381B4810197A105B10551
:100A400071F48581882359F08FEF9FEFDC0187A334
:100A500090A7A1A7B2A783A794A7A5A7B6A7089513
:100A6000CF92DF92EF92FF926B017C019F7720E0A3
:100A700030E040E859E50E94D60F87FF2BC020E008
:100A800030E040E05FE3C701B6010E94CA1187FD74
:100A90000EC020E030E040E05FE3C701B6010E94F5
:100AA0005F0FFF90EF90DF90CF900C94F21020E05A
:100AB00030E040E05FEBC701B6010E94CA11181692
:100AC00084F420E030E0A901C701B6010E94CE11F4
:100AD0006B017C01C701B601FF90EF90DF90CF90D2
:100AE000089520E030E040E05FE3C701B6010E94D6
:100AF0005E0FFF90EF90DF90CF900C94C30F3F926A
:100B00004F925F926F927F928F929F92AF92BF921D
:100B1000CF92DF92EF92FF920F931F93CF93DF93C9
:100B2000CDB7DEB72E970FB6F894DEBF0FBECDBFA0
:100B300030900A0281E0311080E080930B0281E066
:100B4000830D823008F0E1C280930A02311020C088
:100B50008091450390914603A0914703B0914803CB
:100B60008093FF0390930004A0930104B0930204C8
:100B70008091490390914A03A0914B03B0914C039B
:100B80008093030490930404A0930504B093060497
:100B90006EE070E080E090E0CFDA909314038093F1
:100BA000130343E050E0BE016F5F7F4FB4DA209142
:100BB000980130919901A981BA810E9430160E9452
:100BC000771020E030E040E054E30E94CE11209105
:100BD00044013091450140914601509147010E94E6
:100BE0005F0F6B017C0120914801309149014091D8
:100BF0004A0150914B010E94CE116B837C838D83FF
:100C00009E8320913D0330913E0340913F035091DC
:100C100040030E945E0F6F83788789879A8780914F
:100C2000C00281111092C00210920F0410921004A1
:100C300010921104109212042091E9023091EA02FC
:100C40004091EB025091EC026F81788589859A85FD
:100C50000E945F0F2B013C01409213045092140438
:100C600060921504709216048090F9029090FA0236
:100C7000A090FB02B090FC028091F5029091F602E8
:100C8000A091F702B091F8028B879C87AD87BE8751
:100C9000BC01CD010E9442108B010150110920E0DE
:100CA00030E0A901C501B4010E94D60F000F111F49
:100CB000000F111F81112CC2F801E654FD4F23A92A
:100CC00034A945A956A9C301B2010E945F0F2B01A7
:100CD0003C0106541D4F8F819885A985BA85F8017E
:100CE00083AB94ABA5ABB6AB20E030E040E050E482
:100CF0006B857C858D859E850E94D60F02E010E075
:100D0000811124C01092130410921404109215043F
:100D1000109216042091F1023091F2024091F302F8
:100D20005091F4026091ED027091EE028091EF0219
:100D30009091F0020E945F0F6093ED027093EE02BB
:100D40008093EF029093F00201E010E020E030E0A9
:100D5000A901C501B4010E94D60F811110C020E085
:100D600030E040E450E4C301B2010E94DA0F609326
:100D70000F047093100480931104909312048091D7
:100D8000130490911404A0911504B091160480935B
:100D9000E9029093EA02A093EB02B093EC02B8014F
:100DA000110F880B990B0E9479106093F5027093D4
:100DB000F6028093F7029093F80220E030E0A90158
:100DC000C501B4010E94CA1118160CF0A5C120E09B
:100DD00030E040E85FE3C501B4010E945E0F60931C
:100DE000F9027093FA028093FB029093FC02311097
:100DF00010C080914D0390914E03A0914F03B0918C
:100E000050038093F3039093F403A093F503B093FE
:100E1000F6032091500130915101409152015091BF
:100E20005301C701B6010E945E0F9F7720915401C4
:100E30003091550140915601509157010E94CA11BD
:100E400018160CF072C18090200190902101A090A2
:100E50002201B090230120E030E0A901C501B401D6
:100E60000E94CA11C12CD12C760118164CF07501C4
:100E70006401F7FAF094F7F8F094812C912C540166
:100E800065E070E080E090E0EBD98C019093240362
:100E90008093230320E030E04FE753E4C501B40121
:100EA0000E94D60F181634F4812C912C9FE7A92E9E
:100EB00093E4B92EB501A401C801B0D966E070E091
:100EC00080E090E0CDD98C0190931C0380931B03AC
:100ED00020E030E04FE753E4C701B6010E94D60F8F
:100EE000181634F4C12CD12C8FE7E82E83E4F82EA9
:100EF000B701A601C80192D96FE070E080E090E0F0
:100F00001BD990930C0380930B0343E050E0BE0188
:100F10006F5F7F4F00D969817A8190E080E00E9405
:100F20007710209158013091590140915A01509108
:100F30005B01C4D76B017C018090600190906101DE
:100F4000A0906201B0906301AC019B01C501B401A6
:100F50000E94D60F87FFB9C1A5019401C701B60150
:100F6000ADD76B017C0160E170E080E090E0E4D8F7
:100F7000909304038093030343E050E0BE016F5F4E
:100F80007F4FC9D869817A8190E080E00E94771014
:100F90002091640130916501409166015091670193
:100FA0008DD74B015C0140906C0150906D016090B9
:100FB0006E0170906F01AC019B01C301B201F6D7C5
:100FC00087FF97C1A3019201C501B40177D74B01F7
:100FD0005C0120E030E0A901C701B6010E94CA11FE
:100FE00018160CF0A1C146015701B7FAB094B7F832
:100FF000B094209170013091710140917201509133
:101000007301C501B4010E94CE1120917401309189
:10101000750140917601509177010E94CE11609345
:10102000F7037093F8038093F9039093FA0323E690
:1010300033E047E154E0CEDB6091780170917901B3
:1010400080917A0190917B010BDD6B017C0120E0A6
:1010500030E040E853E4AAD76FEF87FF0EC020E0EE
:1010600030E0A901C701B6010E94CA1160E087FD06
:1010700004C0C701B6010E94471087E03EDB6091C3
:1010800078017091790180917A0190917B01E8DC7F
:101090006B017C0120E030E040E853E487D76FEF3C
:1010A00087FF0DC020E030E0A901C701B6010E9412
:1010B000CA1160E087FD03C0C701B601E8D788E028
:1010C0001CDB8B819C81AD81BE8180933D0390931D
:1010D0003E03A0933F03B09340032E960FB6F894BF
:1010E000DEBF0FBECDBFDF91CF911F910F91FF905B
:1010F000EF90DF90CF90BF90AF909F908F907F90B8
:101100006F905F904F903F90089510920A021ECD0D
:10111000412C512C3201DDCD1092F9021092FA02CD
:101120001092FB021092FC0262CE80900F0490900D
:101130001004A0901104B090120480920B049092BD
:101140000C04A0920D04B0920E04C0920704D09239
:101150000804E0920904F0920A04209130013091D1
:10116000310140913201509133016091FF03709140
:1011700000048091010490910204A0D62091000106
:101180003091010140910201509103010E94CE1162
:101190002B013C0120912C0130912D0140912E0119
:1011A00050912F0160910304709104048091050413
:1011B0009091060483D6209104013091050140915D
:1011C0000601509107010E94CE119B01AC01C301A1
:1011D000B20175D62B013C012091280130912901E3
:1011E00040912A0150912B01C701B60167D6209189
:1011F00008013091090140910A0150910B010E94B0
:10120000CE119B01AC01C301B20159D66B017C0127
:101210002091240130912501409126015091270110
:10122000C501B4014BD620910C0130910D014091C4
:101230000E0150910F010E94CE119B01AC01C7011C
:10124000B6013DD6209134013091350140913601EF
:10125000509137010E94CE116B017C012091180141
:101260003091190140911A0150911B0160911001B8
:101270007091110180911201909113010E94CE1181
:1012800020911401309115014091160150911701E0
:1012900091D69B01AC01C701B6010E94CE112091ED
:1012A000F3033091F4034091F5035091F60307D610
:1012B000209138013091390140913A0150913B0120
:1012C0000E94CE114B015C01C6CD80905C019090D4
:1012D0005D01A0905E01B0905F01A7019601C5017C
:1012E000B40164D618160CF437CEC12CD12C76017B
:1012F0003ACE409068015090690160906A01709008
:101300006B01A5019401C301B20150D618160CF46B
:1013100059CE20E030E0A901C701B6010E94CA11F0
:1013200018160CF460CE0AC020E030E0A901C50117
:10133000B4010E94CA1118160CF45BCE812C912CBA
:10134000540157CE8F929F92AF92BF92CF92DF926D
:10135000EF92FF920F931F93CF93DF9300D000D0B3
:10136000CDB7DEB78091410390914203A091430332
:10137000B09144038093450390934603A0934703A1
:10138000B093480380912B03811110922B03BE016F
:101390006F5F7F4F80912C0386D980912C0395D964
:1013A00020915D0389819A81AB81BC8121110BC0A1
:1013B0008093550390935603A0935703B09358031B
:1013C00021E020935D0340915503509156036091B5
:1013D0005703709158038C019D01B7FD41C00F5F09
:1013E0001F4F2F4F3F474017510762077307F4F114
:1013F0008C019D01041B150B260B370B37FF0DC00D
:10140000011511052105E0E83E0781F13095209591
:10141000109501951F4F2F4F3F4F093C1105210596
:10142000310524F58C019D01B7FF0CC00097A10583
:1014300020E8B207D9F0002711279801081B190BE3
:101440002A0B3B0B053F1140210531057CF48093AD
:10145000550390935603A0935703B09358030AC0C3
:101460003058041715072607370714F649835A839F
:101470006B837C83609194017091950180919601BA
:101480009091970129813A814B815C810E943F169E
:101490002AD620E030E040E051E380D76093FB03A0
:1014A0007093FC038093FD039093FE032BEA33E0DB
:1014B0004BE154E08FD920911B0430911C044091E2
:1014C0001D0450911E0460918C0170918D018091DA
:1014D0008E0190918F0162D72091900130919101FE
:1014E000409192015091930159D76B017C01209159
:1014F00018013091190140911A0150911B0160911E
:10150000140170911501809116019091170152D527
:10151000A701960143D760934D0370934E038093C8
:101520004F0390935003C0924903D0924A03E09234
:101530004B03F0924C0320917C0130917D0140914E
:101540007E0150917F01C701B60128D72091410348
:10155000309142034091430350914403B0D46B0156
:101560007C01C0924103D0924203E0924303F09287
:1015700044038090840190908501A0908601B090F2
:101580008701A501940106D718164CF480924103F7
:1015900090924203A0924303B09244030FC0809004
:1015A000880190908901A0908A01B0908B01A501DB
:1015B0009401C701B601FAD487FDE8CF0F900F90D0
:1015C0000F900F90DF91CF911F910F91FF90EF90AF
:1015D000DF90CF90BF90AF909F908F9008952F9203
:1015E0003F924F925F926F927F928F929F92AF92B3
:1015F000BF92CF92DF92EF92FF920F931F93CF9300
:1016000084E090E005D3E7E0F2E085E0DF011D92A1
:101610008A95E9F703EF13E08CE2F80111928A95BD
:10162000E9F78AEBC82E82E0D82E89E391E0D60153
:10163000FC011D923197E9F790E0292E91E0392EB7
:10164000F10184AD95ADA6ADB7ADF801848795875E
:10165000A687B787E0E4F1E080819181A281B38120
:10166000F801808B918BA28BB38BC1E0C093620396
:10167000812C912C5401839480920E0390920F033D
:10168000A0921003B09211036EE070E080E090E051
:101690000E94E0009093140380931303C0931203FD
:1016A000D6011C92C0936103F60181829282A382CB
:1016B000B48297968D929D92AD92BC929A9783A692
:1016C00094A6A5A6B6A69F961D921D921D921C9249
:1016D000D29713AA14AA15AA16AAD7961D921D92DC
:1016E0001D921C92DA97412C512C30E8632E3FE377
:1016F000732E43AE54AE65AE76AEA9EFB2E01D9246
:101700001D921D921C921397C5831682ECE4F1E0A2
:1017100080819181A281B381F80180839183A2832A
:10172000B38310921D03C093600380921E039092B6
:101730001F03A0922003B0922103E12CF12C87011A
:10174000A801970165E070E080E090E00E947401DC
:101750009093240380932303C093220310921503D4
:10176000C0935F038092160390921703A092180310
:10177000B0921903A801970166E070E080E090E064
:101780000E94740190931C0380931B03C0931A035F
:1017900010920503C0935A038092060390920703A8
:1017A000A0920803B09209036FE070E080E090E03F
:1017B0000E94E00090930C0380930B03C0930A03F4
:1017C0001092FD02C09359038092FE029092FF0294
:1017D000A0920003B092010360E170E080E090E02D
:1017E0000E94E0009093040380930303C0930203DC
:1017F00083E693E00E94AF0310923503C0935C032D
:101800008092360390923703A0923803B092390346
:1018100061E087E00E947503C0933A0310922D03A4
:10182000C0935B0380922E0390922F03A09230030B
:10183000B092310361E088E00E947503C0933203E7
:101840000CE213E0D8011C9210922503C0935E03B2
:101850004AE2E42E43E0F42EF70110828092260340
:1018600090922703A0922803B0922903A80163E075
:1018700082E00E948402D701CC9310922B038BEA62
:1018800093E00E94AF03F10184AD95ADA6ADB7AD75
:101890008093450390934603A0934703B093480376
:1018A000E0E4F1E080819181A281B38180934903DA
:1018B00090934A03A0934B03B0934C03F101848DA2
:1018C000958DA68DB78D80933D0390933E03A09395
:1018D0003F03B0934003ECE4F1E080819181A28169
:1018E000B38180934D0390934E03A0934F03B09325
:1018F00050038091800190918101A0918201B0916B
:1019000083018093410390934203A0934303B093D8
:10191000440310925D03D6019F961D921D921D9265
:101920001C92D297F60113AA14AA15AA16AAD79642
:101930001D921D921D921C92DA9743AE54AE65AE75
:1019400076AEA9EFB2E01D921D921D921C921397E4
:1019500083E693E00E948C03F80180810E94650376
:101960008BEA93E0CF911F910F91FF90EF90DF9062
:10197000CF90BF90AF909F908F907F906F905F902F
:101980004F903F902F900C948C0380910D03811108
:101990001FC081E080930D0380910E0390910F038F
:1019A000A0911003B09111030197A105B10581F435
:1019B00080911203882361F06EE070E080E090E097
:1019C0000E949C0090931403809313030E940301D0
:1019D0008091BA02811126C081E08093BA02809181
:1019E000BB029091BC02A091BD02B091BE020197D2
:1019F000A105B105B9F48091BF02882399F08FEF5A
:101A00009FEFDC018093E1029093E202A093E30256
:101A1000B093E4028093E5029093E602A093E7027C
:101A2000B093E80280911D0381112EC081E0809364
:101A30001D0380911E0390911F03A0912003B0917C
:101A400021030197A105B105F9F4809122038823B0
:101A5000D9F065E070E080E090E00E943001909362
:101A600024038093230340E050E0BA010E940E015A
:101A700065E070E080E090E00E94300190932403E4
:101A8000809323030E94BF018091150381112EC012
:101A900081E0809315038091160390911703A09124
:101AA0001803B09119030197A105B105F9F48091CC
:101AB0001A038823D9F066E070E080E090E00E948D
:101AC000300190931C0380931B0340E050E0BA0167
:101AD0000E940E0166E070E080E090E00E9430011C
:101AE00090931C0380931B030E94BF018091050308
:101AF00081111FC081E080930503809106039091BE
:101B00000703A0910803B09109030197A105B1054E
:101B100081F480910A03882361F06FE070E080E037
:101B200090E00E949C0090930C0380930B030E9412
:101B300003018091FD0281111FC081E08093FD02AD
:101B40008091FE029091FF02A0910003B0910103E9
:101B50000197A105B10581F480910203882361F00A
:101B600060E170E080E090E00E949C0090930403AC
:101B7000809303030E94030183E693E00E94130510
:101B800080913503811103C081E0809335038091FA
:101B90002D03811103C081E080932D0380912503E3
:101BA000811114C081E080932503809126039091D8
:101BB0002703A0912803B09129030197A105B1053E
:101BC00029F480912A0381110E9472038BEA93E029
:101BD0000C94130560E070E080E89FE7089560E0F2
:101BE00070E080E89FE7089560E070E080E89FEF94
:101BF000089560E070E080E89FEF089560E070E095
:101C000080EC9FEF089560E070E080EC9FEF089516
:101C1000F5DF60932B0470932C0480932D04909334
:101C20002E04F1DF60931F0470932004809321043D
:101C300090932204CFDF609327047093280480934D
:101C4000290490932A04CBDF609323047093240427
:101C50008093250490932604C7DF60932F0470932C
:101C600030048093310490933204C3DF60933304D3
:101C70007093340480933504909336040895089546
:101C800026E030E040E855E260E070E090E080E07F
:101C900000C010920D0210920C0289309105E0F400
:101CA0008C5A914FFC01D6C75D0E660E6D0E700EFC
:101CB000730E760E790E7C0E820E81E090E090938A
:101CC0000D0280930C028DE192E091C682E090E0DB
:101CD00090930D0280930C02089584E090E0F8CF79
:101CE00088E090E0F5CF80E190E0F2CF80E290E0F4
:101CF000EFCF80E490E0ECCF80E890E090930D028D
:101D000080930C0280910C0290910D029160E0CFC3
:101D10001F920F920FB60F9211242F933F934F9360
:101D20005F936F937F938F939F93AF93BF93EF9343
:101D3000FF938AE299EF909385008093840032D0DC
:101D4000FF91EF91BF91AF919F918F917F916F9193
:101D50005F914F913F912F910F900FBE0F901F9069
:101D600018958AE299EF9093850080938400AFE6FE
:101D7000B0E08C918E7F8C93E0E8F0E080818C7FE6
:101D80008083E1E8F0E08081877E808380818360CA
:101D9000808380818B7F80838C9181608C93089578
:101DA00081E00895CF93DF9300D0CDB7DEB7809167
:101DB000100291E0980F90931002882369F021E0BF
:101DC00030E03093130220931202809310020F90A0
:101DD0000F90DF91CF910895CE0101960E94840368
:101DE00078940E947F05F89480911002815080932E
:101DF00010028A81882389F080910F0291E0980F68
:101E000090930F02882349F021E030E030931302D1
:101E10002093120280930F02DACF80910F02882361
:101E2000B1F2809111028111D2CF81E08093110231
:101E3000789488DAF89480910F02815080930F0291
:101E400080911102815080931102C1CFCF93DF9313
:101E50001092380410923704BDD312DFC0919F0155
:101E6000D091A00119821882BADBF8947ADF81E060
:101E700028813981232B09F080E0809337047894FE
:101E8000789480913704811107C07FDDF89490E049
:101E900080E0DF91CF91089581E028813981232B63
:101EA00009F480E0809338049091380481E0911126
:101EB00080E08093370474DFE2DEE3CF5058BB2725
:101EC000AA270ED016C207D230F00CD220F031F47F
:101ED0009F3F11F41EF4ECC10EF4E095E7FBB9C18D
:101EE000E92F18D280F3BA176207730784079507A2
:101EF00018F071F49EF547C20EF4E0950B2EBA2F40
:101F0000A02D0B01B90190010C01CA01A0011124FF
:101F1000FF27591B99F0593F50F4503E68F11A16AB
:101F2000F040A22F232F342F4427585FF3CF46953C
:101F300037952795A795F0405395C9F77EF41F165E
:101F4000BA0B620B730B840BBAF09150A1F0FF0F28
:101F5000BB1F661F771F881FC2F70EC0BA0F621F14
:101F6000731F841F48F4879577956795B795F79504
:101F70009E3F08F0B3CF9395880F08F09927EE0F96
:101F8000979587950895E8D180F09F3740F4911197
:101F90000EF4FAC160E070E080E89FE3089526F057
:101FA0001B16611D711D811D5AC174C12ED108F40B
:101FB00081E008950CD09DC195D140F08CD130F0D6
:101FC00021F45F3F19F045C15111DEC171C1A2D1A9
:101FD00098F39923C9F35523B1F3951B550BBB27F0
:101FE000AA2762177307840738F09F5F5F4F220F9D
:101FF000331F441FAA1FA9F333D00E2E3AF0E0E896
:1020000030D091505040E695001CCAF729D0FE2FE1
:1020100027D0660F771F881FBB1F26173707480773
:10202000AB07B0E809F0BB0B802DBF01FF27935829
:102030005F4F2AF09E3F510568F00BC1A5C15F3F7D
:10204000ECF3983EDCF3869577956795B795F79511
:102050009F5FC9F7880F911D9695879597F9089509
:10206000E1E0660F771F881FBB1F621773078407A5
:10207000BA0720F0621B730B840BBA0BEE1F88F7B4
:10208000E095089504D06894B1117EC108954AD1B5
:1020900088F09F5790F0B92F9927B751A0F0D1F051
:1020A000660F771F881F991F1AF0BA95C9F712C0DB
:1020B000B13081F068D1B1E0089565C1672F782F04
:1020C0008827B85F39F0B93FCCF386957795679547
:1020D000B395D9F73EF490958095709561957F4FB3
:1020E0008F4F9F4F089597FB0EF4E5D03EC0E894C4
:1020F00009C097FB3EF490958095709561957F4F50
:102100008F4F9F4F9923A9F0F92F96E9BB279395FD
:10211000F695879577956795B795F111F8CFFAF40D
:10212000BB0F11F460FF1BC06F5F7F4F8F4F9F4F3E
:1021300016C0882311F096E911C0772321F09EE89C
:10214000872F762F05C0662371F096E8862F70E002
:1021500060E02AF09A95660F771F881FDAF7880FDC
:102160009695879597F90895E894F92F96EBFF23B4
:1021700081F0121613061406440B9395F695879575
:102180007795679557954040FF23B9F71BC099276E
:102190000895882351F49850D2F7872B762F652F16
:1021A000542F432F322F20E0B1F3121613061406DA
:1021B000440B88233AF09A95440F551F661F771FEA
:1021C000881FCAF755234AF4440F551F11F460FFC6
:1021D00004C06F5F7F4F8F4F9F4F880F96958795F5
:1021E00097F90895B9D080F09F3740F491110EF01F
:1021F000CBC060E070E080E89FEB089526F41B16EA
:10220000611D711D811D2BC045C0990F0008550F20
:10221000AA0BE0E8FEEF16161706E807F907C0F06C
:1022200012161306E407F50798F0621B730B840B74
:10223000950B39F40A2661F0232B242B252B21F44E
:1022400008950A2609F4A140A6958FEF811D811DEE
:10225000089597F99F6780E870E060E0089588230B
:1022600071F4772321F09850872B762F07C06623CF
:1022700011F499270DC09051862B70E060E02AF090
:102280009A95660F771F881FDAF7880F96958795BE
:1022900097F908959F3F31F0915020F487957795F5
:1022A0006795B795880F911D9695879597F908952D
:1022B0009FEF80EC0895909580957095609550956E
:1022C0004095309521953F4F4F4F5F4F6F4F7F4F58
:1022D0008F4F9F4F089500240A941616170618066C
:1022E0000906089500240A9412161306140605061A
:1022F0000895092E0394000C11F4882352F0BB0FAB
:1023000040F4BF2B11F460FF04C06F5F7F4F8F4F0D
:102310009F4F089557FD9058440F551F59F05F3F48
:1023200071F04795880F97FB991F61F09F3F79F0F7
:1023300087950895121613061406551FF2CF469579
:10234000F1DF08C0161617061806991FF1CF8695FB
:102350007105610508940895E5DFA0F0BEE7B9179F
:1023600088F4BB279F3860F41616B11D672F782FAD
:102370008827985FF7CF869577956795B11D9395D8
:102380009639C8F30895E894BB2766277727CB01D1
:1023900097F908953ADF08F48FEF08950BD0A9CF8D
:1023A0009ADF28F09FDF18F0952309F052CF80CFF5
:1023B0001124EACFAFDFA0F3959FD1F3950F50E042
:1023C000551F629FF001729FBB27F00DB11D639FE7
:1023D000AA27F00DB11DAA1F649F6627B00DA11D8D
:1023E000661F829F2227B00DA11D621F739FB00D33
:1023F000A11D621F839FA00D611D221F749F3327A3
:10240000A00D611D231F849F600D211D822F762F3B
:102410006A2F11249F5750408AF0E1F088234AF038
:10242000EE0FFF1FBB1F661F771F881F9150504084
:10243000A9F79E3F510570F00CCFA6CF5F3FECF39C
:10244000983EDCF3869577956795B795F795E79570
:102450009F5FC1F7FE2B880F911D9695879597F981
:10246000089508958230E8F4E82FF0E0EE0FFF1FA2
:10247000E656FE4F71836083813041F080916900A0
:102480008C7F482B40936900E89A089580916900F9
:10249000837F440F551F440F551F482B40936900FD
:1024A000E99A08951F920F920FB60F9211242F935D
:1024B0003F934F935F936F937F938F939F93AF93CC
:1024C000BF93EF93FF93E0919A01F0919B010995DF
:1024D000FF91EF91BF91AF919F918F917F916F91FC
:1024E0005F914F913F912F910F900FBE0F901F90D2
:1024F00018951F920F920FB60F9211242F933F93AE
:102500004F935F936F937F938F939F93AF93BF93FB
:10251000EF93FF93E0919C01F0919D010995FF914C
:10252000EF91BF91AF919F918F917F916F915F914B
:102530004F913F912F910F900FBE0F901F901895C4
:102540001F920F920FB60F9211242F933F938F93E8
:102550009F93AF93BF938091150290911602A09123
:102560001702B09118023091140223E0230F2D3787
:1025700058F50196A11DB11D2093140280931502F8
:1025800090931602A0931702B0931802809119023B
:1025900090911A02A0911B02B0911C020196A11DFC
:1025A000B11D8093190290931A02A0931B02B0935D
:1025B0001C02BF91AF919F918F913F912F910F90EE
:1025C0000FBE0F901F90189526E8230F0296A11DAD
:1025D000B11DD2CF789484B5826084BD84B581600A
:1025E00084BD85B5826085BD85B5816085BDEEE61B
:1025F000F0E0808181608083E1E8F0E010828081FA
:1026000082608083808181608083E0E8F0E0808167
:1026100081608083E1EBF0E0808184608083E0EB87
:10262000F0E0808181608083EAE7F0E0808184606F
:1026300080838081826080838081816080838081CB
:10264000806880831092C10008958E3008F08E500B
:1026500020919E0190E4299F900111248770822B84
:1026600080937C0080917A00806480937A008091CE
:102670007A0086FDFCCF80917800909179000895D2
:102680001F93CF93DF93182FEB0161E07DD020974C
:1026900031F460E0812FDF91CF911F91B1C0CF3F26
:1026A000D10511F461E0F6CFE12FF0E0E859FF4FDA
:1026B000E491E33031F140F4E130B1F0E230E1F0A7
:1026C000C038D1057CF7E5CFE73029F1E83059F182
:1026D000E430B1F780918000806280938000D093D5
:1026E0008B00C0938A0004C084B5806884BDC7BDD8
:1026F000DF91CF911F91089584B5806284BDC8BDDC
:10270000F7CF80918000806880938000D09389000B
:10271000C0938800EDCF8091B00080688093B000B6
:10272000C093B300E5CF8091B00080628093B00089
:10273000C093B400DDCF833081F028F4813099F06C
:102740008230A9F008958730A9F08830C9F084302C
:10275000B1F4809180008F7D03C0809180008F77DD
:1027600080938000089584B58F7784BD089584B5E3
:102770008F7DFBCF8091B0008F778093B00008955C
:102780008091B0008F7DF9CFCF93DF9390E0FC0173
:10279000E458FF4F249180579F4FFC018491882378
:1027A000C9F090E0880F991FFC01E854FF4FA591F4
:1027B000B491FC01E255FF4FC591D49161110DC058
:1027C0009FB7F8948C91209582238C93888128233D
:1027D00028839FBFDF91CF910895623051F49FB756
:1027E000F8943C91822F809583238C93E8812E2B43
:1027F000EFCF8FB7F894EC912E2B2C938FBFEACFAD
:102800001F93CF93DF93282F30E0F901E859FF4F52
:102810008491F901E458FF4FD491F901E057FF4F3B
:10282000C491CC23A1F0162F811185DFEC2FF0E0AD
:10283000EE0FFF1FE255FF4FA591B4918FB7F894AB
:10284000EC91111108C0D095DE23DC938FBFDF918E
:10285000CF911F910895DE2BF8CFFC01918D228D31
:10286000892F90E0805C9F4F821B91098F7399277D
:102870000895FC01918D828D981731F0828DE80FBB
:10288000F11D858D90E008958FEF9FEF0895FC0175
:10289000918D828D981761F0A28DAE0FBF2FB11D63
:1028A0005D968C91928D9F5F9F73928F90E00895BB
:1028B0008FEF9FEF0895FC01538D448D252F30E05D
:1028C000842F90E0821B930B541710F0CF9608953D
:1028D00001970895FC01A48DA80FB92FB11DA35A2B
:1028E000BF4F2C91848D90E001968F739927848F30
:1028F000A689B7892C93A089B1898C918370806453
:102900008C93938D848D981306C00288F389E02DF3
:1029100080818F7D80830895CF93DF93EC01888D34
:102920008823B1F0AA89BB89E889F9898C9185FD52
:1029300003C0808186FD0CC00FB607FCF7CF8C91D9
:1029400085FFF2CF808185FFEDCFCE01C3DFEACFD7
:10295000DF91CF910895EF92FF920F931F93CF9342
:10296000DF93EC0181E0888F9B8D8C8D98131AC0CA
:10297000E889F989808185FF15C09FB7F894EE89B1
:10298000FF896083E889F98980818370806480830E
:102990009FBF81E090E0DF91CF911F910F91FF9059
:1029A000EF900895F62E0B8D10E00F5F1F4F0F7301
:1029B0001127E02E8C8D8E110BC00FB607FCFACFBD
:1029C000E889F989808185FFF5CFCE0183DFF2CFD9
:1029D000EB8DEC0FFD2FF11DE35AFF4FF0829FB7F7
:1029E000F8940B8FEA89FB8980818062D0CFCF92E7
:1029F000DF92EF92FF921F93CF93DF93EC016A0176
:102A00007B01122FE889F98982E08083C11481EE6D
:102A1000D806E104F10499F060E079E08DE390E0FC
:102A2000A7019601F5D02150310941095109569568
:102A3000479537952795211580E1380790F0E8896B
:102A4000F989108260E874E88EE190E0A7019601B0
:102A5000DFD02150310941095109569547953795E5
:102A60002795EC85FD853083EE85FF852083188EC4
:102A7000EC89FD891083EA89FB89808180618083EC
:102A8000EA89FB89808188608083EA89FB8980816B
:102A900080688083EA89FB8980818F7D8083DF91D4
:102AA000CF911F91FF90EF90DF90CF9008951F92EC
:102AB0000F920FB60F9211242F938F939F93EF9342
:102AC000FF93E0912D02F0912E028081E09133027C
:102AD000F091340282FD1BC09081809136028F5F9D
:102AE0008F7320913702821741F0E0913602F0E0B7
:102AF000E35EFD4F958F80933602FF91EF919F919A
:102B00008F912F910F900FBE0F901F90189580817D
:102B1000F4CF1F920F920FB60F9211242F933F9371
:102B20004F935F936F937F938F939F93AF93BF93D5
:102B3000EF93FF938DE192E0CDDEFF91EF91BF9196
:102B4000AF919F918F917F916F915F914F913F9145
:102B50002F910F900FBE0F901F901895EDE1F2E0AE
:102B60001382128288EE93E0A0E0B0E08483958324
:102B7000A683B78385EA91E09183808385EC90E01A
:102B80009587848784EC90E09787868780EC90E037
:102B9000918B808B81EC90E0938B828B82EC90E028
:102BA000958B848B86EC90E0978B868B118E128EA2
:102BB000138E148E0895AF92BF92CF92DF92EF9250
:102BC000FF920F931F93CF93DF936C017B018B01D7
:102BD000040F151FEB015E01AE18BF08C017D10727
:102BE00059F06991D601ED91FC910190F081E02DB1
:102BF000C6010995892B79F7C501DF91CF911F9106
:102C00000F91FF90EF90DF90CF90BF90AF9008951D
:102C1000A1E21A2EAA1BBB1BFD010DC0AA1FBB1FE0
:102C2000EE1FFF1FA217B307E407F50720F0A21B52
:102C3000B30BE40BF50B661F771F881F991F1A94BF
:102C400069F760957095809590959B01AC01BD01E9
:102C5000CF010895EE0FFF1F0590F491E02D099428
:102C6000A29FB001B39FC001A39F700D811D1124CD
:102C7000911DB29F700D811D1124911D089597FB28
:102C800057FF0BC09F938F9308D06E1B7F0BAF91A4
:102C9000BF918A0B9B0B0895E894DF93CF93FC01BF
:102CA000DB01DEDF7F936F93E9019A01AC01BF93F3
:102CB000AF933F932F93DF01D3DF26F46C1B7D0B83
:102CC000820B930B9E01EB01FC010DD0AF91BF91E4
:102CD0002F913F9108D0BE01CF01F9012F913F9173
:102CE000CF91DF910895BCDF460F571FC81FD91F32
:0A2CF00008F431960895F894FFCF20
:102CFA002EF964BE7FA614BFE56231414109C83F7F
:102D0A009A991941C967DD3EF4FDD43B00000000E1
:102D1A000000000000000000DB0F49400000000036
:102D2A00000000000000484200002A4100000000A4
:102D3A0000000000DB0FC93F6EDB0E4300000000FD
:102D4A00DB0F49409A99993E0080CB43000080BF2F
:102D5A000000803F0080C943000080BF0000803F20
:102D6A000A28A03B000008410000803F4260653C01
:102D7A00000000000000003F000000BF5077D63D71
:102D8A00F4FDD43B2FAB048E42C931123112010734
:102D9A000200000000AB14DB155B148C142D1447E1
:042DAA0014391400C4
:00000001FF
