:1000000061C000000C9402120C94291283C00000FD
:1000100081C000007FC000007DC000007BC00000E8
:1000200079C0000077C0000075C0000073C00000F8
:1000300071C000000C94090E6DC000006BC0000080
:100040000C94501267C000000C9407150C943915DD
:1000500061C000005FC000005DC000005BC0000028
:1000600059C0000057C00000000000080002010055
:100070000003040700000000000000000102040863
:100080001020408001020408102001020408102002
:10009000040404040404040402020202020203032E
:1000A00003030303000000002300260029000000D2
:1000B0000000250028002B0000000000240027007D
:1000C0002A005E1511241FBECFEFD8E0DEBFCDBFE2
:1000D00011E0A0E0B1E0EAE5FCE202C005900D927B
:1000E000AC38B107D9F723E0ACE8B1E001C01D920C
:1000F000A83EB207E1F710E0C2E6D0E004C02197C5
:10010000FE010E94DA15C136D107C9F70E94D60E4A
:100110000C942B1675CFCF93DF93882349F0EB0116
:1001200081500E94D51299838883DF91CF910895E1
:10013000FB0111821082F9CF0F931F938B019C0159
:1001400083E036952795179507958A95D1F70B5635
:100150001E4F462F477021E030E0F90102C0EE0F3C
:10016000FF1F4A95E2F7AF01F80120812423CB015C
:100170000196211102C090E080E01F910F91089537
:100180000F931F938B019C0183E03695279517955C
:1001900007958A95D1F7677081E090E001C0880FDC
:1001A0006A95EAF7F801EB56FE4F2081452B31F4B2
:1001B0008095822380831F910F910895822BFACF1F
:1001C000CF92DF92EF92FF92CF93DF936B017C018E
:1001D00060E08EE0C816D104E104F10490F48EE0F2
:1001E0008C0D0E947413E6012196AE01C701B60181
:1001F000C7DFCE01DF91CF91FF90EF90DF90CF90DE
:1002000008958C2DEECF882341F08150682F70E047
:1002100090E080E050E040E0B3CF0895CF93282FE6
:100220008823E1F0CB01BA01CFEFC20FEC2FF0E051
:10023000E256FE4F2081213059F490580E94F70F6A
:100240009B01AC016C2F70E090E080E0CF91A2C0E8
:100250000E94F20F8C2FCF910C94F012CF91089541
:100260000F931F938B019C0183E03695279517957B
:1002700007958A95D1F704571E4F462F477021E006
:1002800030E0F90102C0EE0FFF1F4A95E2F7AF011F
:10029000F80120812423CB010196211102C090E0B6
:1002A00080E01F910F9108950F931F938B019C0184
:1002B00083E036952795179507958A95D1F767704E
:1002C00081E090E001C0880F6A95EAF7F801E457F1
:1002D000FE4F2081452B31F48095822380831F912E
:1002E0000F910895822BFACF4F925F926F927F9277
:1002F0008F929F92AF92BF92CF92DF92EF92FF9236
:100300000F931F93CF93DF934B015C0129013A01B7
:10031000670161E0882D0E947413E4012196AE010B
:10032000C501B401C1DF20E030E0A901C801B60178
:100330000E947A1118168CF4F401E256FE4F81E007
:100340008083C801B6010E94F70F6B01C301B2019F
:100350000E94F70FA601C40121D0CE01DF91CF91F9
:100360001F910F91FF90EF90DF90CF90BF90AF90D3
:100370009F908F907F906F905F904F90089588230B
:1003800041F08150682F70E090E080E050E040E064
:100390008BCF0895862FB9010C94F0129C01FC01BB
:1003A000E859FF4FE491E33061F140F4E13011F19D
:1003B000E23021F160E0822F0C94B013E730C1F1FC
:1003C000E83009F441C0E430A9F7809180008C7FC7
:1003D00082608093800090918100907E9061692B73
:1003E0006093810050938700409386008091800045
:1003F00080621BC084B5806884BDDCCF84B5806218
:10040000FBCF809180008C7F8260809380009091F0
:100410008100907E9061692B6093810050938700EA
:100420004093860080918000806880938000C2CFD6
:100430008091B00080688093B0008091B100887F87
:10044000682B6093B100B6CF8091B0008062F3CF8B
:10045000FC01A781B0858C9191858923A481B58108
:100460009C9140815181628173812681922359F050
:1004700081110BC04F5F5F4F6F4F7F4F40835183A0
:100480006283738308958111F5CF41505109610949
:100490007109F4CF83EB91E0DBCF8EEB91E0D8CF05
:1004A00089EC91E0D5CF84ED91E0D2CFFC01A4811D
:1004B000B5818C9196818923A781B0859C914081DB
:1004C0005181628173812185922359F0882359F0EB
:1004D0004F5F5F4F6F4F7F4F4083518362837383C2
:1004E00008958823A9F34150510961097109F4CF96
:1004F00083EB91E0DBCF8EEB91E0D8CF89EC91E0FC
:10050000D5CF84ED91E0D2CF0F931F93CF93DF939C
:10051000082F162FEA01A091B2018BE0A89FD0010D
:100520001124AD54BE4F1D921D921D921C92139723
:1005300081E01A968C931A97802F90E0FC01E45882
:10054000FF4FE4911696EC931697FC01E057FF4F8E
:10055000E491F0E0EE0FFF1FEC55FF4F8591949171
:1005600015969C938E931497862F90E0FC01E45887
:10057000FF4FE4911996EC931997FC01E057FF4F58
:10058000E491F0E0EE0FFF1FEC55FF4F8591949141
:1005900018969C938E93179760E0802F0E94741397
:1005A00060E0812F0E9474138091B201813081F14B
:1005B000A0F0823009F445C0833009F45BC080911B
:1005C000B20191E0980F9093B201888390E080E0AF
:1005D000DF91CF911F910F91089580E0023021F0BB
:1005E0008FEF033009F481E041E050E06AE472E00B
:1005F0000E94E21180E0123021F08FEF133009F4F5
:1006000081E041E050E068E772E00E94E211D7CF5C
:1006100080E0023021F08FEF033009F481E041E007
:1006200050E06DE472E00E94E21180E0123021F0AF
:100630008FEF133009F481E041E050E06BE772E0A6
:10064000E4CF80E0023021F08FEF033009F481E045
:1006500041E050E060E572E00E94E21180E012307B
:1006600021F08FEF133009F481E041E050E06EE7B4
:1006700072E0CBCF80E0023021F08FEF033009F43D
:1006800081E041E050E063E572E00E94E21180E029
:10069000123021F08FEF133009F481E041E050E097
:1006A00061E872E0B2CF9BE0899FF0011124ED5424
:1006B000FE4F80819181A281B381FB018083918370
:1006C000A283B38390E080E008959BE0899FF001CE
:1006D0001124ED54FE4F108211821282138290E099
:1006E00080E0089590E080E00895611102C00C94CC
:1006F00074136130E1F362E0FACF662319F061E030
:100700000C94B01360E0FCCF21E03091E201311194
:1007100020E0FC01218321E03091E301311120E050
:10072000FC0122830895CF92DF92EF92FF926B013A
:100730007C019F7720E030E040E859E50E94860F79
:1007400087FF2BC020E030E040E05FE3C701B60147
:100750000E947A1187FD0EC020E030E040E05FE3A8
:10076000C701B6010E940F0FFF90EF90DF90CF906E
:100770000C94A21020E030E040E05FEBC701B6012E
:100780000E947A11181684F420E030E0A901C70114
:10079000B6010E947E116B017C01C701B601FF907A
:1007A000EF90DF90CF90089520E030E040E05FE3ED
:1007B000C701B6010E940E0FFF90EF90DF90CF901F
:1007C0000C94730F9091E2018091E301911105C0A7
:1007D00021E0811120E02093E4019F5F923040F4FA
:1007E0009093E2018F5F843030F48093E3010895A9
:1007F0001092E201F7CF1092E30108952F923F92F9
:100800004F925F926F927F928F929F92AF92BF9220
:10081000CF92DF92EF92FF920F931F93CF93DF93CC
:10082000CDB7DEB762970FB6F894DEBF0FBECDBF6F
:100830002090E401222001F180917B0390917C03C0
:10084000A0917D03B0917E038093AA039093AB03A4
:10085000A093AC03B093AD0380917F03909180038C
:10086000A0918103B09182038093AE039093AF0374
:10087000A093B003B093B1036EE070E080E090E02D
:100880005BDC90934A038093490343E050E0BE0150
:100890006F5F7F4F40DC2091700130917101A98121
:1008A000BA810E94E0156B017C013090A8033110E1
:1008B00063C020E030E040E85FE36091870370911F
:1008C00088038091890390918A030E940F0F2B0166
:1008D0003C01409287035092880360928903709292
:1008E0008A03C701B6010E94271020E030E040E0F3
:1008F00054E30E947E114B015C0120918B033091E7
:100900008C0340918D0350918E030E940F0F6F83D3
:10091000788789879A8760938B0370938C03809381
:100920008D0390938E038091930390919403A091F3
:100930009503B09196038B839C83AD83BE839C010A
:10094000AD01C301B2010E947A1187FD36C02B812F
:100950003C814D815E816F81788589859A850E9471
:100960008A0F60938F037093900380939103909309
:10097000920381E08093A803C701B6010E9427106B
:1009800020E030E040E054E30E947E1120918F038C
:100990003091900340919103509192030E940E0F69
:1009A0002BED3FE049EC50E40E940F0F6B837C83FA
:1009B0008D839E83332433940CC02BED3FE049ECB0
:1009C0005FE3C501B4010E940F0F6B837C838D83AD
:1009D0009E838B819C81AD81BE818093B203909375
:1009E000B303A093B403B093B503209118013091E1
:1009F000190140911A0150911B01BC01CD010E94C7
:100A00007E116F87788B898B9A8B2091730330913D
:100A1000740340917503509176030E940E0F6B870B
:100A20007C878D879E8780919B02811110929B020B
:100A30001092B6031092B7031092B8031092B90344
:100A40002091C4023091C5024091C6025091C70264
:100A50006B857C858D859E850E940F0F4B015C0107
:100A60004090F8025090F9026090FA027090FB02F8
:100A7000C090F402D090F502E090F602F090F702F8
:100A8000C701B6010E94F20F8B010150110920E04D
:100A900030E0A901C301B2010E94860F000F111FAF
:100AA000000F111F81112FC1F801EB56FD4F23A933
:100AB00034A945A956A9C501B4010E940F0F6F833F
:100AC000788789879A870B561D4F8B859C85AD85C6
:100AD000BE85F80183AB94ABA5ABB6AB20E030E0AC
:100AE00040E351E4C701B6010E94860F882309F450
:100AF0000FC120E030E040E85FE3C701B6010E948B
:100B00000F0F6B017C0120E030E0A901C301B201AD
:100B10000E94860F811112C020E030E040E451E4D1
:100B20006F81788589859A850E948A0F6093B603C4
:100B30007093B7038093B8039093B9038092C40273
:100B40009092C502A092C602B092C702C092F4026F
:100B5000D092F502E092F602F092F70220E030E047
:100B6000A901C301B2010E947A1118160CF0F7C056
:100B700020E030E040E85FE3C301B2010E940E0FC5
:100B80006093F8027093F9028093FA029093FB024B
:100B9000409020015090210160902201709023012B
:100BA000C0902401D0902501E0902601F09027010B
:100BB0008090280190902901A0902A01B0902B01EB
:100BC00020911C0130911D0140911E0150911F0187
:100BD0006091AA037091AB038091AC039091AD0337
:100BE0000E940E0F6F83788789879A876093BA0374
:100BF0007093BB038093BC039093BD03A301920148
:100C00006091AE037091AF038091B0039091B103F6
:100C10000E940E0F6B877C878D879E876093BE0333
:100C20007093BF038093C0039093C103A701960103
:100C30006B817C818D819E810E940E0F6B017C01F6
:100C4000C092C203D092C303E092C403F092C503E2
:100C50004090B6035090B7036090B8037090B9030A
:100C6000A5019401C301B2010E940E0F4B015C016A
:100C70008092C6039092C703A092C803B092C903A2
:100C8000332009F4C2C12BED3FE049E450E46B810D
:100C90007C818D819E810E940E0F9F772AE939E920
:100CA00049E15EE30E94860F87FF0BC0C301B201DA
:100CB0009F7720E030E040EC5FE30E94860F87FDE5
:100CC00057C02220C9F082E090E040918303509108
:100CD000840360918503709186034093CA03509307
:100CE000CB036093CC037093CD038130910509F45D
:100CF00043C0029709F08DC181E08093A60360E0B4
:100D000070E0CB01C6C01F82188619861A86DBCE1A
:100D10000CEE12E034ECE32E32E0F32ED801149600
:100D20002D913D914D915C9117976D917D918D9194
:100D30009C910E940F0FF8016083718382839383DB
:100D400004501109E016F10649F7812C912C540149
:100D5000C12CD12C20E8E22E2FE3F22ED4CE10921B
:100D6000F8021092F9021092FA021092FB0210CFD0
:100D700081E090E02110A9CF20912C0130912D012C
:100D800040912E0150912F016F81788589859A8538
:100D90000E947E112B013C012091300130913101E4
:100DA00040913201509133016B857C858D859E8504
:100DB0000E947E119B01AC01C301B2010E940F0F82
:100DC0002B013C01209134013091350140913601D5
:100DD00050913701C701B6010E947E119B01AC0101
:100DE000C301B2010E940F0F6B017C0120913801F9
:100DF0003091390140913A0150913B01C501B40154
:100E00000E947E119B01AC01C701B6010E940F0F29
:100E100020913C0130913D0140913E0150913F01B4
:100E20000E947E116B017C01209108013091090123
:100E300040910A0150910B016091000170910101F4
:100E400080910201909103010E947E112091040182
:100E50003091050140910601509107010E948A0FCF
:100E60009B01AC01C701B6010E947E112091CA030B
:100E70003091CB034091CC035091CD03D0D720913A
:100E800048013091490140914A0150914B010E9423
:100E90007E1120914C0130914D0140914E015091B5
:100EA0004F010E947E114B015C0120E030E0A9015E
:100EB0000E947A11C12CD12C760118164CF07501C4
:100EC0006401F7FAF094F7F8F094812C912C540116
:100ED00065E070E080E090E0C3D98C0190935A0304
:100EE0008093590320E030E04FE753E4C501B4019B
:100EF0000E94860F181634F4812C912C9FE7A92E9E
:100F000093E4B92EB501A401C80188D966E070E068
:100F100080E090E0A5D98C01909352038093510317
:100F200020E030E04FE753E4C701B601EFD71816D1
:100F300034F4C12CD12C8FE7E82E83E4F82EB701CE
:100F4000A601C8016BD96091500170915101809147
:100F5000520190915301E7DB6B017C0120E030E00E
:100F600040E853E4D3D76FEF87FF0EC020E030E0B6
:100F7000A901C701B6010E947A1160E087FD04C093
:100F8000C701B6010E94F70F87E0B7DB20E030E031
:100F900040E853E4C701B601B9D76FEF87FF0EC031
:100FA00020E030E0A901C701B6010E947A1160E09B
:100FB00087FD04C0C701B6010E94F70F88E09DDBE2
:100FC0008F859889A989BA89809373039093740354
:100FD000A0937503B093760362960FB6F894DEBFC4
:100FE0000FBECDBFDF91CF911F910F91FF90EF907A
:100FF000DF90CF90BF90AF909F908F907F906F9039
:101000005F904F903F902F90089583E090E02110E3
:101010005CCE6091400170914101809142019091BC
:10102000430137CF4F925F926F927F928F929F9240
:10103000AF92BF92CF92DF92EF92FF920F931F93E6
:10104000CF93DF93CDB7DEB72C970FB6F894DEBF02
:101050000FBECDBF80916103811110926103BE016B
:101060006F5F7F4F809162031EDB809162032DDBF7
:101070002091A20389819A81AB81BC8121110BC08F
:1010800080939B0390939C03A0939D03B0939E0336
:1010900021E02093A20340919B0350919C03609117
:1010A0009D0370919E038C019D01B7FD41C00F5FB0
:1010B0001F4F2F4F3F474017510762077307F4F147
:1010C0008C019D01041B150B260B370B37FF0DC040
:1010D000011511052105E0E83E0781F130952095C5
:1010E000109501951F4F2F4F3F4F093C11052105CA
:1010F000310524F58C019D01B7FF0CC00097A105B7
:10110000F0E8BF07D9F0002711279801081B190B39
:101110002A0B3B0B053F1140210531057CF48093E0
:101120009B0390939C03A0939D03B0939E030AC0DE
:101130003058041715072607370714F649835A83D2
:101140006B837C8380910203811110920203609172
:101150006C0170916D0180916E0190916F012981F8
:101160003A814B815C810E94EF156DD720E030E021
:1011700040E052E30E947E116D837E838F839887C7
:1011800020912B0330912C0340912D0350912E037D
:1011900046D62B013C01C0903F03D0904003E09025
:1011A0004103F090420380903B0390903C03A09059
:1011B0003D03B0903E03C501B40114D78B0101502B
:1011C000110920E030E0A901C701B6019FD6000F48
:1011D000111F000F111F8111EDC0F801E15DFC4FDF
:1011E0002081318142815381C301B20118D66987C0
:1011F0007A878B879C87015D1C4F8D819E81AF8193
:10120000B885F80180839183A283B38320E030E026
:1012100040E450E4C501B40179D6882309F4CFC075
:1012200020E030E040E85FE3C501B401F8D56D830C
:101230007E838F83988720E030E0A901C701B60143
:1012400065D6812C912C540181110CC020E030E036
:1012500040E85EE369857A858B859C850E947E11D6
:101260004B015C0140922B0350922C0360922D03A2
:1012700070922E038D819E81AF81B88580933B0350
:1012800090933C03A0933D03B0933E0320E030E0F5
:10129000A901C701B6010E947A1118160CF0C7C047
:1012A00020E030E040E85FE3C701B601B7D56093C6
:1012B0003F03709340038093410390934203209136
:1012C0006401309165014091660150916701C5014B
:1012D000B4010E947E112091680130916901409112
:1012E0006A0150916B010E947E116B017C0120917B
:1012F00008013091090140910A0150910B01609160
:10130000040170910501809106019091070102D6B8
:10131000A7019601F3D760938303709384038093AE
:101320008503909386038090770390907803A09034
:101330007903B0907A0380927B0390927C03A09211
:101340007D03B0927E03C0927F03D0928003E0922F
:101350008103F09282032091540130915501409114
:10136000560150915701C701B601C8D7A501940194
:1013700056D56B017C01C0927703D0927803E0923E
:101380007903F0927A0380905C0190905D01A090C7
:101390005E01B0905F01A5019401ACD718160CF066
:1013A0004FC08092770390927803A0927903B09215
:1013B0007A0355C019861A861B861C861CCF20917D
:1013C0003703309138034091390350913A036091CB
:1013D00033037091340380913503909136031FD508
:1013E0009B01AC01209333033093340340933503C6
:1013F0005093360360912F03709130038091310335
:10140000909132030CD560932F0370933003809337
:1014100031039093320380E090E0A0E8BFE38D8336
:101420009E83AF83B887412C512C320104CF109298
:101430003F031092400310924103109242033FCFAA
:101440008090600190906101A0906201B090630172
:10145000A5019401C701B60159D587FDA2CF2C96ED
:101460000FB6F894DEBF0FBECDBFDF91CF911F91B5
:101470000F91FF90EF90DF90CF90BF90AF909F9033
:101480008F907F906F905F904F9008952F923F9232
:101490004F925F926F927F928F929F92AF92BF9284
:1014A000CF92DF92EF92FF920F931F93CF93DF9330
:1014B00084E090E02DD3EFEDF1E086E0DF011D92B6
:1014C0008A95E9F7E2EBF3E08CE1DF011D928A9562
:1014D000E9F7C5E9D2E085E191E0FE019C011192B6
:1014E00021503040E1F70AEA13E080E0C82E81E0A5
:1014F000D82EF60180899189A289B389F801808369
:101500009183A283B383F60184899589A689B789DB
:10151000F80184839583A683B78333243394309270
:10152000A903812C912C54018394809244039092BE
:101530004503A0924603B09247036EE070E080E05E
:1015400090E00E94E00090934A0380934903309218
:10155000480318823092A70389829A82AB82BC82A8
:101560008FA298A6A9A6BAA68BA69CA6ADA6BEA633
:101570001FA618AA19AA1AAA2CE2222EA8ECB2E0D9
:10158000E22D1D92EA95E9F7412C512C30E8632EAB
:101590003FE3732EA4EFB2E04D925D926D927C9288
:1015A0001397E8EFF2E010821182128213823D82DB
:1015B0001E82E4E4F1E080819181A281B381F8018F
:1015C00080A391A3A2A3B3A3109253033092A503C7
:1015D0008092540390925503A0925603B092570301
:1015E000E12CF12C8701A801970165E070E080E013
:1015F00090E00E94740190935A03809359033092B3
:10160000580310924B033092A40380924C039092A3
:101610004D03A0924E03B0924F03A801970166E0DC
:1016200070E080E090E00E947401909352038093F8
:1016300051033092500310926B033092A0038092BA
:101640006C0390926D03A0926E03B0926F0361E001
:1016500087E04BD8309270031092630330929F035F
:101660008092640390926503A0926603B092670330
:1016700061E088E03AD83092680342E6E42E43E025
:10168000F42ED7011C9210925B033092A30300E664
:1016900013E0F801108280925C0390925D03A092A7
:1016A0005E03B0925F03A70163E082E00E948402C0
:1016B000D8013C92109261031092FC023092A10377
:1016C0008092FD029092FE02A092FF02B09200036F
:1016D0008092230390922403A0922503B0922603C4
:1016E0008092270390922803A0922903B0922A03A4
:1016F0000BE213E0F80110821182128213825FE282
:10170000A52E53E0B52ED5011D921D921D921C925F
:10171000139763E3862E63E0962EF4011082118204
:1017200012821382A7E3B3E01D921D921D921C92B8
:101730001397EBE3F3E04082518262827382AFE35E
:10174000B3E01D921D921D921C92139730920103DB
:1017500010920203F60180899189A289B38980934E
:101760007B0390937C03A0937D03B0937E038489D5
:101770009589A689B78980937F0390938003A0936E
:101780008103B093820384859585A685B785809370
:10179000730390937403A0937503B0937603E4E40A
:1017A000F1E080819181A281B38180938303909342
:1017B0008403A0938503B093860380915801909190
:1017C0005901A0915A01B0915B01809377039093E6
:1017D0007803A0937903B0937A0380E090E0AAE7BE
:1017E000B3E48093930390939403A0939503B093F1
:1017F0009603109287031092880310928903109227
:101800008A0310928B0310928C0310928D03109216
:101810008E0310928F0310929003109291031092F6
:1018200092031092A8031092A6031092A2031FA67F
:1018300018AA19AA1AAAA8ECB2E01D922A94E9F7EC
:10184000E4EFF2E04082518262827382A8EFB2E05C
:101850001D921D921D921C921397F70180810E9488
:101860006503D8011D921D921D921C921397F501DC
:101870001082118212821382D4011D921D921D9238
:101880001C921397E7E3F3E0108211821282138215
:10189000ABE3B3E04D925D926D927C921397EFE3D0
:1018A000F3E01082118212821382DF91CF911F9197
:1018B0000F91FF90EF90DF90CF90BF90AF909F90EF
:1018C0008F907F906F905F904F903F902F900895F2
:1018D0008091430381111FC081E080934303809175
:1018E000440390914503A0914603B09147030197AB
:1018F000A105B10581F480914803882361F06EE071
:1019000070E080E090E00E949C0090934A038093F6
:1019100049030E94030180919502811126C081E054
:10192000809395028091960290919702A0919802DF
:10193000B09199020197A105B105B9F480919A027D
:10194000882399F08FEF9FEFDC018093BC02909386
:10195000BD02A093BE02B093BF028093C0029093D9
:10196000C102A093C202B093C302809153038111BC
:101970002EC081E0809353038091540390915503CE
:10198000A0915603B09157030197A105B105F9F451
:10199000809158038823D9F065E070E080E090E002
:1019A0000E94300190935A038093590340E050E025
:1019B000BA010E940E0165E070E080E090E00E94B4
:1019C000300190935A03809359030E94BF01809184
:1019D0004B0381112EC081E080934B0380914C0317
:1019E00090914D03A0914E03B0914F030197A10533
:1019F000B105F9F4809150038823D9F066E070E0D6
:101A000080E090E00E943001909352038093510354
:101A100040E050E0BA010E940E0166E070E080E014
:101A200090E00E94300190935203809351030E94F2
:101A3000BF0180916B03811103C081E080936B0330
:101A400080916303811103C081E0809363038091DF
:101A50005B03811114C081E080935B0380915C0380
:101A600090915D03A0915E03B0915F030197A10582
:101A7000B10529F48091600381110E947203809165
:101A8000FC02811126C081E08093FC028091FD025E
:101A90009091FE02A091FF02B09100030197A10571
:101AA000B105B9F480910103882399F08FEF9FEF7E
:101AB000DC018093230390932403A0932503B09328
:101AC00026038093270390932803A0932903B093C0
:101AD0002A03089560E070E080E89FE7089560E0E1
:101AE00070E080E89FE7089560E070E080E89FEF95
:101AF000089560E070E080E89FEF089560E070E096
:101B000080EC9FEF089560E070E080EC9FEF089517
:101B1000F5DF6093DA037093DB038093DC0390932B
:101B2000DD03F1DF6093CE037093CF038093D00386
:101B30009093D103CFDF6093D6037093D703809344
:101B4000D8039093D903CBDF6093D2037093D30370
:101B50008093D4039093D503C7DF6093DE03709323
:101B6000DF038093E0039093E103C3DF6093E2031C
:101B70007093E3038093E4039093E503089508953D
:101B800026E030E040E855E260E070E090E080E080
:101B900000C01092E6011092E50189309105E8F449
:101BA0008B52924FFC010C94DA15DE0DE70DEE0D11
:101BB000F10DF40DF70DFA0DFD0D030E81E090E02F
:101BC0009093E6018093E50188EF91E0C0C682E042
:101BD00090E09093E6018093E501089584E090E021
:101BE000F8CF88E090E0F5CF80E190E0F2CF80E29E
:101BF00090E0EFCF80E490E0ECCF80E890E090932D
:101C0000E6018093E5018091E5019091E601916004
:101C1000E0CF1F920F920FB60F9211242F933F9394
:101C20004F935F936F937F938F939F93AF93BF93E4
:101C3000EF93FF9385E99CEF909385008093840058
:101C400032D0FF91EF91BF91AF919F918F917F9192
:101C50006F915F914F913F912F910F900FBE0F9019
:101C60001F90189585E99CEF9093850080938400E0
:101C7000AFE6B0E08C918E7F8C93E0E8F0E080815D
:101C80008C7F8083E1E8F0E08081877E80838081A3
:101C90008360808380818B7F80838C9181608C9333
:101CA000089581E00895CF93DF9300D01F92CDB7C0
:101CB000DEB78091EA0191E0980F9093EA018823C2
:101CC00071F021E030E03093EE012093ED0180933C
:101CD000EA010F900F900F90DF91CF910895CE0100
:101CE00001960E94840378940E94E203F894809104
:101CF000EA0181508093EA018A81811135C08B818C
:101D000081113EC08091EB018111E3CF8091E80108
:101D1000882389F081E08093EB0178940E94FE0390
:101D2000F8948091E80181508093E8018091EB0163
:101D300081508093EB018091EC018111CACF809199
:101D4000E901882331F281E08093EC0178946AD92B
:101D5000F8948091E90181508093E9018091EC0130
:101D600081508093EC01B5CF8091E80191E0980F0C
:101D70009093E801882309F4C2CF21E030E00BC042
:101D80008091E90191E0980F9093E90122E030E021
:101D9000882309F4B7CF41E050E05093EE0140931F
:101DA000ED0129513E4FF9018083ACCFCF93DF93F2
:101DB0001092E7031092E603BDD3E2DEC0917701F3
:101DC000D09178011982188261DBF8944BDF81E0B1
:101DD00028813981232B09F080E08093E6037894F1
:101DE00078948091E603811107C072DDF89490E049
:101DF00080E0DF91CF91089581E028813981232B04
:101E000009F480E08093E7039091E70381E091116A
:101E100080E08093E60345DFB2DEE3CF5058BB2776
:101E2000AA270ED016C207D230F00CD220F031F41F
:101E30009F3F11F41EF4ECC10EF4E095E7FBB9C12D
:101E4000E92F18D280F3BA17620773078407950742
:101E500018F071F49EF547C20EF4E0950B2EBA2FE0
:101E6000A02D0B01B90190010C01CA01A0011124A0
:101E7000FF27591B99F0593F50F4503E68F11A164C
:101E8000F040A22F232F342F4427585FF3CF4695DD
:101E900037952795A795F0405395C9F77EF41F16FF
:101EA000BA0B620B730B840BBAF09150A1F0FF0FC9
:101EB000BB1F661F771F881FC2F70EC0BA0F621FB5
:101EC000731F841F48F4879577956795B795F795A5
:101ED0009E3F08F0B3CF9395880F08F09927EE0F37
:101EE000979587950895E8D180F09F3740F4911138
:101EF0000EF4FAC160E070E080E89FE3089526F0F8
:101F00001B16611D711D811D5AC174C12ED108F4AB
:101F100081E008950CD09DC195D140F08CD130F076
:101F200021F45F3F19F045C15111DEC171C1A2D149
:101F300098F39923C9F35523B1F3951B550BBB2790
:101F4000AA2762177307840738F09F5F5F4F220F3D
:101F5000331F441FAA1FA9F333D00E2E3AF0E0E836
:101F600030D091505040E695001CCAF729D0FE2F82
:101F700027D0660F771F881FBB1F26173707480714
:101F8000AB07B0E809F0BB0B802DBF01FF279358CA
:101F90005F4F2AF09E3F510568F00BC1A5C15F3F1E
:101FA000ECF3983EDCF3869577956795B795F795B2
:101FB0009F5FC9F7880F911D9695879597F90895AA
:101FC000E1E0660F771F881FBB1F62177307840746
:101FD000BA0720F0621B730B840BBA0BEE1F88F755
:101FE000E095089504D06894B1117EC108954AD156
:101FF00088F09F5790F0B92F9927B751A0F0D1F0F2
:10200000660F771F881F991F1AF0BA95C9F712C07B
:10201000B13081F068D1B1E0089565C1672F782FA4
:102020008827B85F39F0B93FCCF3869577956795E7
:10203000B395D9F73EF490958095709561957F4F53
:102040008F4F9F4F089597FB0EF4E5D03EC0E89464
:1020500009C097FB3EF490958095709561957F4FF0
:102060008F4F9F4F9923A9F0F92F96E9BB2793959E
:10207000F695879577956795B795F111F8CFFAF4AE
:10208000BB0F11F460FF1BC06F5F7F4F8F4F9F4FDF
:1020900016C0882311F096E911C0772321F09EE83D
:1020A000872F762F05C0662371F096E8862F70E0A3
:1020B00060E02AF09A95660F771F881FDAF7880F7D
:1020C0009695879597F90895E894F92F96EBFF2355
:1020D00081F0121613061406440B9395F695879516
:1020E0007795679557954040FF23B9F71BC099270F
:1020F0000895882351F49850D2F7872B762F652FB7
:10210000542F432F322F20E0B1F31216130614067A
:10211000440B88233AF09A95440F551F661F771F8A
:10212000881FCAF755234AF4440F551F11F460FF66
:1021300004C06F5F7F4F8F4F9F4F880F9695879595
:1021400097F90895B9D080F09F3740F491110EF0BF
:10215000CBC060E070E080E89FEB089526F41B168A
:10216000611D711D811D2BC045C0990F0008550FC1
:10217000AA0BE0E8FEEF16161706E807F907C0F00D
:1021800012161306E407F50798F0621B730B840B15
:10219000950B39F40A2661F0232B242B252B21F4EF
:1021A00008950A2609F4A140A6958FEF811D811D8F
:1021B000089597F99F6780E870E060E008958823AC
:1021C00071F4772321F09850872B762F07C0662370
:1021D00011F499270DC09051862B70E060E02AF031
:1021E0009A95660F771F881FDAF7880F969587955F
:1021F00097F908959F3F31F0915020F48795779596
:102200006795B795880F911D9695879597F90895CD
:102210009FEF80EC0895909580957095609550950E
:102220004095309521953F4F4F4F5F4F6F4F7F4FF8
:102230008F4F9F4F089500240A941616170618060C
:102240000906089500240A941216130614060506BA
:102250000895092E0394000C11F4882352F0BB0F4B
:1022600040F4BF2B11F460FF04C06F5F7F4F8F4FAE
:102270009F4F089557FD9058440F551F59F05F3FE9
:1022800071F04795880F97FB991F61F09F3F79F098
:1022900087950895121613061406551FF2CF46951A
:1022A000F1DF08C0161617061806991FF1CF86959C
:1022B0007105610508940895E5DFA0F0BEE7B91740
:1022C00088F4BB279F3860F41616B11D672F782F4E
:1022D0008827985FF7CF869577956795B11D939579
:1022E0009639C8F30895E894BB2766277727CB0172
:1022F00097F908953ADF08F48FEF08950BD0A9CF2E
:102300009ADF28F09FDF18F0952309F052CF80CF95
:102310001124EACFAFDFA0F3959FD1F3950F50E0E2
:10232000551F629FF001729FBB27F00DB11D639F87
:10233000AA27F00DB11DAA1F649F6627B00DA11D2D
:10234000661F829F2227B00DA11D621F739FB00DD3
:10235000A11D621F839FA00D611D221F749F332743
:10236000A00D611D231F849F600D211D822F762FDC
:102370006A2F11249F5750408AF0E1F088234AF0D9
:10238000EE0FFF1FBB1F661F771F881F9150504025
:10239000A9F79E3F510570F00CCFA6CF5F3FECF33D
:1023A000983EDCF3869577956795B795F795E79511
:1023B0009F5FC1F7FE2B880F911D9695879597F922
:1023C000089508958230E8F4E82FF0E0EE0FFF1F43
:1023D000EE58FE4F71836083813041F08091690037
:1023E0008C7F482B40936900E89A0895809169009A
:1023F000837F440F551F440F551F482B409369009E
:10240000E99A08951F920F920FB60F9211242F93FD
:102410003F934F935F936F937F938F939F93AF936C
:10242000BF93EF93FF93E0917201F09173010995CF
:10243000FF91EF91BF91AF919F918F917F916F919C
:102440005F914F913F912F910F900FBE0F901F9072
:1024500018951F920F920FB60F9211242F933F934E
:102460004F935F936F937F938F939F93AF93BF939C
:10247000EF93FF93E0917401F09175010995FF913D
:10248000EF91BF91AF919F918F917F916F915F91EC
:102490004F913F912F910F900FBE0F901F90189565
:1024A0001F920F920FB60F9211242F933F938F9389
:1024B0009F93AF93BF938091F0019091F101A09110
:1024C000F201B091F3013091EF0123E0230F2D379A
:1024D00058F50196A11DB11D2093EF018093F001E5
:1024E0009093F101A093F201B093F3018091F40174
:1024F0009091F501A091F601B091F7010196A11D0F
:10250000B11D8093F4019093F501A093F601B0936F
:10251000F701BF91AF919F918F913F912F910F90B4
:102520000FBE0F901F90189526E8230F0296A11D4D
:10253000B11DD2CF789484B5826084BD84B58160AA
:1025400084BD85B5826085BD85B5816085BDEEE6BB
:10255000F0E0808181608083E1E8F0E0108280819A
:1025600082608083808181608083E0E8F0E0808108
:1025700081608083E1EBF0E0808184608083E0EB28
:10258000F0E0808181608083EAE7F0E08081846010
:10259000808380818260808380818160808380816C
:1025A000806880831092C10008958E3008F08E50AC
:1025B0002091760190E4299F900111248770822B4D
:1025C00080937C0080917A00806480937A0080916F
:1025D0007A0086FDFCCF8091780090917900089573
:1025E0001F93CF93DF93182FEB0161E07DD02097ED
:1025F00031F460E0812FDF91CF911F91B1C0CF3FC7
:10260000D10511F461E0F6CFE12FF0E0E859FF4F7A
:10261000E491E33031F140F4E130B1F0E230E1F047
:10262000C038D1057CF7E5CFE73029F1E83059F122
:10263000E430B1F780918000806280938000D09375
:102640008B00C0938A0004C084B5806884BDC7BD78
:10265000DF91CF911F91089584B5806284BDC8BD7C
:10266000F7CF80918000806880938000D0938900AC
:10267000C0938800EDCF8091B00080688093B00057
:10268000C093B300E5CF8091B00080628093B0002A
:10269000C093B400DDCF833081F028F4813099F00D
:1026A0008230A9F008958730A9F08830C9F08430CD
:1026B000B1F4809180008F7D03C0809180008F777E
:1026C00080938000089584B58F7784BD089584B584
:1026D0008F7DFBCF8091B0008F778093B0000895FD
:1026E0008091B0008F7DF9CFCF93DF9390E0FC0114
:1026F000E458FF4F249180579F4FFC018491882319
:10270000C9F090E0880F991FFC01E854FF4FA59194
:10271000B491FC01E255FF4FC591D49161110DC0F8
:102720009FB7F8948C91209582238C9388812823DD
:1027300028839FBFDF91CF910895623051F49FB7F6
:10274000F8943C91822F809583238C93E8812E2BE3
:10275000EFCF8FB7F894EC912E2B2C938FBFEACF4D
:102760001F93CF93DF93282F30E0F901E859FF4FF3
:102770008491F901E458FF4FD491F901E057FF4FDC
:10278000C491CC23A1F0162F811185DFEC2FF0E04E
:10279000EE0FFF1FE255FF4FA591B4918FB7F8944C
:1027A000EC91111108C0D095DE23DC938FBFDF912F
:1027B000CF911F910895DE2BF8CFFC01918D228DD2
:1027C000892F90E0805C9F4F821B91098F7399271E
:1027D0000895FC01918D828D981731F0828DE80F5C
:1027E000F11D858D90E008958FEF9FEF0895FC0116
:1027F000918D828D981761F0A28DAE0FBF2FB11D04
:102800005D968C91928D9F5F9F73928F90E008955B
:102810008FEF9FEF0895FC01538D448D252F30E0FD
:10282000842F90E0821B930B541710F0CF960895DD
:1028300001970895FC01A48DA80FB92FB11DA35ACB
:10284000BF4F2C91848D90E001968F739927848FD0
:10285000A689B7892C93A089B1898C9183708064F3
:102860008C93938D848D981306C00288F389E02D94
:1028700080818F7D80830895CF93DF93EC01888DD5
:102880008823B1F0AA89BB89E889F9898C9185FDF3
:1028900003C0808186FD0CC00FB607FCF7CF8C917A
:1028A00085FFF2CF808185FFEDCFCE01C3DFEACF78
:1028B000DF91CF910895EF92FF920F931F93CF93E3
:1028C000DF93EC0181E0888F9B8D8C8D98131AC06B
:1028D000E889F989808185FF15C09FB7F894EE8952
:1028E000FF896083E889F9898081837080648083AF
:1028F0009FBF81E090E0DF91CF911F910F91FF90FA
:10290000EF900895F62E0B8D10E00F5F1F4F0F73A1
:102910001127E02E8C8D8E110BC00FB607FCFACF5D
:10292000E889F989808185FFF5CFCE0183DFF2CF79
:10293000EB8DEC0FFD2FF11DE35AFF4FF0829FB797
:10294000F8940B8FEA89FB8980818062D0CFCF9287
:10295000DF92EF92FF921F93CF93DF93EC016A0116
:102960007B01122FE889F98982E08083C11481EE0E
:10297000D806E104F10499F060E079E08DE390E09D
:10298000A7019601F5D02150310941095109569509
:10299000479537952795211580E1380790F0E8890C
:1029A000F989108260E874E88EE190E0A701960151
:1029B000DFD0215031094109510956954795379586
:1029C0002795EC85FD853083EE85FF852083188E65
:1029D000EC89FD891083EA89FB898081806180838D
:1029E000EA89FB89808188608083EA89FB8980810C
:1029F00080688083EA89FB8980818F7D8083DF9175
:102A0000CF911F91FF90EF90DF90CF9008951F928C
:102A10000F920FB60F9211242F938F939F93EF93E2
:102A2000FF93E0910802F09109028081E0910E028B
:102A3000F0910F0282FD1BC09081809111028F5F87
:102A40008F7320911202821741F0E0911102F0E0A1
:102A5000E850FE4F958F80931102FF91EF919F9167
:102A60008F912F910F900FBE0F901F90189580811E
:102A7000F4CF1F920F920FB60F9211242F933F9312
:102A80004F935F936F937F938F939F93AF93BF9376
:102A9000EF93FF9388EF91E0CDDEFF91EF91BF912F
:102AA000AF919F918F917F916F915F914F913F91E6
:102AB0002F910F900FBE0F901F901895E8EFF1E047
:102AC0001382128288EE93E0A0E0B0E084839583C5
:102AD000A683B7838DE791E09183808385EC90E0B6
:102AE0009587848784EC90E09787868780EC90E0D8
:102AF000918B808B81EC90E0938B828B82EC90E0C9
:102B0000958B848B86EC90E0978B868B118E128E42
:102B1000138E148E0895AF92BF92CF92DF92EF92F0
:102B2000FF920F931F93CF93DF936C017B018B0177
:102B3000040F151FEB015E01AE18BF08C017D107C7
:102B400059F06991D601ED91FC910190F081E02D51
:102B5000C6010995892B79F7C501DF91CF911F91A6
:102B60000F91FF90EF90DF90CF90BF90AF900895BE
:102B7000A1E21A2EAA1BBB1BFD010DC0AA1FBB1F81
:102B8000EE1FFF1FA217B307E407F50720F0A21BF3
:102B9000B30BE40BF50B661F771F881F991F1A9460
:102BA00069F760957095809590959B01AC01BD018A
:102BB000CF010895EE0FFF1F0590F491E02D0994C9
:102BC000A29FB001B39FC001A39F700D811D11246E
:102BD000911DB29F700D811D1124911D089597FBC9
:102BE00057FF0BC09F938F9308D06E1B7F0BAF9145
:102BF000BF918A0B9B0B0895E894DF93CF93FC0160
:102C0000DB01DEDF7F936F93E9019A01AC01BF9393
:102C1000AF933F932F93DF01D3DF26F46C1B7D0B23
:102C2000820B930B9E01EB01FC010DD0AF91BF9184
:102C30002F913F9108D0BE01CF01F9012F913F9113
:102C4000CF91DF910895BCDF460F571FC81FD91FD2
:0A2C500008F431960895F894FFCFC0
:102C5A000000C040E3A59B3DF4FDD43B000000000A
:102C6A0000000000000000006EDB0E4300000000C0
:102C7A0000000000DB0F49400000000066E674C354
:102C8A0000C099C30030A2443333EA420000803FB7
:102C9A0000000000000000000000AA41000080BF00
:102CAA000000803F4260653C000000000000003FD9
:102CBA00000000BF5077D63DF4FDD43BEC1D538392
:102CCA0042C9E111E11101DF01000000005B148B30
:0C2CDA00150B143C14DD13F713E9130074
:00000001FF
