:1000000061C000000C9444190C946B1983C000006B
:1000100081C000007FC000007DC000007BC00000E8
:1000200079C0000077C0000075C0000073C00000F8
:1000300071C000000C94D1156DC000006BC00000B1
:100040000C94921967C000000C94491C0C947B1C02
:1000500061C000005FC000005DC000005BC0000028
:1000600059C0000057C00000000000080002010055
:100070000003040700000000000000000102040863
:100080001020408001020408102001020408102002
:10009000040404040404040402020202020203032E
:1000A00003030303000000002300260029000000D2
:1000B0000000250028002B0000000000240027007D
:1000C0002A00A01C11241FBECFEFD8E0DEBFCDBF99
:1000D00012E0A0E0B1E0E8E9FAE302C005900D9279
:1000E000AA38B107D9F725E0AAE8B2E001C01D920D
:1000F000A533B207E1F710E0C2E6D0E004C02197D3
:10010000FE010E942B1DC136D107C9F70E9434168B
:100110000C944A1D75CFCF93DF93882349F0EB01F0
:1001200081500E94171A99838883DF91CF91089597
:10013000FB0111821082F9CF0F931F938B019C0159
:1001400083E036952795179507958A95D1F70D5633
:100150001D4F462F477021E030E0F90102C0EE0F3D
:10016000FF1F4A95E2F7AF01F80120812423CB015C
:100170000196211102C090E080E01F910F91089537
:100180000F931F938B019C0183E03695279517955C
:1001900007958A95D1F7677081E090E001C0880FDC
:1001A0006A95EAF7F801ED56FD4F2081452B31F4B1
:1001B0008095822380831F910F910895822BFACF1F
:1001C000CF92DF92EF92FF92CF93DF936B017C018E
:1001D00060E08EE0C816D104E104F10490F48EE0F2
:1001E0008C0D0E94B61AE6012196AE01C701B60138
:1001F000C7DFCE01DF91CF91FF90EF90DF90CF90DE
:1002000008958C2DEECF882341F08150682F70E047
:1002100090E080E050E040E0B3CF0895CF93282FE6
:100220008823E1F0CB01BA01CFEFC20FEC2FF0E051
:10023000E456FD4F2081213059F490580E94551703
:100240009B01AC016C2F70E090E080E0CF91A2C0E8
:100250000E9450178C2FCF910C94321ACF91089591
:100260000F931F938B019C0183E03695279517957B
:1002700007958A95D1F706571D4F462F477021E005
:1002800030E0F90102C0EE0FFF1F4A95E2F7AF011F
:10029000F80120812423CB010196211102C090E0B6
:1002A00080E01F910F9108950F931F938B019C0184
:1002B00083E036952795179507958A95D1F767704E
:1002C00081E090E001C0880F6A95EAF7F801E657EF
:1002D000FD4F2081452B31F48095822380831F912F
:1002E0000F910895822BFACF4F925F926F927F9277
:1002F0008F929F92AF92BF92CF92DF92EF92FF9236
:100300000F931F93CF93DF934B015C0129013A01B7
:10031000670161E0882D0E94B61AE4012196AE01C2
:10032000C501B401C1DF20E030E0A901C801B60178
:100330000E94861818168CF4F401E456FD4F81E0F3
:100340008083C801B6010E9455176B01C301B20139
:100350000E945517A601C40121D0CE01DF91CF9193
:100360001F910F91FF90EF90DF90CF90BF90AF90D3
:100370009F908F907F906F905F904F90089588230B
:1003800041F08150682F70E090E080E050E040E064
:100390008BCF0895862FB9010C94321A9C01FC0171
:1003A000E859FF4FE491E33061F140F4E13011F19D
:1003B000E23021F160E0822F0C94F21AE730C1F1B3
:1003C000E83009F441C0E430A9F7809180008C7FC7
:1003D00082608093800090918100907E9061692B73
:1003E0006093810050938700409386008091800045
:1003F00080621BC084B5806884BDDCCF84B5806218
:10040000FBCF809180008C7F8260809380009091F0
:100410008100907E9061692B6093810050938700EA
:100420004093860080918000806880938000C2CFD6
:100430008091B00080688093B0008091B100887F87
:10044000682B6093B100B6CF8091B0008062F3CF8B
:10045000FC01A781B0858C9191858923A481B58108
:100460009C9140815181628173812681922359F050
:1004700081110BC04F5F5F4F6F4F7F4F40835183A0
:100480006283738308958111F5CF41505109610949
:100490007109F4CF81EB92E0DBCF8CEB92E0D8CF07
:1004A00087EC92E0D5CF82ED92E0D2CFFC01A4811F
:1004B000B5818C9196818923A781B0859C914081DB
:1004C0005181628173812185922359F0882359F0EB
:1004D0004F5F5F4F6F4F7F4F4083518362837383C2
:1004E00008958823A9F34150510961097109F4CF96
:1004F00081EB92E0DBCF8CEB92E0D8CF87EC92E0FF
:10050000D5CF82ED92E0D2CF0F931F93CF93DF939D
:10051000082F162FEA01A091B0028BE0A89FD0010E
:100520001124AF54BD4F1D921D921D921C92139722
:1005300081E01A968C931A97802F90E0FC01E45882
:10054000FF4FE4911696EC931697FC01E057FF4F8E
:10055000E491F0E0EE0FFF1FEC55FF4F8591949171
:1005600015969C938E931497862F90E0FC01E45887
:10057000FF4FE4911996EC931997FC01E057FF4F58
:10058000E491F0E0EE0FFF1FEC55FF4F8591949141
:1005900018969C938E93179760E0802F0E94B61A4E
:1005A00060E0812F0E94B61A8091B002813081F103
:1005B000A0F0823009F445C0833009F45BC080911B
:1005C000B00291E0980F9093B002888390E080E0B1
:1005D000DF91CF911F910F91089580E0023021F0BB
:1005E0008FEF033009F481E041E050E06AE472E00B
:1005F0000E94241980E0123021F08FEF133009F4AB
:1006000081E041E050E068E772E00E942419D7CF12
:1006100080E0023021F08FEF033009F481E041E007
:1006200050E06DE472E00E94241980E0123021F065
:100630008FEF133009F481E041E050E06BE772E0A6
:10064000E4CF80E0023021F08FEF033009F481E045
:1006500041E050E060E572E00E94241980E0123031
:1006600021F08FEF133009F481E041E050E06EE7B4
:1006700072E0CBCF80E0023021F08FEF033009F43D
:1006800081E041E050E063E572E00E94241980E0DF
:10069000123021F08FEF133009F481E041E050E097
:1006A00061E872E0B2CF9BE0899FF0011124EF5422
:1006B000FD4F80819181A281B381FB018083918371
:1006C000A283B38390E080E008959BE0899FF001CE
:1006D0001124EF54FD4F108211821282138290E098
:1006E00080E0089590E080E00895611102C00C94CC
:1006F000B61A6130E1F362E0FACF662319F061E0E7
:100700000C94F21A60E0FCCF2F923F924F925F92CE
:100710006F927F928F929F92AF92BF92CF92DF9211
:10072000EF92FF920F931F93CF93DF9300D000D0EF
:10073000CDB7DEB78B015C834B83FB01E150F04CFE
:10074000EE0FFF1FEE0FFF1FE80FF91F40815181D1
:100750006281738177FD27C04C01B12CA12CC12C83
:10076000D12C7601A016B10664F5F4016191719166
:10077000819191914F010E9481174B815C810E9470
:100780008C189B01AC01C701B6010E946D166B016C
:100790007C012B813C81205E3F4F3C832B833FEFCC
:1007A000A31AB30ADFCF9A838983312C212C81E0ED
:1007B00090E0A0E0B0E0C12CD12C760120163106EB
:1007C000CCF0C701B6010F900F900F900F90DF9102
:1007D000CF911F910F91FF90EF90DF90CF90BF903E
:1007E000AF909F908F907F906F905F904F903F90D1
:1007F0002F900895E981FA81419051906190719014
:10080000FA83E983409450946094709453014201B8
:10081000880E991EAA1EBB1EC501B4010E94811735
:100820004B815C810E948C189B01AC01C701B60111
:100830000E946C166B017C0181E084149504A6046F
:10084000B70408F080E090E0B0E0A0E02B813C81AC
:10085000205E3F4F3C832B833FEF231A330AAECFFA
:100860002F923F924F925F926F927F928F929F92C0
:10087000AF92BF92CF92DF92EF92FF920F931F93AE
:10088000CF93DF93CDB7DEB7CB54D1090FB6F89431
:10089000DEBF0FBECDBF26967FAF6EAF26972896E0
:1008A0005FAF4EAF28973E8B2D8B2C96FFAEEEAEF2
:1008B0002C97FB01E150F04CEE0FFF1FEE0FFF1FD6
:1008C000E80FF91F80809180A280B3808F8A988E74
:1008D000A98EBA8EB501A401442777FD439555270B
:1008E0006627772729964FAF2997F901E150F04CF9
:1008F000EE0FFF1FEE0FFF1F2896AEACBFAC289780
:10090000EA0DFB1DC080D180E280F380CB8EDC8EAF
:10091000ED8EFE8EB701A601442777FD439555273E
:10092000662777272A964FAF2A97188B0F87F801EB
:1009300030E020E02C96EEACFFAC2C972E153F0556
:100940000CF43FC022969FAF8EAF22971A8B098B73
:10095000312C212C812C912C540183948D829E82E8
:10096000AF82B88626968EAC9FAC269728143904A1
:100970007CF129969FAC29972A96AFAC2A9730E054
:1009800020E041E050E060E070E09A10F5C1C55B06
:10099000DF4F0FB6F894DEBF0FBECDBFDF91CF9112
:1009A0001F910F91FF90EF90DF90CF90BF90AF908D
:1009B0009F908F907F906F905F904F903F902F907F
:1009C000089511921192119211922F5F3F4FB2CF61
:1009D0002296EEADFFAD229781919191A191B191B7
:1009E0002296FFAFEEAF22978F88988CA98CBA8C95
:1009F000B7FE23C04D815E816F81788541505109DA
:100A0000610971095A016B01A81AB90ACA0ADB0AFD
:100A1000D601C50121E0CD80DE80EF80F8848C1501
:100A20009D05AE05BF0508F020E0822E912CB12C6B
:100A3000A12C8D829E82AF82B8865D01CC24DD24FC
:100A4000A8A2B9A2CAA2DBA29C01AD0144275527E6
:100A50002CA33DA34EA35FA32C96EEADFFAD2C9728
:100A6000E219F3098D889E888E169F060CF4F40116
:100A70002896AEACBFAC28972496BFAEAEAE2497F6
:100A8000C988DA88DC8ACB8A1E861D86812C912C47
:100A90005401839489869A86AB86BC86812C912CDE
:100AA0005401CD84DE84CE16DF0604F1F7FF02C0C8
:100AB000F0E0E0E0E20DF31D2C96EEACFFAC2C97DD
:100AC000EE15FF0554F4EE0FFF1FEE0FFF1FE00FB2
:100AD000F11F80829182A282B3822FEF221A320A02
:100AE000E989FA893496FA8BE98B3CCF2496AEAD2E
:100AF000BFAD2497CD90DD90ED90FD902496BFAFD3
:100B0000AEAF24972B8D3C8D4D8D5E8D57FF22C04F
:100B100089859A85AB85BC850197A109B109AC018E
:100B2000BD014C195D096E097F096A017B0181E0F5
:100B300029853A854B855C85C216D306E406F50601
:100B400008F080E0482F50E070E060E049875A8765
:100B50006B877C87B7018827992768A779A78AA719
:100B60009BA7EE24FF2428A139A14AA15BA1C701BC
:100B7000B6010E94FA1C2B013C012CA13DA14EA103
:100B80005FA168A579A58AA59BA50E94FA1C6CA700
:100B90007DA78EA79FA7AB89BC894D915D916D9173
:100BA0007D91BC8BAB8BDB01CA01880D991DAA1D01
:100BB000BB1D89839A83AB83BC8391E09F8F29817E
:100BC0003A814B815C81281539054A055B0508F09F
:100BD0001F8E2CA13DA14EA15FA1C701B6010E94AD
:100BE000FA1C6B017C0189809A80AB80BC808C0CE4
:100BF0009D1CAE1CBF1C89829A82AB82BC825201B2
:100C00009924882488AA99AAAAAABBAA29813A81E8
:100C10004B815C81280D391D4A1D5B1D2CAB3DAB02
:100C20004EAB5FAB8CA49DA4AEA4BFA45401992489
:100C3000882488AE99AEAAAEBBAE280D391D4A1DD8
:100C40005B1D2CAF3DAF4EAF5FAFAB89BC89149736
:100C50002D933D934D935C93139728A139A14AA1FD
:100C60005BA168A579A58AA59BA50E94FA1C9F8C0B
:100C7000690D711D811D911D230166247724460E87
:100C8000571E681E791E2CA53DA54EA55FA54A01DD
:100C9000AA24BB24840C951CA61CB71C81E090E000
:100CA000A0E0B0E049815A816B817C814C155D05E3
:100CB0006E057F0518F080E090E0DC01880D991D3D
:100CC000AA1DBB1D41E050E060E070E088A899A833
:100CD000AAA8BBA8CCA8DDA8EEA8FFA8C814D90470
:100CE000EA04FB0418F040E050E0BA01840F951FBD
:100CF000A61FB71F812C912C54018394C8ACD9AC8A
:100D0000EAACFBAC2CAD3DAD4EAD5FAD2C153D0559
:100D10004E055F0518F0812C912C5401880E991E08
:100D2000AA1EBB1E4D855E854F5F5F4F5E874D8758
:100D3000B8CEEF85F889C190D190E190F190F88B11
:100D4000EF87DB01CA010197A109B1098C199D093F
:100D5000AE09BF09349780839183A283B383E1E016
:100D600084179507A607B70708F0E0E04E2F50E07C
:100D700070E060E02F5F3F4F2C968EAC9FAC2C97BD
:100D800028153905B4F203CEFC0117A610AA11AA42
:100D900012AA13AA14AA15AA16AA17AA10AE11AE5F
:100DA00012AE13AE14AE15AE16AEDC01DF9640E007
:100DB00050E060E87FE34D935D936D937C931397D0
:100DC000ED5BFF4F10821182128213820895FC01A5
:100DD0001082DC01A95BBF4F21E02C9381E090E001
:100DE000A0E0B0E081839283A383B48387A390A71C
:100DF000A1A7B2A783A794A7A5A7B6A717A610AACD
:100E000011AA12AA13AA14AA15AA16AA17AA10AEF2
:100E100011AE12AE13AE14AE15AE16AEDF01DF96F4
:100E200040E050E060E87FE34D935D936D937C93E9
:100E3000139714961D921D921D921C921397258351
:100E4000168208952F923F924F925F926F927F92F7
:100E50008F929F92AF92BF92CF92DF92EF92FF92CA
:100E60000F931F93CF93DF93CDB7DEB72C970FB6B9
:100E7000F894DEBF0FBECDBF6D837E838F839887CE
:100E80005A8749873C872B87D90116968C911697EC
:100E9000882311F016961C92E985FA85108211823A
:100EA00012821382AB85BC859F962D913D914D9109
:100EB0005C91D2976D817E818F8198850E946D169D
:100EC00069837A838B839C832B843C84B3E42B0ECD
:100ED000311CF101C080D180E280F380EB85FC857C
:100EE000FF9680809180A280B380C501B4010E94EA
:100EF00050178B010150110920E030E0A901C70112
:100F0000B6010E94E416000F111F000F111F412CA3
:100F1000512C3201811110C0EB85FC85E00FF11FCF
:100F200023A934A945A956A969817A818B819C811D
:100F30000E946D162B013C01EB85FC85E00FF11F33
:100F40008D819E81AF81B88583AB94ABA5ABB6ABE9
:100F500020E030E040E450E4C501B4010E94E41612
:100F6000882309F460C020E030E040E85FE3C50179
:100F7000B4010E946D164B015C0120E030E0A90134
:100F8000C701B6010E94E41681110EC020E030E0D6
:100F900040E85EE3C301B2010E94C018E985FA850A
:100FA000608371838283938389819A81AB81BC81C1
:100FB000EB85FC8587A790ABA1ABB2ABFF96808297
:100FC0009182A282B38220E030E0A901C701B6017C
:100FD0000E94861818160CF057C020E030E040E858
:100FE0005FE3C701B6010E946C16F1016083718353
:100FF000828393832C960FB6F894DEBF0FBECDBFCD
:10100000DF91CF911F910F91FF90EF90DF90CF90E4
:10101000BF90AF909F908F907F906F905F904F9018
:101020003F902F900895AB85BC85DB962D913D9127
:101030004D915C91DE97D7966D917D918D919C91AC
:10104000DA970E946D169B01AC01EB85FC8527ABFE
:1010500030AF41AF52AF63A974A985A996A90E9488
:101060006D16AB85BC85D3966D937D938D939C93C4
:10107000D697812C912C80E8A82E8FE3B82E198268
:101080001A821B821C8279CFD1011D921D921D9262
:101090001C921397AFCFFC018081811118C081E0B1
:1010A000808381819281A381B4810197A105B105DB
:1010B00071F48581882359F08FEF9FEFDC0187A3BE
:1010C00090A7A1A7B2A783A794A7A5A7B6A708959D
:1010D000CF92DF92EF92FF926B017C019F7720E02D
:1010E00030E040E859E50E94E41687FF2BC020E07D
:1010F00030E040E05FE3C701B6010E94861887FD3B
:101100000EC020E030E040E05FE3C701B6010E947E
:101110006D16FF90EF90DF90CF900C94BE1720E0FB
:1011200030E040E05FEBC701B6010E948618181658
:1011300084F420E030E0A901C701B6010E94C01884
:101140006B017C01C701B601FF90EF90DF90CF905B
:10115000089520E030E040E05FE3C701B6010E945F
:101160006C16FF90EF90DF90CF900C94D1162F92D9
:101170003F924F925F926F927F928F929F92AF9227
:10118000BF92CF92DF92EF92FF920F931F93CF9374
:10119000DF93CDB7DEB7E2970FB6F894DEBF0FBE90
:1011A000CDBF6EE070E080E090E00E949C009093E4
:1011B000A1038093A00343E050E0BE01635F7F4F33
:1011C0000E948B0020916C0230916D02AD85BE852E
:1011D0000E94311D6B017C01CD82DE82EF82F88698
:1011E0008091FF0381113FC620E030E040E85FE3DB
:1011F0006091E2037091E3038091E4039091E50331
:101200000E946D162B013C014092E2035092E303D1
:101210006092E4037092E503C701B6010E94811752
:1012200020E030E040E054E30E94C0186B017C01F4
:10123000C092DB04D092DC04E092DD04F092DE0484
:101240002091E6033091E7034091E8035091E903D0
:101250000E946D164B015C018092E6039092E703B9
:10126000A092E803B092E9030091EE031091EF031E
:101270002091F0033091F1030B8F1C8F2D8F3E8F47
:10128000A9019801C301B2010E94861887FD21C0FF
:101290002B8D3C8D4D8D5E8DC501B4010E94E816ED
:1012A0009B01AC012093EA033093EB034093EC03E2
:1012B0005093ED0381E08093FF03C701B6010E94C4
:1012C0006C166093DB047093DC048093DD049093D0
:1012D000DE042091C8013091C9014091CA015091AA
:1012E000CB012F8B388F498F5A8F2093C3043093B3
:1012F000C4044093C5045093C6048091DB049091CC
:10130000DC04A091DD04B091DE048B8F9C8FAD8F47
:10131000BE8F8093C7049093C804A093C904B09370
:10132000CA048091F603882309F440C08091D80153
:101330009091D901A091DA01B091DB018093CA03A9
:101340009093CB03A093CC03B093CD038091DC01A9
:101350009091DD01A091DE01B091DF018093CE0379
:101360009093CF03A093D003B093D1038091E00179
:101370009091E101A091E201B091E3018093D20349
:101380009093D303A093D403B093D5038091E40149
:101390009091E501A091E601B091E7018093D60319
:1013A0009093D703A093D803B093D90300916E0212
:1013B0000F8F002309F46AC581E0809302042AECB0
:1013C000222E23E0322E08E811E0C12CD12C760128
:1013D00046015701D1014D905D906D907D901D01AA
:1013E000F8012081318142815381C301B2010E9401
:1013F000C0189B01AC01C501B4010E946D164B01E0
:101400005C01D80114962D913D914D915C911797F7
:10141000C301B2010E94C0189B01AC01C701B60113
:101420000E946D166B017C01085F1F4FEAEDF3E02F
:10143000E215F30579F64090CC015090CD01609013
:10144000CE017090CF012091D0013091D101409117
:10145000D2015091D301C301B2010E94C018A5016D
:1014600094010E946D169B01AC016F89788D898D66
:101470009A8D0E946C164B015C018092CB04909275
:10148000CC04A092CD04B092CE042091D40130912E
:10149000D5014091D6015091D701C301B2010E94FC
:1014A000C018A70196010E946D169B01AC016B8DBF
:1014B0007C8D8D8D9E8D0E946C166B017C01C0927F
:1014C000CF04D092D004E092D104F092D2042091C3
:1014D000A8013091A9014091AA015091AB01C50129
:1014E000B4010E94C01820E030E0A9010E946D16EE
:1014F0002B013C012091B8013091B9014091BA0112
:101500005091BB01C701B6010E94C0189B01AC01FC
:10151000C301B2010E946D166F87788B898B9A8BFD
:101520002091AC013091AD014091AE015091AF01DD
:10153000C501B4010E94C01820E030E0A9010E945A
:101540006D162B013C012091BC013091BD014091F1
:10155000BE015091BF01C701B6010E94C0189B0196
:10156000AC01C301B2010E946D166B8B7C8B8D8B1D
:101570009E8B2091B0013091B1014091B201509108
:10158000B301C501B4010E94C01820E030E0A901F8
:101590000E946D162B013C012091C0013091C101C8
:1015A0004091C2015091C301C701B6010E94C01809
:1015B0009B01AC01C301B2010E946D162B013C01DD
:1015C0002091B4013091B5014091B6015091B7011D
:1015D000C501B4010E94C01820E030E0A9010E94BA
:1015E0006D164B015C012091C4013091C501409101
:1015F000C6015091C701C701B6010E94C0189B01E6
:10160000AC01C501B4010E946D166093AF047093E4
:10161000B0048093B1049093B2044092AB04509212
:10162000AC046092AD047092AE040B891C892D89C4
:101630003E890093A7041093A8042093A904309333
:10164000AA042F85388949895A892093A3043093A5
:10165000A4044093A5045093A604C090CC01D0905C
:10166000CD01E090CE01F090CF012091E8013091C2
:10167000E9014091EA015091EB01C701B6010E94D6
:10168000C0186BA37CA38DA39EA32091EC01309185
:10169000ED014091EE015091EF01C701B6010E94AA
:1016A000C0186FA378A789A79AA72091F00130915D
:1016B000F1014091F2015091F301C701B6010E947E
:1016C000C0186BA77CA78DA79EA72091F40130912D
:1016D000F5014091F6015091F701C701B6010E9452
:1016E000C0186FA778AB89AB9AAB9AEC292E93E020
:1016F000392E00E011E0412C512C32014F86588ADE
:10170000698A7A8A4B8A5C8A6D8A7E8A5301420191
:10171000D101CD90DD90ED90FD901D01F80120A547
:1017200031A542A553A5C701B6010E94C0189B016F
:10173000AC01C501B4010E946D164B015C01D801DA
:101740009C962D913D914D915C919F97C701B6015B
:101750000E94C0189B01AC016B897C898D899E8990
:101760000E946D166B8B7C8B8D8B9E8BF80120A954
:1017700031A942A953A9C701B6010E94C0189B0113
:10178000AC016F85788989899A890E946D166F8767
:10179000788B898B9A8BD801D4962D913D914D9160
:1017A0005C91D797C701B6010E94C0189B01AC019C
:1017B000C301B2010E946D162B013C01005F1F4F57
:1017C000BAED2B16B3E03B0609F0A2CFC092E704B6
:1017D000D092E804E092E904F092EA04A5019401B1
:1017E0006BA17CA18DA19EA10E946D169B01AC01F5
:1017F0006091A3047091A4048091A5049091A60423
:101800000E946D166093EF047093F0048093F104CE
:101810009093F2042B893C894D895E896FA178A54C
:1018200089A59AA50E946D169B01AC016091A70441
:101830007091A8048091A9049091AA040E946D1649
:101840006093F3047093F4048093F5049093F6048A
:101850002F85388949895A896BA57CA58DA59EA5B8
:101860000E946D169B01AC016091AB047091AC04B9
:101870008091AD049091AE040E946D166093F704C0
:101880007093F8048093F9049093FA04A3019201F1
:101890006FA578A989A99AA90E946D169B01AC0130
:1018A0006091AF047091B0048091B1049091B20442
:1018B0000E946D166093FB047093FC048093FD04FA
:1018C0009093FE040091CE031091CF032091D0039A
:1018D0003091D1030F87188B298B3A8B2091CA0343
:1018E0003091CB034091CC035091CD032B8B3C8B9B
:1018F0004D8B5E8B8091D2039091D303A091D40342
:10190000B091D5038BA39CA3ADA3BEA34090D603F7
:101910005090D7036090D8037090D9030F8D0023A7
:1019200009F4E4C281E0809301042F853889498954
:101930005A892093E7043093E8044093E9045093D4
:10194000EA044092EB045092EC046092ED04709231
:10195000EE04209188013091890140918A015091D3
:101960008B016B897C898D899E890E94C0186B01CF
:101970007C01209190013091910140919201509110
:1019800093016F85788989899A890E94C0189B0183
:10199000AC01C701B6010E946D166B017C0120915C
:1019A00098013091990140919A0150919B016BA14E
:1019B0007CA18DA19EA10E94C0189B01AC01C70112
:1019C000B6010E946D166B017C012091A00130913F
:1019D000A1014091A2015091A301C301B2010E9453
:1019E000C0189B01AC01C701B6010E946D169B0196
:1019F000AC016F89788D898D9A8D0E946C164B0190
:101A00005C012091700130917101409172015091FF
:101A100073010E94C01820E030E0A9010E946D16F9
:101A20006F8F78A389A39AA32091740130917501D7
:101A30004091760150917701C501B4010E94C01810
:101A400020E030E0A9010E946D166FA378A789A756
:101A50009AA720919401309195014091960150915F
:101A600097016F85788989899A890E94C0186B01CE
:101A70007C0120918C0130918D0140918E0150911B
:101A80008F016B897C898D899E890E94C0189B017A
:101A9000AC01C701B6010E946D166B017C0120915B
:101AA0009C0130919D0140919E0150919F016BA13D
:101AB0007CA18DA19EA10E94C0189B01AC01C70111
:101AC000B6010E946D166B017C012091A40130913A
:101AD000A5014091A6015091A701C301B2010E9446
:101AE000C0189B01AC01C701B6010E946D169B0195
:101AF000AC016B8D7C8D8D8D9E8D0E946C166B0163
:101B00007C01209168013091690140916A015091F6
:101B10006B01C501B4010E94C01820E030E0A901AA
:101B20000E946D166F8B788F898F9A8F2091780124
:101B30003091790140917A0150917B01C701B60142
:101B40000E94C0189B01AC016F89788D898D9A8D98
:101B50000E946D166F8B788F898F9A8F20916C0100
:101B600030916D0140916E0150916F01C501B4013A
:101B70000E94C01820E030E0A9010E946D164B01C0
:101B80005C0120917C0130917D0140917E0150915A
:101B90007F01C701B6010E94C0189B01AC01C501BD
:101BA000B4010E946D164B015C01209180013091BF
:101BB00081014091820150918301C701B6010E94C9
:101BC000C0182F8D38A149A15AA10E946D166F8FA0
:101BD00078A389A39AA32091840130918501409133
:101BE000860150918701C701B6010E94C0182FA13C
:101BF00038A549A55AA50E946D16C092FF04D0923F
:101C00000005E0920105F09202050F89188D298DDB
:101C10003A8D009303051093040520930505309336
:101C200006058092070590920805A0920905B092DA
:101C30000A0560939F047093A0048093A10490937D
:101C4000A2042F8D38A149A15AA120939B0430935F
:101C50009C0440939D0450939E048092970490921C
:101C60009804A0929904B0929A048F89988DA98DB6
:101C7000BA8D8093930490939404A0939504B093A9
:101C800096042B893C894D895E89609193047091FB
:101C9000940480919504909196040E946D1660932F
:101CA000B3047093B4048093B5049093B6042F8565
:101CB000388949895A896091970470919804809174
:101CC000990490919A040E946D166093B7047093E2
:101CD000B8048093B9049093BA042BA13CA14DA100
:101CE0005EA160919B0470919C0480919D049091F1
:101CF0009E04F3D76093BB047093BC048093BD042F
:101D00009093BE04A301920160919F047091A0047E
:101D10008091A1049091A204E0D76093BF047093D6
:101D2000C0048093C1049093C2042091F8013091C3
:101D3000F9014091FA015091FB016B8D7C8D8D8DE5
:101D40009E8D0E94C0186093DF047093E00480931E
:101D5000E1049093E2042091DA033091DB03409197
:101D6000DC035091DD03B8D76093E3047093E4047F
:101D70008093E5049093E6048091B803811110925A
:101D8000B803BE01675F7F4F8091B9030E94530380
:101D90008091B9030E9465032091FB0389859A8590
:101DA000AB85BC8521110BC08093F2039093F303A4
:101DB000A093F403B093F50321E02093FB0340913B
:101DC000F2035091F3036091F4037091F5038C01D9
:101DD0009D01B7FDBBC00F5F1F4F2F4F3F474017FF
:101DE0005107620773070CF4B8C08C019D01041BF6
:101DF000150B260B370BB901A80177FF0EC0411553
:101E00005105610510E8710709F4A7C07095609548
:101E1000509541955F4F6F4F7F4F493C510561058C
:101E200071050CF09AC0AC01BD01B7FF0DC0009761
:101E3000A10520E8B20709F490C044275527BA014C
:101E4000481B590B6A0B7B0B453F514061057105DF
:101E50000CF083C08093F2039093F303A093F403F8
:101E6000B093F5037AC0C701B6010E94811720E044
:101E700030E040E054E30E94C0182091EA03309122
:101E8000EB034091EC035091ED0319CA80910204D9
:101E9000882309F4E2CB8091200190912101A09147
:101EA0002201B09123018093A3049093A404A093F2
:101EB000A504B093A6048093A7049093A804A093CC
:101EC000A904B093AA048093AB049093AC04A093AC
:101ED000AD04B093AE048093AF049093B004A0938C
:101EE000B104B093B20410920204B7CB8091010404
:101EF000882309F4C6CE8091240190912501A091F8
:101F00002601B09127018093930490939404A093A9
:101F10009504B09396048093970490939804A093AB
:101F20009904B0939A0480939B0490939C04A0938B
:101F30009D04B0939E0480939F049093A004A0936B
:101F4000A104B093A204109201049BCE3058041750
:101F50001507260737070CF048CF8091680290914B
:101F60006902A0916A02B0916B028D839E83AF8358
:101F7000B8878091F2039091F303A091F403B0919C
:101F8000F50389839A83AB83BC8382E0E82EF12C2E
:101F90000BE015E021E030E0AE014F5F5F4F61E004
:101FA00070E0CE0105960E94300450E040E062E00F
:101FB00070E0C8010E94840320E030E040E852E372
:101FC0000E94C0186093D3047093D4048093D50406
:101FD0009093D6042BE434E047E155E00E942207B9
:101FE00020911705309118054091190550911A0557
:101FF00060913C0270913D0280913E0290913F02BF
:102000006BD66093E3047093E4048093E5049093AB
:10201000E604209118013091190140911A01509164
:102020001B010E94C0182091DE033091DF03409114
:10203000E0035091E10351D64B015C01C0901C01BB
:10204000D0901D01E0901E01F0901F01A7019601A4
:102050000E94861818160CF0E1C0C092EB04D092D2
:10206000EC04E092ED04F092EE04C090EB04D0900A
:10207000EC04E090ED04F090EE04A5019401C7019A
:10208000B6012AD69B01AC0160911001709111013B
:1020900080911201909113010E94C0186093DB049B
:1020A0007093DC048093DD049093DE0420E030E044
:1020B000A901C701B6010E94861818160CF0C6C007
:1020C0001092E7041092E8041092E9041092EA04D6
:1020D00065E070E080E090E00E9430018C01909318
:1020E000B1038093B00320E030E04FE753E4609108
:1020F000EB047091EC048091ED049091EE0464D6B1
:10210000181664F480E090E0AFE7B3E48093EB044A
:102110009093EC04A093ED04B093EE044091EB0493
:102120005091EC046091ED047091EE04C8010E949E
:102130000E0166E070E080E090E00E9430018C01CA
:102140009093A9038093A80320E030E04FE753E485
:102150006091E7047091E8048091E9049091EA04A9
:1021600033D6181664F480E090E0AFE7B3E48093D0
:10217000E7049093E804A093E904B093EA04409143
:10218000E7045091E8046091E9047091EA04C80101
:102190000E940E016FE070E080E090E00E949C00E1
:1021A000909399038093980343E050E0BE01635FEE
:1021B0007F4F0E948B006D857E8590E080E0A1D6E8
:1021C00020914402309145024091460250914702CD
:1021D00083D56B017C01C092E704D092E804E092C1
:1021E000E904F092EA0480904C0290904D02A09095
:1021F0004E02B0904F02A501940188D71816DCF565
:10220000A5019401C701B60167D56093EB047093F3
:10221000EC048093ED049093EE0444C0C09014014C
:10222000D0901501E0901601F0901701A7019601DA
:10223000C501B401C9D587FD10CF8092EB049092FF
:10224000EC04A092ED04B092EE040FCFF7FAF094F4
:10225000F7F8F094C092E704D092E804E092E90421
:10226000F092EA041092EB041092EC041092ED0448
:102270001092EE042DCF8090480290904902A090D9
:102280004A02B0904B02A5019401C701B6013ED7A6
:1022900087FDB6CF1092EB041092EC041092ED047F
:1022A0001092EE0460E170E080E090E00E949C00FB
:1022B000909391038093900343E050E0BE01635FED
:1022C0007F4F0E948B006D857E8590E080E019D65F
:1022D000209150023091510240915202509153028C
:1022E000FBD46B017C018090580290905902A09021
:1022F0005A02B0905B02A501940108D7181674F435
:10230000A5019401C701B601E7D46093E704709377
:10231000E8048093E9049093EA0417C08090540283
:1023200090905502A0905602B0905702A5019401DA
:10233000C701B601EBD687FDE3CF1092E7041092F8
:10234000E8041092E9041092EA04C090EB04D090E3
:10235000EC04E090ED04F090EE0420E030E0A90100
:10236000C701B601D3D618160CF029C1F7FAF094BC
:10237000F7F8F094C092E704D092E804E092E90400
:10238000F092EA042091E7043091E8044091E904D6
:102390005091EA0460915C0270915D0280915E024E
:1023A00090915F02EDD620916002309161024091E0
:1023B000620250916302E4D66093D7047093D8040C
:1023C0008093D9049093DA0423E034E043E155E0AC
:1023D0000E942207609164027091650280916602FA
:1023E000909167020E9468086B017C01C092E7042B
:1023F000D092E804E092E904F092EA0420E030E0B0
:1024000040E853E4E1D46FEF87FF0CC020E030E0F8
:10241000A901C701B6017AD660E087FD03C0C701F4
:10242000B60143D587E00E947D03609164027091FC
:10243000650280916602909167020E9468086B01B4
:102440007C01C092E704D092E804E092E904F092A3
:10245000EA0420E030E040E853E4B6D46FEF87FFB1
:102460000CC020E030E0A901C701B6014FD660E002
:1024700087FD03C0C701B60118D588E00E947D031F
:102480001092F6038091EF049091F004A091F10472
:10249000B091F2048093CA039093CB03A093CC0332
:1024A000B093CD038091F3049091F404A091F504CE
:1024B000B091F6048093CE039093CF03A093D00302
:1024C000B093D1038091F7049091F804A091F9049E
:1024D000B091FA048093D2039093D303A093D403D2
:1024E000B093D5038091FB049091FC04A091FD046E
:1024F000B091FE048093D6039093D703A093D803A2
:10250000B093D9038091DF049091E004A091E1049D
:10251000B091E2048093DA039093DB03A093DC0391
:10252000B093DD032091E3043091E4044091E5048D
:102530005091E604609104017091050180910601BB
:10254000909107011DD62091DB043091DC0440916D
:10255000DD045091DE04C1D320914002309141024C
:1025600040914202509143020BD62091DE033091FC
:10257000DF034091E0035091E103AFD36093DE03AA
:102580007093DF038093E0039093E103E2960FB62C
:10259000F894DEBF0FBECDBFDF91CF911F910F9199
:1025A000FF90EF90DF90CF90BF90AF909F908F9073
:1025B0007F906F905F904F903F902F90089520E014
:1025C00030E0A9016091E7047091E8048091E9048A
:1025D0009091EA049BD518160CF4D4CE1092E7041F
:1025E0001092E8041092E9041092EA04CBCE4F92C4
:1025F0005F926F927F92AF92BF92DF92EF92FF92C3
:102600000F931F93CF93DF9384E090E04AD2109210
:10261000DE021092DD0283E9A82E84E0B82E88E85D
:10262000D5011D928A95E9F7CAE8D3E089E091E0E7
:10263000FE019C01119221503040E1F7DD24D3943A
:10264000D0920004412C512C32014394498A5A8A79
:102650006B8A7C8A6EE070E080E090E00E94E0008F
:102660009F8B8E8BDD8A10920204109201041FA6AC
:1026700018A6D092FC031DA649A65AA66BA67CA656
:1026800049EB53E063E082E00E948402DDA61EA6CF
:102690008BE494E00E94E70618A2D092FE0349A2C0
:1026A0005AA26BA27CA2E12CF12C8701A801970110
:1026B00065E070E080E090E00E9474019FA38EA32B
:1026C000DDA2188ED092FD03498E5A8E6B8E7C8EC1
:1026D000A801970166E070E080E090E00E9474013C
:1026E0009F8F8E8FDD8E1886D092F80349865A868A
:1026F0006B867C866FE070E080E090E00E94E000F6
:102700009F878E87DD861882D092F70349825A828E
:102710006B827C8260E170E080E090E00E94E000EB
:102720009F838E83DD8283E094E00E94E70618AEEB
:10273000D092FA0349AE5AAE6BAE7CAE61E087E050
:102740000E947503DDAE18AAD092F90349AA5AAACD
:102750006BAA7CAA61E088E00E947503DDAAD09292
:10276000F603E0E0F1E080859185A285B385809352
:10277000DA039093DB03A093DC03B093DD0384853D
:102780009585A685B7858093DE039093DF03A0939C
:10279000E003B093E10380E090E0A8ECB2E4809322
:1027A000EE039093EF03A093F003B093F103E09254
:1027B000E203F092E3030093E4031093E503E09255
:1027C000E603F092E7030093E8031093E903E09235
:1027D000EA03F092EB030093EC031093ED031092E5
:1027E000FF0340A151A162A173A1D50150964D9361
:1027F0005D936D937C93539784A195A1A6A1B7A1F6
:10280000F50180839183A283B383448B558B668BC0
:10281000778B84839583A683B783408F518F628F94
:10282000738F80879187A287B387448F558F668F78
:10283000778F84879587A687B7871092FB038FA52C
:102840000E9465038BE494E00E94C40683E094E058
:10285000DF91CF911F910F91FF90EF90DF90BF908C
:10286000AF907F906F905F904F900C94C4068091D2
:102870009A0381111FC081E080939A0380919B038A
:1028800090919C03A0919D03B0919E030197A10597
:10289000B10581F480919F03882361F06EE070E0C0
:1028A00080E090E00E949C009093A1038093A0039D
:1028B0000E9403018091B203811114C081E08093D2
:1028C000B2038091B3039091B403A091B503B0918A
:1028D000B6030197A105B10529F48091B7038111D1
:1028E0000E9472038BE494E00E944B088091AA033B
:1028F00081112EC081E08093AA038091AB03909157
:10290000AC03A091AD03B091AE030197A105B10551
:10291000F9F48091AF038823D9F065E070E080E09E
:1029200090E00E9430019093B1038093B00340E0A7
:1029300050E0BA010E940E0165E070E080E090E096
:102940000E9430019093B1038093B0030E94BF01B5
:102950008091A20381112EC081E08093A203809117
:10296000A3039091A403A091A503B091A60301979E
:10297000A105B105F9F48091A7038823D9F066E099
:1029800070E080E090E00E9430019093A903809372
:10299000A80340E050E0BA010E940E0166E070E03A
:1029A00080E090E00E9430019093A9038093A803F7
:1029B0000E94BF018091920381111FC081E080932A
:1029C00092038091930390919403A0919503B09109
:1029D00096030197A105B10581F48091970388239F
:1029E00061F06FE070E080E090E00E949C009093C6
:1029F0009903809398030E94030180918A038111B7
:102A00001FC081E080938A0380918B0390918C0397
:102A1000A0918D03B0918E030197A105B10581F4BA
:102A200080918F03882361F060E170E080E090E0A6
:102A30000E949C0090939103809390030E94030155
:102A400083E094E00E944B088091C203811103C08F
:102A500081E08093C2038091BA03811103C081E0B9
:102A60008093BA03089560E070E080E89FE70895DE
:102A700060E070E080E89FE7089560E070E080E843
:102A80009FEF089560E070E080E89FEF089560E0B8
:102A900070E080EC9FEF089560E070E080EC9FEFC5
:102AA0000895F5DF60932705709328058093290525
:102AB00090932A05F1DF60931B0570931C058093AA
:102AC0001D0590931E05CFDF6093230570932405A9
:102AD0008093250590932605CBDF60931F057093A7
:102AE00020058093210590932205C7DF60932B0575
:102AF00070932C0580932D0590932E05C3DF609372
:102B00002F05709330058093310590933205089519
:102B1000089526E030E040E855E260E070E090E0A3
:102B200080E000C01092E0021092DF02893091052F
:102B3000E0F483569A4EFC018EC7A615AF15B61564
:102B4000B915BC15BF15C215C515CB1581E090E0B0
:102B50009093E0028093DF028DEE92E03AC682E02D
:102B600090E09093E0028093DF02089584E090E08B
:102B7000F8CF88E090E0F5CF80E190E0F2CF80E2FE
:102B800090E0EFCF80E490E0ECCF80E890E090938D
:102B9000E0028093DF028091DF029091E002916079
:102BA000E0CF1F920F920FB60F9211242F933F93F5
:102BB0004F935F936F937F938F939F93AF93BF9345
:102BC000EF93FF938FE89DEF9093850080938400AF
:102BD00032D0FF91EF91BF91AF919F918F917F91F3
:102BE0006F915F914F913F912F910F900FBE0F907A
:102BF0001F9018958FE89DEF909385008093840037
:102C0000AFE6B0E08C918E7F8C93E0E8F0E08081BD
:102C10008C7F8083E1E8F0E08081877E8083808103
:102C20008460808380818C7F80838C9181608C9391
:102C3000089581E008958091E10291E0980F9093CA
:102C4000E102882349F021E030E03093E302209351
:102C5000E2028093E102089578940E94B708F89404
:102C60008091E1028150F5CFCF93DF93109234052C
:102C700010923305A1D34DDFC0917502D091760239
:102C800019821882B4DCF894B5DF81E0288139819B
:102C9000232B09F080E08093330578947894809119
:102CA0003305811107C0E3DDF89490E080E0DF9107
:102CB000CF91089581E028813981232B09F480E0A8
:102CC000809334059091340581E0911180E08093E8
:102CD0003305AFDF1DDFE3CF5058BB27AA270ED047
:102CE000C4C1B5D130F0BAD120F031F49F3F11F416
:102CF0001EF4AAC10EF4E095E7FB77C1E92FC6D117
:102D000080F3BA17620773078407950718F071F408
:102D10009EF5F5C10EF4E0950B2EBA2FA02D0B01F8
:102D2000B90190010C01CA01A0011124FF27591B10
:102D300099F0593F50F4503E68F11A16F040A22F16
:102D4000232F342F4427585FF3CF46953795279587
:102D5000A795F0405395C9F77EF41F16BA0B620B86
:102D6000730B840BBAF09150A1F0FF0FBB1F661FCD
:102D7000771F881FC2F70EC0BA0F621F731F841F10
:102D800048F4879577956795B795F7959E3F08F036
:102D9000B3CF9395880F08F09927EE0F97958795F5
:102DA000089596D180F09F3740F491110EF4A8C198
:102DB00060E070E080E89FE3089526F01B16611D37
:102DC000711D811D18C132C1ECD008F481E0089555
:102DD0000CD04BC143D140F03AD130F021F45F3FE9
:102DE00019F003C151118CC12FC150D198F399230F
:102DF000C9F35523B1F3951B550BBB27AA276217BF
:102E00007307840738F09F5F5F4F220F331F441F03
:102E1000AA1FA9F333D00E2E3AF0E0E830D091503B
:102E20005040E695001CCAF729D0FE2F27D0660F28
:102E3000771F881FBB1F261737074807AB07B0E867
:102E400009F0BB0B802DBF01FF2793585F4F2AF07D
:102E50009E3F510568F0C9C053C15F3FECF3983EF7
:102E6000DCF3869577956795B795F7959F5FC9F7DA
:102E7000880F911D9695879597F90895E1E0660F63
:102E8000771F881FBB1F621773078407BA0720F0DC
:102E9000621B730B840BBA0BEE1F88F7E095089545
:102EA00004D06894B1112CC10895F8D088F09F57D0
:102EB00090F0B92F9927B751A0F0D1F0660F771F86
:102EC000881F991F1AF0BA95C9F712C0B13081F066
:102ED00016D1B1E0089513C1672F782F8827B85F06
:102EE00039F0B93FCCF3869577956795B395D9F7C7
:102EF0003EF490958095709561957F4F8F4F9F4FD1
:102F00000895E89409C097FB3EF4909580957095DC
:102F100061957F4F8F4F9F4F9923A9F0F92F96E925
:102F2000BB279395F695879577956795B795F1119A
:102F3000F8CFFAF4BB0F11F460FF1BC06F5F7F4F37
:102F40008F4F9F4F16C0882311F096E911C0772349
:102F500021F09EE8872F762F05C0662371F096E852
:102F6000862F70E060E02AF09A95660F771F881F21
:102F7000DAF7880F9695879597F90895A9D080F08C
:102F80009F3740F491110EF0BBC060E070E080E824
:102F90009FEB089526F41B16611D711D811D2BC02A
:102FA00045C0990F0008550FAA0BE0E8FEEF161672
:102FB0001706E807F907C0F012161306E407F5072D
:102FC00098F0621B730B840B950B39F40A2661F0A1
:102FD000232B242B252B21F408950A2609F4A14044
:102FE000A6958FEF811D811D089597F99F6780E851
:102FF00070E060E00895882371F4772321F0985001
:10300000872B762F07C0662311F499270DC09051A6
:10301000862B70E060E02AF09A95660F771F881F74
:10302000DAF7880F9695879597F908959F3F31F0C5
:10303000915020F4879577956795B795880F911DE6
:103040009695879597F908959FEF80EC0895002451
:103050000A941616170618060906089500240A94FD
:1030600012161306140605060895092E0394000C83
:1030700011F4882352F0BB0F40F4BF2B11F460FF12
:1030800004C06F5F7F4F8F4F9F4F089557FD90583B
:10309000440F551F59F05F3F71F04795880F97FB1C
:1030A000991F61F09F3F79F08795089512161306D6
:1030B0001406551FF2CF4695F1DF08C01616170605
:1030C0001806991FF1CF869571056105089408953A
:1030D000E5DFA0F0BEE7B91788F4BB279F3860F49E
:1030E0001616B11D672F782F8827985FF7CF869522
:1030F00077956795B11D93959639C8F30895E8942F
:10310000BB2766277727CB0197F908954ADF08F494
:103110008FEF08956ACF8ACFC1DFE8F39923D9F3FF
:10312000940F511DBBF39150504094F059F08823F7
:1031300032F0660F771F881F91505040C1F79E3FB5
:10314000510544F7880F911D9695879597F9089535
:103150005F3FACF0983E9CF0BB27869577956795CE
:10316000B79508F4B1609395C1F7BB0F58F711F408
:1031700060FFE8CF6F5F7F4F8F4F9F4FE3CFC0CF90
:103180000BD073CF64DF28F069DF18F0952309F0C6
:103190002CCF5ACF1124B4CF79DFA0F3959FD1F370
:1031A000950F50E0551F629FF001729FBB27F00DF5
:1031B000B11D639FAA27F00DB11DAA1F649F66274A
:1031C000B00DA11D661F829F2227B00DA11D621F99
:1031D000739FB00DA11D621F839FA00D611D221F53
:1031E000749F3327A00D611D231F849F600D211D37
:1031F000822F762F6A2F11249F5750408AF0E1F0DA
:1032000088234AF0EE0FFF1FBB1F661F771F881F22
:1032100091505040A9F79E3F510570F0E6CE70CF17
:103220005F3FECF3983EDCF3869577956795B7950D
:10323000F795E7959F5FC1F7FE2B880F911D969537
:10324000879597F9089508958230E8F4E82FF0E023
:10325000EE0FFF1FE059FD4F71836083813041F015
:10326000809169008C7F482B40936900E89A08950B
:1032700080916900837F440F551F440F551F482BD1
:1032800040936900E99A08951F920F920FB60F922A
:1032900011242F933F934F935F936F937F938F935B
:1032A0009F93AF93BF93EF93FF93E0917002F091E0
:1032B00071020995FF91EF91BF91AF919F918F910D
:1032C0007F916F915F914F913F912F910F900FBE22
:1032D0000F901F9018951F920F920FB60F92112406
:1032E0002F933F934F935F936F937F938F939F930E
:1032F000AF93BF93EF93FF93E0917202F09173024B
:103300000995FF91EF91BF91AF919F918F917F911F
:103310006F915F914F913F912F910F900FBE0F9042
:103320001F9018951F920F920FB60F9211242F9392
:103330003F938F939F93AF93BF938091E5029091BA
:10334000E602A091E702B091E8023091E40223E0A6
:10335000230F2D3758F50196A11DB11D2093E402CE
:103360008093E5029093E602A093E702B093E8020F
:103370008091E9029091EA02A091EB02B091EC02F7
:103380000196A11DB11D8093E9029093EA02A093DA
:10339000EB02B093EC02BF91AF919F918F913F915F
:1033A0002F910F900FBE0F901F90189526E8230FB6
:1033B0000296A11DB11DD2CF789484B5826084BDE0
:1033C00084B5816084BD85B5826085BD85B5816029
:1033D00085BDEEE6F0E0808181608083E1E8F0E089
:1033E0001082808182608083808181608083E0E8B8
:1033F000F0E0808181608083E1EBF0E08081846097
:103400008083E0EBF0E0808181608083EAE7F0E098
:1034100080818460808380818260808380818160FC
:1034200080838081806880831092C10008958E30EF
:1034300008F08E502091740290E4299F900111248D
:103440008770822B80937C0080917A0080648093C7
:103450007A0080917A0086FDFCCF8091780090916F
:10346000790008951F93CF93DF93182FEB0161E04C
:103470007DD0209731F460E0812FDF91CF911F91B3
:10348000B1C0CF3FD10511F461E0F6CFE12FF0E0FC
:10349000E859FF4FE491E33031F140F4E130B1F00D
:1034A000E230E1F0C038D1057CF7E5CFE73029F113
:1034B000E83059F1E430B1F7809180008062809368
:1034C0008000D0938B00C0938A0004C084B58068CC
:1034D00084BDC7BDDF91CF911F91089584B58062EF
:1034E00084BDC8BDF7CF8091800080688093800044
:1034F000D0938900C0938800EDCF8091B0008068A0
:103500008093B000C093B300E5CF8091B00080629B
:103510008093B000C093B400DDCF833081F028F4F5
:10352000813099F08230A9F008958730A9F0883071
:10353000C9F08430B1F4809180008F7D03C0809108
:1035400080008F7780938000089584B58F7784BD45
:10355000089584B58F7DFBCF8091B0008F778093E5
:10356000B00008958091B0008F7DF9CFCF93DF93A5
:1035700090E0FC01E458FF4F249180579F4FFC01DD
:1035800084918823C9F090E0880F991FFC01E854CA
:10359000FF4FA591B491FC01E255FF4FC591D49125
:1035A00061110DC09FB7F8948C91209582238C9364
:1035B0008881282328839FBFDF91CF9108956230AF
:1035C00051F49FB7F8943C91822F809583238C937C
:1035D000E8812E2BEFCF8FB7F894EC912E2B2C9304
:1035E0008FBFEACF1F93CF93DF93282F30E0F901ED
:1035F000E859FF4F8491F901E458FF4FD491F90144
:10360000E057FF4FC491CC23A1F0162F811185DF25
:10361000EC2FF0E0EE0FFF1FE255FF4FA591B491A4
:103620008FB7F894EC91111108C0D095DE23DC938C
:103630008FBFDF91CF911F910895DE2BF8CFFC0152
:10364000918D228D892F90E0805C9F4F821B910984
:103650008F7399270895FC01918D828D981731F011
:10366000828DE80FF11D858D90E008958FEF9FEF1B
:103670000895FC01918D828D981761F0A28DAE0F97
:10368000BF2FB11D5D968C91928D9F5F9F73928F1E
:1036900090E008958FEF9FEF0895FC01538D448DC6
:1036A000252F30E0842F90E0821B930B541710F0ED
:1036B000CF96089501970895FC01A48DA80FB92F06
:1036C000B11DA35ABF4F2C91848D90E001968F734A
:1036D0009927848FA689B7892C93A089B1898C9169
:1036E000837080648C93938D848D981306C00288B8
:1036F000F389E02D80818F7D80830895CF93DF93C0
:10370000EC01888D8823B1F0AA89BB89E889F98901
:103710008C9185FD03C0808186FD0CC00FB607FC2F
:10372000F7CF8C9185FFF2CF808185FFEDCFCE0161
:10373000C3DFEACFDF91CF910895EF92FF920F930D
:103740001F93CF93DF93EC0181E0888F9B8D8C8D4D
:1037500098131AC0E889F989808185FF15C09FB741
:10376000F894EE89FF896083E889F9898081837004
:10377000806480839FBF81E090E0DF91CF911F91B3
:103780000F91FF90EF900895F62E0B8D10E00F5FD4
:103790001F4F0F731127E02E8C8D8E110BC00FB6AB
:1037A00007FCFACFE889F989808185FFF5CFCE0142
:1037B00083DFF2CFEB8DEC0FFD2FF11DE35AFF4FAE
:1037C000F0829FB7F8940B8FEA89FB898081806231
:1037D000D0CFCF92DF92EF92FF921F93CF93DF93E0
:1037E000EC016A017B01122FE889F98982E080836C
:1037F000C11481EED806E104F10499F060E079E0AB
:103800008DE390E0A701960104D1215031094109CF
:1038100051095695479537952795211580E1380729
:1038200090F0E889F989108260E874E88EE190E010
:10383000A7019601EED02150310941095109569551
:10384000479537952795EC85FD853083EE85FF8577
:103850002083188EEC89FD891083EA89FB89808199
:1038600080618083EA89FB89808188608083EA891E
:10387000FB89808180688083EA89FB8980818F7DD4
:103880008083DF91CF911F91FF90EF90DF90CF90D9
:1038900008951F920F920FB60F9211242F938F93BA
:1038A0009F93EF93FF93E091FD02F091FE028081E0
:1038B000E0910303F091040382FD1BC0908180918D
:1038C00006038F5F8F7320910703821741F0E09109
:1038D0000603F0E0E351FD4F958F80930603FF91BF
:1038E000EF919F918F912F910F900FBE0F901F908E
:1038F00018958081F4CF1F920F920FB60F9211246A
:103900002F933F934F935F936F937F938F939F93E7
:10391000AF93BF93EF93FF938DEE92E0CDDEFF91D7
:10392000EF91BF91AF919F918F917F916F915F9137
:103930004F913F912F910F900FBE0F901F901895B0
:10394000EDEEF2E01382128288EE93E0A0E0B0E0A8
:1039500084839583A683B7838BE792E091838083EA
:1039600085EC90E09587848784EC90E09787868744
:1039700080EC90E0918B808B81EC90E0938B828B3C
:1039800082EC90E0958B848B86EC90E0978B868B15
:10399000118E128E138E148E0895AF92BF92CF9215
:1039A000DF92EF92FF920F931F93CF93DF936C01FF
:1039B0007B018B01040F151FEB015E01AE18BF08E0
:1039C000C017D10759F06991D601ED91FC91019092
:1039D000F081E02DC6010995892B79F7C501DF91AA
:1039E000CF911F910F91FF90EF90DF90CF90BF90FC
:1039F000AF900895DB018F939F9342D0BF91AF9119
:103A0000A29F800D911DA39F900DB29F900D112438
:103A10000895A1E21A2EAA1BBB1BFD010DC0AA1F0F
:103A2000BB1FEE1FFF1FA217B307E407F50720F027
:103A3000A21BB30BE40BF50B661F771F881F991FA2
:103A40001A9469F760957095809590959B01AC01EB
:103A5000BD01CF010895EE0FFF1F0590F491E02DF9
:103A60000994A29FB001B39FC001A39F700D811D57
:103A70001124911DB29F700D811D1124911D089577
:103A8000F0DFA59F900DB49F900DA49F800D911D18
:083A900011240895F894FFCF02
:103A9800E3A59B3D0000004100000000000000007D
:103AA800CDCCCC3D00007FC36666E63E00007F4378
:103AB80000000000000000000000000000000000FE
:103AC80000000000000000000000803F000000002F
:103AD80000000000000000000000000051D3154065
:103AE80000000000E9D4634300000000000000006B
:103AF8000000803F000000007629003FF142352891
:103B0800622AD23D8992912BE821A83B60CBC92536
:103B1800A2B97F3F25DC15290000803F0000000086
:103B28000000000000000000000000000000803FCE
:103B38000000000000000000FEC030AC4D00763EE2
:103B4800F86486AF5F0ABB41C494522A22AA154082
:103B58000399A02D4996634300000000000000006F
:103B6800000000000000000000000000000000004D
:103B780000000000000000000000000074D1354083
:103B880000000000741155420000C8421D0CA43BFF
:103B9800C403E8248781863A2B553A28C403E824CD
:103BA800626D8D3F806FA124551DD5428781863A6D
:103BB800806FA12482944C3EA2C6EF272B553A2849
:103BC800551DD542A2C6EF275A092246000000001B
:103BD8000AD7233C0080C243000080BF0000803F1A
:103BE8000000C243000080BF0000803F0A28A03BBD
:103BF800000008410000803F8C2EBAA842C901008D
:103C08002319231901DD02000000009D1BCD1C4D66
:0A3C18001B7E1B1F1B391B2B1B001A
:00000001FF
