:1000000061C000000C946B160C94921683C0000023
:1000100081C000007FC000007DC000007BC00000E8
:1000200079C0000077C0000075C0000073C00000F8
:1000300071C000000C948E126DC000006BC00000F7
:100040000C94B91667C000000C9470190C94A21996
:1000500061C000005FC000005DC000005BC0000028
:1000600059C0000057C00000000000080002010055
:100070000003040700000000000000000102040863
:100080001020408001020408102001020408102002
:10009000040404040404040402020202020203032E
:1000A00003030303000000002300260029000000D2
:1000B0000000250028002B0000000000240027007D
:1000C0002A00C71911241FBECFEFD8E0DEBFCDBF75
:1000D00011E0A0E0B1E0E6EEF4E302C005900D927D
:1000E000A03CB107D9F724E0A0ECB1E001C01D921B
:1000F000A033B207E1F710E0C2E6D0E004C02197D8
:10010000FE010E94521AC136D107C9F70E945B1343
:100110000C94711A75CFCF93DF93882349F0EB01CC
:1001200081500E943E1799838883DF91CF91089573
:10013000FB0111821082F9CF0F931F938B019C0159
:1001400083E036952795179507958A95D1F707533C
:100150001E4F462F477021E030E0F90102C0EE0F3C
:10016000FF1F4A95E2F7AF01F80120812423CB015C
:100170000196211102C090E080E01F910F91089537
:100180000F931F938B019C0183E03695279517955C
:1001900007958A95D1F7677081E090E001C0880FDC
:1001A0006A95EAF7F801E753FE4F2081452B31F4B9
:1001B0008095822380831F910F910895822BFACF1F
:1001C000CF92DF92EF92FF92CF93DF936B017C018E
:1001D00060E08EE0C816D104E104F10490F48EE0F2
:1001E0008C0D0E94DD17E6012196AE01C701B60114
:1001F000C7DFCE01DF91CF91FF90EF90DF90CF90DE
:1002000008958C2DEECF882341F08150682F70E047
:1002100090E080E050E040E0B3CF0895CF93282FE6
:100220008823E1F0CB01BA01CFEFC20FEC2FF0E051
:10023000EE52FE4F2081213059F490580E947C14D8
:100240009B01AC016C2F70E090E080E0CF91A2C0E8
:100250000E9477148C2FCF910C945917CF91089549
:100260000F931F938B019C0183E03695279517957B
:1002700007958A95D1F700541E4F462F477021E00D
:1002800030E0F90102C0EE0FFF1F4A95E2F7AF011F
:10029000F80120812423CB010196211102C090E0B6
:1002A00080E01F910F9108950F931F938B019C0184
:1002B00083E036952795179507958A95D1F767704E
:1002C00081E090E001C0880F6A95EAF7F801E054F8
:1002D000FE4F2081452B31F48095822380831F912E
:1002E0000F910895822BFACF4F925F926F927F9277
:1002F0008F929F92AF92BF92CF92DF92EF92FF9236
:100300000F931F93CF93DF934B015C0129013A01B7
:10031000670161E0882D0E94DD17E4012196AE019E
:10032000C501B401C1DF20E030E0A901C801B60178
:100330000E94AD1518168CF4F401EE52FE4F81E0C8
:100340008083C801B6010E947C146B01C301B20115
:100350000E947C14A601C40121D0CE01DF91CF916F
:100360001F910F91FF90EF90DF90CF90BF90AF90D3
:100370009F908F907F906F905F904F90089588230B
:1003800041F08150682F70E090E080E050E040E064
:100390008BCF0895862FB9010C9459179C01FC014D
:1003A000E859FF4FE491E33061F140F4E13011F19D
:1003B000E23021F160E0822F0C941918E730C1F18E
:1003C000E83009F441C0E430A9F7809180008C7FC7
:1003D00082608093800090918100907E9061692B73
:1003E0006093810050938700409386008091800045
:1003F00080621BC084B5806884BDDCCF84B5806218
:10040000FBCF809180008C7F8260809380009091F0
:100410008100907E9061692B6093810050938700EA
:100420004093860080918000806880938000C2CFD6
:100430008091B00080688093B0008091B100887F87
:10044000682B6093B100B6CF8091B0008062F3CF8B
:10045000FC01A781B0858C9191858923A481B58108
:100460009C9140815181628173812681922359F050
:1004700081110BC04F5F5F4F6F4F7F4F40835183A0
:100480006283738308958111F5CF41505109610949
:100490007109F4CF87EE91E0DBCF82EF91E0D8CF06
:1004A0008DEF91E0D5CF88E092E0D2CFFC01A4811E
:1004B000B5818C9196818923A781B0859C914081DB
:1004C0005181628173812185922359F0882359F0EB
:1004D0004F5F5F4F6F4F7F4F4083518362837383C2
:1004E00008958823A9F34150510961097109F4CF96
:1004F00087EE91E0DBCF82EF91E0D8CF8DEF91E0F6
:10050000D5CF88E092E0D2CF0F931F93CF93DF93A4
:10051000082F162FEA01A091E6018BE0A89FD001D9
:100520001124A951BE4F1D921D921D921C9213972A
:1005300081E01A968C931A97802F90E0FC01E45882
:10054000FF4FE4911696EC931697FC01E057FF4F8E
:10055000E491F0E0EE0FFF1FEC55FF4F8591949171
:1005600015969C938E931497862F90E0FC01E45887
:10057000FF4FE4911996EC931997FC01E057FF4F58
:10058000E491F0E0EE0FFF1FEC55FF4F8591949141
:1005900018969C938E93179760E0802F0E94DD172A
:1005A00060E0812F0E94DD178091E601813081F1AA
:1005B000A0F0823009F445C0833009F45BC080911B
:1005C000E60191E0980F9093E601888390E080E047
:1005D000DF91CF911F910F91089580E0023021F0BB
:1005E0008FEF033009F481E041E050E06AE472E00B
:1005F0000E944B1680E0123021F08FEF133009F487
:1006000081E041E050E068E772E00E944B16D7CFEE
:1006100080E0023021F08FEF033009F481E041E007
:1006200050E06DE472E00E944B1680E0123021F041
:100630008FEF133009F481E041E050E06BE772E0A6
:10064000E4CF80E0023021F08FEF033009F481E045
:1006500041E050E060E572E00E944B1680E012300D
:1006600021F08FEF133009F481E041E050E06EE7B4
:1006700072E0CBCF80E0023021F08FEF033009F43D
:1006800081E041E050E063E572E00E944B1680E0BB
:10069000123021F08FEF133009F481E041E050E097
:1006A00061E872E0B2CF9BE0899FF0011124E9512B
:1006B000FE4F80819181A281B381FB018083918370
:1006C000A283B38390E080E008959BE0899FF001CE
:1006D0001124E951FE4F108211821282138290E0A0
:1006E00080E0089590E080E00895611102C00C94CC
:1006F000DD176130E1F362E0FACF662319F061E0C3
:100700000C94191860E0FCCF2F923F924F925F92A9
:100710006F927F928F929F92AF92BF92CF92DF9211
:10072000EF92FF920F931F93CF93DF93CDB7DEB776
:10073000CB54D1090FB6F894DEBF0FBECDBF2696BD
:100740007FAF6EAF269728965FAF4EAF28973E8B50
:100750002D8B2C96FFAEEEAE2C97FB01E150F04CAA
:10076000EE0FFF1FEE0FFF1FE80FF91F8080918033
:10077000A280B3808F8A988EA98EBA8EB501A4010B
:10078000442777FD439555276627772729964FAF4E
:100790002997F901E150F04CEE0FFF1FEE0FFF1FFC
:1007A0002896AEACBFAC2897EA0DFB1DC080D18067
:1007B000E280F380CB8EDC8EED8EFE8EB701A6013B
:1007C000442777FD43955527662777272A964FAF0D
:1007D0002A97188B0F87F80130E020E02C96EEACBA
:1007E000FFAC2C972E153F050CF43FC022969FAF0F
:1007F0008EAF22971A8B098B312C212C812C912CB6
:10080000540183948D829E82AF82B88626968EACE8
:100810009FAC2697281439047CF129969FAC299720
:100820002A96AFAC2A9730E020E041E050E060E04B
:1008300070E09A10F5C1C55BDF4F0FB6F894DEBFCC
:100840000FBECDBFDF91CF911F910F91FF90EF9021
:10085000DF90CF90BF90AF909F908F907F906F90E0
:100860005F904F903F902F900895119211921192A6
:1008700011922F5F3F4FB2CF2296EEADFFAD229780
:1008800081919191A191B1912296FFAFEEAF229704
:100890008F88988CA98CBA8CB7FE23C04D815E815D
:1008A0006F81788541505109610971095A016B01C5
:1008B000A81AB90ACA0ADB0AD601C50121E0CD800F
:1008C000DE80EF80F8848C159D05AE05BF0508F02D
:1008D00020E0822E912CB12CA12C8D829E82AF82A1
:1008E000B8865D01CC24DD24A8A2B9A2CAA2DBA2ED
:1008F0009C01AD01442755272CA33DA34EA35FA324
:100900002C96EEADFFAD2C97E219F3098D889E88E9
:100910008E169F060CF4F4012896AEACBFAC289757
:100920002496BFAEAEAE2497C988DA88DC8ACB8A1B
:100930001E861D86812C912C5401839489869A866B
:10094000AB86BC86812C912C5401CD84DE84CE16DE
:10095000DF0604F1F7FF02C0F0E0E0E0E20DF31D76
:100960002C96EEACFFAC2C97EE15FF0554F4EE0F71
:10097000FF1FEE0FFF1FE00FF11F80829182A28206
:10098000B3822FEF221A320AE989FA893496FA8B58
:10099000E98B3CCF2496AEADBFAD2497CD90DD90D2
:1009A000ED90FD902496BFAFAEAF24972B8D3C8D7C
:1009B0004D8D5E8D57FF22C089859A85AB85BC859C
:1009C0000197A109B109AC01BD014C195D096E097E
:1009D0007F096A017B0181E029853A854B855C8529
:1009E000C216D306E406F50608F080E0482F50E072
:1009F00070E060E049875A876B877C87B70188275A
:100A0000992768A779A78AA79BA7EE24FF2428A186
:100A100039A14AA15BA1C701B6010E94211A2B018D
:100A20003C012CA13DA14EA15FA168A579A58AA595
:100A30009BA50E94211A6CA77DA78EA79FA7AB89B3
:100A4000BC894D915D916D917D91BC8BAB8BDB0130
:100A5000CA01880D991DAA1DBB1D89839A83AB838A
:100A6000BC8391E09F8F29813A814B815C8128155D
:100A700039054A055B0508F01F8E2CA13DA14EA14A
:100A80005FA1C701B6010E94211A6B017C01898018
:100A90009A80AB80BC808C0C9D1CAE1CBF1C8982D4
:100AA0009A82AB82BC8252019924882488AA99AA8E
:100AB000AAAABBAA29813A814B815C81280D391DE4
:100AC0004A1D5B1D2CAB3DAB4EAB5FAB8CA49DA414
:100AD000AEA4BFA454019924882488AE99AEAAAECE
:100AE000BBAE280D391D4A1D5B1D2CAF3DAF4EAF6F
:100AF0005FAFAB89BC8914972D933D934D935C9365
:100B0000139728A139A14AA15BA168A579A58AA557
:100B10009BA50E94211A9F8C690D711D811D911D3D
:100B2000230166247724460E571E681E791E2CA5C5
:100B30003DA54EA55FA54A01AA24BB24840C951CA3
:100B4000A61CB71C81E090E0A0E0B0E049815A818A
:100B50006B817C814C155D056E057F0518F080E08A
:100B600090E0DC01880D991DAA1DBB1D41E050E0FD
:100B700060E070E088A899A8AAA8BBA8CCA8DDA8C6
:100B8000EEA8FFA8C814D904EA04FB0418F040E05A
:100B900050E0BA01840F951FA61FB71F812C912C1E
:100BA00054018394C8ACD9ACEAACFBAC2CAD3DADE0
:100BB0004EAD5FAD2C153D054E055F0518F0812C3F
:100BC000912C5401880E991EAA1EBB1E4D855E8570
:100BD0004F5F5F4F5E874D87B8CEEF85F889C19034
:100BE000D190E190F190F88BEF87DB01CA0101977A
:100BF000A109B1098C199D09AE09BF0934978083F9
:100C00009183A283B383E1E084179507A607B70712
:100C100008F0E0E04E2F50E070E060E02F5F3F4FC3
:100C20002C968EAC9FAC2C9728153905B4F203CEC8
:100C30002F923F924F925F926F927F928F929F92EC
:100C4000AF92BF92CF92DF92EF92FF920F931F93DA
:100C5000CF93DF9300D000D0CDB7DEB78B015C839C
:100C60004B83FB01E150F04CEE0FFF1FEE0FFF1F17
:100C7000E80FF91F408151816281738177FD27C0A0
:100C80004C01B12CA12CC12CD12C7601A016B1069F
:100C900064F5F40161917191819191914F010E94EC
:100CA000A8144B815C810E94B3159B01AC01C70164
:100CB000B6010E9494136B017C012B813C81205E64
:100CC0003F4F3C832B833FEFA31AB30ADFCF9A83B6
:100CD0008983312C212C81E090E0A0E0B0E0C12C90
:100CE000D12C760120163106CCF0C701B6010F9049
:100CF0000F900F900F90DF91CF911F910F91FF9068
:100D0000EF90DF90CF90BF90AF909F908F907F90AB
:100D10006F905F904F903F902F900895E981FA81F6
:100D20004190519061907190FA83E983409450947E
:100D30006094709453014201880E991EAA1EBB1E36
:100D4000C501B4010E94A8144B815C810E94B315B7
:100D50009B01AC01C701B6010E9493136B017C019A
:100D600081E084149504A604B70408F080E090E0C4
:100D7000B0E0A0E02B813C81205E3F4F3C832B8381
:100D80003FEF231A330AAECF21E030911602311122
:100D900020E0FC01218321E030911702311120E095
:100DA000FC0122830895CF92DF92EF92FF926B01B4
:100DB0007C019F7720E030E040E859E50E940B1469
:100DC00087FF2BC020E030E040E05FE3C701B601C1
:100DD0000E94AD1587FD0EC020E030E040E05FE3EB
:100DE000C701B6010E949413FF90EF90DF90CF905F
:100DF0000C94E51420E030E040E05FEBC701B60161
:100E00000E94AD15181684F420E030E0A901C70156
:100E1000B6010E94E7156B017C01C701B601FF9086
:100E2000EF90DF90CF90089520E030E040E05FE366
:100E3000C701B6010E949313FF90EF90DF90CF900F
:100E40000C94F8139091160280911702911105C02D
:100E500021E0811120E0209318029F5F923040F43E
:100E6000909316028F5F843030F4809317020895B8
:100E700010921602F7CF1092170208952F923F9208
:100E80004F925F926F927F928F929F92AF92BF929A
:100E9000CF92DF92EF92FF920F931F93CF93DF9346
:100EA000CDB7DEB762970FB6F894DEBF0FBECDBFE9
:100EB00030901802332001F18091E7039091E8030C
:100EC000A091E903B091EA038093C9029093CA020A
:100ED000A093CB02B093CC028091EB039091EC03F2
:100EE000A091ED03B091EE038093CD029093CE02DA
:100EF000A093CF02B093D0026EE070E080E090E06B
:100F00001BD99093A6038093A50343E050E0BE0154
:100F10006F5F7F4F00D92091A4013091A501A98175
:100F2000BA810E94581A6B017C0120901404211090
:100F300063C020E030E040E85FE36091F703709128
:100F4000F8038091F9039091FA030E9494132B0106
:100F50003C014092F7035092F8036092F9037092BB
:100F6000FA03C701B6010E94A81420E030E040E077
:100F700054E30E94E7154B015C012091FB03309183
:100F8000FC034091FD035091FE030E9494136F8374
:100F9000788789879A876093FB037093FC0380931B
:100FA000FD039093FE038091030490910404A091AB
:100FB0000504B09106048B839C83AD83BE839C01A2
:100FC000AD01C301B2010E94AD1587FD36C02B8172
:100FD0003C814D815E816F81788589859A850E94EB
:100FE0000F146093FF0370930004809301049093A7
:100FF000020481E080931404C701B6010E94A81482
:1010000020E030E040E054E30E94E7152091FF0328
:101010003091000440910104509102040E94931306
:101020002BED3FE049EC50E40E9494136B837C83EA
:101030008D839E83222423940CC02BED3FE049EC4A
:101040005FE3C501B4010E9494136B837C838D839D
:101050009E838B819C81AD81BE818093D1029093D0
:10106000D202A093D302B093D40220913C013091DC
:101070003D0140913E0150913F01BC01CD010E94D4
:10108000E7156B877C878D879E872091CF033091F2
:10109000D0034091D1035091D2030E9493136F87E4
:1010A000788B898B9A8B8091F70281111092F702CD
:1010B0001092D5021092D6021092D7021092D80246
:1010C000209120033091210340912203509123036A
:1010D0006F85788989899A890E9494134B015C01F4
:1010E00040905403509055036090560370905703FE
:1010F000C0905003D0905103E0905203F0905303FE
:10110000C701B6010E9477148B010150110920E03C
:1011100030E0A901C301B2010E940B14000F111F9E
:10112000000F111F811165C1F801EF50FD4F23A978
:1011300034A945A956A9C501B4010E9494136F832F
:10114000788789879A870F501D4F8F859889A9893D
:10115000BA89F80183AB94ABA5ABB6AB20E030E025
:1011600040E351E4C701B6010E940B14882309F43F
:1011700045C120E030E040E85FE3C701B6010E94CE
:1011800094136B017C0120E030E0A901C301B2019E
:101190000E940B14811112C020E030E040E451E4C1
:1011A0006F81788589859A850E940F146093D50296
:1011B0007093D6028093D7029093D8028092200336
:1011C00090922103A0922203B0922303C092500375
:1011D000D0925103E0925203F092530320E030E0AA
:1011E000A901C301B2010E94AD1518160CF02DC162
:1011F00020E030E040E85FE3C301B2010E949313B6
:101200006093540370935503809356039093570350
:101210004090440150904501609046017090470114
:10122000C0904801D0904901E0904A01F0904B01F4
:1012300080904C0190904D01A0904E01B0904F01D4
:101240002091400130914101409142015091430170
:101250006091C9027091CA028091CB029091CC0238
:101260000E9493136093D9027093DA028093DB0299
:101270009093DC02A30192016091CD027091CE02A5
:101280008091CF029091D0020E9493136093DD026F
:101290007093DE028093DF029093E002A701960133
:1012A0006B817C818D819E810E9493136093E1020A
:1012B0007093E2028093E3029093E402C090D5021F
:1012C000D090D602E090D702F090D802A501940108
:1012D000C701B6010E9493136093E5027093E60282
:1012E0008093E7029093E8022B813C814D815E81DF
:1012F0006091500170915101809152019091530180
:101300000E9493134B015C01209100013091010177
:1013100040910201509103010E94E7152091D703EB
:101320003091D8034091D9035091DA030E9493136E
:1013300020912401309125014091260150912701EF
:101340000E94E7156F83788789879A87222009F49E
:10135000D8C12BED3FE049E450E46B817C818D8165
:101360009E810E9493139F772AE939E949E15EE360
:101370000E940B1487FF0BC0C701B6019F7720E0C6
:1013800030E040EC5FE30E940B1487FD67C0332020
:1013900049F182E090E04091EF035091F0036091B9
:1013A000F1037091F2034093E9025093EA026093D3
:1013B000EB027093EC024091F3035091F4036091BF
:1013C000F5037091F6034093ED025093EE026093A3
:1013D000EF027093F0028130910509F443C0029747
:1013E00009F093C181E08093120460E070E0CB01CA
:1013F0007DC01F82188619861A86A5CE08E413E0E0
:1014000030E2E32E33E0F32ED80114962D913D9176
:101410004D915C9117976D917D918D919C910E945A
:101420009413F801608371838283938304501109BC
:10143000E016F10649F7812C912C5401C12CD12CD6
:1014400020E8E22E2FE3F22E9ECE1092540310924B
:1014500055031092560310925703DACE81E090E0C4
:10146000311099CF20912C0130912D0140912E0106
:1014700050912F01C501B4010E94E7152091D303BB
:101480003091D4034091D5035091D6030E94941318
:101490002F81388549855A850E9494132091ED0249
:1014A0003091EE024091EF025091F0020E949413AD
:1014B000209168013091690140916A0150916B015E
:1014C0000E94E7152091E9023091EA024091EB0277
:1014D0005091EC020E94941320916C0130916D01A7
:1014E00040916E0150916F010E94E71520917001AB
:1014F0003091710140917201509173010E94E71582
:101500006B017C0120E030E0A9010E94AD15412C67
:10151000512C320118164CF02601370177FA7094DD
:1015200077F87094C12CD12C760165E070E080E0F2
:1015300090E00E9430018C019093B6038093B50334
:1015400020E030E04FE753E4C701B6010E940B14DE
:10155000181634F4C12CD12C9FE7E92E93E4F92E10
:10156000B701A601C8010E940E0166E070E080E0AC
:1015700090E00E9430018C019093AE038093AD0304
:1015800020E030E04FE753E4C301B2010E940B14A6
:10159000181634F4412C512C8FE7682E83E4782EF2
:1015A000B301A201C8010E940E0160917401709103
:1015B00075018091760190917701F5DB6B017C01DB
:1015C00020E030E040E853E40E940B146FEF87FF07
:1015D0000EC020E030E0A901C701B6010E94AD15A0
:1015E00060E087FD04C0C701B6010E947C1487E05B
:1015F00084D820E030E040E853E4C701B6010E94FF
:101600000B146FEF87FF0EC020E030E0A901C70187
:10161000B6010E94AD1560E087FD04C0C701B601A8
:101620000E947C1488E069D88B859C85AD85BE8539
:101630008093CF039093D003A093D103B093D203B0
:10164000209108013091090140910A0150910B014C
:10165000C501B4010E94E71520915C0130915D0144
:1016600040915E0150915F010E94E7152091D303E4
:101670003091D4034091D5035091D6030E94941326
:101680006093D3037093D4038093D5039093D603D0
:10169000209160013091610140916201509163019C
:1016A0006F81788589859A850E94E7152091D703F7
:1016B0003091D8034091D9035091DA030E949413DA
:1016C0006093D7037093D8038093D9039093DA0380
:1016D00062960FB6F894DEBF0FBECDBFDF91CF91FB
:1016E0001F910F91FF90EF90DF90CF90BF90AF9040
:1016F0009F908F907F906F905F904F903F902F9032
:10170000089583E090E0311046CE609154017091CD
:1017100055018091560190915701E8CE4F925F920A
:101720006F927F928F929F92AF92BF92CF92DF92F1
:10173000EF92FF920F931F93CF93DF93CDB7DEB756
:10174000A0970FB6F894DEBF0FBECDBF2091DB038C
:101750003091DC034091DD035091DE03609178010C
:101760007091790180917A0190917B01DCD76D8F26
:101770007E8F8F8F98A38091BD0381111092BD033E
:10178000BE016F5E7F4F8091BE030E945303809124
:10179000BE030E94650320910E0489899A89AB8952
:1017A000BC8921110BC08093070490930804A09377
:1017B0000904B0930A0421E020930E044091070429
:1017C000509108046091090470910A048C019D01F4
:1017D000B7FD41C00F5F1F4F2F4F3F4740175107C5
:1017E00062077307F4F18C019D01041B150B260B96
:1017F000370B37FF0DC0011511052105E0E83E0745
:1018000081F130952095109501951F4F2F4F3F4F37
:10181000093C11052105310524F58C019D01B7FF17
:101820000CC00097A105F0E8BF07D9F000271127E9
:101830009801081B190B2A0B3B0B053F1140210592
:1018400031057CF48093070490930804A093090465
:10185000B0930A040AC03058041715072607370743
:1018600014F6498B5A8B6B8B7C8B8091A0019091E5
:10187000A101A091A201B091A3018D879E87AF879E
:10188000B88B89899A89AB89BC8989879A87AB8704
:10189000BC8722E0E22EF12C8E010F5F1F4F21E06A
:1018A00030E0AE01475F5F4F61E070E0CE010D9622
:1018B0000E94840380915E03811110925E0350E0C8
:1018C00040E062E070E0CE010196B2D920E030E065
:1018D00040E052E30E94E7156D8B7E8B8F8B988FD3
:1018E00020918703309188034091890350918A03A6
:1018F0001BD72B013C01C0909B03D0909C03E09030
:101900009D03F0909E038090970390909803A09081
:101910009903B0909A03C501B401E9D78B01015036
:10192000110920E030E0A901C701B60174D7000F0A
:10193000111F000F111F81113BC1F801E557FC4F2A
:101940002081318142815381C301B201EDD6698F7B
:101950007A8F8B8F9C8F05571C4F8D899E89AF89FD
:10196000B88DF80180839183A283B38320E030E0B7
:1019700040E450E4C501B4014ED7882309F41DC1E9
:1019800020E030E040E85FE3C501B401CDD66D8BC7
:101990007E8B8F8B988F20E030E0A901C701B601C4
:1019A0003AD7812C912C540181110CC020E030E0F9
:1019B00040E85EE3698D7A8D8B8D9C8D0E94E715E2
:1019C0004B015C0140928703509288036092890327
:1019D00070928A038D899E89AF89B88D8093970311
:1019E00090939803A0939903B0939A0320E030E07A
:1019F000A901C701B6010E94AD1518160CF015C15A
:101A000020E030E040E85FE3C701B6018CD6609388
:101A10009B0370939C0380939D0390939E0320915E
:101A20008C0130918D0140918E0150918F01C50143
:101A3000B4010E94E71520919001309191014091ED
:101A40009201509193010E94E7156B017C01AC015A
:101A50009B01609194017091950180919601909104
:101A600097010E94E7156093EF037093F003809352
:101A7000F1039093F2038091DF039091E003A09132
:101A8000E103B091E2038D8B9E8BAF8BB88F2091D9
:101A900004013091050140910601509107016D8DBF
:101AA0007E8D8F8D98A10E94E7152D893E894F89E3
:101AB000588D39D6209128013091290140912A0171
:101AC00050912B010E94E7152B013C018090DB0314
:101AD0009090DC03A090DD03B090DE038092E703DA
:101AE0009092E803A092E903B092EA03C092EB035C
:101AF000D092EC03E092ED03F092EE038091E303C9
:101B00009091E403A091E503B091E603898F9A8F49
:101B1000AB8FBC8F20913001309131014091320167
:101B2000509133016D8D7E8D8F8D98A10E94E715A8
:101B3000298D3A8D4B8D5C8DF7D5A3019201F4D59B
:101B40006093F3037093F4038093F5039093F6038B
:101B500020917C0130917D0140917E0150917F0167
:101B6000C701B6010E94E715A5019401DDD56B01FF
:101B70007C01C092DB03D092DC03E092DD03F092A3
:101B8000DE038090840190908501A0908601B09042
:101B90008701A5019401E1D718160CF04FC080927F
:101BA000DB039092DC03A092DD03B092DE0355C00C
:101BB000198E1A8E1B8E1C8ECECE209193033091DF
:101BC0009403409195035091960360918F03709117
:101BD00090038091910390919203A6D59B01AC0153
:101BE00020938F033093900340939103509392037B
:101BF00060918B0370918C0380918D0390918E0383
:101C000093D560938B0370938C0380938D03909393
:101C10008E0380E090E0A0E8BFE38D8B9E8BAF8BBE
:101C2000B88F412C512C3201B6CE10929B031092EA
:101C30009C0310929D0310929E03F1CE8090880128
:101C400090908901A0908A01B0908B01A501940128
:101C5000C701B601E0D587FDA2CF20919801309150
:101C6000990140919A0150919B01C301B201AFD7F4
:101C70002D893E894F89588D57D56093DF03709326
:101C8000E0038093E1039093E20320910C013091F3
:101C90000D0140910E0150910F016D8D7E8D8F8D44
:101CA00098A195D720919C0130919D0140919E0172
:101CB00050919F018CD7298D3A8D4B8D5C8D34D5F9
:101CC0006093E3037093E4038093E5039093E6034A
:101CD000A0960FB6F894DEBF0FBECDBFDF91CF91B7
:101CE0001F910F91FF90EF90DF90CF90BF90AF903A
:101CF0009F908F907F906F905F904F9008952F925C
:101D00003F924F925F926F927F928F929F92AF928B
:101D1000BF92CF92DF92EF92FF920F931F93CF93D8
:101D2000DF9384E090E07AD3E3E1F2E086E0DF0144
:101D30001D928A95E9F7E1EDF2E080E2DF011D9264
:101D40008A95E9F7C1EFD2E085E291E0FE019C01BE
:101D5000119221503040E1F709EC12E080E0C82EEA
:101D600081E0D82EF60184A995A9A6A9B7A9F80102
:101D700080839183A283B383F60180AD91ADA2AD40
:101D8000B3ADF80184839583A683B78377247394D6
:101D900070921504812C912C540183948092A0039D
:101DA0009092A103A092A203B092A3036EE070E010
:101DB00080E090E00E94E0009093A6038093A5034A
:101DC0007092A40318827092130489829A82AB8263
:101DD000BC828FA298A6A9A6BAA68BA69CA6ADA6E1
:101DE000BEA61FA618AA19AA1AAA2CE2622EA4E25D
:101DF000B3E0E62D1D92EA95E9F7212C312C30E86D
:101E0000432E3FE3532EA0E5B3E02D923D924D9239
:101E10005C921397E4E5F3E0108211821282138240
:101E20007D821E82E8E5F1E080819181A281B3810B
:101E3000F80180A391A3A2A3B3A3E4E6F1E080811B
:101E40009181A281B381F80184A395A3A6A3B7A32E
:101E50001092AF03709211048092B0039092B1037C
:101E6000A092B203B092B303E12CF12C8701A80138
:101E7000970165E070E080E090E00E94740190932B
:101E8000B6038093B5037092B4031092A7037092C7
:101E900010048092A8039092A903A092AA03B09282
:101EA000AB03A801970166E070E080E090E00E943B
:101EB00074019093AE038093AD037092AC031092C3
:101EC000C70370920C048092C8039092C903A09239
:101ED000CA03B092CB0361E087E00E947503709261
:101EE000CC031092BF0370920B048092C0039092B7
:101EF000C103A092C203B092C30361E088E00E94D4
:101F000075037092C403AEEBB3E01C921092B7035A
:101F100070920F040CEB13E0F80110828092B8036A
:101F20009092B903A092BA03B092BB03AD0163E0F3
:101F300082E00E948402D8017C921092BD0310922C
:101F4000580370920D048092590390925A03A09204
:101F50005B03B0925C0380927F0390928003A09217
:101F60008103B09282038092830390928403A092B3
:101F70008503B092860347E8A42E43E0B42EF50112
:101F800010821182128213825BE8852E53E0952E17
:101F9000D4011D921D921D921C9213976FE8E62E9C
:101FA00063E0F62EF7011082118212821382A3E9F8
:101FB000B3E01D921D921D921C921397E7E9F3E086
:101FC00020823182428253820BE913E0D8011D92B4
:101FD0001D921D921C92139770925D0310925E03E6
:101FE000F60184A995A9A6A9B7A98093E7039093C0
:101FF000E803A093E903B093EA0380AD91ADA2ADED
:10200000B3AD8093EB039093EC03A093ED03B093F7
:10201000EE0380899189A289B3898093CF0390933D
:10202000D003A093D103B093D203E8E5F1E080811F
:102030009181A281B3818093EF039093F003A093E9
:10204000F103B093F203F601848D958DA68DB78DC3
:102050008093D3039093D403A093D503B093D60376
:1020600084899589A689B7898093D7039093D803EB
:10207000A093D903B093DA03E4E6F1E08081918183
:10208000A281B3818093F3039093F403A093F503AB
:10209000B093F6038091800190918101A09182011B
:1020A000B09183018093DB039093DC03A093DD0365
:1020B000B093DE03F601808D918DA28DB38D809358
:1020C000DF039093E003A093E103B093E20380A1C8
:1020D00091A1A2A1B3A18093E3039093E403A09301
:1020E000E503B093E60380E090E0AAE7B3E48093D1
:1020F000030490930404A0930504B0930604109283
:10210000F7031092F8031092F9031092FA03109259
:10211000FB031092FC031092FD031092FE03109239
:10212000FF03109200041092010410920204109216
:1021300014041092120410920E041FA618AA19AAD1
:102140001AAAA4E2B3E01D926A94E9F7E0E5F3E08D
:102150002082318242825382A4E5B3E01D921D9217
:102160001D921C921397EEEBF3E080810E946503B1
:10217000D5011D921D921D921C921397F40110829D
:10218000118212821382D7011D921D921D921C9200
:102190001397E3E9F3E01082118212821382A7E918
:1021A000B3E02D923D924D925C921397F80110820C
:1021B000118212821382DF91CF911F910F91FF90B4
:1021C000EF90DF90CF90BF90AF909F908F907F90D7
:1021D0006F905F904F903F902F90089580919F0354
:1021E00081111FC081E080939F038091A003909193
:1021F000A103A091A203B091A3030197A105B1058A
:1022000081F48091A403882361F06EE070E080E0A7
:1022100090E00E949C009093A6038093A5030E94E7
:1022200003018091F102811126C081E08093F102C7
:102230008091F2029091F302A091F402B091F50224
:102240000197A105B105B9F48091F602882399F0B0
:102250008FEF9FEFDC018093180390931903A093F5
:102260001A03B0931B0380931C0390931D03A09348
:102270001E03B0931F038091AF0381112EC081E034
:102280008093AF038091B0039091B103A091B2030A
:10229000B091B3030197A105B105F9F48091B4039E
:1022A0008823D9F065E070E080E090E00E94300182
:1022B0009093B6038093B50340E050E0BA010E94CA
:1022C0000E0165E070E080E090E00E9430019093A4
:1022D000B6038093B5030E94BF018091A7038111CB
:1022E0002EC081E08093A7038091A8039091A90359
:1022F000A091AA03B091AB030197A105B105F9F430
:102300008091AC038823D9F066E070E080E090E033
:102310000E9430019093AE038093AD0340E050E003
:10232000BA010E940E0166E070E080E090E00E9439
:1023300030019093AE038093AD030E94BF01809162
:10234000C703811103C081E08093C7038091BF035D
:10235000811103C081E08093BF038091B703811195
:1023600014C081E08093B7038091B8039091B903C2
:10237000A091BA03B091BB030197A105B10529F45F
:102380008091BC0381110E947203809158038111D6
:1023900026C081E0809358038091590390915A039D
:1023A000A0915B03B0915C030197A105B105B9F45D
:1023B00080915D03882399F08FEF9FEFDC0180937C
:1023C0007F0390938003A0938103B0938203809353
:1023D000830390938403A0938503B09386030895A9
:1023E00060E070E080E89FE7089560E070E080E8DA
:1023F0009FE7089560E070E080E89FEF089560E057
:1024000070E080E89FEF089560E070E080EC9FEF5F
:10241000089560E070E080EC9FEF0895F5DF609331
:102420002204709323048093240490932504F1DF05
:102430006093160470931704809318049093190402
:10244000CFDF60931E0470931F0480932004909349
:102450002104CBDF60931A0470931B0480931C0447
:1024600090931D04C7DF6093260470932704809324
:10247000280490932904C3DF60932A0470932B04EB
:1024800080932C0490932D040895089526E030E065
:1024900040E855E260E070E090E080E000C010921B
:1024A0001A021092190289309105E0F4865A9D4E65
:1024B000FC01F8C763126C127312761279127C1247
:1024C0007F128212881281E090E090931A0280932A
:1024D00019028CE292E0A4C682E090E090931A0286
:1024E00080931902089584E090E0F8CF88E090E0AE
:1024F000F5CF80E190E0F2CF80E290E0EFCF80E492
:1025000090E0ECCF80E890E090931A02809319025B
:102510008091190290911A029160E0CF1F920F9260
:102520000FB60F9211242F933F934F935F936F93A6
:102530007F938F939F93AF93BF93EF93FF9385E91F
:102540009CEF909385008093840032D0FF91EF91AF
:10255000BF91AF919F918F917F916F915F914F91BB
:102560003F912F910F900FBE0F901F90189585E906
:102570009CEF9093850080938400AFE6B0E08C914F
:102580008E7F8C93E0E8F0E080818C7F8083E1E8AF
:10259000F0E08081877E808380818360808380817A
:1025A0008B7F80838C9181608C93089581E0089566
:1025B000CF93DF9300D01F92CDB7DEB780911E027C
:1025C00091E0980F90931E02882371F021E030E093
:1025D000309322022093210280931E020F900F90CD
:1025E0000F90DF91CF910895CE0101960E94C4060D
:1025F00078940E942207F89480911E028150809363
:102600001E028A81811135C08B8181113EC080916B
:102610001F028111E3CF80911C02882389F081E0A1
:1026200080931F0278940E943E07F89480911C02C8
:10263000815080931C0280911F02815080931F0261
:10264000809120028111CACF80911D02882331F22E
:1026500081E080932002789461D8F89480911D02E3
:10266000815080931D02809120028150809320022E
:10267000B5CF80911C0291E0980F90931C028823A3
:1026800009F4C2CF21E030E00BC080911D0291E03F
:10269000980F90931D0222E030E0882309F4B7CF11
:1026A00041E050E05093220240932102255E3D4FCD
:1026B000F9018083ACCFCF93DF9310922F04109257
:1026C0002E04A1D3E3DEC091AB01D091AC011982FD
:1026D000188215DBF8944BDF81E028813981232BA8
:1026E00009F080E080932E047894789480912E04F1
:1026F000811107C073DDF89490E080E0DF91CF9105
:10270000089581E028813981232B09F480E08093AA
:102710002F0490912F0481E0911180E080932E048A
:1027200045DFB3DEE3CF5058BB27AA270ED0C4C184
:10273000B5D130F0BAD120F031F49F3F11F41EF43E
:10274000AAC10EF4E095E7FB77C1E92FC6D180F36B
:10275000BA17620773078407950718F071F49EF59E
:10276000F5C10EF4E0950B2EBA2FA02D0B01B90187
:1027700090010C01CA01A0011124FF27591B99F0F7
:10278000593F50F4503E68F11A16F040A22F232F03
:10279000342F4427585FF3CF469537952795A79553
:1027A000F0405395C9F77EF41F16BA0B620B730BFA
:1027B000840BBAF09150A1F0FF0FBB1F661F771F6B
:1027C000881FC2F70EC0BA0F621F731F841F48F420
:1027D000879577956795B795F7959E3F08F0B3CFA6
:1027E0009395880F08F09927EE0F97958795089590
:1027F00096D180F09F3740F491110EF4A8C160E0AB
:1028000070E080E89FE3089526F01B16611D711D9E
:10281000811D18C132C1ECD008F481E008950CD0BC
:102820004BC143D140F03AD130F021F45F3F19F071
:1028300003C151118CC12FC150D198F39923C9F311
:102840005523B1F3951B550BBB27AA2762177307B6
:10285000840738F09F5F5F4F220F331F441FAA1F6A
:10286000A9F333D00E2E3AF0E0E830D0915050402A
:10287000E695001CCAF729D0FE2F27D0660F771FD8
:10288000881FBB1F261737074807AB07B0E809F0BA
:10289000BB0B802DBF01FF2793585F4F2AF09E3F4F
:1028A000510568F0C9C053C15F3FECF3983EDCF3BB
:1028B000869577956795B795F7959F5FC9F7880FC8
:1028C000911D9695879597F90895E1E0660F771F1A
:1028D000881FBB1F621773078407BA0720F0621BAB
:1028E000730B840BBA0BEE1F88F7E095089504D0A4
:1028F0006894B1112CC10895F8D088F09F5790F0DA
:10290000B92F9927B751A0F0D1F0660F771F881F14
:10291000991F1AF0BA95C9F712C0B13081F016D1DB
:10292000B1E0089513C1672F782F8827B85F39F079
:10293000B93FCCF3869577956795B395D9F73EF473
:1029400090958095709561957F4F8F4F9F4F08951B
:10295000E89409C097FB3EF4909580957095619539
:102960007F4F8F4F9F4F9923A9F0F92F96E9BB27EF
:102970009395F695879577956795B795F111F8CF6B
:10298000FAF4BB0F11F460FF1BC06F5F7F4F8F4FD6
:102990009F4F16C0882311F096E911C0772321F0CC
:1029A0009EE8872F762F05C0662371F096E8862F64
:1029B00070E060E02AF09A95660F771F881FDAF7BB
:1029C000880F9695879597F90895A9D080F09F373D
:1029D00040F491110EF0BBC060E070E080E89FEB26
:1029E000089526F41B16611D711D811D2BC045C065
:1029F000990F0008550FAA0BE0E8FEEF1616170610
:102A0000E807F907C0F012161306E407F50798F077
:102A1000621B730B840B950B39F40A2661F0232B90
:102A2000242B252B21F408950A2609F4A140A6950C
:102A30008FEF811D811D089597F99F6780E870E0F1
:102A400060E00895882371F4772321F09850872B54
:102A5000762F07C0662311F499270DC09051862B5D
:102A600070E060E02AF09A95660F771F881FDAF70A
:102A7000880F9695879597F908959F3F31F091506B
:102A800020F4879577956795B795880F911D969552
:102A9000879597F908959FEF80EC089500240A9494
:102AA0001616170618060906089500240A94121629
:102AB0001306140605060895092E0394000C11F45C
:102AC000882352F0BB0F40F4BF2B11F460FF04C009
:102AD0006F5F7F4F8F4F9F4F089557FD9058440F62
:102AE000551F59F05F3F71F04795880F97FB991F6D
:102AF00061F09F3F79F0879508951216130614062A
:102B0000551FF2CF4695F1DF08C0161617061806B6
:102B1000991FF1CF86957105610508940895E5DF49
:102B2000A0F0BEE7B91788F4BB279F3860F41616EB
:102B3000B11D672F782F8827985FF7CF86957795F7
:102B40006795B11D93959639C8F30895E894BB270E
:102B500066277727CB0197F908954ADF08F48FEFAE
:102B600008956ACF8ACFC1DFE8F39923D9F3940F90
:102B7000511DBBF39150504094F059F0882332F02E
:102B8000660F771F881F91505040C1F79E3F510537
:102B900044F7880F911D9695879597F908955F3FA3
:102BA000ACF0983E9CF0BB27869577956795B795D6
:102BB00008F4B1609395C1F7BB0F58F711F460FFAB
:102BC000E8CF6F5F7F4F8F4F9F4FE3CFC0CF0BD0CA
:102BD00073CF64DF28F069DF18F0952309F02CCF5C
:102BE0005ACF1124B4CF79DFA0F3959FD1F3950F7D
:102BF00050E0551F629FF001729FBB27F00DB11D81
:102C0000639FAA27F00DB11DAA1F649F6627B00D10
:102C1000A11D661F829F2227B00DA11D621F739FF9
:102C2000B00DA11D621F839FA00D611D221F749F07
:102C30003327A00D611D231F849F600D211D822F4E
:102C4000762F6A2F11249F5750408AF0E1F0882395
:102C50004AF0EE0FFF1FBB1F661F771F881F9150A2
:102C60005040A9F79E3F510570F0E6CE70CF5F3F10
:102C7000ECF3983EDCF3869577956795B795F795D5
:102C8000E7959F5FC1F7FE2B880F911D969587955D
:102C900097F9089508958230E8F4E82FF0E0EE0FF8
:102CA000FF1FEA55FE4F71836083813041F08091B0
:102CB00069008C7F482B40936900E89A08958091C1
:102CC0006900837F440F551F440F551F482B4093C5
:102CD0006900E99A08951F920F920FB60F9211247E
:102CE0002F933F934F935F936F937F938F939F9314
:102CF000AF93BF93EF93FF93E091A601F091A701EB
:102D00000995FF91EF91BF91AF919F918F917F9125
:102D10006F915F914F913F912F910F900FBE0F9048
:102D20001F9018951F920F920FB60F9211242F9398
:102D30003F934F935F936F937F938F939F93AF9343
:102D4000BF93EF93FF93E091A801F091A90109953A
:102D5000FF91EF91BF91AF919F918F917F916F9173
:102D60005F914F913F912F910F900FBE0F901F9049
:102D700018951F920F920FB60F9211242F933F9325
:102D80008F939F93AF93BF938091240290912502DC
:102D9000A0912602B09127023091230223E0230F55
:102DA0002D3758F50196A11DB11D20932302809364
:102DB000240290932502A0932602B09327028091CB
:102DC000280290912902A0912A02B0912B0201962B
:102DD000A11DB11D8093280290932902A0932A027D
:102DE000B0932B02BF91AF919F918F913F912F9103
:102DF0000F900FBE0F901F90189526E8230F029694
:102E0000A11DB11DD2CF789484B5826084BD84B5F4
:102E1000816084BD85B5826085BD85B5816085BDD5
:102E2000EEE6F0E0808181608083E1E8F0E01082EE
:102E3000808182608083808181608083E0E8F0E02F
:102E4000808181608083E1EBF0E080818460808319
:102E5000E0EBF0E0808181608083EAE7F0E0808150
:102E600084608083808182608083808181608083B0
:102E70008081806880831092C10008958E3008F0B0
:102E80008E502091AA0190E4299F9001112487700F
:102E9000822B80937C0080917A00806480937A00FA
:102EA00080917A0086FDFCCF809178009091790026
:102EB00008951F93CF93DF93182FEB0161E07DD02E
:102EC000209731F460E0812FDF91CF911F91B1C045
:102ED000CF3FD10511F461E0F6CFE12FF0E0E859E2
:102EE000FF4FE491E33031F140F4E130B1F0E230F2
:102EF000E1F0C038D1057CF7E5CFE73029F1E830C3
:102F000059F1E430B1F780918000806280938000B5
:102F1000D0938B00C0938A0004C084B5806884BDC0
:102F2000C7BDDF91CF911F91089584B5806284BDA4
:102F3000C8BDF7CF80918000806880938000D093D7
:102F40008900C0938800EDCF8091B00080688093A5
:102F5000B000C093B300E5CF8091B0008062809351
:102F6000B000C093B400DDCF833081F028F481300D
:102F700099F08230A9F008958730A9F08830C9F01F
:102F80008430B1F4809180008F7D03C080918000F7
:102F90008F7780938000089584B58F7784BD0895DE
:102FA00084B58F7DFBCF8091B0008F778093B00088
:102FB00008958091B0008F7DF9CFCF93DF9390E09B
:102FC000FC01E458FF4F249180579F4FFC018491EE
:102FD0008823C9F090E0880F991FFC01E854FF4F47
:102FE000A591B491FC01E255FF4FC591D4916111B7
:102FF0000DC09FB7F8948C91209582238C93888183
:10300000282328839FBFDF91CF910895623051F428
:103010009FB7F8943C91822F809583238C93E8810D
:103020002E2BEFCF8FB7F894EC912E2B2C938FBFD4
:10303000EACF1F93CF93DF93282F30E0F901E859AF
:10304000FF4F8491F901E458FF4FD491F901E05703
:10305000FF4FC491CC23A1F0162F811185DFEC2FF7
:10306000F0E0EE0FFF1FE255FF4FA591B4918FB72F
:10307000F894EC91111108C0D095DE23DC938FBF3A
:10308000DF91CF911F910895DE2BF8CFFC01918D38
:10309000228D892F90E0805C9F4F821B91098F7356
:1030A00099270895FC01918D828D981731F0828DBA
:1030B000E80FF11D858D90E008958FEF9FEF089543
:1030C000FC01918D828D981761F0A28DAE0FBF2FFC
:1030D000B11D5D968C91928D9F5F9F73928F90E052
:1030E00008958FEF9FEF0895FC01538D448D252F98
:1030F00030E0842F90E0821B930B541710F0CF9692
:10310000089501970895FC01A48DA80FB92FB11D52
:10311000A35ABF4F2C91848D90E001968F7399270D
:10312000848FA689B7892C93A089B1898C918370EB
:1031300080648C93938D848D981306C00288F389E4
:10314000E02D80818F7D80830895CF93DF93EC0104
:10315000888D8823B1F0AA89BB89E889F9898C9187
:1031600085FD03C0808186FD0CC00FB607FCF7CF3C
:103170008C9185FFF2CF808185FFEDCFCE01C3DF3B
:10318000EACFDF91CF910895EF92FF920F931F93B3
:10319000CF93DF93EC0181E0888F9B8D8C8D98130A
:1031A0001AC0E889F989808185FF15C09FB7F89416
:1031B000EE89FF896083E889F98980818370806462
:1031C00080839FBF81E090E0DF91CF911F910F91AD
:1031D000FF90EF900895F62E0B8D10E00F5F1F4FBC
:1031E0000F731127E02E8C8D8E110BC00FB607FCCC
:1031F000FACFE889F989808185FFF5CFCE0183DF99
:10320000F2CFEB8DEC0FFD2FF11DE35AFF4FF08253
:103210009FB7F8940B8FEA89FB8980818062D0CFB9
:10322000CF92DF92EF92FF921F93CF93DF93EC0147
:103230006A017B01122FE889F98982E08083C11439
:1032400081EED806E104F10499F060E079E08DE3C5
:1032500090E0A701960104D121503109410951099B
:103260005695479537952795211580E1380790F0B9
:10327000E889F989108260E874E88EE190E0A7019E
:103280009601EED0215031094109510956954795D3
:1032900037952795EC85FD853083EE85FF85208366
:1032A000188EEC89FD891083EA89FB898081806111
:1032B0008083EA89FB89808188608083EA89FB8931
:1032C000808180688083EA89FB8980818F7D80830B
:1032D000DF91CF911F91FF90EF90DF90CF900895F5
:1032E0001F920F920FB60F9211242F938F939F93DB
:1032F000EF93FF93E0913C02F0913D028081E091D9
:103300004202F091430282FD1BC0908180914502F0
:103310008F5F8F7320914602821741F0E091450242
:10332000F0E0E45DFD4F958F80934502FF91EF91B2
:103330009F918F912F910F900FBE0F901F90189516
:103340008081F4CF1F920F920FB60F9211242F930A
:103350003F934F935F936F937F938F939F93AF931D
:10336000BF93EF93FF938CE292E0CDDEFF91EF915C
:10337000BF91AF919F918F917F916F915F914F918D
:103380003F912F910F900FBE0F901F901895ECE278
:10339000F2E01382128288EE93E0A0E0B0E0848332
:1033A0009583A683B78381EB91E09183808385EC3D
:1033B00090E09587848784EC90E09787868780ECFF
:1033C00090E0918B808B81EC90E0938B828B82ECF0
:1033D00090E0958B848B86EC90E0978B868B118E9A
:1033E000128E138E148E0895AF92BF92CF92DF92F9
:1033F000EF92FF920F931F93CF93DF936C017B01AA
:103400008B01040F151FEB015E01AE18BF08C0173A
:10341000D10759F06991D601ED91FC910190F081AD
:10342000E02DC6010995892B79F7C501DF91CF9170
:103430001F910F91FF90EF90DF90CF90BF90AF90D2
:103440000895DB018F939F9342D0BF91AF91A29FCC
:10345000800D911DA39F900DB29F900D1124089592
:10346000A1E21A2EAA1BBB1BFD010DC0AA1FBB1F88
:10347000EE1FFF1FA217B307E407F50720F0A21BFA
:10348000B30BE40BF50B661F771F881F991F1A9467
:1034900069F760957095809590959B01AC01BD0191
:1034A000CF010895EE0FFF1F0590F491E02D0994D0
:1034B000A29FB001B39FC001A39F700D811D112475
:1034C000911DB29F700D811D1124911D0895F0DF93
:1034D000A59F900DB49F900DA49F800D911D112468
:0634E0000895F894FFCFEF
:1034E60000000000000000000000803F0000803F58
:1034F60000000000000000000000000000000000C6
:10350600000000000000C8420000C8420000803FE2
:103516000000803F00000000000000006EDB0E434C
:103526000000000000000000DB0F49400000000022
:103536000000000000000000000000004260E53BC3
:103546004260E53B00000000745E033F0000AA41B4
:10355600000080BF0000803F000000004260653C24
:10356600000000000000003F000000BF5077D63D7D
:10357600F4FDD43B6F123B414260653C4260653CC2
:10358600EC1D538342C94A164A1601130200000075
:1035960000C418F4197418A51846186018521800B3
:00000001FF
