:1000000061C000000C94A0340C94C73483C000007D
:1000100081C000007FC000007DC000007BC00000E8
:1000200079C0000077C0000075C0000073C00000F8
:1000300071C000000C94BC2F6DC000006BC00000AC
:100040000C94EE3467C000000C9400380C943238E5
:1000500061C000005FC000005DC000005BC0000028
:1000600059C0000057C00000000000080002010055
:100070000003040700000000000000000102040863
:100080001020408001020408102001020408102002
:10009000040404040404040402020202020203032E
:1000A00003030303000000002300260029000000D2
:1000B0000000250028002B0000000000240027007D
:1000C0002A00573811241FBECFEFD8E0DEBFCDBFC6
:1000D00012E0A0E0B1E0E0E5F2E702C005900D9289
:1000E000AE31B107D9F727E0AEE1B2E001C01D9211
:1000F000A038B207E1F710E0C2E6D0E004C02197D3
:10010000FE010E94F738C136D107C9F70E943F317E
:100110000C94263975CFCF93DF93882349F0EB01F8
:1001200081500E94CE3599838883DF91CF910895C5
:10013000FB0111821082F9CF0F931F938B019C0159
:1001400083E036952795179507958A95D1F7095D30
:100150001D4F462F477021E030E0F90102C0EE0F3D
:10016000FF1F4A95E2F7AF01F80120812423CB015C
:100170000196211102C090E080E01F910F91089537
:100180000F931F938B019C0183E03695279517955C
:1001900007958A95D1F7677081E090E001C0880FDC
:1001A0006A95EAF7F801E95DFD4F2081452B31F4AE
:1001B0008095822380831F910F910895822BFACF1F
:1001C000CF92DF92EF92FF92CF93DF936B017C018E
:1001D00060E08EE0C816D104E104F10490F48EE0F2
:1001E0008C0D0E946D36E6012196AE01C701B60165
:1001F000C7DFCE01DF91CF91FF90EF90DF90CF90DE
:1002000008958C2DEECF882341F08150682F70E047
:1002100090E080E050E040E0B3CF0895CF93282FE6
:100220008823E1F0CB01BA01CFEFC20FEC2FF0E051
:10023000E05DFD4F2081213059F490580E94B13289
:100240009B01AC016C2F70E090E080E0CF91A2C0E8
:100250000E94AC328C2FCF910C94E935CF91089548
:100260000F931F938B019C0183E03695279517957B
:1002700007958A95D1F7025E1D4F462F477021E002
:1002800030E0F90102C0EE0FFF1F4A95E2F7AF011F
:10029000F80120812423CB010196211102C090E0B6
:1002A00080E01F910F9108950F931F938B019C0184
:1002B00083E036952795179507958A95D1F767704E
:1002C00081E090E001C0880F6A95EAF7F801E25EEC
:1002D000FD4F2081452B31F48095822380831F912F
:1002E0000F910895822BFACF4F925F926F927F9277
:1002F0008F929F92AF92BF92CF92DF92EF92FF9236
:100300000F931F93CF93DF934B015C0129013A01B7
:10031000670161E0882D0E946D36E4012196AE01EF
:10032000C501B401C1DF20E030E0A901C801B60178
:100330000E94E23318168CF4F401E05DFD4F81E079
:100340008083C801B6010E94B1326B01C301B201C2
:100350000E94B132A601C40121D0CE01DF91CF911C
:100360001F910F91FF90EF90DF90CF90BF90AF90D3
:100370009F908F907F906F905F904F90089588230B
:1003800041F08150682F70E090E080E050E040E064
:100390008BCF0895862FB9010C94E9359C01FC019F
:1003A000E859FF4FE491E33061F140F4E13011F19D
:1003B000E23021F160E0822F0C94A936E730C1F1E0
:1003C000E83009F441C0E430A9F7809180008C7FC7
:1003D00082608093800090918100907E9061692B73
:1003E0006093810050938700409386008091800045
:1003F00080621BC084B5806884BDDCCF84B5806218
:10040000FBCF809180008C7F8260809380009091F0
:100410008100907E9061692B6093810050938700EA
:100420004093860080918000806880938000C2CFD6
:100430008091B00080688093B0008091B100887F87
:10044000682B6093B100B6CF8091B0008062F3CF8B
:10045000FC01A781B0858C9191858923A481B58108
:100460009C9140815181628173812681922359F050
:1004700081110BC04F5F5F4F6F4F7F4F40835183A0
:100480006283738308958111F5CF41505109610949
:100490007109F4CF85E492E0DBCF80E592E0D8CF1C
:1004A0008BE592E0D5CF86E692E0D2CFFC01A48125
:1004B000B5818C9196818923A781B0859C914081DB
:1004C0005181628173812185922359F0882359F0EB
:1004D0004F5F5F4F6F4F7F4F4083518362837383C2
:1004E00008958823A9F34150510961097109F4CF96
:1004F00085E492E0DBCF80E592E0D8CF8BE592E017
:10050000D5CF86E692E0D2CF0F931F93CF93DF93A0
:10051000082F162FEA01A09144028BE0A89FD0017A
:100520001124AB5BBD4F1D921D921D921C9213971F
:1005300081E01A968C931A97802F90E0FC01E45882
:10054000FF4FE4911696EC931697FC01E057FF4F8E
:10055000E491F0E0EE0FFF1FEC55FF4F8591949171
:1005600015969C938E931497862F90E0FC01E45887
:10057000FF4FE4911996EC931997FC01E057FF4F58
:10058000E491F0E0EE0FFF1FEC55FF4F8591949141
:1005900018969C938E93179760E0802F0E946D367B
:1005A00060E0812F0E946D3680914402813081F19C
:1005B000A0F0823009F445C0833009F45BC080911B
:1005C000440291E0980F90934402888390E080E089
:1005D000DF91CF911F910F91089580E0023021F0BB
:1005E0008FEF033009F481E041E050E06AE472E00B
:1005F0000E94803480E0123021F08FEF133009F434
:1006000081E041E050E068E772E00E948034D7CF9B
:1006100080E0023021F08FEF033009F481E041E007
:1006200050E06DE472E00E94803480E0123021F0EE
:100630008FEF133009F481E041E050E06BE772E0A6
:10064000E4CF80E0023021F08FEF033009F481E045
:1006500041E050E060E572E00E94803480E01230BA
:1006600021F08FEF133009F481E041E050E06EE7B4
:1006700072E0CBCF80E0023021F08FEF033009F43D
:1006800081E041E050E063E572E00E94803480E068
:10069000123021F08FEF133009F481E041E050E097
:1006A00061E872E0B2CF9BE0899FF0011124EB5B1F
:1006B000FD4F80819181A281B381FB018083918371
:1006C000A283B38390E080E008959BE0899FF001CE
:1006D0001124EB5BFD4F108211821282138290E095
:1006E00080E0089590E080E00895611102C00C94CC
:1006F0006D366130E1F362E0FACF662319F061E014
:100700000C94A93660E0FCCF90E080E008950F9350
:100710001F93009709F48EC06115710509F48AC012
:1007200000915601109157012091580130915901C3
:100730000E3F1F4F2F4F3F4F09F06EC0DB014D9111
:100740005D916D917C914093560150935701609358
:100750005801709359014091560150915701609191
:10076000580170915901DC011296ED91FC91808144
:100770009181A281B3818093FF0290930003A093A3
:100780000103B093020384819581A681B781809390
:10079000FB029093FC02A093FD02B093FE028085C1
:1007A0009185A285B3858093F7029093F802A09378
:1007B000F902B093FA0284859585A685B785809362
:1007C000F3029093F402A093F502B093F602109214
:1007D000EF021092F0021092F1021092F2020E94C7
:1007E0009D1382EC93E19093720280937102909337
:1007F00074028093730290937602809375020E9434
:100800007C12009731F421E030E030930403209310
:1008100003031F910F910895009156011091570104
:100820002091580130915901FB01008311832283EB
:10083000338391CF8FEF9FEFECCF8F929F92AF9248
:10084000BF92CF92DF92EF92FF921F93CF93DF93ED
:100850004B015C011091060382E090E09093040349
:100860008093030381149104A104B10441F48091A5
:100870000603811104C080910503C1E08111C0E02D
:10088000C12CD12C760180910603811106C0809184
:100890000503811102C0CC23D9F083E090E090934E
:1008A000040380930303CC2381F1CCE9DFEF111122
:1008B00002C00E942617CE01DF91CF911F91FF90B9
:1008C000EF90DF90CF90BF90AF909F908F90089562
:1008D0006AE070E080E090E00E945D3580E1C80E43
:1008E00087E2D81EE11CF11C8FEF88169806A80637
:1008F000B80631F0C1E08C149D04AE04BF0408F0CA
:10090000C0E080E00E94C012BECFD0E0C0E0CFCFF8
:10091000CF92DF92EF92FF920F931F93CF93DF93CB
:100920008F3F910511F008F051C0209103033091E1
:1009300004032330310539F020910303309104037F
:100940002130310531F424E030E03093040320936A
:1009500003036A017B01EC0183309105A8F011E0EB
:10096000AE01C701B6010E947B12AB01BC01CE01F2
:100970001123F9F0DF91CF911F910F91FF90EF902C
:10098000DF90CF900C944B198C01000F111F0F5862
:100990001D4FD8018D919C91892B09F30E94551907
:1009A0000297E9F6D801ED91FC91CE010995182F37
:1009B000D7CF0E946D1990E080E0DF91CF911F9119
:1009C0000F91FF90EF90DF90CF9008958FEF9FEF02
:1009D000F4CF80E00C94C012CF93DF9386E090E0D8
:1009E00090930403809303030E941913EC01E1E741
:1009F000F2E086E0DF011D928A95E9F70E94BE16BB
:100A00001092040310920303CE01DF91CF91089559
:100A10008091050308958091EE0208956093560138
:100A200070935701809358019093590190E080E0B2
:100A300008952F923F924F925F926F927F928F9282
:100A40009F92AF92BF92CF92DF92EF92FF920F935D
:100A50001F93CF93DF93CDB7DEB7CB54D1090FB639
:100A6000F894DEBF0FBECDBF26967FAF6EAF269740
:100A700028965FAF4EAF28973E8B2D8B2C96FFAEFE
:100A8000EEAE2C97FB01E150F04CEE0FFF1FEE0F86
:100A9000FF1FE80FF91F80809180A280B3808F8AAA
:100AA000988EA98EBA8EB501A401442777FD43958F
:100AB00055276627772729964FAF2997F901E150E7
:100AC000F04CEE0FFF1FEE0FFF1F2896AEACBFAC31
:100AD0002897EA0DFB1DC080D180E280F380CB8E89
:100AE000DC8EED8EFE8EB701A601442777FD43957F
:100AF0005527662777272A964FAF2A97188B0F8797
:100B0000F80130E020E02C96EEACFFAC2C972E15CF
:100B10003F050CF43FC022969FAF8EAF22971A8BF1
:100B2000098B312C212C812C912C540183948D82A2
:100B30009E82AF82B88626968EAC9FAC26972814EC
:100B400039047CF129969FAC29972A96AFAC2A9755
:100B500030E020E041E050E060E070E09A10F5C144
:100B6000C55BDF4F0FB6F894DEBF0FBECDBFDF9180
:100B7000CF911F910F91FF90EF90DF90CF90BF909A
:100B8000AF909F908F907F906F905F904F903F902D
:100B90002F90089511921192119211922F5F3F4F51
:100BA000B2CF2296EEADFFAD229781919191A191A6
:100BB000B1912296FFAFEEAF22978F88988CA98CC7
:100BC000BA8CB7FE23C04D815E816F81788541501C
:100BD0005109610971095A016B01A81AB90ACA0AB7
:100BE000DB0AD601C50121E0CD80DE80EF80F884EC
:100BF0008C159D05AE05BF0508F020E0822E912CD6
:100C0000B12CA12C8D829E82AF82B8865D01CC244E
:100C1000DD24A8A2B9A2CAA2DBA29C01AD0144278F
:100C200055272CA33DA34EA35FA32C96EEADFFAD9D
:100C30002C97E219F3098D889E888E169F060CF476
:100C4000F4012896AEACBFAC28972496BFAEAEAEEA
:100C50002497C988DA88DC8ACB8A1E861D86812C77
:100C6000912C5401839489869A86AB86BC86812C0C
:100C7000912C5401CD84DE84CE16DF0604F1F7FFFB
:100C800002C0F0E0E0E0E20DF31D2C96EEACFFAC0C
:100C90002C97EE15FF0554F4EE0FFF1FEE0FFF1F0C
:100CA000E00FF11F80829182A282B3822FEF221A7D
:100CB000320AE989FA893496FA8BE98B3CCF24967B
:100CC000AEADBFAD2497CD90DD90ED90FD90249614
:100CD000BFAFAEAF24972B8D3C8D4D8D5E8D57FFF2
:100CE00022C089859A85AB85BC850197A109B10988
:100CF000AC01BD014C195D096E097F096A017B01D8
:100D000081E029853A854B855C85C216D306E406C9
:100D1000F50608F080E0482F50E070E060E0498779
:100D20005A876B877C87B7018827992768A779A797
:100D30008AA79BA7EE24FF2428A139A14AA15BA181
:100D4000C701B6010E94B2382B013C012CA13DA184
:100D50004EA15FA168A579A58AA59BA50E94B2387E
:100D60006CA77DA78EA79FA7AB89BC894D915D918C
:100D70006D917D91BC8BAB8BDB01CA01880D991DF8
:100D8000AA1DBB1D89839A83AB83BC8391E09F8F8F
:100D900029813A814B815C81281539054A055B051B
:100DA00008F01F8E2CA13DA14EA15FA1C701B60185
:100DB0000E94B2386B017C0189809A80AB80BC8034
:100DC0008C0C9D1CAE1CBF1C89829A82AB82BC829B
:100DD00052019924882488AA99AAAAAABBAA29817F
:100DE0003A814B815C81280D391D4A1D5B1D2CAB5E
:100DF0003DAB4EAB5FAB8CA49DA4AEA4BFA454018D
:100E00009924882488AE99AEAAAEBBAE280D391DB0
:100E10004A1D5B1D2CAF3DAF4EAF5FAFAB89BC89A8
:100E200014972D933D934D935C93139728A139A16B
:100E30004AA15BA168A579A58AA59BA50E94B238A5
:100E40009F8C690D711D811D911D230166247724DE
:100E5000460E571E681E791E2CA53DA54EA55FA502
:100E60004A01AA24BB24840C951CA61CB71C81E053
:100E700090E0A0E0B0E049815A816B817C814C1503
:100E80005D056E057F0518F080E090E0DC01880DBF
:100E9000991DAA1DBB1D41E050E060E070E088A8EC
:100EA00099A8AAA8BBA8CCA8DDA8EEA8FFA8C8143A
:100EB000D904EA04FB0418F040E050E0BA01840FC2
:100EC000951FA61FB71F812C912C54018394C8AC89
:100ED000D9ACEAACFBAC2CAD3DAD4EAD5FAD2C1545
:100EE0003D054E055F0518F0812C912C5401880EAC
:100EF000991EAA1EBB1E4D855E854F5F5F4F5E87A4
:100F00004D87B8CEEF85F889C190D190E190F190EE
:100F1000F88BEF87DB01CA010197A109B1098C1990
:100F20009D09AE09BF09349780839183A283B3835F
:100F3000E1E084179507A607B70708F0E0E04E2F19
:100F400050E070E060E02F5F3F4F2C968EAC9FAC7E
:100F50002C9728153905B4F203CE2F923F924F9269
:100F60005F926F927F928F929F92AF92BF92CF9239
:100F7000DF92EF92FF920F931F93CF93DF9300D0F6
:100F800000D0CDB7DEB78B015C834B83FB01E15012
:100F9000F04CEE0FFF1FEE0FFF1FE80FF91F40810F
:100FA00051816281738177FD27C04C01B12CA12C46
:100FB000C12CD12C7601A016B10664F5F401619123
:100FC0007191819191914F010E94DD324B815C8141
:100FD0000E94E8339B01AC01C701B6010E94C931F0
:100FE0006B017C012B813C81205E3F4F3C832B8336
:100FF0003FEFA31AB30ADFCF9A838983312C212CC8
:1010000081E090E0A0E0B0E0C12CD12C7601201668
:101010003106CCF0C701B6010F900F900F900F90E2
:10102000DF91CF911F910F91FF90EF90DF90CF90C4
:10103000BF90AF909F908F907F906F905F904F90F8
:101040003F902F900895E981FA81419051906190ED
:101050007190FA83E98340945094609470945301A2
:101060004201880E991EAA1EBB1EC501B4010E9432
:10107000DD324B815C810E94E8339B01AC01C701EA
:10108000B6010E94C8316B017C0181E08414950493
:10109000A604B70408F080E090E0B0E0A0E02B8167
:1010A0003C81205E3F4F3C832B833FEF231A330A62
:1010B000AECFFC0191E08091C402811190E0918358
:1010C0000895CF92DF92EF92FF926B017C019F77A0
:1010D00020E030E040E859E50E94403287FF2BC015
:1010E00020E030E040E05FE3C701B6010E94E23358
:1010F00087FD0EC020E030E040E05FE3C701B601AD
:101100000E94C931FF90EF90DF90CF900C941A337A
:1011100020E030E040E05FEBC701B6010E94E2331F
:10112000181684F420E030E0A901C701B6010E943E
:101130001C346B017C01C701B601FF90EF90DF907A
:10114000CF90089520E030E040E05FE3C701B601B2
:101150000E94C831FF90EF90DF90CF900C942D3219
:101160004F925F926F927F928F929F92AF92BF92B7
:10117000CF92DF92EF92FF920F931F93CF93DF9363
:10118000CDB7DEB72A970FB6F894DEBF0FBECDBF3E
:101190008091C4028F5F823008F04AC18093C402FC
:1011A0006EE070E080E090E00E949C009093F10679
:1011B0008093F00643E050E0BE016F5F7F4F0E94D6
:1011C0008B002091540130915501A981BA810E9470
:1011D000FD386B017C018FEF9FEFDC0180934407AA
:1011E00090934507A0934607B09347078091560711
:1011F000811121C120E030E040E85FE360912607E3
:101200007091270780912807909129070E94C93182
:101210002B013C0140922607509227076092280735
:1012200070922907C701B6010E94DD3220E030E04C
:1012300040E054E30E941C346B017C0120912A079A
:1012400030912B0740912C0750912D070E94C931F6
:101250004B015C0180922A0790922B07A0922C07E9
:10126000B0922D078091320790913307A0913407F7
:10127000B09135078B839C83AD83BE839C01AD0108
:10128000C301B2010E94E23387FD21C02B813C8162
:101290004D815E81C501B4010E9444329B01AC01C5
:1012A00020932E0730932F07409330075093310738
:1012B00081E080935607C701B6010E94C8312BED2B
:1012C0003FE049EC50E40E94C9316B017C01809001
:1012D0001A0790901B07A0901C07B0901D07209143
:1012E0003001309131014091320150913301C501FB
:1012F000B4010E941C349B01AC01C701B6010E94DD
:10130000C83120912C0130912D0140912E01509136
:101310002F010E9444326B837C838D839E832091B6
:1013200024013091250140912601509127010E940E
:101330001C346B017C0120912801309129014091DE
:101340002A0150912B01C501B4010E941C349B015C
:10135000AC01C701B6010E94C9312091380130911A
:10136000390140913A0150913B010E94C8314B0133
:101370005C012091000130910101409102015091E6
:1013800003010E941C3420912207309123074091D1
:101390002407509125070E94C831209114013091F3
:1013A000150140911601509117010E941C346F8362
:1013B000788789879A872091180130911901409187
:1013C0001A0150911B01C501B4010E941C342091E7
:1013D0001E0730911F0740912007509121070E945E
:1013E000C9312F81388549855A850E94C9316B01E1
:1013F0007C01C0925A07D0925B07E0925C07F092A2
:101400005D0740901C0150901D0160901E0170907E
:101410001F01A30192010E94E2331816FCF44092CE
:101420005A0750925B0760925C0770925D0726C076
:101430001092C402B5CEC701B6010E94DD3220E091
:1014400030E040E054E30E941C3420912E0730919C
:101450002F0740913007509131072FCF4090100156
:10146000509011016090120170901301A30192013C
:10147000C701B6010E94403287FDD1CFC501B4013A
:101480009F7760935E0770935F07809360079093E8
:1014900061072091440130914501409146015091EE
:1014A00047010E94E23318160CF08BC160912001B5
:1014B0007091210180912201909123012091480196
:1014C0003091490140914A0150914B010E941C34D6
:1014D0006B017C018FEF9FEFDC01809338079093C5
:1014E0003907A0933A07B0933B0720E030E0A90109
:1014F000C701B6010E94E233412C512C320118166B
:101500004CF02601370177FA709477F87094C12C6B
:10151000D12C760165E070E080E090E00E9430011F
:101520008C01909301078093000720E030E04FE7A3
:1015300053E4C701B6010E944032181634F4C12C9E
:10154000D12C9FE7E92E93E4F92EB701A601C8013B
:101550000E940E0166E070E080E090E00E943001A1
:101560008C019093F9068093F80620E030E04FE775
:1015700053E4C301B2010E944032181634F4412CE6
:10158000512C8FE7682E83E4782EB301A201C801A5
:101590000E940E018091B10681111092B106109245
:1015A000DA061092DB061092DC061092DD0610922D
:1015B000DE061092DF061092E0061092E10680E04F
:1015C00090E0A0E8BFE38093E2069093E306A09347
:1015D000E406B093E506C090E606D090E706E090FA
:1015E000E806F090E90620E030E0A901C701B60165
:1015F0000E94E23318160CF0EDC020E030E040E825
:101600005FE3C701B6010E94C8316093E60670939C
:10161000E7068093E8069093E90660914C0170918B
:101620004D0180914E0190914F014BDD6B017C018A
:1016300020E030E040E853E40E9440326FEF87FF43
:101640000EC020E030E0A901C701B6010E94E233DC
:1016500060E087FD04C0C701B6010E94B13287E097
:101660004CD820E030E040E853E4C701B6010E94C6
:1016700040326FEF87FF0EC020E030E0A901C701C4
:10168000B6010E94E23360E087FD04C0C701B601E5
:101690000E94B13288E031D88B819C81AD81BE81BE
:1016A00080931A0790931B07A0931C07B0931D0704
:1016B00020910401309105014091060150910701EC
:1016C000C501B4010E941C3420913C0130913D01C0
:1016D00040913E0150913F010E941C3420911E0711
:1016E00030911F0740912007509121070E94C93176
:1016F00060931E0770931F07809320079093210724
:1017000020914001309141014091420150914301AB
:101710006F81788589859A850E941C3420912207E3
:101720003091230740912407509125070E94C93129
:1017300060932207709323078093240790932507D3
:101740008091B3029091B402A091B502B091B6021B
:101750000196A11DB11D8093B3029093B402A09392
:10176000B502B093B602892B8A2B8B2B99F480910A
:10177000B7029091B802A091B902B091BA02019655
:10178000A11DB11D8093B7029093B802A093B90236
:10179000B093BA022A960FB6F894DEBF0FBECDBF43
:1017A000DF91CF911F910F91FF90EF90DF90CF903D
:1017B000BF90AF909F908F907F906F905F904F9071
:1017C000089560915A0770915B0780915C07909132
:1017D0005D0774CE1092E6061092E7061092E806B6
:1017E0001092E9061ACF4F925F926F927F928F927A
:1017F0009F92AF92BF92CF92DF92EF92FF920F93A0
:101800001F93CF93DF93CDB7DEB760970FB6F894F1
:10181000DEBF0FBECDBF809108078111109208076F
:1018200062E677E0809109070E94530380910907DF
:101830000E9465038FEF9FEFDC0180933C0790933C
:101840003D07A0933E07B0933F0720914D0780913D
:10185000620790916307A0916407B0916507211119
:101860000BC08093400790934107A0934207B09329
:10187000430721E020934D074091400750914107D5
:1018800060914207709143076C017D01B7FD46C02E
:101890000FEFC01AD00AE00A0FE7F00A4C155D05F9
:1018A0006E057F050CF442C08C019D01041B150BD5
:1018B000260B370BB901A80177FF0DC04115510563
:1018C000610510E8710791F170956095509541950B
:1018D0005F4F6F4F7F4F493C51056105710534F5EE
:1018E000AC01BD01B7FF0CC00097A10520E8B2070D
:1018F000E9F044275527BA01481B590B6A0B7B0BAB
:10190000453F5140610571058CF4809340079093E9
:101910004107A0934207B093430708C010E8F11AAB
:10192000C416D506E606F7060CF0BECF809150012E
:1019300090915101A0915201B09153018D879E87E2
:10194000AF87B88B8091400790914107A0914207E3
:10195000B091430789879A87AB87BC8792E0E92ECD
:10196000F12C8E010F5F1F4F21E030E0AE01475F89
:101970005F4F61E070E0CE010D965BD880916A0602
:10198000811110926A0650E040E062E070E0CE0102
:101990000196E3DA20E030E040E052E30E941C349C
:1019A0004B015C0140909306509094066090950620
:1019B00070909606C090A306D090A406E090A5066D
:1019C000F090A606C701B6010E94AC3261507109C1
:1019D000660F771F660F771FFB01EC59F94F83AA3B
:1019E00094AAA5AAB6AA20E030E040E450E4C701DA
:1019F000B6010E944032882309F483C0A3019201FA
:101A0000C501B4010E94C9314B015C0120E030E006
:101A100040E85FE3C701B6010E94C9316093A306A5
:101A20007093A4068093A5069093A60680929306D1
:101A300090929406A0929506B0929606C090A70642
:101A4000D090A806E090A906F090AA0620E030E029
:101A5000A901C701B6010E94E23318160CF08FC02D
:101A600020E030E040E85FE3C701B6010E94C831E2
:101A70006093A7067093A8068093A9069093AA0680
:101A80008091BB029091BC02A091BD02B091BE02B8
:101A90000196A11DB11D8093BB029093BC02A0933F
:101AA000BD02B093BE02892B8A2B8B2B99F48091B7
:101AB000BF029091C002A091C102B091C2020196F2
:101AC000A11DB11D8093BF029093C002A093C102DB
:101AD000B093C20260960FB6F894DEBF0FBECDBFC2
:101AE000DF91CF911F910F91FF90EF90DF90CF90FA
:101AF000BF90AF909F908F907F906F905F904F902E
:101B0000089580E090E0A0E8BFE38093A30690935F
:101B1000A406A093A506B093A60620919F06309137
:101B2000A0064091A1065091A20660919B0670917B
:101B30009C0680919D0690919E060E94C9319B0152
:101B4000AC0120939B0630939C0640939D065093D6
:101B50009E066091970670919806809199069091E3
:101B60009A060E94C93160939706709398068093F5
:101B7000990690939A06812C912C540157CF10927C
:101B8000A7061092A8061092A9061092AA0678CF6E
:101B90002F923F924F925F926F927F928F929F927D
:101BA000AF92BF92DF92EF92FF920F931F93CF936A
:101BB000DF9384E090E067D3EDE9F2E08DE2DF01AE
:101BC0001D928A95E9F780E090E0A0E8BFEB80A73E
:101BD00091A7A2A7B3A783E69DE9A6E5BDEB848301
:101BE0009583A683B78383E49CE2ABEBBFE6808753
:101BF0009187A287B38788E096EAA7E2B2E6848756
:101C00009587A687B7878CE89BEDADE9B7E7808B12
:101C1000918BA28BB38BA1E9B2E0B383A283E7E7F8
:101C2000F2E01196FC93EE9384E891E09183808337
:101C30009383828395838483978386839187808728
:101C4000938782879587848797878687918B808BF8
:101C5000938B828B958B848B978B868B918F808FC8
:101C600081EB92E015969C938E93149781EA92E013
:101C700013969C938E93129744244A94542C3201C9
:101C800018964D925D926D927C921B97EAE5F7E073
:101C90008CE0DF011D928A95E9F7C4E6D6E086EF75
:101CA000FE0111928A95E9F7DD24D394D092590769
:101CB000812C912C540183948092EB069092EC0637
:101CC000A092ED06B092EE066EE070E080E090E04B
:101CD0000E94E0009093F1068093F006D092EF0608
:101CE0001092FA06D09250078092FB069092FC0662
:101CF000A092FD06B092FE06E12CF12C8701A8010E
:101D0000970165E070E080E090E00E94740190939C
:101D1000010780930007D092FF061092F206D0923E
:101D20004F078092F3069092F406A092F506B092C7
:101D3000F606A801970166E070E080E090E00E945E
:101D400074019093F9068093F806D092F7061092EA
:101D5000AB06D09251078092AC069092AD06A0924D
:101D6000AE06B092AF068092D2069092D306A092B1
:101D7000D406B092D5068092D6069092D706A0924D
:101D8000D806B092D9062AEDE22E26E0F22ED7012F
:101D90001D921D921D921C9213973EED232E36E04C
:101DA000332EF101108211821282138280E090E0C2
:101DB000A0E8BFE3E2EEF6E080839183A283B383E1
:101DC000A6EEB6E01D921D921D921C921397D09222
:101DD000B0061092B10610921207D0924907809275
:101DE000130790921407A0921507B092160761E0AE
:101DF00087E00E947503D092170710920A07D092CD
:101E0000480780920B0790920C07A0920D07B092A2
:101E10000E0761E088E00E947503D0920F07E9E0A9
:101E2000F7E0108210920207D0924E0707E017E009
:101E3000D8011C928092030790920407A092050794
:101E4000B0920607AF0163E082E00E948402F801CD
:101E5000D082109208071882D0924B0789829A820A
:101E6000AB82BC828FA298A6A9A6BAA68BA69CA676
:101E7000ADA6BEA61FA618AA19AA1AAA1BAA1CAA12
:101E80001DAA1EAA1FAA18AE19AE1AAE1BAE1CAE12
:101E90001DAE1EAE03EA16E080E090E0A0E8BFE3CE
:101EA000F80180839183A283B38347EAA42E46E09E
:101EB000B42ED5011D921D921D921C921397DD82A6
:101EC0001E82E0E0F1E084A995A9A6A9B7A98093B4
:101ED0001A0790931B07A0931C07B0931D078485D6
:101EE0009585A685B78580931E0790931F07A093BD
:101EF0002007B093210780859185A285B3858093C3
:101F0000220790932307A0932407B093250780E02E
:101F100090E0A8ECB2E48093320790933307A0934B
:101F20003407B0933507D0925807109226071092C5
:101F300027071092280710922907D0925307109272
:101F40002A0710922B0710922C0710922D07D0927F
:101F5000540710922E0710922F07109230071092FC
:101F60003107D092550710925607D09257074092EA
:101F70004407509245076092460770924707409287
:101F800038075092390760923A0770923B071092D7
:101F90004D0740923C0750923D0760923E07709279
:101FA0003F07F7011082118212821382D1011D9224
:101FB0001D921D921C92139780E090E0A0E8BFE371
:101FC000E2EEF6E080839183A283B383A6EEB6E0CF
:101FD0001D921D921D921C921397E9E0F7E08081FB
:101FE0000E9465031FA618AA19AA1AAA1BAA1CAA4E
:101FF0001DAA1EAA1FAA18AE19AE1AAE1BAE1CAEA1
:102000001DAE1EAE80E090E0A0E8BFE3F801808343
:102010009183A283B383D5011D921D921D921C92C0
:102020001397DF91CF911F910F91FF90EF90DF9069
:10203000BF90AF909F908F907F906F905F904F90E8
:102040003F902F9008958091EA0681111FC081E092
:102050008093EA068091EB069091EC06A091ED0644
:10206000B091EE060197A105B10581F48091EF06CC
:10207000882361F06EE070E080E090E00E949C00B8
:102080009093F1068093F0060E9403018091FA0676
:1020900081112EC081E08093FA068091FB06909119
:1020A000FC06A091FD06B091FE060197A105B105C1
:1020B000F9F48091FF068823D9F065E070E080E0B4
:1020C00090E00E943001909301078093000740E068
:1020D00050E0BA010E940E0165E070E080E090E0FF
:1020E0000E94300190930107809300070E94BF0176
:1020F0008091F20681112EC081E08093F2068091DA
:10210000F3069091F406A091F506B091F6060197BA
:10211000A105B105F9F48091F7068823D9F066E0AE
:1021200070E080E090E00E9430019093F906809387
:10213000F80640E050E0BA010E940E0166E070E04F
:1021400080E090E00E9430019093F9068093F806B9
:102150000E94BF018091AB06811126C081E080936F
:10216000AB068091AC069091AD06A091AE06B09101
:10217000AF060197A105B105B9F48091B006882397
:1021800099F08FEF9FEFDC018093D2069093D306F6
:10219000A093D406B093D5068093D6069093D70625
:1021A000A093D806B093D90680911207811103C07D
:1021B00081E08093120780910A07811103C081E0BA
:1021C00080930A0780910207811114C081E08093F7
:1021D00002078091030790910407A0910507B09131
:1021E00006070197A105B10529F480910707811120
:1021F0000E94720380916406811126C081E0809361
:1022000064068091650690916606A0916706B0917C
:1022100068060197A105B105B9F480916906882384
:1022200099F08FEF9FEFDC0180938B0690938C06E3
:10223000A0938D06B0938E0680938F0690939006A0
:10224000A0939106B0939206089560E070E080E854
:102250009FE7089560E070E080E89FE7089560E000
:1022600070E080E89FEF089560E070E080E89FEF05
:10227000089560E070E080EC9FEF089560E070E00A
:1022800080EC9FEF0895F5DF6093720770937307FA
:102290008093740790937507F1DF609366077093DE
:1022A00067078093680790936907CFDF60936E0795
:1022B00070936F078093700790937107CBDF6093E3
:1022C0006A0770936B0780936C0790936D07C7DF65
:1022D00060937607709377078093780790937907D8
:1022E000C3DF60937A0770937B0780937C0790939A
:1022F0007D0708954F925F926F927F928F929F9287
:10230000AF92BF92CF92DF92EF92FF920F931F9303
:10231000F8944090D6025090D7026090D802709006
:10232000D902C090CA02D090CB02E090CC02F090CB
:10233000CD02452B09F0A4C09B01AC01241935093D
:102340004609570929013A010091D2021091D3029E
:102350002091D4023091D50248015901840C951C7A
:10236000A61CB71C80169106A206B306A0F4009125
:10237000CE021091CF022091D0023091D1020F5F96
:102380001F4F2F4F3F4F0093CE021093CF02209349
:10239000D0023093D1028092D2029092D302A092C6
:1023A000D402B092D5020091CE021091CF022091BA
:1023B000D0023091D1028092DA029092DB02A09298
:1023C000DC02B092DD020093DE021093DF02209364
:1023D000E0023093E1026093D6027093D7028093BB
:1023E000D8029093D902A0E1B7E2A30192010E9422
:1023F0000C396C0D7D1D8E1D9F1D6093CA0270935C
:10240000CB028093CC029093CD02009156011091A3
:10241000570120915801309159010F3F1F4F2F4F05
:102420003F4FF1F000915601109157012091580152
:10243000309159010E3F1F4F2F4F3F4F89F0C090F1
:102440005601D0905701E0905801F090590121E0D9
:102450008C149D04AE04BF0408F420E02093EE0227
:1024600078941F910F91FF90EF90DF90CF90BF90E5
:10247000AF909F908F907F906F905F904F90089556
:102480004B015C0184189508A608B708A3019201C6
:10249000261B370B480B590B6415750586059705E8
:1024A000D0F082169306A406B50640F420E030E092
:1024B000A90181149104A104B10491F4A0E1B7E24F
:1024C0000E940C39A7019601261B370B480B590BAC
:1024D000CA01B901C5CF82169306A406B50670F7E6
:1024E000A0E1B7E2A50194010E940C396C0D7D1D9D
:1024F0008E1D9F1DB5CFFECECF93DF9300D000D0B1
:10250000CDB7DEB71C821B821A8219821092EA02B2
:102510001092EB021092EC021092ED021092E20285
:102520001092E3021092E4021092E5021092E60289
:102530001092E7021092E8021092E902BE016F5F6A
:102540007F4FCE0103960E94642F69817A818B812F
:102550009C810E948728009761F4BE016F5F7F4FC6
:10256000CE0103960E94702F69817A818B819C81B4
:1025700028D50F900F900F900F90DF91CF91089575
:10258000FF920F931F93CF93DF93082F60E070E0CB
:10259000CB010E945D35FF24F3940E947227EC0169
:1025A000892B89F010E0CE3F8FEFD80769F0002328
:1025B00061F160E070E0CB010E945D3581E090E068
:1025C000892B59F322C011E01FD5EC01892B21F092
:1025D000CE3F8FEFD80759F711111EC011E0229698
:1025E00009F410E00E942327EC01892B21F0CE3F53
:1025F0008FEFD807E1F6111111C011E0CE3F8FEF38
:10260000D80709F410E001110BC0CE01DF91CF9182
:102610001F910F91FF90089511E0E4CF11E0F3CFE7
:1026200060E070E0CB010E945D351F25812F90E0B6
:10263000C7CFCF93DF938091EE02882321F060E033
:1026400070E0CB0148D631D6D0E0C0E0892B71F0E4
:102650006AE070E080E090E00E945D3581E090DF0C
:1026600024D62196C03727E1D20781F723D60E94CE
:10267000DB2810920603109205031092FF021092BD
:10268000000310920103109202031092FB021092B9
:10269000FC021092FD021092FE021092F7021092BC
:1026A000F8021092F9021092FA021092F3021092BC
:1026B000F4021092F5021092F6021092EF021092BC
:1026C000F0021092F1021092F2024EEF5FEF6FEF04
:1026D0007FEF4093560150935701609358017093D8
:1026E00059011092EE02EAEDF2E028E0DF011D92BE
:1026F0002A95E9F71092D6021092D7021092D802CA
:102700001092D9021092D2021092D3021092D402E7
:102710001092D5021092CE021092CF021092D002E7
:102720001092D1021092CA021092CB021092CC02E7
:102730001092CD02DF91CF91089510921203109262
:102740001303109214031092150310921103809139
:102750001A0390911B039093100380930F03109220
:102760000E0310920D031092090310920A031092A7
:102770000B0310920C03109217031092160390E0B3
:1027800080E00895CF92DF92EF92FF920F931F9314
:10279000CF938C01892B09F055C020911A033091F9
:1027A0001B0380910F039091100340911A035091E5
:1027B0001B035093100340930F032817390781F030
:1027C00010920E0310920D031092090310920A0347
:1027D00010920B0310920C03109217031092160321
:1027E00080911A0390911B03019761F58091160364
:1027F00090911703892B21F480915A01811112C005
:1028000080911603909117030197E1F480910903D9
:1028100090910A03A0910B03B0910C030197A105BD
:10282000B10581F41092090310920A0310920B0370
:1028300010920C0310925A0182E090E090931703DB
:102840008093160380911A0390911B03019709F05E
:102850001CC180913003909131038017910709F0DA
:1028600014C180912C0390912D03A0912E03B0915F
:102870002F03009709F409C120912B0321110DC0EA
:1028800040912C0350912D0360912E0370912F03E2
:10289000452B462B472B09F4F8C0209116033091A5
:1028A00017032230310509F0F0C020910D032111EA
:1028B000ECC0FC01C080D180E280F38080911103E4
:1028C000882309F4D3C080911D0390911E03892BA6
:1028D00009F4FDC020911D0330911E0381E02230D8
:1028E000310509F080E020911D0330911E03C1E005
:1028F0002130310549F020911D0330911E03C1E0C4
:102900002230310509F0C0E0882309F456C0209137
:102910002703309128034091290350912A03C701CE
:10292000B6010E94E23387FD14C020912703309145
:1029300028034091290350912A036091120370915A
:10294000130380911403909115030E94403287FD78
:1029500022C02091270330912803409129035091F0
:102960002A03C701B6010E94E233181634F52091FC
:102970002703309128034091290350912A03609145
:1029800012037091130380911403909115030E9418
:102990004032811112C080911F0390912003A091B9
:1029A0002103B0912203892B8A2B8B2B19F481E010
:1029B00080930E0381E080930D03CC2309F456C06D
:1029C00020912703309128034091290350912A0335
:1029D000C701B6010E94403287FF14C0209127032F
:1029E000309128034091290350912A0360911203EA
:1029F0007091130380911403909115030E94E233A8
:102A000087FF22C02091270330912803409129039A
:102A100050912A03C701B6010E944032811126C09D
:102A200020912703309128034091290350912A03D4
:102A30006091120370911303809114039091150318
:102A40000E94E233181694F480911F0390912003A2
:102A5000A0912103B0912203892B8A2B8B2B19F48F
:102A600081E080930E0381E080930D0381E09091DB
:102A70000D03911180E080931103C0921203D09254
:102A80001303E0921403F0921503012B09F067C1C0
:102A90008091160390911703892BD9F410921C038F
:102AA00010920D0380915A01882379F082E090E022
:102AB000909317038093160310925A0120911A03E2
:102AC00030911B0381E0232BE9F080E01BC081E003
:102AD0000ACF10925A0180911C03882349F010926A
:102AE0000E03109217031092160310921C03EDCFE1
:102AF00080911A0390911B03892BE1F080910D03C3
:102B000010920D03209116033091170322303105E6
:102B100009F45EC088F42115310509F448C021305C
:102B2000310509F4F3C010920E0310920D031092B8
:102B30001C0338C081E0E6CF2330310509F4B1C071
:102B40002430310581F74091090350910A036091C7
:102B50000B0370910C03411551056105710561F07E
:102B600041505109610971094093090350930A03C7
:102B700060930B0370930C034091090350910A0377
:102B800060910B0370910C03452B462B472BD9F416
:102B900020911803309119032130310509F046C006
:102BA00010920E0310921703109216030CC080911E
:102BB0005A01882341F082E090E0909317038093BC
:102BC000160310925A011092070380910E03CEC093
:102BD0008823C9F380911F0390912003A0912103C2
:102BE000B0912203181619061A061B060CF07DC0B8
:102BF00080911A0390911B03019709F076C0809190
:102C00001F0390912003A0912103B0912203809390
:102C1000090390930A03A0930B03B0930C0383E082
:102C200090E09093170380931603CDCF4091230338
:102C3000509124036091250370912603452B462B68
:102C4000472BA9F010920E03809123039091240347
:102C5000A0912503B09126038093090390930A0362
:102C6000A0930B03B0930C0381E090E0DACF8823AC
:102C700099F080915B0190915C01A0915D01B09110
:102C80005E018093090390930A03A0930B03B09312
:102C90000C0384E090E0C5CF10920E0382E090E038
:102CA000C0CF8091090390910A03A0910B03B091CA
:102CB0000C030097A105B10559F00197A109B109CD
:102CC0008093090390930A03A0930B03B0930C0322
:102CD0008091090390910A03A0910B03B0910C031A
:102CE000892B8A2B8B2B09F06ECF80915B01909101
:102CF0005C01A0915D01B0915E01892B8A2B8B2B29
:102D000009F44ECF81E080930E03B3CF40910903C5
:102D100050910A0360910B0370910C03411551050A
:102D20006105710561F041505109610971094093D4
:102D3000090350930A0360930B0370930C034091B3
:102D4000090350910A0360910B0370910C03452B0A
:102D5000462B472B09F037CF8111C7CF9FCF8091EA
:102D60000703882309F431CF80910803CF911F9185
:102D70000F91FF90EF90DF90CF9008951092120383
:102D80001092130310921403109215031092110362
:102D900010921703109216031092100310920F0353
:102DA000109231031092300310920E0310920D0313
:102DB0001092090310920A0310920B0310920C0355
:102DC000109208031092070310922C0310922D0307
:102DD00010922E0310922F0310922B0310922703B0
:102DE000109228031092290310922A0388EE93E090
:102DF000A0E0B0E080935B0190935C01A0935D0143
:102E0000B0935E01109223031092240310922503C5
:102E10001092260310921F03109220031092210398
:102E20001092220310921E0310921D0381E08093E2
:102E30005A0110921C0310921B0310921A03109255
:102E400019031092180390E080E0089580911A030E
:102E500090911B03892BE1F480915A01882351F052
:102E600080911C03811106C081E080930803809348
:102E70000703089580911C03882341F080915A0133
:102E8000811104C01092080381E0F1CF1092070372
:102E9000089582E090E0FA01918380838FEF9FEFA5
:102EA0000895CF93DF93EA01009711F00E94F5296E
:102EB0001982188290E080E0DF91CF910895DB01C4
:102EC000009719F48FEF8C9308952EEF2C93409672
:102ED0008031910508F036C0FC01EF58F84E0C9493
:102EE000F738A0179E179C179A17981796179217DE
:102EF000941790178E178C178917851781178717C6
:102F0000A21780E311968C93089589E2FBCF82E2A9
:102F1000F9CF11961C92089583E2F4CF81E2F2CFAB
:102F200081E1F0CF87E2EECF8AE2ECCF80E1EACF19
:102F300084E2E8CF88E2E6CF86E2E4CF81E3E2CF25
:102F400083E3E0CF80E2DECF80913E0390913F03A8
:102F5000089590933F0380933E03089580913D032D
:102F6000089590913D03892B80933D030895982FF8
:102F7000909580913D03892380933D03089580912E
:102F80003C03089580913A0390913B0308956115A5
:102F9000710559F0FB0130E020E070E060E024179B
:102FA000350719F06115710511F0CB010895A08165
:102FB000B181A817B90709F4BF012F5F3F4F3696BB
:102FC000EECF8091400381111CC062D268D29093F1
:102FD0003303809332030E94FB210E940D229093C1
:102FE0003703809336030E948D260E949426909387
:102FF00035038093340381E08093400390E080E0C8
:10300000089584EF9FEF08958F929F92AF92BF92A1
:10301000CF92DF92EF92FF920F931F93CF93DF93A4
:10302000CDB7DEB72A970FB6F894DEBF0FBECDBF7F
:103030001A86198618861F821E821D821C821B8298
:103040001A8219828091400307EF1FEF882309F449
:103050009CC08E010D5F1F4F9E012B5F3F4FAE0145
:10306000495F5F4FBE01675F7F4F90E080E00E9445
:103070000D288C01009721F00596029708F0DBC01F
:1030800029853A852115310509F402C1ED80FE80BC
:103090004B815C81B701640F751F8F8198858617FE
:1030A000970708F4F5C0E20EF31ED7019C91903CFF
:1030B00009F07FC04230510508F47BC011968C9115
:1030C00040913E0350913F03452B09F49CC0913F32
:1030D00008F071C02CE1290F2D3008F48BC02DE2CF
:1030E000290F203108F489C0903C21F481508230AE
:1030F00008F483C088E3890F8B3008F481C09FE512
:10310000C92E97E1D92EE9E4F7E16D817E81AE0108
:103110004F5F5F4F89859A8509955C01C114D10481
:10312000A1F189809A808114910479F18B819C812D
:103130008815990508F487C010E000E04B815C8198
:1031400070E060E0C7010E941F3901151105E9F424
:1031500049815A8169857A858D819E81680F791FA1
:10316000C501F6010995E980FA800D811E812F8144
:10317000388549855A856FEF7FEF81E090E00E94A6
:10318000A9278C01892B09F056C0C8012A960FB6D1
:10319000F894DEBF0FBECDBFDF91CF911F910F918D
:1031A000FF90EF90DF90CF90BF90AF909F908F9067
:1031B000089580E085CF30E020E0220F331FF90131
:1031C000EE5CFC4F0190F081E02D309709F497CF31
:1031D000892F90E00995009709F491CFDC011296B0
:1031E000ED91FC9113971496CD90DC90309709F0F7
:1031F0008CCF1FC021E030E0E0CF22E030E0DDCF17
:1032000023E030E0DACFD12CC12CE1E5F7E19F3F9C
:1032100009F07BCFE0913203F0913303309721F432
:10322000C90104EF1FEF0CC08FEF90E009950097E4
:10323000A9F604EF1FEF89859A85009709F4A5CFB9
:103240000E94F529A2CF0E94D6288C0189859A85F3
:103250000E94F52970E060E0C4010E946F28988701
:103260008F830E94A6279E838D836F817885611549
:10327000710559F0C8010E94542B9A87898706EF7F
:103280001FEF892B09F058CF59CF08EF1FEF56CF0A
:1032900008EF1FEFD0CF20914003222319F020E048
:1032A0000C94122287EF9FEF089580913E03909136
:1032B0003F0308950E9499260E94F325F5D0E2E38A
:1032C000F3E088E0DF011D928A95E9F71092400350
:1032D00090E080E008950C944F2421E040E050E01D
:1032E000BA010C94122286E090E0FA019183808367
:1032F00090E080E0089547E050E067E871E047CE55
:10330000DF92EF92FF920F931F93CF93DF938A0187
:10331000EC01C60FD71FE0904403F0904503D9801D
:103320000E94BE28D816190678F082E090E0F801D5
:10333000918380838EEF9FEFDF91CF911F910F914B
:10334000FF90EF90DF900895EF2841F482E090E045
:10335000F8019183808384EF9FEFEECF8981809382
:10336000430390E00196F8019183808390E080E030
:10337000E3CFCF93DF93EA010E940025882321F059
:103380000E94CB280E94012582E090E099838883E7
:103390008BEF9FEFDF91CF910895CF93DF93EB01F8
:1033A00086E0FB0111928A95E9F78FEF8883D6DDDD
:1033B0008983E5DD8A83E6DD9D838C83DF91CF9170
:1033C0000895CF93DF93EA010E940325811109C07C
:1033D00082E090E09983888385EF9FEFDF91CF9122
:1033E000089590E080E0B5DD81E090E099838883E6
:1033F00090E080E0F3CF0F931F93CF93DF93EA0128
:103400008C01060F171F0E94032581110BC082E05B
:1034100090E09983888385EF9FEFDF91CF911F9193
:103420000F910895F8018181823038F082E090E0B8
:10343000998388838EEF9FEFF0CF81E090E089DD64
:1034400088E090E09983888390E080E0E6CFCF9396
:10345000DF930097D1F4EB01FB01329686E0DF01A8
:103460001D928A95E9F78FEF888385E089831A8218
:103470000E94BE288B830E94BD289D838C8381E09F
:103480008E838F83DF91CF910895DF91CF9117CDF8
:103490008BE799E1909342038093410308958091D3
:1034A0004103909142030895109242031092410308
:1034B000089580914403909145030895411105C0FA
:1034C000611571058105910561F060934403709366
:1034D000450380934603909347034093480381E05C
:1034E000089580E00895FF920F931F93CF93DF9389
:1034F0008A01EC01C60FD71FF9800E94BE28F8167A
:10350000190668F082E090E0F801918380838EEFE5
:103510009FEFDF91CF911F910F91FF9008956C81E4
:103520007D818E819F814B81C9DF811108C082E03E
:1035300090E0F8019183808384EF9FEFEACF898147
:103540008093430390E00196F8019183808390E09B
:1035500080E0DFCFCF93DF93EA01FC01E60FF71F96
:1035600064817581868197814381A8DF811109C0BB
:1035700082E090E09983888384EF9FEFDF91CF9181
:10358000089581E090E09983888390E080E0F6CF11
:10359000E4E4F3E04081518162817381480F511D61
:1035A000611D711D40835183628373830895CF939E
:1035B000C09143034C2F50E0609144037091450348
:1035C00001960E9416398C2FE3DF10924303CF91AE
:1035D0000895009799F480914403909145032FEF4B
:1035E000FB012083892B59F02091430330E02F5FAA
:1035F0003F4F2417350719F4CB01D9CF60CC08957C
:10360000009799F480914403909145032FEFFB01BB
:103610002083892B59F02091430330E02F5F3F4FE7
:103620002417350719F4CB01C2CF49CC089523E103
:10363000AC01249FC001259F900D1124E0914D0302
:10364000F0914E03E80FF91F238134812250310994
:1036500081E02230310508F080E008950F931F9338
:10366000CF93DF9300914F0310915003D0E0C0E05F
:1036700080E00C171D0749F491E0811190E0892F3B
:10368000DF91CF911F910F9108958111F5CFCE0158
:10369000CEDF2196EECFA0914D03B0914E0310974F
:1036A00029F120914F033091500382179307F0F4D2
:1036B00053E1589F9001599F300D1124A20FB31F61
:1036C000ED91FC911197309789F012968C916817C3
:1036D00068F48DE0689FE00DF11D112480819181D7
:1036E000892B21F081E09281491708F080E008954C
:1036F0009C0143E1429FC001439F900D1124E09142
:103700004D03F0914E03E80FF91F8385823099F441
:1037100081E090E06581768140915F015091600188
:103720006417750711F490E080E0892B21F081E0A7
:103730002230310508F080E00895FC01A081B181BC
:103740008DE0689FA00DB11D112413964D915C91E1
:1037500085859685489F9001499F300D589F300D73
:103760001124C9010196611103C0478144FD0496EB
:103770000895EF92FF920F931F93CF93DF93EA0187
:10378000FC01E60FF71F02811381E480F5804F2DC5
:103790006E2DC80180DF81110DC082E090E0998319
:1037A00088838EEF9FEFDF91CF911F910F91FF9054
:1037B000EF900895C8013BDF882339F082E090E064
:1037C0009983888388EF9FEFEECF10936601009373
:1037D0006501E0926701F092680181E090E09983D1
:1037E000888390E080E0DFCFCF92DF92EF92FF926C
:1037F0000F931F93CF93DF937A01EC01C60FD71F6E
:10380000C0906501D0906601009167011091680138
:10381000412F602FC6013FDF811110C082E090E090
:10382000F701918380838AEF9FEFDF91CF911F9102
:103830000F91FF90EF90DF90CF900895C601F7DED3
:10384000882341F082E090E0F7019183808388EF44
:103850009FEFEBCF4C815D816E817F819A81898161
:103860008F3F41F082E090E0F701918380838EEFFB
:103870009FEFDBCFE3E1EC9D9001ED9D300D112436
:10388000E0914D03F0914E03E20FF31F0190F081A0
:10389000E02D2DE0029FE00DF11D11240190F0813B
:1038A000E02D27E0129FE00DF11D1124808391830C
:1038B0008B81828343835483658376831F5F109358
:1038C000680181E090E0F7019183808390E080E0DF
:1038D000ACCFEF92FF920F931F93CF93DF937A01B8
:1038E0008C01060F171FC0914D03D0914E032097F6
:1038F00081F021E030E0F8018281938140914F0313
:10390000509150038417950710F030E020E0232BEE
:1039100071F482E090E0F701918380838EEF9FEF56
:10392000DF91CF911F910F91FF90EF90089543E1A8
:10393000489F9001499F300D1124C20FD31F77DE9D
:10394000882341F082E090E0F7019183808388EF43
:103950009FEFE6CFF8012481358120383105C8F684
:1039600087818111D6CF4181842F90E08F7E00978F
:1039700041F082E090E0F7019183808386EF9FEF32
:10398000CFCF4F833E832D8326812887198622300F
:1039900010F421E0288721E030E0F7013183208313
:1039A000BFCF88E090E0FA019183808390E080E0CF
:1039B0000895FB018FEF808381E181838FEF9FEF7B
:1039C0009383828380E890E09583848316821782B4
:1039D0000895FB018FEF808391E09183828393832D
:1039E000848384E3858381E090E0978386830895D0
:1039F00082E090E0FA019183808380EF9FEF089549
:103A0000BF92CF92DF92EF92FF920F931F93CF93CB
:103A1000DF93DA01FC01E60FF71F8181813081F02D
:103A200082E090E08D939C938FEF9FEFDF91CF9199
:103A30001F910F91FF90EF90DF90CF90BF9008956E
:103A4000C281D381B480858106811781E0904D03C6
:103A5000F0904E03E114F10439F482E090E08D938C
:103A60009C938CEF9FEFE2CF20914F033091500356
:103A7000C217D30738F082E090E08D939C938EEFCD
:103A80009FEFD4CFC230D10538F082E090E08D9323
:103A90009C9386EF9FEFCACF9B2D9D7FB1F781301E
:103AA000A1F7B11005C00130110531F080E004C06C
:103AB00081E002301105D0F3882339F36D01CE0186
:103AC000B6DD882341F082E090E0F60191838083A7
:103AD00088EF9FEFABCF83E18C9FF0018D9FF00DBE
:103AE0001124EE0DFF1DB38681E0848716870587BC
:103AF000108A178681E090E0F6019183808390E040
:103B000080E094CF4DE050E061EB71E040CA8F92CD
:103B10009F92BF92CF92DF92EF92FF920F931F93EB
:103B2000CF93DF93EA01FC01E60FF71F82819381B7
:103B30000481B580E0914D03F0914E03309791F4EC
:103B400082E090E0998388838CEF9FEFDF91CF91A3
:103B50001F910F91FF90EF90DF90CF90BF909F90BB
:103B60008F90089520914F0330915003821793074F
:103B700038F082E090E0998388838EEF9FEFE6CF64
:103B800023E1289F6001299FD00C1124EC0DFD1D1D
:103B9000E080F180E114F10499F28281081748F77E
:103BA0008DE0089F80011124E00EF11EF701808155
:103BB0009181892B29F6BB20E1F2F7E0BF9E4001FD
:103BC0001124C4010E94BC29F70191838083E091F4
:103BD0004D03F0914E03EC0DFD1D0190F081E02DA1
:103BE000E00FF11F80819181009739F482E090E02D
:103BF000998388838DEF9FEFA9CFA40170E060E0E7
:103C00000E941F3980914D0390914E03C80ED91E1A
:103C1000F60180819181080F191FF801B28281E0BD
:103C200090E09983888390E080E090CFAF92BF923C
:103C3000CF92DF92FF920F931F93CF93DF93EA010E
:103C4000FC01E60FF71F82819381F48000914D0300
:103C500010914E030115110581F482E090E09983E3
:103C600088838CEF9FEFDF91CF911F910F91FF9091
:103C7000DF90CF90BF90AF90089520914F03309187
:103C800050038217930738F082E090E0998388838D
:103C90008EEF9FEFE8CF2FEF2F0D2C3FA8F723E1FA
:103CA000289F6001299FD00C11240C0D1D1DF801C7
:103CB00080819181892B89F6FDE0FF9E50011124BE
:103CC000C5010E94BC29F80191838083E0914D03D6
:103CD000F0914E03EC0DFD1D80819181009739F428
:103CE00082E090E0998388838DEF9FEFBCCFA501A0
:103CF00070E060E00E941F39E0914D03F0914E03A7
:103D0000EC0DFD1DF28281E090E09983888390E0C4
:103D100080E0A9CFCF92DF92EF92FF920F931F9393
:103D2000CF93DF93860F971FFC010281138180914F
:103D30004D0390914E03892B81F082E090E0FA01CF
:103D4000918380838CEF9FEFDF91CF911F910F9133
:103D5000FF90EF90DF90CF900895C801B0E0A0E011
:103D60000197A109B1098F3F9F4FA105B10540F00F
:103D700082E090E0FA01918380838EEF9FEFE4CFA1
:103D80007A0183E1809F6001819FD00C1124C601DC
:103D90000E94BC29EC01009741F482E090E0F70119
:103DA000918380838DEF9FEFCFCFA60170E060E01D
:103DB0000E941F39D0934E03C0934D0310935003BC
:103DC00000934F0390E080E02FEF3FEF41E061E090
:103DD00070E08017910741F481E090E0F701918352
:103DE000808390E080E0B0CF3A8B298B1B864C8794
:103DF0007E876D87188A1F8601966396EACFEF92B9
:103E0000FF921F93CF93DF93EC0110E0F12CE12C94
:103E10006A811617A8F070E0660F771FAE014F5E3B
:103E20005F4FC7010E94212A009721F02FEF3FEF3B
:103E30003A8B298BDF91CF911F91FF90EF900895DE
:103E4000612FCE017ADC61E070E00E946F28E816F5
:103E5000F90608F47C011F5FDBCFF89420914B0337
:103E600030914C0381E02115310509F080E0232BCE
:103E700009F0789408952F923F924F925F926F923B
:103E80007F928F929F92AF92BF92CF92DF92EF92EA
:103E9000FF920F931F93CF93DF933C01660E771E23
:103EA000F301828193814C01B12CA12CC0914D036F
:103EB000D0914E03209769F021E030E060914F03EC
:103EC000709150038617970710F030E020E0232B05
:103ED000D1F482E090E0FA01918380838EEF9FEF2E
:103EE000DF91CF911F910F91FF90EF90DF90CF90D6
:103EF000BF90AF909F908F907F906F905F904F900A
:103F00003F902F9008958092690190926A01A0924B
:103F10006B01B0926C0163E1689F9001699F300D65
:103F20001124C20FD31FF3018181833040F082E05E
:103F300090E0FA019183808386EF9FEFD1CF2A0131
:103F40002B813C81232BF1F4288139819F8191FFC2
:103F50002EC0232B09F46FC0209152039A81422F67
:103F6000490F5527551FBA0141E050E061387105EE
:103F700014F050E040E0452B09F45DC02A87920F11
:103F8000909352038150823008F481C066DF882309
:103F900009F4DAC0F3018181813009F48DC008F49D
:103FA0007BC0823009F4C8C090E080E0ADC0232B14
:103FB00009F441C0209151039A81E22FE90FFF27B4
:103FC000FF1F41E050E0ED3FF10514F050E040E00C
:103FD000452B89F12A87920F90935103D3CFA0816B
:103FE000B181A20FB31F11966C91060F111D01969E
:103FF000295F3F4F8417950794F38D859E85089F11
:104000001001099F300C189F300C1124C114D104E9
:10401000D1F48F8184FF17C00E94BD28F5E02F0ED8
:10402000311C21E08215930508F420E0A701435FCD
:104030005F4F21110EC082E090E0F20191838083F6
:1040400087EF9FEF4DCF0E94BD282FEF221A320A33
:10405000E8CF88819981E80EF91EF7011483038364
:10406000FFEFCF1ADF0A7A018A818C151D0409F04F
:104070000CF48CCFE881F981EE0DFF1D428150E0F8
:1040800030E020E010E000E090E080E0B3CFF12CE1
:10409000E12CD12CC12CE8CF81E090E09C838B8374
:1040A000DDDA882309F480CF81E090E00E94A9172F
:1040B00080E40E94B71778CF89899A89019661F0C8
:1040C00083E090E09C838B8382E090E00E94A917BC
:1040D00080E40E94B11768CF8D819E8120915F019D
:1040E0003091600182179307D1F460916301709160
:1040F0006401AE014F5E5F4F80916101909162015A
:104100000E94132B0097E1F2789422E030E0F20154
:1041100031832083892BA9F08DEF9FEFE1CE22E040
:1041200082169104A104B1045CF6029748F6CE0110
:1041300066DE188A1F86E6CF82E090E09C838B8340
:1041400033CF90E080E0CCCE82E090E0F20191832A
:10415000808385EF9FEFC4CE8F929F92AF92BF92E4
:10416000CF92DF92EF92FF920F931F93CF93DF9343
:10417000EA018C01060F171FF8018181833098F046
:1041800082E090E09983888386EF9FEFDF91CF9163
:104190001F910F91FF90EF90DF90CF90BF90AF9065
:1041A0009F908F90089580914D0390914E03892B9D
:1041B00061F081E090E020914F0330915003232B78
:1041C00011F490E080E0892B39F482E090E099834B
:1041D00088838EEF9FEFDACF40DE882309F4E1C0B9
:1041E000F8018181813009F497C0E8F0823099F4B8
:1041F00020914F0330915003E0914D03F0914E0315
:1042000090E080E041E050E02817390709F0BFC096
:1042100025DA811117C0789481E090E09983888332
:1042200090E080E0B3CF20914F0330915003E091B4
:104230004D03F0914E0390E080E041E050E02817FC
:10424000390741F481E090E00E94A91780E40E94C0
:10425000B717E1CF63817481672B11F054834383D7
:1042600001967396ECCFE0914D03F0914E03E00F71
:10427000F11F2381348122303105D9F4218932891B
:104280002F3F3F4FB1F42581368140915F0150911E
:1042900060012417350761F5AF014F5E5F4F6091F4
:1042A00063017091640180916101909162010E94AB
:1042B000132BEFEFCE1ADE0AEE0AFE0A0D5E1F4F39
:1042C00040914F035091500370E060E0C416D50652
:1042D000E606F7064CF5009731F27894892B09F43D
:1042E0009BCF82E090E0998388838DEF9FEF4ECF44
:1042F00042E0C416D104E104F104DCF622303105B9
:10430000C0F6CF017CDDE0914D03F0914E03E00F4C
:10431000F11F108A1786CDCF10E000E090E080E01A
:10432000C12CD12C7601CCCF0097B9F610E000E07B
:10433000812C912C540183E0E82EF12C1AC0E091DD
:104340004D03F0914E03E00FF11F8381948102979A
:1043500049F4F482E38282E090E00E94A91780E4AD
:104360000E94B117FFEF8F1A9F0AAF0ABF0A0D5EB6
:104370001F4F80914F0390915003B0E0A0E088164A
:104380009906AA06BB06DCF290E080E0A6CF638126
:1043900074816230710511F45483438301967396DE
:1043A00033CF82E090E09983888385EF9FEFEECE54
:1043B0000097B9F48FEFFB01808320916901309160
:1043C0006A0143E1429FC001439F900D1124E09197
:1043D0004D03F0914E03E80FF91F8285FB018183A5
:1043E00008950C945F1788E090E0FA019183808330
:1043F00090E080E0089510924C0310924B03EDE49E
:10440000F3E086E0DF011D928A95E9F782E89DE1FD
:1044100090934A03809349030895809149039091B2
:104420004A0308952F923F924F925F926F927F922C
:104430008F929F92AF92BF92CF92DF92EF92FF92B4
:104440000F931F93CF93DF93CDB7DEB72F970FB6A0
:10445000F894DEBF0FBECDBFF894E0914B03F0910E
:104460004C033196F0934C03E0934B0378944090C7
:104470004D0350904E034114510409F40DC2E091D4
:104480004F03F0915003EF2B09F406C22D874987A3
:104490005A876B877C8798878F831201B12CA12C58
:1044A00010E000E080914F0390915003A816B906E8
:1044B00018F40115110529F1F89480914B0390919E
:1044C0004C03019790934C0380934B037894C8015D
:1044D0002F960FB6F894DEBF0FBECDBFDF91CF9100
:1044E0001F910F91FF90EF90DF90CF90BF90AF9012
:1044F0009F908F907F906F905F904F903F902F9004
:1045000008957101E418F508D10117968C91179759
:1045100081FD54C013968D919C911497039709F0D7
:104520004DC015968D919C91EF81F8858E179F0750
:1045300009F044C0B50190E080E080D48A832091E6
:104540004D0330914E033D832C833D85332309F485
:104550004CC04C815D81452B09F49BC180914F0378
:1045600090915003A816B90608F093C1C501C0D8B0
:104570008823E9F06C817D816E0D7F1D7D836C83C6
:10458000DB011F968D919C91892B89F0D12CC12C38
:10459000F12CE12CAC81BD8112968C9112978E1575
:1045A0001F0409F094F450961C921E921F972A81C2
:1045B000222321F0B50190E080E042D43FEFA31A1E
:1045C000B30A43E1240E311C6DCFAC81BD81ED9166
:1045D000FC91EC0DFD1D8581968107D7BFEFEB1A8D
:1045E000FB0AEDE0CE0ED11CD5CFEC81FD813097DA
:1045F00009F44FC180914F0390915003A816B9065A
:1046000008F047C1EE0DFF1DFF87EE87C50170D88A
:104610008B83882339F1AE85BF851F968D919C9140
:104620005097019621E01D964D915C918417950756
:1046300009F020E02E831982712C10E000E0AE8595
:10464000BF8512968C91781608F45DC0EE85FF85C3
:10465000878590890196658576850E94C138908B03
:104660008787A5CFB1E0BE83E6CF992493946BC032
:1046700083D6F6019683858383C0D601ED90FC90A6
:10468000B7E06B9EE00CF11C1124F701638174818B
:1046900080818F3F61F121E030E002C0220F331FA3
:1046A0008A95E2F7C901092E000CAA0BBB0BFB018E
:1046B000408151816281738184239523A623B7238E
:1046C00021E0892B8A2B8B2B09F420E0D4012C9339
:1046D000D70111968C91F60123853485820F932F93
:1046E000911D880E991E1486138663949CC0418187
:1046F00050E0C4010E941639EBCF998206EF1FEFFC
:10470000C6C01982C4C0F981F111A0CFEDE07E9E30
:1047100070011124AE85BF85CD90DC90CE0CDF1CDE
:1047200015D49D838C83BB81BB2309F49ECF81E08C
:10473000EE85FF8527853089232B09F080E0982EB0
:10474000882309F459C0672D8E859F850E949D1B83
:10475000D60118969C938E93179761E070E0BFD4B2
:10476000EE85FF85218932892F3F320709F480CFFA
:10477000BC01C90199D7D60116969C938E931597C3
:10478000D60115968D919C911697009709F4B5CF97
:10479000EC81FD818E0F9F1F1A969C938E93199723
:1047A000AE85BF85ED91FC911197EE0EFF1EF701CE
:1047B00021853285148613861A968C91870DD9012E
:1047C0008D93711016C0EE85FF85878184FF11C01F
:1047D00049855A856B857C85F901418352836383C2
:1047E0007483F701838594850496A80FB91F1486F6
:1047F0001386F701B287A187D60115968D919C91FA
:104800001697892B09F443C0EE85FF8525813681F3
:1048100080915F01909160012817390779F019960E
:104820008D909C90612CD60112968C9112976816EF
:1048300008F423CF1A969C928E921997BE81BB23BF
:1048400009F45FCF61E070E0F6018781908547D47D
:10485000D6011796ED90FC90189715964D915C91A6
:10486000E1E0F0E0BA81BB2311F0F0E0E0E00C8180
:104870001D819C01B501882799278E1B9F0B69D349
:104880008C01892B21F0F60185819681AED5739438
:10489000D6CE0FEF1FEF8BCE10E000E00DCE2F92A3
:1048A0003F924F925F926F927F928F929F92AF92C0
:1048B000BF92CF92DF92EF92FF920F931F93CF930D
:1048C000DF9380914D0390914E0310E000E0892B1F
:1048D000A9F0C3DA0AEF1FEF882381F020904F037D
:1048E00030905003C0914D03D0914E03D12CC12C78
:1048F00010E000E02C143D04A9F47894C801DF9185
:10490000CF911F910F91FF90EF90DF90CF90BF90CC
:10491000AF909F908F907F906F905F904F903F905F
:104920002F900895C6010E94781B882309F18B817E
:104930009C810397E9F48F859889892BC9F0B6018A
:1049400090E080E07BD221E030E0882311F030E07D
:1049500020E044245524421A530AB12CA12C912C56
:10496000812C8A818815190409F038F4188A1F8669
:104970004FEFC41AD40A6396BDCFE881F981EA0DDE
:10498000FB1D85819681892BA1F161E070E0878113
:104990009085A5D33C01DAD28C01E881F981EA0D3A
:1049A000FB1D8185928525813681200F311FAC0149
:1049B000421B530B9A0147815085421B530B70E0F9
:1049C00060E00E941F39E881F981EA0DFB1DE78054
:1049D000F084458156819301B601C201BAD28C019F
:1049E000892B39F0E881F981EA0DFB1D85819681DB
:1049F000FCD45FEF851A950A8DE0A80EB11CB1CFEB
:104A00002CCA789408952F923F924F925F926F92A2
:104A10007F929F92AF92BF92CF92DF92EF92FF92DE
:104A20000F931F93CF93DF9300D000D000D0CDB76A
:104A3000DEB700914D0310914E0399249394011514
:104A4000110509F43EC0A0904F03B090500305DA61
:104A5000982E8823B1F110924E0310924D031092BC
:104A6000500310924F0310925103109252038FEF94
:104A70009FEFDC018093690190936A01A0936B0121
:104A8000B0936C0178947BD31E830D83C12CD12C01
:104A90007601C501B0E0A0E089839A83AB83BC8333
:104AA00022242A94322C89819A81AB81BC81C81638
:104AB000D906EA06FB06F4F0C80197D480E40E9408
:104AC000B717892D26960FB6F894DEBF0FBECDBF5F
:104AD000DF91CF911F910F91FF90EF90DF90CF90DA
:104AE000BF90AF909F907F906F905F904F903F905E
:104AF0002F900895AD81BE8115968D919C9116974A
:104B000020915F013091600182179307D1F4519693
:104B10008D919C91B7D5ED81FE8180819181B12CE1
:104B2000A12C412C512C3201892B91F5BFEFCB1ACE
:104B3000DB0AEB0AFB0AED81FE817396FE83ED83AF
:104B4000B2CFB2E0CB16D104E104F10424F702970E
:104B500010F7ED81FE81818992898F3F980709F0D6
:104B60000CD5AD81BE8152963C922E925197D3CFF7
:104B70008A0D9B1DDC018D919C91009709F035D425
:104B8000BFEF4B1A5B0A6B0A7B0AEDE0AE0EB11C5D
:104B9000AD81BE818D919C91119712964C9150E000
:104BA00070E060E044165506660677060CF31DD4E7
:104BB000BDCFCF93DF93EA0126DF811109C082E0E8
:104BC00090E09983888385EF9FEFDF91CF910895DF
:104BD00081E090E00E94A91781E090E099838883AA
:104BE00090E080E0F2CF0FDF10924A031092490369
:104BF000089542E050E06FEF71E00C94C717FF9208
:104C00000F931F93CF93DF938A01EC01C60FD71F39
:104C1000F980B4D20897F816190671F068F082E0AE
:104C200090E0F801918380838EEF9FEFDF91CF9129
:104C30001F910F91FF9008956C817D818E819F81DE
:104C40004B810E945E1A811108C082E090E0F80159
:104C50009183808384EF9FEFE9CFF9800E94591AF6
:104C60004F2D50E0BE01685F7F4F0E941639898149
:104C70000E94C81A81E090E0F8019183808390E05F
:104C800080E0D4CFDF92EF92FF920F931F93CF93E8
:104C9000DF938A01EC01C60FD71F0E94591A7C01CD
:104CA000D9806CD2DD2059F0029721E030E0D8168F
:104CB000190619F010F030E020E0232B79F482E09F
:104CC00090E0F801918380838EEF9FEFDF91CF9189
:104CD0001F910F91FF90EF90DF900895EF2841F41E
:104CE00082E090E0F8019183808384EF9FEFEECF24
:104CF000F9800E94591A4F2D50E0BE016E5F7F4F20
:104D00000E94163989810E94C81A81E090E0F8015A
:104D10009183808390E080E0D9CF89EF95E29093F2
:104D20005403809353030895809153039091540347
:104D300008950895FC01118210829383828308955F
:104D4000DB011D921C92DC011296ED91FC911397F0
:104D50007183608313967C936E9312970895FC0180
:104D600080819181DB018D939C93A081B18110970B
:104D700041F08D919C9191838083892B11F4F38371
:104D8000E2830895FC0180819181DB018D939C93E6
:104D9000892B11F473836283718360830895FC010E
:104DA00011821082938382830895CF93DF9300D082
:104DB000CDB7DEB71A821982F894BE016F5F7F4FBC
:104DC0008AE593E0CCDF89819A81009709F00DD3C1
:104DD00089819A81892B89F7BE016F5F7F4F8EE5AC
:104DE00093E0BDDF89819A81009709F0FED2898125
:104DF0009A81892B89F778940F900F90DF91CF914A
:104E00000895CF93DF9300D0CDB7DEB71A82198211
:104E1000F894BE016F5F7F4F86E593E0A0DF898144
:104E20009A81009709F0E1D289819A81892B89F7CB
:104E300078940F900F90DF91CF91089581E00895BD
:104E400090E080E00895EF92FF920F931F93CF932D
:104E5000DF9300D0CDB7DEB71A8219828091550357
:104E600007EF1FEF8823A1F1F894BE016F5F7F4F1A
:104E70008EE593E074DF789489819A81EE24E3943F
:104E8000F12C892B51F4F894BE016F5F7F4F8AE5B6
:104E900093E065DF7894F12CE12C89819A810EEF03
:104EA0001FEF0097A9F0FC014281538164E070E09C
:104EB0003FD68C01892B61F0F89469817A81C70112
:104EC000880F991F880F991F865A9C4F5BDF789433
:104ED000C8010F900F90DF91CF911F910F91FF901C
:104EE000EF9008950F931F93CF93DF9300D000D0DE
:104EF000CDB7DEB71C821B821A82198280915503BE
:104F000007EF1FEF8823C1F0AE014D5F5F4F64E0F4
:104F100070E0CE0101967FD68C01892B69F4E9817E
:104F2000FA818B819C8193838283F89469817A8151
:104F300086E593E005DF7894C8010F900F900F90FD
:104F40000F90DF91CF911F910F91089584D7049610
:104F500008958F929F92AF92BF92CF92DF92EF927D
:104F6000FF920F931F93CF93DF9300D0CDB7DEB79F
:104F70001A821982BC016F5F7F4F6330710598F010
:104F8000AA24AA94BA2CC5010F900F90DF91CF915B
:104F90001F910F91FF90EF90DF90CF90BF90AF9057
:104FA0009F908F9008954115510551F34801590183
:104FB0008A016C01CBDF8815990511F7E114F10422
:104FC000F9F28E0D9F1DA816B906D0F280915503F7
:104FD0008823F1F0F894B501645071099701AE018E
:104FE0004F5F5F4FC8010496ABD65C01892B71F40B
:104FF00089819A81F80193838283C601880F991F62
:10500000880F991FB801865A9C4F9ADE7894BBCFBF
:1050100087EFA82EBB24BA94B6CFAF92BF92CF929F
:10502000DF92EF92FF920F931F93CF93DF9300D005
:10503000CDB7DEB71A821982892B09F047C06115F6
:10504000710509F443C04115510509F43FC021150C
:10505000310509F43BC001151105C1F180915503DB
:105060008823B9F179016A015B01F894BE016F5F91
:105070007F4F86E593E073DE789489819A8100976B
:1050800059F1DC0112966D917C91A801049671D6BC
:105090008C01E981FA81D501ED93FC9382819381A2
:1050A0000496F6019183808351DFD7018D939C9301
:1050B000C8010F900F90DF91CF911F910F91FF903A
:1050C000EF90DF90CF90BF90AF9008950FEF1FEF5C
:1050D000EFCF07EF1FEFECCF0EEF1FEFE9CFCF932E
:1050E000DF93EC01672B71F4BFD68C179D0760F03E
:1050F000B2D62496C80FD91FB1D68C0F9D1FDF9151
:10510000CF910895AED6F1CF90E080E0F8CF0F9325
:105110001F93CF93DF932091550321112BC08B0157
:10512000EC018AE593E006DE8EE593E003DE86E59A
:1051300093E000DE97D00097C1F496D670E060E06F
:10514000CEDF4DE651E062E070E07BD1009769F47C
:1051500080916D0190916E0199D6B801CE01CED4A7
:10516000009719F421E020935503DF91CF911F910F
:105170000F91089584EF9FEFF8CF73C675C6CF9354
:10518000DF9375D6EC01892B11F40FDE3ADECE01E8
:10519000DF91CF910895CF93DF9369D6EC01892BEE
:1051A00009F403DECE01DF91CF91089580916D0166
:1051B00090916E010895CF93DF9380915503D0E0D5
:1051C000C0E08823D1F067D6EC01892BB1F4EDDD86
:1051D00018DE80916D0190916E01CFD1B5D2EC01B6
:1051E000892B59F48AE593E0DADD8EE593E0D7DD8B
:1051F00086E593E0D4DD10925503CE01DF91CF9187
:105200000895EF92FF920F931F93CF93DF93EC01DA
:105210007A018B010F5F1F4F0E9DA0010F9D500D56
:105220001E9D500D112470E060E00E941F3990E037
:1052300080E0F0E0E0E02FEFE816F90639F4DF91C6
:10524000CF911F910F91FF90EF9008951A821982CC
:105250002883309711F0D283C1830196FE01C00FDD
:10526000D11FEACFAF92BF92CF92DF92EF92FF921F
:105270000F931F93CF93DF9388E994E07C012CEF89
:10528000E22243E050E06FE671E085E791E0E3D38E
:105290008FE6C82E81E0D82E95E7A92E91E0B92E91
:1052A000C1E7D5E08E01D6014D915D916D01F5010B
:1052B000619171915F01D8011196FC92EE92159661
:1052C0005C934E93149713965C934E931297179694
:1052D0007C936E9316979B012F5F3F4F249FC001D5
:1052E000259F900D349F900D112419969C938E93B9
:1052F0001897E114F10411F0C70183DFF8018085EC
:105300009185E80EF91E065F1F4FF5E7CF16F1E015
:10531000DF0649F6E4E6F3E081E391E0DF019C017A
:105320001D9221503040E1F7109263031092620306
:105330001F8E1E8E1BA21AA219A218A21DA21CA2A9
:105340001FA21EA22A9635E0CF38D30789F7109204
:105350006E0510926D051092700510926F0590E029
:1053600080E0DF91CF911F910F91FF90EF90DF9040
:10537000CF90BF90AF9008950097F1F0F894A5E713
:10538000B1E0E1E7F5E030E020E04D915D914817B4
:105390005907A8F0428153814115510581F08AE0F7
:1053A000829FF001839FF00D1124EF58FA4F808106
:1053B0009181009759F4789490E080E008952F5FF0
:1053C0003F4F3A962330310501F7F5CFDC011196B6
:1053D0006D917C9171836083415051095383428365
:1053E000FC012193CF0178940895009749F1DC01E5
:1053F0008E91863041F4E0916F05F0917005309701
:10540000F9F0CD0109948630D8F4282F30E0F894D3
:105410008FEF8C938AE0829FF001839FF00D11241F
:10542000EF58FA4F8081918112969C938E93119739
:10543000B183A08382819381019693838283789440
:105440000895CF92DF92EF92FF920F931F93CF9325
:10545000DF939C0187E693E08C7F4115510509F4A9
:1054600089C02115310509F485C06115710509F45C
:1054700081C08A01AB01B9016D5F7F4F6C7F9B01D9
:105480002F5F3F4F249F7001259FF00C349FF00C3D
:105490001124F894E1E7F5E023E030E0E901A6A16A
:1054A000B7A1C68CD78CCD2809F058C0109709F049
:1054B0003EC0C0906203D09063032EE231E02C190D
:1054C0003D092E153F0530F47894CFEFDFEF86EFDE
:1054D0009FEF21C02AE02C9FF0012D9FF00D112499
:1054E000EF58FA4F918380835583448353834283DB
:1054F00077836683F186E086009709F082DEEC0C04
:10550000FD1CF0926303E09262037894CF3FDC07C6
:10551000F1F290E080E0F801D183C083DF91CF9178
:105520001F910F91FF90EF90DF90CF900895AE15EF
:10553000BF05A0F02AE02C9FF0012D9FF00D112453
:10554000EF58FA4F9183808355834483538342837A
:10555000778366830097C9F254DED7CF8A0F9B1FEB
:105560002F5F3F4F3A962630310509F097CFCFEFA6
:10557000DFEFCBCF8FEF9FEFD1CF9C010397039746
:1055800008F04EC0F89485E09AE0482F50E02417C8
:1055900035079CF191E08AE0829FF001839FF00D36
:1055A0001124EF58FA4F118210821582148213824F
:1055B0001282178216829923E1F080916203909102
:1055C0006303E1E7F5E0268D378D232B49F426A10F
:1055D00037A12115310521F0821B930B17A216A2CA
:1055E0003A9625E0EF38F20771F7909363038093C2
:1055F0006203789490E080E00895949FF001959F75
:10560000F00D1124EF58FA4F40815181452B31F4B0
:1056100040855185452B11F48150B7CF90E0BBCF29
:105620008FEF9FEF08954115510549F1009739F12A
:105630006115710521F1F89420916D0530916E0589
:10564000232BB9F420916F0530917005232B89F439
:1056500090936E0580936D057093700560936F0550
:10566000789426E030E090E080E0FA0131832083F6
:10567000089578942FEF3FEF86EF9FEFF6CF8FEFEF
:105680009FEF0895069769F4F89410926E051092B2
:105690006D051092700510926F05789490E080E08F
:1056A00008958FEF9FEF08956115710519F4F0E0EB
:1056B000E0E011C08630910581F4E0916D05F09134
:1056C0006E053097A1F3CB0101960995009779F308
:1056D000FC0186E08193CF0108959C01235031099C
:1056E0002330310520F72AE0289FD001299FB00DF3
:1056F0001124AF58BA4F2D913C911197232BB9F239
:1057000016962D913C9117972617370780F2F8943B
:1057100012962D913C9113972115310529F0ED91A9
:10572000FC911197309711F47894C1CF4181528147
:1057300011965C934E932150310913963C932E930E
:10574000129781937894C7CFE5E9F4E088EDDF0103
:105750001D928A95E9F7E4E6F3E081E391E0DF0149
:105760009C011D9221503040E1F71092630310928A
:105770006203E1E7F5E08CE3DF011D928A95E9F72A
:10578000EDE6F5E084E0DF011D928A95E9F790E00F
:1057900080E00895CF93DF93C0917B01D0917C018D
:1057A000CF3FDC0759F445D490937C0180937B0173
:1057B00097FF09C0D0937C01C0937B0184EF9FEFDA
:1057C000DF91CF91089590E080E0FACF823091058B
:1057D00028F48093AD0590E080E008958FEF9FEF6F
:1057E00008954F925F926F927F92AF92BF92CF9245
:1057F000DF92EF92FF920F931F93CF93DF9300D02E
:10580000CDB7DEB71A821982009709F479C0611505
:10581000710509F475C020917B0130917C0107EF7F
:105820001FEF2F3F3F4F09F445C06B015C01412C36
:10583000512C3201F12CE12C10E000E09E012F5F91
:105840003F4FA6014E195F09B5016E0D7F1D809176
:105850007B0190917C014CD4892B09F04BC089814C
:105860009A81009741F4E114F10429F42091AD05E7
:10587000222309F442C0E80EF91EEC14FD04D0F412
:1058800080E8481684E858068EE16806710420F521
:1058900060E070E0CB010E945D352AE0420E511CB1
:1058A000611C711C0A3F4FEF140721F0043F8FEF7A
:1058B0001807A1F4C8010F900F90DF91CF911F91AD
:1058C0000F91FF90EF90DF90CF90BF90AF907F90BF
:1058D0006F905F904F90089501EF1FEF81E090E08F
:1058E000013F2FEF120711F090E080E0892B09F4BF
:1058F000A5CFE0CF04EF1FEFDDCF0AEF1FEFDACF28
:105900000FEF1FEFD7CF4F925F926F927F92AF92C0
:10591000BF92CF92DF92EF92FF920F931F93CF939C
:10592000DF9300D0CDB7DEB71A821982009709F451
:1059300079C06115710509F475C020917B01309122
:105940007C0107EF1FEF2F3F3F4F09F445C06B016C
:105950005C01412C512C3201F12CE12C10E000E0D3
:105960009E012F5F3F4FA6014E195F09B5016E0DD5
:105970007F1D80917B0190917C0170D3892B09F070
:105980004BC089819A81009741F4E114F10429F414
:105990002091AD05222309F442C0E80EF91EEC1453
:1059A000FD04D0F480E4481682E458068FE06806CF
:1059B000710420F560E070E0CB010E945D352AE0C3
:1059C000420E511C611C711C0E3F4FEF140721F059
:1059D000043F8FEF1807A1F4C8010F900F90DF91DB
:1059E000CF911F910F91FF90EF90DF90CF90BF90DC
:1059F000AF907F906F905F904F90089502EF1FEFF0
:105A000081E090E0023F2FEF120711F090E080E07C
:105A1000892B09F4A5CFE0CF04EF1FEFDDCF0EEF08
:105A20001FEFDACF0FEF1FEFD7CF80917B0190915F
:105A30007C018F3F980749F0F4D2892B49F48FEF0E
:105A40009FEF90937C0180937B0190E080E008952C
:105A500084EF9FEF0895CF92DF92EF92FF920F9322
:105A60001F93CF93DF9321E04115510509F020E00A
:105A70004150510921112CC0DC01FB01D12CC12C5A
:105A800021E022C03FEFC31AD30A7D010D911D9181
:105A9000E701EA80FB80E016F106A8F4208131815D
:105AA000E280F380F182E08233832283ED90FC90E8
:105AB00011979D0122503109E901F982E88211967E
:105AC0001C930E9320E03296C416D506D8F2D2CF9E
:105AD000DF91CF911F910F91FF90EF90DF90CF90CA
