:1000000061C000000C9464350C948B3583C00000F3
:1000100081C000007FC000007DC000007BC00000E8
:1000200079C0000077C0000075C0000073C00000F8
:1000300071C000000C9480306DC000006BC00000E7
:100040000C94B23567C000000C94C4380C94F63898
:1000500061C000005FC000005DC000005BC0000028
:1000600059C0000057C00000000000080002010055
:100070000003040700000000000000000102040863
:100080001020408001020408102001020408102002
:10009000040404040404040402020202020203032E
:1000A00003030303000000002300260029000000D2
:1000B0000000250028002B0000000000240027007D
:1000C0002A001B3911241FBECFEFD8E0DEBFCDBF01
:1000D00012E0A0E0B1E0E8EDF3E702C005900D9278
:1000E000A232B107D9F727E0A2E2B2E001C01D9227
:1000F000AB30B207E1F710E0C2E6D0E004C02197D0
:10010000FE010E94BB39C136D107C9F70E940332F4
:100110000C94EA3975CFCF93DF93882349F0EB0134
:1001200081500E94923699838883DF91CF91089500
:10013000FB0111821082F9CF0F931F938B019C0159
:1001400083E036952795179507958A95D1F7055D34
:100150001D4F462F477021E030E0F90102C0EE0F3D
:10016000FF1F4A95E2F7AF01F80120812423CB015C
:100170000196211102C090E080E01F910F91089537
:100180000F931F938B019C0183E03695279517955C
:1001900007958A95D1F7677081E090E001C0880FDC
:1001A0006A95EAF7F801E55DFD4F2081452B31F4B2
:1001B0008095822380831F910F910895822BFACF1F
:1001C000CF92DF92EF92FF92CF93DF936B017C018E
:1001D00060E08EE0C816D104E104F10490F48EE0F2
:1001E0008C0D0E943137E6012196AE01C701B601A0
:1001F000C7DFCE01DF91CF91FF90EF90DF90CF90DE
:1002000008958C2DEECF882341F08150682F70E047
:1002100090E080E050E040E0B3CF0895CF93282FE6
:100220008823E1F0CB01BA01CFEFC20FEC2FF0E051
:10023000EC5CFD4F2081213059F490580E947533B9
:100240009B01AC016C2F70E090E080E0CF91A2C0E8
:100250000E9470338C2FCF910C94AD36CF910895BE
:100260000F931F938B019C0183E03695279517957B
:1002700007958A95D1F70E5D1D4F462F477021E0F7
:1002800030E0F90102C0EE0FFF1F4A95E2F7AF011F
:10029000F80120812423CB010196211102C090E0B6
:1002A00080E01F910F9108950F931F938B019C0184
:1002B00083E036952795179507958A95D1F767704E
:1002C00081E090E001C0880F6A95EAF7F801EE5DE1
:1002D000FD4F2081452B31F48095822380831F912F
:1002E0000F910895822BFACF4F925F926F927F9277
:1002F0008F929F92AF92BF92CF92DF92EF92FF9236
:100300000F931F93CF93DF934B015C0129013A01B7
:10031000670161E0882D0E943137E4012196AE012A
:10032000C501B401C1DF20E030E0A901C801B60178
:100330000E94A63418168CF4F401EC5CFD4F81E0A9
:100340008083C801B6010E9475336B01C301B201FD
:100350000E947533A601C40121D0CE01DF91CF9157
:100360001F910F91FF90EF90DF90CF90BF90AF90D3
:100370009F908F907F906F905F904F90089588230B
:1003800041F08150682F70E090E080E050E040E064
:100390008BCF0895862FB9010C94AD369C01FC01DA
:1003A000E859FF4FE491E33061F140F4E13011F19D
:1003B000E23021F160E0822F0C946D37E730C1F11B
:1003C000E83009F441C0E430A9F7809180008C7FC7
:1003D00082608093800090918100907E9061692B73
:1003E0006093810050938700409386008091800045
:1003F00080621BC084B5806884BDDCCF84B5806218
:10040000FBCF809180008C7F8260809380009091F0
:100410008100907E9061692B6093810050938700EA
:100420004093860080918000806880938000C2CFD6
:100430008091B00080688093B0008091B100887F87
:10044000682B6093B100B6CF8091B0008062F3CF8B
:10045000FC01A781B0858C9191858923A481B58108
:100460009C9140815181628173812681922359F050
:1004700081110BC04F5F5F4F6F4F7F4F40835183A0
:100480006283738308958111F5CF41505109610949
:100490007109F4CF89E492E0DBCF84E592E0D8CF14
:1004A0008FE592E0D5CF8AE692E0D2CFFC01A4811D
:1004B000B5818C9196818923A781B0859C914081DB
:1004C0005181628173812185922359F0882359F0EB
:1004D0004F5F5F4F6F4F7F4F4083518362837383C2
:1004E00008958823A9F34150510961097109F4CF96
:1004F00089E492E0DBCF84E592E0D8CF8FE592E00B
:10050000D5CF8AE692E0D2CF0F931F93CF93DF939C
:10051000082F162FEA01A09148028BE0A89FD00176
:100520001124A75BBD4F1D921D921D921C92139723
:1005300081E01A968C931A97802F90E0FC01E45882
:10054000FF4FE4911696EC931697FC01E057FF4F8E
:10055000E491F0E0EE0FFF1FEC55FF4F8591949171
:1005600015969C938E931497862F90E0FC01E45887
:10057000FF4FE4911996EC931997FC01E057FF4F58
:10058000E491F0E0EE0FFF1FEC55FF4F8591949141
:1005900018969C938E93179760E0802F0E943137B6
:1005A00060E0812F0E94313780914802813081F1D3
:1005B000A0F0823009F445C0833009F45BC080911B
:1005C000480291E0980F90934802888390E080E081
:1005D000DF91CF911F910F91089580E0023021F0BB
:1005E0008FEF033009F481E041E050E06AE472E00B
:1005F0000E94443580E0123021F08FEF133009F46F
:1006000081E041E050E068E772E00E944435D7CFD6
:1006100080E0023021F08FEF033009F481E041E007
:1006200050E06DE472E00E94443580E0123021F029
:100630008FEF133009F481E041E050E06BE772E0A6
:10064000E4CF80E0023021F08FEF033009F481E045
:1006500041E050E060E572E00E94443580E01230F5
:1006600021F08FEF133009F481E041E050E06EE7B4
:1006700072E0CBCF80E0023021F08FEF033009F43D
:1006800081E041E050E063E572E00E94443580E0A3
:10069000123021F08FEF133009F481E041E050E097
:1006A00061E872E0B2CF9BE0899FF0011124E75B23
:1006B000FD4F80819181A281B381FB018083918371
:1006C000A283B38390E080E008959BE0899FF001CE
:1006D0001124E75BFD4F108211821282138290E099
:1006E00080E0089590E080E00895611102C00C94CC
:1006F00031376130E1F362E0FACF662319F061E04F
:100700000C946D3760E0FCCF90E080E008950F938B
:100710001F93009709F48AC06115710509F486C01A
:1007200000915A0110915B0120915C0130915D01B3
:100730000E3F1F4F2F4F3F4F09F06AC0DB014D9115
:100740005D916D917C9140935A0150935B01609350
:100750005C0170935D0140915A0150915B01609181
:100760005C0170915D01DC011296ED91FC9180813C
:100770009181A281B3818093FF0290930003A093A3
:100780000103B093020384819581A681B781809390
:10079000FB029093FC02A093FD02B093FE028085C1
:1007A0009185A285B3858093F7029093F802A09378
:1007B000F902B093FA0284859585A685B785809362
:1007C000F3029093F402A093F502B093F602109214
:1007D000EF021092F0021092F1021092F2020E94C7
:1007E00046148BE694E19093760280937502909381
:1007F0007802809377020E942513009731F421E05C
:1008000030E030930403209303031F910F91089568
:1008100000915A0110915B0120915C0130915D01C2
:10082000FB01008311832283338395CF8FEF9FEFEA
:10083000ECCF8F929F92AF92BF92CF92DF92EF92C6
:10084000FF921F93CF93DF934B015C01109106033E
:1008500082E090E090930403809303038114910459
:10086000A104B10441F480910603811104C0809178
:100870000503C1E08111C0E0C12CD12C760180912B
:100880000603811106C080910503811102C0CC23AB
:10089000D9F083E090E09093040380930303CC238A
:1008A00081F1CCE9DFEF111102C00E94CF17CE0118
:1008B000DF91CF911F91FF90EF90DF90CF90BF908D
:1008C000AF909F908F9008956AE070E080E090E094
:1008D0000E94213680E1C80E87E2D81EE11CF11C7F
:1008E0008FEF88169806A806B80631F0C1E08C1480
:1008F0009D04AE04BF0408F0C0E080E00E946913CC
:10090000BECFD0E0C0E0CFCFCF92DF92EF92FF9288
:100910000F931F93CF93DF938F3F910511F008F052
:1009200051C020910303309104032330310539F085
:1009300020910303309104032130310531F424E088
:1009400030E030930403209303036A017B01EC0140
:1009500082309105A8F011E0AE01C701B6010E94F6
:100960002413AB01BC01CE011123F9F0DF91CF912B
:100970001F910F91FF90EF90DF90CF900C94F4199E
:100980008C01000F111F0B581D4FD8018D919C91A8
:10099000892B09F30E94FE190297E9F6D801ED911F
:1009A000FC91CE010995182FD7CF0E94161A90E01E
:1009B00080E0DF91CF911F910F91FF90EF90DF903A
:1009C000CF9008958FEF9FEFF4CF80E00C946913E0
:1009D000CF93DF9386E090E090930403809303032A
:1009E0000E94C213EC01E5E7F2E084E0DF011D9212
:1009F0008A95E9F70E946717109204031092030387
:100A0000CE01DF91CF9108958091050308958091E3
:100A1000EE02089560935A0170935B0180935C012C
:100A200090935D0190E080E008952F923F924F9265
:100A30005F926F927F928F929F92AF92BF92CF926E
:100A4000DF92EF92FF920F931F93CF93DF93CDB777
:100A5000DEB7CB54D1090FB6F894DEBF0FBECDBFC1
:100A600026967FAF6EAF269728965FAF4EAF28973A
:100A70003E8B2D8B2C96FFAEEEAE2C97FB01E150FA
:100A8000F04CEE0FFF1FEE0FFF1FE80FF91F8080E5
:100A90009180A280B3808F8A988EA98EBA8EB5017C
:100AA000A401442777FD4395552766277727299684
:100AB0004FAF2997F901E150F04CEE0FFF1FEE0FF9
:100AC000FF1F2896AEACBFAC2897EA0DFB1DC08077
:100AD000D180E280F380CB8EDC8EED8EFE8EB7016E
:100AE000A601442777FD43955527662777272A9641
:100AF0004FAF2A97188B0F87F80130E020E02C9633
:100B0000EEACFFAC2C972E153F050CF43FC022969F
:100B10009FAF8EAF22971A8B098B312C212C812C01
:100B2000912C540183948D829E82AF82B886269642
:100B30008EAC9FAC2697281439047CF129969FAC83
:100B400029972A96AFAC2A9730E020E041E050E0A8
:100B500060E070E09A10F5C1C55BDF4F0FB6F89406
:100B6000DEBF0FBECDBFDF91CF911F910F91FF90E0
:100B7000EF90DF90CF90BF90AF909F908F907F903D
:100B80006F905F904F903F902F9008951192119227
:100B9000119211922F5F3F4FB2CF2296EEADFFAD73
:100BA000229781919191A191B1912296FFAFEEAFE1
:100BB00022978F88988CA98CBA8CB7FE23C04D8160
:100BC0005E816F81788541505109610971095A012F
:100BD0006B01A81AB90ACA0ADB0AD601C50121E0CD
:100BE000CD80DE80EF80F8848C159D05AE05BF05B5
:100BF00008F020E0822E912CB12CA12C8D829E82B7
:100C0000AF82B8865D01CC24DD24A8A2B9A2CAA215
:100C1000DBA29C01AD01442755272CA33DA34EA385
:100C20005FA32C96EEADFFAD2C97E219F3098D88EA
:100C30009E888E169F060CF4F4012896AEACBFACCD
:100C400028972496BFAEAEAE2497C988DA88DC8A8E
:100C5000CB8A1E861D86812C912C54018394898613
:100C60009A86AB86BC86812C912C5401CD84DE847F
:100C7000CE16DF0604F1F7FF02C0F0E0E0E0E20D7F
:100C8000F31D2C96EEACFFAC2C97EE15FF0554F43B
:100C9000EE0FFF1FEE0FFF1FE00FF11F808291820A
:100CA000A282B3822FEF221A320AE989FA89349696
:100CB000FA8BE98B3CCF2496AEADBFAD2497CD9097
:100CC000DD90ED90FD902496BFAFAEAF24972B8DB5
:100CD0003C8D4D8D5E8D57FF22C089859A85AB85F1
:100CE000BC850197A109B109AC01BD014C195D0991
:100CF0006E097F096A017B0181E029853A854B8570
:100D00005C85C216D306E406F50608F080E0482F9D
:100D100050E070E060E049875A876B877C87B701B5
:100D20008827992768A779A78AA79BA7EE24FF247D
:100D300028A139A14AA15BA1C701B6010E94763959
:100D40002B013C012CA13DA14EA15FA168A579A575
:100D50008AA59BA50E9476396CA77DA78EA79FA721
:100D6000AB89BC894D915D916D917D91BC8BAB8BB5
:100D7000DB01CA01880D991DAA1DBB1D89839A83B9
:100D8000AB83BC8391E09F8F29813A814B815C8149
:100D9000281539054A055B0508F01F8E2CA13DA1D9
:100DA0004EA15FA1C701B6010E9476396B017C019B
:100DB00089809A80AB80BC808C0C9D1CAE1CBF1CB3
:100DC00089829A82AB82BC8252019924882488AAA3
:100DD00099AAAAAABBAA29813A814B815C81280DD4
:100DE000391D4A1D5B1D2CAB3DAB4EAB5FAB8CA4DC
:100DF0009DA4AEA4BFA454019924882488AE99AEC2
:100E0000AAAEBBAE280D391D4A1D5B1D2CAF3DAFF0
:100E10004EAF5FAFAB89BC8914972D933D934D9333
:100E20005C93139728A139A14AA15BA168A579A574
:100E30008AA59BA50E9476399F8C690D711D811D25
:100E4000911D230166247724460E571E681E791EC5
:100E50002CA53DA54EA55FA54A01AA24BB24840C60
:100E6000951CA61CB71C81E090E0A0E0B0E0498191
:100E70005A816B817C814C155D056E057F0518F0EC
:100E800080E090E0DC01880D991DAA1DBB1D41E0AA
:100E900050E060E070E088A899A8AAA8BBA8CCA8F8
:100EA000DDA8EEA8FFA8C814D904EA04FB0418F0D2
:100EB00040E050E0BA01840F951FA61FB71F812C98
:100EC000912C54018394C8ACD9ACEAACFBAC2CADEA
:100ED0003DAD4EAD5FAD2C153D054E055F0518F0DF
:100EE000812C912C5401880E991EAA1EBB1E4D8583
:100EF0005E854F5F5F4F5E874D87B8CEEF85F8897F
:100F0000C190D190E190F190F88BEF87DB01CA019D
:100F10000197A109B1098C199D09AE09BF09349740
:100F200080839183A283B383E1E084179507A607AA
:100F3000B70708F0E0E04E2F50E070E060E02F5F70
:100F40003F4F2C968EAC9FAC2C9728153905B4F2E8
:100F500003CE2F923F924F925F926F927F928F9229
:100F60009F92AF92BF92CF92DF92EF92FF920F9338
:100F70001F93CF93DF9300D000D0CDB7DEB78B01A6
:100F80005C834B83FB01E150F04CEE0FFF1FEE0F33
:100F9000FF1FE80FF91F408151816281738177FD46
:100FA00027C04C01B12CA12CC12CD12C7601A0164C
:100FB000B10664F5F40161917191819191914F01B4
:100FC0000E94A1334B815C810E94AC349B01AC0137
:100FD000C701B6010E948D326B017C012B813C81DF
:100FE000205E3F4F3C832B833FEFA31AB30ADFCF32
:100FF0009A838983312C212C81E090E0A0E0B0E03D
:10100000C12CD12C760120163106CCF0C701B601D7
:101010000F900F900F900F90DF91CF911F910F9134
:10102000FF90EF90DF90CF90BF90AF909F908F9008
:101030007F906F905F904F903F902F900895E9813F
:10104000FA814190519061907190FA83E9834094C4
:1010500050946094709453014201880E991EAA1E08
:10106000BB1EC501B4010E94A1334B815C810E946B
:10107000AC349B01AC01C701B6010E948C326B01FC
:101080007C0181E084149504A604B70408F080E094
:1010900090E0B0E0A0E02B813C81205E3F4F3C839C
:1010A0002B833FEF231A330AAECFFC0191E08091EE
:1010B000C402811190E091830895CF92DF92EF9264
:1010C000FF926B017C019F7720E030E040E859E51A
:1010D0000E94043387FF2BC020E030E040E05FE354
:1010E000C701B6010E94A63487FD0EC020E030E0A3
:1010F00040E05FE3C701B6010E948D32FF90EF90A0
:10110000DF90CF900C94DE3320E030E040E05FEBE6
:10111000C701B6010E94A634181684F420E030E01E
:10112000A901C701B6010E94E0346B017C01C7012F
:10113000B601FF90EF90DF90CF90089520E030E06F
:1011400040E05FE3C701B6010E948C32FF90EF9050
:10115000DF90CF900C94F1328091C4028F5F823087
:1011600068F58093C4028091B3029091B402A0917B
:10117000B502B091B6020196A11DB11D8093B302D4
:101180009093B402A093B502B093B602892B8A2B38
:101190008B2B99F48091B7029091B802A091B9027B
:1011A000B091BA020196A11DB11D8093B702909330
:1011B000B802A093B902B093BA0208951092C40283
:1011C000D2CF4F925F926F927F928F929F92AF9207
:1011D000BF92CF92DF92EF92FF920F931F93CF9324
:1011E000DF93CDB7DEB76E970FB6F894DEBF0FBEB4
:1011F000CDBF6EE070E080E090E00E949C00909394
:1012000077068093760643E050E0BE016F5E7F4F25
:101210000E948B002091580130915901A989BA8907
:101220000E94C1390E94A13320E030E040E054E345
:101230000E94E034209128013091290140912A0137
:1012400050912B010E948D324B015C018092D1069E
:101250009092D206A092D306B092D40620912C018F
:1012600030912D0140912E0150912F010E94E034C8
:101270006B8F7C8F8D8F9E8F2091A0063091A10661
:101280004091A2065091A3060E948C322B013C0192
:10129000809133068111109233061092E906109264
:1012A000EA061092EB061092EC061092D506109208
:1012B000D6061092D7061092D80620915C0630917F
:1012C0005D0640915E0650915F06C301B2010E9427
:1012D0008D326F8B788F898F9A8F6093E50670932C
:1012E000E6068093E7069093E806C0906C06D090DF
:1012F0006D06E0906E06F0906F0600916806109102
:10130000690620916A0630916B060B8B1C8B2D8B26
:101310003E8BC901B8010E9470338B010150110945
:1013200020E030E0A901C701B6010E940433000F9C
:10133000111F000F111F811115C02F89388D498D84
:101340005A8DF801E05AF94F608171818281938151
:101350000E948D326093E9067093EA068093EB0653
:101360009093EC06005A194FD8014D925D926D9200
:101370007C92139720E030E040E050E46B897C8958
:101380008D899E890E94043302E010E0811124C0FF
:101390001092E5061092E6061092E7061092E80613
:1013A000209164063091650640916606509167066B
:1013B000609160067091610680916206909163066B
:1013C0000E948D326093600670936106809362067E
:1013D0009093630601E010E020E030E0A901C7012E
:1013E000B6010E940433811116C020E030E040E4D1
:1013F00050E46091E9067091EA068091EB069091C5
:10140000EC060E9408336093D5067093D60680934D
:10141000D7069093D8068091E5069091E606A091B4
:10142000E706B091E80680935C0690935D06A09372
:101430005E06B0935F06B801110F880B990B0E94EE
:10144000A333609368067093690680936A0690934D
:101450006B0620E030E0A901C701B6010E94A63466
:1014600018160CF07DC020E030E040E85FE3C701D3
:10147000B6010E948C3260936C0670936D06809367
:101480006E0690936F0620913001309131014091AA
:10149000320150913301C501B4010E948C324B01DD
:1014A0005C012091000130910101409102015091B5
:1014B00003010E94E0342091A8063091A9064091D2
:1014C000AA065091AB060E948C32209118013091EF
:1014D000190140911A0150911B010E94E0346B8B5D
:1014E0007C8B8D8B9E8B20911C0130911D01409136
:1014F0001E0150911F01C501B4010E94E0342091EA
:10150000A4063091A5064091A6065091A7060E9418
:101510008D322B893C894D895E890E948D326B0109
:101520007C01C092D906D092DA06E092DB06F092F6
:10153000DC064090200150902101609022017090C3
:101540002301A30192010E94A634181694F440923C
:10155000D9065092DA066092DB067092DC0619C05A
:1015600010926C0610926D0610926E0610926F0625
:101570008ACF409014015090150160901601709030
:101580001701A3019201C701B6010E94043387FD30
:10159000DECFC501B4019F776093DD067093DE0650
:1015A0008093DF069093E00620913C0130913D014D
:1015B00040913E0150913F010E94A63418160CF054
:1015C00005C18091240190912501A0912601B0913F
:1015D00027018093E9069093EA06A093EB06B09367
:1015E000EC068FEF9FEFDC018093BA069093BB0669
:1015F000A093BC06B093BD06C090E906D090EA0661
:10160000E090EB06F090EC0620E030E0A901C70185
:10161000B6010E94A63418160CF0E1C01092E5063F
:101620001092E6061092E7061092E80665E070E078
:1016300080E090E00E9430018C01909387068093B7
:10164000860620E030E04FE753E46091E9067091B0
:10165000EA068091EB069091EC060E94043318167E
:1016600064F480E090E0AFE7B3E48093E906909300
:10167000EA06A093EB06B093EC064091E906509180
:10168000EA066091EB067091EC06C8010E940E011B
:1016900066E070E080E090E00E9430018C01909361
:1016A0007F0680937E0620E030E04FE753E46091B0
:1016B000E5067091E6068091E7069091E8060E94A3
:1016C0000433181664F480E090E0AFE7B3E480934D
:1016D000E5069093E606A093E706B093E8064091EE
:1016E000E5065091E6066091E7067091E806C801AC
:1016F0000E940E0180918E06811110928E066DEE71
:1017000076E080918F060E94530380918F060E949D
:1017100065038FEF9FEFDC018093BE069093BF06B9
:10172000A093C006B093C1062091CB068091ED0630
:101730009091EE06A091EF06B091F00621110BC03A
:101740008093C2069093C306A093C406B093C506C7
:1017500021E02093CB064091C2065091C3066091D0
:10176000C4067091C5068C019D01B7FD4DC00F5F89
:101770001F4F2F4F3F4740175107620773070CF465
:101780004AC08C019D01041B150B260B370BB901B8
:10179000A80177FF0DC041155105610510E87107DB
:1017A000D1F170956095509541955F4F6F4F7F4F88
:1017B000493C51056105710574F58093C20690930B
:1017C000C306A093C406B093C50625C08091D90670
:1017D0009091DA06A091DB06B091DC06FACEF7FA1A
:1017E000F094F7F8F094C092E506D092E606E09205
:1017F000E706F092E8061092E9061092EA061092C7
:10180000EB061092EC0612CF305804171507260786
:1018100037070CF0B6CF8091540190915501A091FB
:101820005601B09157018D879E87AF87B88B809105
:10183000C2069091C306A091C406B091C5068987DF
:101840009A87AB87BC8722E0E22EF12C8E010F5FD6
:101850001F4F21E030E0AE01475F5F4F61E070E075
:10186000CE010D96E2D88091EC0581111092EC0525
:101870001092E9061092EA061092EB061092EC061E
:101880001092E1061092E2061092E3061092E4062E
:1018900050E040E062E070E0CE0101965ADB20E0CB
:1018A00030E040E051E30E94E03420911506309191
:1018B000160640911706509118060E948D326F8BC4
:1018C000788F898F9A8F6093E5067093E6068093F0
:1018D000E7069093E806C0902906D0902A06E0908B
:1018E0002B06F0902C06409025065090260660901E
:1018F000270670902806C301B2010E9470338B0145
:101900000150110920E030E0A901C701B6010E9491
:101910000433000F111F000F111F811115C02F89F3
:10192000388D498D5A8DF801EA51FA4F63A974A98F
:1019300085A996A90E948D326093E9067093EA0604
:101940008093EB069093EC0650E040E062E070E09C
:10195000CE010196FEDA0A511A4F20E030E040E055
:1019600051E30E94E034D801D3966D937D938D931B
:101970009C93D69720E030E040E450E4C301B201EC
:101980000E940433882309F479C120E030E040E864
:101990005FE3C301B2010E948D322B013C0120E0C4
:1019A00030E0A901C701B6010E940433811116C0BD
:1019B00020E030E040E85EE36091E9067091EA06DD
:1019C0008091EB069091EC060E94E0346093E10672
:1019D0007093E2068093E3069093E4068091E50617
:1019E0009091E606A091E706B091E806809315066F
:1019F00090931606A0931706B093180640922506FA
:101A000050922606609227067092280620E030E069
:101A1000A901C701B6010E94A63418160CF06BC1CB
:101A200020E030E040E85FE3C701B6010E948C325D
:101A30006093290670932A0680932B0690932C06B8
:101A40006091500170915101809152019091530128
:101A500034DB6B017C01C092E906D092EA06E09289
:101A6000EB06F092EC0620E030E040E853E40E9400
:101A700004336FEF87FF0EC020E030E0A901C701FB
:101A8000B6010E94A63460E087FD04C0C701B6011C
:101A90000E94753387E00E947D03C090E906D090D4
:101AA000EA06E090EB06F090EC0620E030E040E83B
:101AB00053E4C701B6010E9404336FEF87FF0EC0E5
:101AC00020E030E0A901C701B6010E94A63460E021
:101AD00087FD04C0C701B6010E94753388E00E94EB
:101AE0007D030B8D1C8D2D8D3E8D0093A0061093D4
:101AF000A1062093A2063093A30620910401309101
:101B000005014091060150910701C501B4010E94F1
:101B1000E0342091340130913501409136015091EB
:101B200037010E94E0342091A4063091A50640912F
:101B3000A6065091A7060E948D326093A40670936A
:101B4000A5068093A6069093A706209138013091B0
:101B5000390140913A0150913B016B897C898D8913
:101B60009E890E94E0342091A8063091A9064091F8
:101B7000AA065091AB060E948D326093A80670931E
:101B8000A9068093AA069093AB062091E1063091B6
:101B9000E2064091E3065091E406609140017091A5
:101BA000410180914201909143010E94E0342091D3
:101BB00044013091450140914601509147010E94F6
:101BC000E034209148013091490140914A015091FF
:101BD0004B010E94E0342091AC063091AD0640915B
:101BE000AE065091AF060E948D326093AC067093A2
:101BF000AD068093AE069093AF068091BB029091A4
:101C0000BC02A091BD02B091BE020196A11DB11D02
:101C10008093BB029093BC02A093BD02B093BE021E
:101C2000892B8A2B8B2B99F48091BF029091C00253
:101C3000A091C102B091C2020196A11DB11D809375
:101C4000BF029093C002A093C102B093C2026E96ED
:101C50000FB6F894DEBF0FBECDBFDF91CF911F91BD
:101C60000F91FF90EF90DF90CF90BF90AF909F903B
:101C70008F907F906F905F904F9008951092E5063F
:101C80001092E6061092E7061092E80620912106CF
:101C900030912206409123065091240660911D0642
:101CA00070911E0680911F06909120060E948D3231
:101CB0009B01AC0120931D0630931E0640931F0626
:101CC000509320066091190670911A0680911B06A8
:101CD00090911C060E948D326093190670931A062B
:101CE00080931B0690931C06412C512C80E8682E93
:101CF0008FE3782E54CE1092290610922A06109265
:101D00002B0610922C069CCE2F923F924F925F9200
:101D10006F927F928F929F92AF92BF92CF92DF92FB
:101D2000EF92FF920F931F93CF9384E090E054D3F0
:101D3000EDE9F2E08DE2DF011D928A95E9F780E09E
:101D400090E0A0E8BFEB80A791A7A2A7B3A78AEE77
:101D500095EEAAEAB7E184839583A683B7838FEDD6
:101D600097EBA7E1B8E280879187A287B3878DEFD1
:101D70009FE0A1E1B4E484879587A687B7878DEFBC
:101D80009FEEADE7BCEF808B918BA28BB38BA1E96B
:101D9000B2E0B383A283E9E7F2E01196FC93EE93FD
:101DA00088E891E091838083938382839583848301
:101DB0009783868391878087938782879587848797
:101DC00097878687918B808B938B828B958B848B67
:101DD000978B868B81EB92E015969C938E9314974C
:101DE00081EA92E013969C938E9312972FEF3FEF28
:101DF000A90118962D933D934D935C931B97E1EDAC
:101E0000F6E080E2DF011D928A95E9F786EEC82EA2
:101E100085E0D82E8BEEF60111928A95E9F7C1E0A4
:101E2000C093D006812C912C54018394809271062A
:101E300090927206A0927306B09274066EE070E003
:101E400080E090E00E94E000909377068093760611
:101E5000C093750610922D06C093CF0680922E0671
:101E600090922F06A0923006B092310680925406CE
:101E700090925506A0925606B09257068092580648
:101E800090925906A0925A06B0925B06ACE5B6E075
:101E90001D921D921D921C921397E0E6F6E01082AF
:101EA000118212821382A4E6B6E01D921D921D9249
:101EB0001C921397412C512C20E8622E2FE3722E96
:101EC000E8E6F6E04082518262827382ACE6B6E0D8
:101ED0001D921D921D921C921397C0933206109270
:101EE000330610928006C093CE06809281069092AF
:101EF0008206A0928306B0928406E12CF12C870121
:101F0000A801970165E070E080E090E00E94740114
:101F10009093870680938606C09385061092780674
:101F2000C093CD068092790690927A06A0927B06A5
:101F3000B0927C06A801970166E070E080E090E036
:101F40000E94740190937F0680937E06C0937D0665
:101F50003FE8232E36E0332EF101108210928806DE
:101F6000C093CC060DE816E0D8011C928092890639
:101F700090928A06A0928B06B0928C06A10163E033
:101F800082E00E948402F801C08310928E06D6017E
:101F90001C92C093C906F60181829282A382B48208
:101FA00097968D929D92AD92BC929A9783A694A695
:101FB000A5A6B6A69F961D921D921D921C92D29721
:101FC00013AA14AA15AA16AAD7961D921D921D929D
:101FD0001C92DA9713AE14AE15AE16AE05E216E0FB
:101FE000D8014D925D926D927C92139749E2E42E56
:101FF00046E0F42EF7011082118212821382D6017C
:102000001596CC93159716961C9210929806C0932D
:10201000C7068092990690929A06A0929B06B0926B
:102020009C0661E087E00E947503C0939D061092B4
:102030009006C093C6068092910690929206A09256
:102040009306B092940661E088E00E947503C09305
:102050009506E0E0F1E080859185A285B3858093C7
:10206000A0069093A106A093A206B093A306808930
:102070009189A289B3898093A4069093A506A09321
:10208000A606B093A70684859585A685B785809317
:10209000A8069093A906A093AA06B093AB068091D8
:1020A0004C0190914D01A0914E01B0914F01809350
:1020B000AC069093AD06A093AE06B093AF06109217
:1020C000CB062FEF3FEFA9012093BE063093BF064A
:1020D0004093C0065093C1062093BA063093BB06C6
:1020E0004093BC065093BD06ACE5B6E01D921D9230
:1020F0001D921C921397E0E6F6E010821182128284
:102100001382A4E6B6E01D921D921D921C921397B5
:10211000E8E6F6E04082518262827382ACE6B6E085
:102120001D921D921D921C921397F10180810E94B5
:102130006503D6019F961D921D921D921C92D29707
:10214000F60113AA14AA15AA16AAD7961D921D92D3
:102150001D921C92DA9713AE14AE15AE16AED801CE
:102160004D925D926D927C921397F70110821182CD
:1021700012821382CF911F910F91FF90EF90DF9009
:10218000CF90BF90AF909F908F907F906F905F9017
:102190004F903F902F9008958091700681111FC03D
:1021A00081E0809370068091710690917206A091F3
:1021B0007306B09174060197A105B10581F4809171
:1021C0007506882361F06EE070E080E090E00E9488
:1021D0009C0090937706809376060E94030180917D
:1021E0002D06811126C081E080932D0680912E0658
:1021F00090912F06A0913006B09131060197A1056C
:10220000B105B9F480913206882399F08FEF9FEFE2
:10221000DC018093540690935506A0935606B09324
:1022200057068093580690935906A0935A06B09388
:102230005B068091800681112EC081E0809380062C
:102240008091810690918206A0918306B0918406C8
:102250000197A105B105F9F4809185068823D9F08D
:1022600065E070E080E090E00E9430019093870686
:102270008093860640E050E0BA010E940E0165E0BE
:1022800070E080E090E00E94300190938706809398
:1022900086060E94BF018091780681112EC081E0E0
:1022A000809378068091790690917A06A0917B06BA
:1022B000B0917C060197A105B105F9F480917D06E6
:1022C0008823D9F066E070E080E090E00E94300161
:1022D00090937F0680937E0640E050E0BA010E9412
:1022E0000E0166E070E080E090E00E943001909383
:1022F0007F0680937E060E94BF018091880681112F
:1023000014C081E0809388068091890690918A06A6
:10231000A0918B06B0918C060197A105B10529F417
:1023200080918D0681110E9472038091E6058111D2
:1023300026C081E08093E6058091E7059091E8054D
:10234000A091E905B091EA050197A105B105B9F49D
:102350008091EB05882399F08FEF9FEFDC0180934C
:102360000D0690930E06A0930F06B093100680936F
:10237000110690931206A0931306B0931406809151
:102380009806811103C081E08093980680919006A1
:10239000811103C081E080939006089560E070E0B1
:1023A00080E89FE7089560E070E080E89FE7089587
:1023B00060E070E080E89FEF089560E070E080E802
:1023C0009FEF089560E070E080EC9FEF089560E07B
:1023D00070E080EC9FEF0895F5DF6093FD06709349
:1023E000FE068093FF0690930007F1DF6093F106ED
:1023F0007093F2068093F3069093F406CFDF609318
:10240000F9067093FA068093FB069093FC06CBDFE7
:102410006093F5067093F6068093F7069093F8069E
:10242000C7DF6093010770930207809303079093BF
:102430000407C3DF609305077093060780930707BF
:102440009093080708954F925F926F927F928F92B8
:102450009F92AF92BF92CF92DF92EF92FF920F9333
:102460001F93F8944090D6025090D7026090D80203
:102470007090D902C090CA02D090CB02E090CC02FA
:10248000F090CD02452B09F0A4C09B01AC012419AA
:1024900035094609570929013A010091D2021091E4
:1024A000D3022091D4023091D50248015901840C05
:1024B000951CA61CB71C80169106A206B306A0F4B4
:1024C0000091CE021091CF022091D0023091D10222
:1024D0000F5F1F4F2F4F3F4F0093CE021093CF023D
:1024E0002093D0023093D1028092D2029092D302F4
:1024F000A092D402B092D5020091CE021091CF02E8
:102500002091D0023091D1028092DA029092DB02C7
:10251000A092DC02B092DD020093DE021093DF0293
:102520002093E0023093E1026093D6027093D702C9
:102530008093D8029093D902A0E1B7E2A30192015F
:102540000E94D0396C0D7D1D8E1D9F1D6093CA02A7
:102550007093CB028093CC029093CD0200915A01EC
:1025600010915B0120915C0130915D010F3F1F4F85
:102570002F4F3F4FF1F000915A0110915B012091D4
:102580005C0130915D010E3F1F4F2F4F3F4F89F08F
:10259000C0905A01D0905B01E0905C01F0905D0129
:1025A00021E08C149D04AE04BF0408F420E02093C5
:1025B000EE0278941F910F91FF90EF90DF90CF90F3
:1025C000BF90AF909F908F907F906F905F904F9053
:1025D00008954B015C0184189508A608B708A3016B
:1025E0009201261B370B480B590B641575058605A0
:1025F0009705D0F082169306A406B50640F420E0B5
:1026000030E0A90181149104A104B10491F4A0E186
:10261000B7E20E94D039A7019601261B370B480B61
:10262000590BCA01B901C5CF82169306A406B50697
:1026300070F7A0E1B7E2A50194010E94D0396C0DBA
:102640007D1D8E1D9F1DB5CFFECECF93DF9300D095
:1026500000D0CDB7DEB71C821B821A82198210927D
:10266000EA021092EB021092EC021092ED0210922C
:10267000E2021092E3021092E4021092E50210923C
:10268000E6021092E7021092E8021092E902BE01FF
:102690006F5F7F4FCE0103960E94283069817A8157
:1026A0008B819C810E941E29009761F4BE016F5F9F
:1026B0007F4FCE0103960E94343069817A818B81ED
:1026C0009C8128D50F900F900F900F90DF91CF91A4
:1026D0000895FF920F931F93CF93DF93082F60E02D
:1026E00070E0CB010E942136FF24F3940E94092858
:1026F000EC01892B89F010E0CE3F8FEFD80769F00D
:10270000002361F160E070E0CB010E94213681E09E
:1027100090E0892B59F322C011E01FD5EC01892BE1
:1027200021F0CE3F8FEFD80759F711111EC011E0ED
:10273000229609F410E00E94BA27EC01892B21F0BF
:10274000CE3F8FEFD807E1F6111111C011E0CE3F57
:102750008FEFD80709F410E001110BC0CE01DF9113
:10276000CF911F910F91FF90089511E0E4CF11E0F8
:10277000F3CF60E070E0CB010E9421361F25812F4E
:1027800090E0C7CFCF93DF938091EE02882321F0B2
:1027900060E070E0CB0148D631D6D0E0C0E0892BB4
:1027A00071F06AE070E080E090E00E94213681E004
:1027B00090DF24D62196C03727E1D20781F723D6B0
:1027C0000E94722910920603109205031092FF02D4
:1027D0001092000310920103109202031092FB0268
:1027E0001092FC021092FD021092FE021092F7026B
:1027F0001092F8021092F9021092FA021092F3026B
:102800001092F4021092F5021092F6021092EF026A
:102810001092F0021092F1021092F2024EEF5FEF6E
:102820006FEF7FEF40935A0150935B0160935C011F
:1028300070935D011092EE02EAEDF2E028E0DF0114
:102840001D922A95E9F71092D6021092D7021092A3
:10285000D8021092D9021092D2021092D302109292
:10286000D4021092D5021092CE021092CF02109292
:10287000D0021092D1021092CA021092CB02109292
:10288000CC021092CD02DF91CF91089510921203E5
:102890001092130310921403109215031092110357
:1028A00080911A0390911B039093100380930F0360
:1028B00010920E0310920D031092090310920A0356
:1028C00010920B0310920C03109217031092160330
:1028D00090E080E00895CF92DF92EF92FF920F9305
:1028E0001F93CF938C01892B09F055C020911A03B7
:1028F00030911B0380910F039091100340911A03B4
:1029000050911B035093100340930F03281739076E
:1029100081F010920E0310920D0310920903109291
:102920000A0310920B0310920C03109217031092DB
:10293000160380911A0390911B03019761F5809112
:10294000160390911703892B21F480915E01811168
:1029500012C080911603909117030197E1F48091C2
:10296000090390910A03A0910B03B0910C03019706
:10297000A105B10581F41092090310920A03109287
:102980000B0310920C0310925E0182E090E0909392
:1029900017038093160380911A0390911B030197EC
:1029A00009F01CC180913003909131038017910789
:1029B00009F014C180912C0390912D03A0912E0356
:1029C000B0912F03009709F409C120912B03211125
:1029D0000DC040912C0350912D0360912E037091F6
:1029E0002F03452B462B472B09F4F8C020911603E3
:1029F000309117032230310509F0F0C020910D030A
:102A00002111ECC0FC01C080D180E280F380809174
:102A10001103882309F4D3C080911D0390911E03F4
:102A2000892B09F4FDC020911D0330911E0381E024
:102A30002230310509F080E020911D0330911E0302
:102A4000C1E02130310549F020911D0330911E0372
:102A5000C1E02230310509F0C0E0882309F456C0F6
:102A600020912703309128034091290350912A0394
:102A7000C701B6010E94A63487FD14C02091270328
:102A8000309128034091290350912A036091120349
:102A90007091130380911403909115030E940433E5
:102AA00087FD22C0209127033091280340912903FC
:102AB00050912A03C701B6010E94A634181634F5B6
:102AC00020912703309128034091290350912A0334
:102AD0006091120370911303809114039091150378
:102AE0000E940433811112C080911F039091200332
:102AF000A0912103B0912203892B8A2B8B2B19F4EF
:102B000081E080930E0381E080930D03CC2309F4D0
:102B100056C02091270330912803409129035091FA
:102B20002A03C701B6010E94043387FF14C0209115
:102B30002703309128034091290350912A03609183
:102B400012037091130380911403909115030E9456
:102B5000A63487FF22C0209127033091280340919B
:102B6000290350912A03C701B6010E940433811141
:102B700026C02091270330912803409129035091CA
:102B80002A036091120370911303809114039091B2
:102B900015030E94A634181694F480911F03909197
:102BA0002003A0912103B0912203892B8A2B8B2B28
:102BB00019F481E080930E0381E080930D0381E09E
:102BC00090910D03911180E080931103C092120344
:102BD000D0921303E0921403F0921503012B09F035
:102BE00067C18091160390911703892BD9F4109235
:102BF0001C0310920D0380915E01882379F082E01E
:102C000090E0909317038093160310925E01209139
:102C10001A0330911B0381E0232BE9F080E01BC0F5
:102C200081E00ACF10925E0180911C03882349F055
:102C300010920E03109217031092160310921C03A9
:102C4000EDCF80911A0390911B03892BE1F08091C5
:102C50000D0310920D0320911603309117032230BB
:102C6000310509F45EC088F42115310509F448C026
:102C70002130310509F4F3C010920E0310920D03B8
:102C800010921C0338C081E0E6CF2330310509F4EF
:102C9000B1C02430310581F74091090350910A03F6
:102CA00060910B0370910C0341155105610571058D
:102CB00061F0415051096109710940930903509332
:102CC0000A0360930B0370930C0340910903509126
:102CD0000A0360910B0370910C03452B462B472B85
:102CE000D9F420911803309119032130310509F0EE
:102CF00046C010920E0310921703109216030CC0D8
:102D000080915E01882341F082E090E09093170368
:102D10008093160310925E011092070380910E03B8
:102D2000CEC08823C9F380911F0390912003A09106
:102D30002103B0912203181619061A061B060CF07F
:102D40007DC080911A0390911B03019709F076C012
:102D500080911F0390912003A0912103B091220341
:102D60008093090390930A03A0930B03B0930C0381
:102D700083E090E09093170380931603CDCF4091AA
:102D80002303509124036091250370912603452B62
:102D9000462B472BA9F010920E03809123039091AC
:102DA0002403A0912503B0912603809309039093F7
:102DB0000A03A0930B03B0930C0381E090E0DACFF9
:102DC000882399F080915F0190916001A091610149
:102DD000B09162018093090390930A03A0930B03BF
:102DE000B0930C0384E090E0C5CF10920E0382E014
:102DF00090E0C0CF8091090390910A03A0910B034A
:102E0000B0910C030097A105B10559F00197A109F4
:102E1000B1098093090390930A03A0930B03B09325
:102E20000C038091090390910A03A0910B03B091C8
:102E30000C03892B8A2B8B2B09F06ECF80915F01BD
:102E400090916001A0916101B0916201892B8A2B60
:102E50008B2B09F44ECF81E080930E03B3CF4091CA
:102E6000090350910A0360910B0370910C03411503
:102E700051056105710561F0415051096109710900
:102E80004093090350930A0360930B0370930C0360
:102E90004091090350910A0360910B0370910C0358
:102EA000452B462B472B09F037CF8111C7CF9FCF3A
:102EB00080910703882309F431CF80910803CF91D3
:102EC0001F910F91FF90EF90DF90CF900895109297
:102ED0001203109213031092140310921503109210
:102EE0001103109217031092160310921003109200
:102EF0000F03109231031092300310920E031092C0
:102F00000D031092090310920A0310920B03109202
:102F10000C03109208031092070310922C031092D6
:102F20002D0310922E0310922F0310922B03109258
:102F30002703109228031092290310922A0388EE87
:102F400093E0A0E0B0E080935F0190936001A093D4
:102F50006101B09362011092230310922403109236
:102F600025031092260310921F0310922003109243
:102F700021031092220310921E0310921D0381E080
:102F800080935E0110921C0310921B0310921A038F
:102F9000109219031092180390E080E00895809138
:102FA0001A0390911B03892BE1F480915E01882321
:102FB00051F080911C03811106C081E080930803C9
:102FC00080930703089580911C03882341F080912A
:102FD0005E01811104C01092080381E0F1CF1092CC
:102FE0000703089582E090E0FA01918380838FEFD8
:102FF0009FEF0895CF93DF93EA01009711F00E94AD
:103000008F2A1982188290E080E0DF91CF91089595
:10301000DB01009719F48FEF8C9308952EEF2C931A
:1030200040968031910508F036C0FC01E65EF74E0F
:103030000C94BB39491847184518431841183F18D4
:103040003B183D1839183718351832182E182A1819
:1030500030184B1880E311968C93089589E2FBCFCA
:1030600082E2F9CF11961C92089583E2F4CF81E2B7
:10307000F2CF81E1F0CF87E2EECF8AE2ECCF80E1C0
:10308000EACF84E2E8CF88E2E6CF86E2E4CF81E3CC
:10309000E2CF83E3E0CF80E2DECF80913E039091E8
:1030A0003F03089590933F0380933E0308958091DA
:1030B0003D03089590913D03892B80933D0308952E
:1030C000982F909580913D03892380933D03089527
:1030D00080913C03089580913A0390913B030895B9
:1030E0006115710559F0FB0130E020E070E060E00F
:1030F0002417350719F06115710511F0CB010895FA
:10310000A081B181A817B90709F4BF012F5F3F4F14
:103110003696EECF8091400381111CC062D268D2F6
:1031200090933303809332030E9494220E94A6223C
:1031300090933703809336030E9424270E942B2705
:10314000909335038093340381E08093400390E0B3
:1031500080E0089584EF9FEF08958F929F92AF9241
:10316000BF92CF92DF92EF92FF920F931F93CF9374
:10317000DF93CDB7DEB72A970FB6F894DEBF0FBE48
:10318000CDBF1A86198618861F821E821D821C8258
:103190001B821A8219828091400307EF1FEF882358
:1031A00009F49CC08E010D5F1F4F9E012B5F3F4FA6
:1031B000AE01495F5F4FBE01675F7F4F90E080E0E7
:1031C0000E94A4288C01009721F00596029708F030
:1031D000DBC029853A852115310509F402C1ED804E
:1031E000FE804B815C81B701640F751F8F819885CC
:1031F0008617970708F4F5C0E20EF31ED7019C91DD
:10320000903C09F07FC04230510508F47BC0119614
:103210008C9140913E0350913F03452B09F49CC093
:10322000913F08F071C02CE1290F2D3008F48BC0BC
:103230002DE2290F203108F489C0903C21F48150FF
:10324000823008F483C088E3890F8B3008F481C092
:1032500098E0C92E98E1D92EE2EFF7E16D817E81E9
:10326000AE014F5F5F4F89859A8509955C01C11456
:10327000D104A1F189809A808114910479F18B8124
:103280009C818815990508F487C010E000E04B8107
:103290005C8170E060E0C7010E94E339011511050F
:1032A000E9F449815A8169857A858D819E81680F0B
:1032B000791FC501F6010995E980FA800D811E810B
:1032C0002F81388549855A856FEF7FEF81E090E047
:1032D0000E9440288C01892B09F056C0C8012A960B
:1032E0000FB6F894DEBF0FBECDBFDF91CF911F9117
:1032F0000F91FF90EF90DF90CF90BF90AF909F9095
:103300008F90089580E085CF30E020E0220F331FBA
:10331000F901EE5CFC4F0190F081E02D309709F44B
:1033200097CF892F90E00995009709F491CFDC01A0
:103330001296ED91FC9113971496CD90DC903097F6
:1033400009F08CCF1FC021E030E0E0CF22E030E078
:10335000DDCF23E030E0DACFD12CC12CEAEFF7E16A
:103360009F3F09F07BCFE0913203F0913303309718
:1033700021F4C90104EF1FEF0CC08FEF90E0099515
:103380000097A9F604EF1FEF89859A85009709F445
:10339000A5CF0E948F2AA2CF0E946D298C0189851A
:1033A0009A850E948F2A70E060E0C4010E9406297D
:1033B00098878F830E943D289E838D836F817885B7
:1033C0006115710559F0C8010E941B2C9A878987E5
:1033D00006EF1FEF892B09F058CF59CF08EF1FEFE9
:1033E00056CF08EF1FEFD0CF20914003222319F0D2
:1033F00020E00C94AB2287EF9FEF089580913E036D
:1034000090913F0308950E9430270E948A26F5D0AC
:10341000E2E3F3E088E0DF011D928A95E9F710927C
:10342000400390E080E008950C94E72421E040E020
:1034300050E0BA010C94AB2286E090E0FA0191834F
:10344000808390E080E0089547E050E06BE871E011
:1034500047CEDF92EF92FF920F931F93CF93DF93AC
:103460008A01EC01C60FD71FE0904403F09045039A
:10347000D9800E945529D816190678F082E090E08C
:10348000F801918380838EEF9FEFDF91CF911F91A1
:103490000F91FF90EF90DF900895EF2841F482E0C4
:1034A00090E0F8019183808384EF9FEFEECF8981D4
:1034B0008093430390E00196F8019183808390E02C
:1034C00080E0E3CFCF93DF93EA010E949825882321
:1034D00021F00E9462290E94992582E090E0998360
:1034E00088838BEF9FEFDF91CF910895CF93DF9388
:1034F000EB0186E0FB0111928A95E9F78FEF888353
:10350000D6DD8983E5DD8A83E6DD9D838C83DF91CB
:10351000CF910895CF93DF93EA010E949B258111FB
:1035200009C082E090E09983888385EF9FEFDF9167
:10353000CF91089590E080E0B5DD81E090E099833F
:10354000888390E080E0F3CF0F931F93CF93DF93B6
:10355000EA018C01060F171F0E949B2581110BC0E9
:1035600082E090E09983888385EF9FEFDF91CF9190
:103570001F910F910895F8018181823038F082E027
:1035800090E0998388838EEF9FEFF0CF81E090E009
:1035900089DD88E090E09983888390E080E0E6CF41
:1035A000CF93DF930097D1F4EB01FB01329686E0D5
:1035B000DF011D928A95E9F78FEF888385E0898383
:1035C0001A820E9455298B830E9454299D838C83E3
:1035D00081E08E838F83DF91CF910895DF91CF912A
:1035E00017CD84E29AE190934203809341030895BA
:1035F00080914103909142030895109242031092EA
:103600004103089580914403909145030895411129
:1036100005C0611571058105910561F06093440352
:103620007093450380934603909347034093480368
:1036300081E0089580E00895FF920F931F93CF9348
:10364000DF938A01EC01C60FD71FF9800E9455292C
:10365000F816190668F082E090E0F8019183808303
:103660008EEF9FEFDF91CF911F910F91FF90089503
:103670006C817D818E819F814B81C9DF811108C062
:1036800082E090E0F8019183808384EF9FEFEACF9E
:1036900089818093430390E00196F80191838083B0
:1036A00090E080E0DFCFCF93DF93EA01FC01E60FEB
:1036B000F71F64817581868197814381A8DF81111D
:1036C00009C082E090E09983888384EF9FEFDF91C7
:1036D000CF91089581E090E09983888390E080E025
:1036E000F6CFE4E4F3E04081518162817381480FB9
:1036F000511D611D711D4083518362837383089541
:10370000CF93C09143034C2F50E0609144037091DC
:10371000450301960E94DA398C2FE3DF10924303B0
:10372000CF910895009799F48091440390914503B7
:103730002FEFFB012083892B59F02091430330E0C8
:103740002F5F3F4F2417350719F4CB01D9CF60CC39
:103750000895009799F480914403909145032FEFC9
:10376000FB012083892B59F02091430330E02F5F28
:103770003F4F2417350719F4CB01C2CF49CC089528
:1037800023E1AC01249FC001259F900D1124E091FD
:103790004D03F0914E03E80FF91F2381348122502D
:1037A000310981E02230310508F080E008950F935F
:1037B0001F93CF93DF9300914F0310915003D0E0FC
:1037C000C0E080E00C171D0749F491E0811190E002
:1037D000892FDF91CF911F910F9108958111F5CF1E
:1037E000CE01CEDF2196EECFA0914D03B0914E03D6
:1037F000109729F120914F033091500382179307BE
:10380000F0F453E1589F9001599F300D1124A20FFD
:10381000B31FED91FC911197309789F012968C911E
:10382000681768F48DE0689FE00DF11D1124808118
:103830009181892B21F081E09281491708F080E085
:1038400008959C0143E1429FC001439F900D1124C4
:10385000E0914D03F0914E03E80FF91F838582300C
:1038600091F481E090E0658176814091630150910F
:1038700064016417750711F490E080E0892B19F05A
:1038800081E0232B09F080E00895FC01A081B18143
:103890008DE0689FA00DB11D112413964D915C9190
:1038A00085859685489F9001499F300D589F300D22
:1038B0001124C9010196611103C0478144FD04969A
:1038C0000895EF92FF920F931F93CF93DF93EA0136
:1038D000FC01E60FF71F02811381E480F5804F2D74
:1038E0006E2DC80181DF81110DC082E090E09983C7
:1038F00088838EEF9FEFDF91CF911F910F91FF9003
:10390000EF900895C8013CDF882339F082E090E011
:103910009983888388EF9FEFEECF10936A0100931D
:103920006901E0926B01F0926C0181E090E0998373
:10393000888390E080E0DFCFCF92DF92EF92FF921A
:103940000F931F93CF93DF937A01EC01C60FD71F1C
:10395000C0906901D0906A0100916B0110916C01D7
:10396000412F602FC60140DF811110C082E090E03E
:10397000F701918380838AEF9FEFDF91CF911F91B1
:103980000F91FF90EF90DF90CF900895C601F8DE81
:10399000882341F082E090E0F7019183808388EFF3
:1039A0009FEFEBCF4C815D816E817F819A81898110
:1039B0008F3F41F082E090E0F701918380838EEFAA
:1039C0009FEFDBCFE3E1EC9D9001ED9D300D1124E5
:1039D000E0914D03F0914E03E20FF31F0190F0814F
:1039E000E02D2DE0029FE00DF11D11240190F081EA
:1039F000E02D27E0129FE00DF11D112480839183BB
:103A00008B81828343835483658376831F5F109306
:103A10006C0181E090E0F7019183808390E080E089
:103A2000ACCFEF92FF920F931F93CF93DF937A0166
:103A30008C01060F171FC0914D03D0914E032097A4
:103A400081F021E030E0F8018281938140914F03C1
:103A5000509150038417950710F030E020E0232B9D
:103A600071F482E090E0F701918380838EEF9FEF05
:103A7000DF91CF911F910F91FF90EF90089543E157
:103A8000489F9001499F300D1124C20FD31F78DE4B
:103A9000882341F082E090E0F7019183808388EFF2
:103AA0009FEFE6CFF8012481358120383105C8F633
:103AB00087818111D6CF4181842F90E08F7E00973E
:103AC00041F082E090E0F7019183808386EF9FEFE1
:103AD000CFCF4F833E832D832681288719862230BE
:103AE00010F421E0288721E030E0F70131832083C2
:103AF000BFCF88E090E0FA019183808390E080E07E
:103B00000895FB018FEF808381E181838FEF9FEF29
:103B10009383828380E890E0958384831682178262
:103B20000895FB018FEF808391E0918382839383DB
:103B3000848384E3858381E090E09783868308957E
:103B400082E090E0FA019183808380EF9FEF0895F7
:103B5000DF92EF92FF920F931F93CF93DF93EA01CF
:103B6000FC01E60FF71F8181813071F082E090E067
:103B7000998388838FEF9FEFDF91CF911F910F91F2
:103B8000FF90EF90DF90089582819381D48025810A
:103B9000E680F78000914D0310914E030115110549
:103BA00039F482E090E0998388838CEF9FEFE4CF33
:103BB00040914F03509150038417950738F082E0ED
:103BC00090E0998388838EEF9FEFD6CF892B39F0D1
:103BD00082E090E09983888386EF9FEFCDCF8D2D93
:103BE0008D7FB1F72130A1F781E0D11006C091E0BF
:103BF000E916F10431F080E004C0E2E0EE16F104D1
:103C0000D0F3882329F390E080E0BADD882339F0EF
:103C100082E090E09983888388EF9FEFADCFF80131
:103C2000D38681E08487F686E586108A178681E050
:103C300090E09983888390E080E09ECF4DE050E053
:103C400065EB71E04DCA8F929F92BF92CF92DF9247
:103C5000EF92FF920F931F93CF93DF93EA01FC0142
:103C6000E60FF71F828193810481B580E0914D03B7
:103C7000F0914E03309791F482E090E0998388832D
:103C80008CEF9FEFDF91CF911F910F91FF90EF90FD
:103C9000DF90CF90BF909F908F90089520914F0319
:103CA000309150038217930738F082E090E09983B7
:103CB00088838EEF9FEFE6CF23E1289F6001299F45
:103CC000D00C1124EC0DFD1DE080F180E114F10415
:103CD00099F28281081748F78DE0089F800111242E
:103CE000E00EF11EF70180819181892B29F6BB201E
:103CF000E1F2F7E0BF9E40011124C4010E94562A60
:103D0000F70191838083E0914D03F0914E03EC0D18
:103D1000FD1D0190F081E02DE00FF11F8081918168
:103D2000009739F482E090E0998388838DEF9FEFCC
:103D3000A9CFA40170E060E00E94E33980914D03B7
:103D400090914E03C80ED91EF60180819181080F13
:103D5000191FF801B28281E090E09983888390E096
:103D600080E090CFAF92BF92CF92DF92FF920F93FD
:103D70001F93CF93DF93EA01FC01E60FF71F8281C7
:103D80009381F48000914D0310914E0301151105AC
:103D900081F482E090E0998388838CEF9FEFDF913C
:103DA000CF911F910F91FF90DF90CF90BF90AF9078
:103DB000089520914F03309150038217930738F0F4
:103DC00082E090E0998388838EEF9FEFE8CF2FEF1A
:103DD0002F0D2C3FA8F723E1289F6001299FD00CCD
:103DE00011240C0D1D1DF80180819181892B89F60C
:103DF000FDE0FF9E50011124C5010E94562AF801E2
:103E000091838083E0914D03F0914E03EC0DFD1DF5
:103E100080819181009739F482E090E099838883D2
:103E20008DEF9FEFBCCFA50170E060E00E94E33909
:103E3000E0914D03F0914E03EC0DFD1DF28281E007
:103E400090E09983888390E080E0A9CFCF92DF92C1
:103E5000EF92FF920F931F93CF93DF93860F971FDD
:103E6000FC010281138180914D0390914E03892BB7
:103E700081F082E090E0FA01918380838CEF9FEFE4
:103E8000DF91CF911F910F91FF90EF90DF90CF9036
:103E90000895C801B0E0A0E00197A109B1098F3FE2
:103EA0009F4FA105B10540F082E090E0FA019183B7
:103EB00080838EEF9FEFE4CF7A0183E1809F6001E2
:103EC000819FD00C1124C6010E94562AEC01009754
:103ED00041F482E090E0F701918380838DEF9FEFC2
:103EE000CFCFA60170E060E00E94E339D0934E038B
:103EF000C0934D031093500300934F0390E080E074
:103F00002FEF3FEF41E061E070E08017910741F44F
:103F100081E090E0F7019183808390E080E0B0CF72
:103F20003A8B298B1B864C877E876D87188A1F8664
:103F300001966396EACFEF92FF921F93CF93DF93A0
:103F4000EC0110E0F12CE12C6A811617A8F070E06A
:103F5000660F771FAE014F5E5F4FC7010E94BB2AFD
:103F6000009721F02FEF3FEF3A8B298BDF91CF9114
:103F70001F91FF90EF900895612FCE0186DC61E0E4
:103F800070E00E940629E816F90608F47C011F5F1C
:103F9000DBCFF89420914B0330914C0381E0211545
:103FA000310509F080E0232B09F0789408952F92D1
:103FB0003F924F925F926F927F928F929F92AF92B9
:103FC000BF92CF92DF92EF92FF920F931F93CF9306
:103FD000DF933C01660E771EF301828193814C01D1
:103FE000B12CA12CC0914D03D0914E03209769F0C4
:103FF00021E030E060914F037091500386179707DE
:1040000010F030E020E0232BD1F482E090E0FA01C0
:10401000918380838EEF9FEFDF91CF911F910F915E
:10402000FF90EF90DF90CF90BF90AF909F908F90D8
:104030007F906F905F904F903F902F900895809267
:104040006D0190926E01A0926F01B092700163E1D8
:10405000689F9001699F300D1124C20FD31FF30197
:104060008181833040F082E090E0FA019183808387
:1040700086EF9FEFD1CF2A012B813C81232BF1F4D6
:10408000288139819F8191FF2EC0232B09F46FC0B5
:10409000209152039A81422F490F5527551FBA018B
:1040A00041E050E06138710514F050E040E0452BEC
:1040B00009F45DC02A87920F909352038150823099
:1040C00008F481C066DF882309F4D8C0F301818138
:1040D000813009F48DC008F47BC0823009F4C6C079
:1040E00090E080E0ADC0232B09F441C02091510342
:1040F0009A81E22FE90FFF27FF1F41E050E0ED3FDB
:10410000F10514F050E040E0452B89F12A87920F29
:1041100090935103D3CFA081B181A20FB31F119609
:104120006C91060F111D0196295F3F4F841795076B
:1041300094F38D859E85089F1001099F300C189F70
:10414000300C1124C114D104D1F48F8184FF17C025
:104150000E945429F5E02F0E311C21E082159305B1
:1041600008F420E0A701435F5F4F21110EC082E0F9
:1041700090E0F2019183808387EF9FEF4DCF0E9403
:1041800054292FEF221A320AE8CF88819981E80E4C
:10419000F91EF70114830383FFEFCF1ADF0A7A01B8
:1041A0008A818C151D0409F00CF48CCFE881F9810B
:1041B000EE0DFF1D428150E030E020E010E000E015
:1041C00090E080E0B3CFF12CE12CD12CC12CE8CFD2
:1041D00081E090E09C838B83EADA882309F480CF26
:1041E00081E090E00E94521880E40E94601878CF2D
:1041F00089899A89019661F083E090E09C838B83A2
:1042000082E090E00E94521880E40E945A1868CF21
:104210008D819E8120916301309164018217930703
:10422000D1F46091670170916801AE014F5E5F4FFC
:1042300080916501909166010E94DA2B0097E1F26E
:10424000789422E030E0F20131832083892B99F0C9
:104250008DEF9FEFE1CE89288A288B2869F6029797
:1042600058F6CE0168DE188A1F86E8CF82E090E01B
:104270009C838B8335CF90E080E0CECE82E090E0CF
:10428000F2019183808385EF9FEFC6CE8F929F923C
:10429000AF92BF92CF92DF92EF92FF920F931F9354
:1042A000CF93DF93EA018C01060F171FF80181817C
:1042B000833098F082E090E09983888386EF9FEFC7
:1042C000DF91CF911F910F91FF90EF90DF90CF90F2
:1042D000BF90AF909F908F90089580914D039091E3
:1042E0004E03892B61F081E090E020914F033091E3
:1042F0005003232B11F490E080E0892B39F482E005
:1043000090E0998388838EEF9FEFDACF42DE882397
:1043100009F4E0C0F8018181813009F496C0E8F029
:10432000823099F420914F0330915003E0914D0376
:10433000F0914E0390E080E041E050E0281739070B
:1043400009F0BEC034DA811117C0789481E090E0A2
:104350009983888390E080E0B3CF20914F03309120
:104360005003E0914D03F0914E0390E080E041E076
:1043700050E02817390741F481E090E00E9452187C
:1043800080E40E946018E1CF63817481672B11F093
:104390005483438301967396ECCFE0914D03F091E3
:1043A0004E03E00FF11F2381348122303105D9F40F
:1043B000218932892F3F3F4FB1F4258136814091C9
:1043C0006301509164012417350761F5AF014F5E19
:1043D0005F4F6091670170916801809165019091D4
:1043E00066010E94DA2BEFEFCE1ADE0AEE0AFE0A11
:1043F0000D5E1F4F40914F035091500370E060E0FD
:10440000C416D506E606F70644F5009731F278940F
:10441000892B09F49BCF82E090E0998388838DEF0C
:104420009FEF4ECFC114D104E104F104E1F6223034
:104430003105C8F6CF017FDDE0914D03F0914E03C9
:10444000E00FF11F108A1786CECF10E000E090E059
:1044500080E0C12CD12C7601CDCF0097C1F610E0C1
:1044600000E0812C912C540183E0E82EF12C1AC03D
:10447000E0914D03F0914E03E00FF11F8381948191
:10448000029749F4F482E38282E090E00E9452189D
:1044900080E40E945A18FFEF8F1A9F0AAF0ABF0AE2
:1044A0000D5E1F4F80914F0390915003B0E0A0E04C
:1044B00088169906AA06BB06DCF290E080E0A7CF3A
:1044C000638174816230710511F4548343830196D2
:1044D000739634CF82E090E09983888385EF9FEFD5
:1044E000EFCE0097B9F48FEFFB01808320916D012F
:1044F00030916E0143E1429FC001439F900D112412
:10450000E0914D03F0914E03E80FF91F8285FB0106
:10451000818308950C94081888E090E0FA01918353
:10452000808390E080E0089510924C0310924B033A
:10453000EDE4F3E086E0DF011D928A95E9F78EE174
:104540009EE190934A038093490308958091490323
:1045500090914A0308952F923F924F925F926F92EB
:104560007F928F929F92AF92BF92CF92DF92EF9203
:10457000FF920F931F93CF93DF93CDB7DEB72F97A3
:104580000FB6F894DEBF0FBECDBFF894E0914B0399
:10459000F0914C033196F0934C03E0934B037894E5
:1045A00040904D0350904E034114510409F40CC245
:1045B000E0914F03F0915003EF2B09F405C22D87D2
:1045C00049875A876B877C8798878F831201B12C24
:1045D000A12C10E000E080914F0390915003A816A9
:1045E000B90618F40115110529F1F89480914B03CF
:1045F00090914C03019790934C0380934B037894D4
:10460000C8012F960FB6F894DEBF0FBECDBFDF9165
:10461000CF911F910F91FF90EF90DF90CF90BF90BF
:10462000AF909F908F907F906F905F904F903F9052
:104630002F9008957101E418F508D10117968C9117
:10464000179781FD54C013968D919C9114970397F1
:1046500009F04DC015968D919C91EF81F8858E17CC
:104660009F0709F044C0B50190E080E07ED48A83C2
:1046700020914D0330914E033D832C833D853323A0
:1046800009F44CC04C815D81452B09F49AC180919D
:104690004F0390915003A816B90608F092C1C501C6
:1046A000D0D88823E9F06C817D816E0D7F1D7D83DC
:1046B0006C83DB011F968D919C91892B89F0D12C05
:1046C000C12CF12CE12CAC81BD8112968C911297FA
:1046D0008E151F0409F094F450961C921E921F9799
:1046E0002A81222321F0B50190E080E040D43FEF01
:1046F000A31AB30A43E1240E311C6DCFAC81BD81F6
:10470000ED91FC91EC0DFD1D8581968108D7BFEFE1
:10471000EB1AFB0AEDE0CE0ED11CD5CFEC81FD816A
:10472000309709F44EC180914F0390915003A81621
:10473000B90608F046C1EE0DFF1DFF87EE87C501E3
:1047400080D88B83882339F1AE85BF851F968D91E4
:104750009C915097019621E01D964D915C91841794
:10476000950709F020E02E831982712C10E000E0FB
:10477000AE85BF8512968C91781608F45DC0EE85E3
:10478000FF85878590890196658576850E948539A4
:10479000908B8787A5CFB1E0BE83E6CF9924939411
:1047A0006BC084D6F6019683858382C0D601ED90D6
:1047B000FC90B7E06B9EE00CF11C1124F7016381C3
:1047C000748180818F3F61F121E030E002C0220FCF
:1047D000331F8A95E2F7C901092E000CAA0BBB0B07
:1047E000FB01408151816281738184239523A6233B
:1047F000B72321E0892B8A2B8B2B09F420E0D401ED
:104800002C93D70111968C91F60123853485820F64
:10481000932F911D880E991E1486138663949BC056
:10482000418150E0C4010E94DA39EBCF998206EF52
:104830001FEFC5C01982C3C0F981F111A0CFEDE00F
:104840007E9E70011124AE85BF85CD90DC90CE0C8C
:10485000DF1C13D49D838C83BB81BB2309F49ECFC3
:1048600081E0EE85FF8527853089232B09F080E0E4
:10487000982E882309F458C0672D8E859F8505D80A
:10488000D60118969C938E93179761E070E0BED482
:10489000EE85FF85218932892F3F320709F481CFC8
:1048A000BC01C901C8D7D60116969C938E93159763
:1048B000D60115968D919C911697009709F4B6CF65
:1048C000EC81FD818E0F9F1F1A969C938E931997F2
:1048D000AE85BF85ED91FC911197EE0EFF1EF7019D
:1048E00021853285148613861A968C91870DD901FD
:1048F0008D93711016C0EE85FF85878184FF11C0EE
:1049000049855A856B857C85F90141835283638390
:104910007483F701838594850496A80FB91F1486C4
:104920001386F701B287A187D60115968D919C91C8
:104930001697892B09F443C0EE85FF8525813681C2
:1049400080916301909164012817390779F01996D5
:104950008D909C90612CD60112968C9112976816BE
:1049600008F424CF1A969C928E921997BE81BB238D
:1049700009F460CF61E070E0F6018781908546D44C
:10498000D6011796ED90FC90189715964D915C9175
:10499000E1E0F0E0BA81BB2311F0F0E0E0E00C814F
:1049A0001D819C01B501882799278E1B9F0B68D319
:1049B0008C01892B21F0F60185819681B0D5739405
:1049C000D7CE0FEF1FEF8CCE10E000E00ECE2F926F
:1049D0003F924F925F926F927F928F929F92AF928F
:1049E000BF92CF92DF92EF92FF920F931F93CF93DC
:1049F000DF9380914D0390914E0310E000E0892BEE
:104A0000A9F0C7DA0AEF1FEF882381F020904F0347
:104A100030905003C0914D03D0914E03D12CC12C46
:104A200010E000E02C143D04A9F47894C801DF9153
:104A3000CF911F910F91FF90EF90DF90CF90BF909B
:104A4000AF909F908F907F906F905F904F903F902E
:104A50002F900895C6010E94211C882309F18B81A3
:104A60009C810397E9F48F859889892BC9F0B60159
:104A700090E080E07AD221E030E0882311F030E04D
:104A800020E044245524421A530AB12CA12C912C25
:104A9000812C8A818815190409F038F4188A1F8638
:104AA0004FEFC41AD40A6396BDCFE881F981EA0DAD
:104AB000FB1D85819681892BA1F161E070E08781E2
:104AC0009085A4D33C01D9D28C01E881F981EA0D0B
:104AD000FB1D8185928525813681200F311FAC0118
:104AE000421B530B9A0147815085421B530B70E0C8
:104AF00060E00E94E339E881F981EA0DFB1DE7805F
:104B0000F084458156819301B601C201B9D28C016E
:104B1000892B39F0E881F981EA0DFB1D85819681A9
:104B2000FED45FEF851A950A8DE0A80EB11CB1CFB7
:104B300030CA789408952F923F924F925F926F926D
:104B40007F929F92AF92BF92CF92DF92EF92FF92AD
:104B50000F931F93CF93DF9300D000D000D0CDB739
:104B6000DEB700914D0310914E03992493940115E3
:104B7000110509F43EC0A0904F03B090500309DA2C
:104B8000982E8823B1F110924E0310924D0310928B
:104B9000500310924F0310925103109252038FEF63
:104BA0009FEFDC0180936D0190936E01A0936F01E4
:104BB000B093700178947AD31E830D83C12CD12CCD
:104BC0007601C501B0E0A0E089839A83AB83BC8302
:104BD00022242A94322C89819A81AB81BC81C81607
:104BE000D906EA06FB06F4F0C80199D480E40E94D5
:104BF0006018892D26960FB6F894DEBF0FBECDBF84
:104C0000DF91CF911F910F91FF90EF90DF90CF90A8
:104C1000BF90AF909F907F906F905F904F903F902C
:104C20002F900895AD81BE8115968D919C91169718
:104C3000209163013091640182179307D1F451965A
:104C40008D919C91E6D5ED81FE8180819181B12C81
:104C5000A12C412C512C3201892B89F5BFEFCB1AA5
:104C6000DB0AEB0AFB0AED81FE817396FE83ED837E
:104C7000B2CFC114D104E104F10429F7029718F767
:104C8000ED81FE81818992898F3F980709F021D5B6
:104C9000AD81BE8152963C922E925197D4CF8A0D0F
:104CA0009B1DDC018D919C91009709F038D4BFEFDA
:104CB0004B1A5B0A6B0A7B0AEDE0AE0EB11CAD81AC
:104CC000BE818D919C91119712964C9150E070E0AD
:104CD00060E044165506660677060CF320D4BECF76
:104CE000CF93DF93EA0127DF811109C082E090E0D2
:104CF0009983888385EF9FEFDF91CF91089581E0BD
:104D000090E00E94521881E090E09983888390E0BF
:104D100080E0F2CF10DF10924A0310924903089509
:104D200042E050E063E072E00C947018FF920F9341
:104D30001F93CF93DF938A01EC01C60FD71FF98031
:104D4000B4D20897F816190671F068F082E090E086
:104D5000F801918380838EEF9FEFDF91CF911F91B8
:104D60000F91FF9008956C817D818E819F814B8191
:104D70000E94071B811108C082E090E0F801918336
:104D8000808384EF9FEFE9CFF9800E94021B4F2DB3
:104D900050E0BE01685F7F4F0E94DA3989810E942E
:104DA000711B81E090E0F8019183808390E080E0C6
:104DB000D4CFDF92EF92FF920F931F93CF93DF93A5
:104DC0008A01EC01C60FD71F0E94021B7C01D9800B
:104DD0006CD2DD2059F0029721E030E0D816190698
:104DE00019F010F030E020E0232B79F482E090E01D
:104DF000F801918380838EEF9FEFDF91CF911F9118
:104E00000F91FF90EF90DF900895EF2841F482E03A
:104E100090E0F8019183808384EF9FEFEECFF980DB
:104E20000E94021B4F2D50E0BE016E5F7F4F0E941B
:104E3000DA3989810E94711B81E090E0F801918349
:104E4000808390E080E0D9CF80E996E2909354038C
:104E500080935303089580915303909154030895D0
:104E60000895FC0111821082938382830895DB01EF
:104E70001D921C92DC011296ED91FC9113977183A7
:104E8000608313967C936E9312970895FC01808142
:104E90009181DB018D939C93A081B181109741F0AA
:104EA0008D919C9191838083892B11F4F383E2830C
:104EB0000895FC0180819181DB018D939C93892B66
:104EC00011F473836283718360830895FC011182FE
:104ED0001082938382830895CF93DF9300D0CDB760
:104EE000DEB71A821982F894BE016F5F7F4F8AE5A0
:104EF00093E0CCDF89819A81009709F010D38981F2
:104F00009A81892B89F7BE016F5F7F4F8EE593E011
:104F1000BDDF89819A81009709F001D389819A8147
:104F2000892B89F778940F900F90DF91CF91089596
:104F3000CF93DF9300D0CDB7DEB71A821982F894F1
:104F4000BE016F5F7F4F86E593E0A0DF89819A8184
:104F5000009709F0E4D289819A81892B89F77894A6
:104F60000F900F90DF91CF91089581E0089590E028
:104F700080E00895EF92FF920F931F93CF93DF93FA
:104F800000D0CDB7DEB71A8219828091550307EFA2
:104F90001FEF8823A1F1F894BE016F5F7F4F8EE56C
:104FA00093E074DF789489819A81EE24E394F12C64
:104FB000892B51F4F894BE016F5F7F4F8AE593E02F
:104FC00065DF7894F12CE12C89819A810EEF1FEF37
:104FD0000097A9F0FC014281538164E070E06CD637
:104FE0008C01892B61F0F89469817A81C701880F5F
:104FF000991F880F991F865A9C4F5BDF7894C801D0
:105000000F900F90DF91CF911F910F91FF90EF9034
:1050100008950F931F93CF93DF9300D000D0CDB7A7
:10502000DEB71C821B821A8219828091550307EF1A
:105030001FEF8823C1F0AE014D5F5F4F64E070E069
:10504000CE010196ACD68C01892B69F4E981FA81F5
:105050008B819C8193838283F89469817A8186E530
:1050600093E005DF7894C8010F900F900F900F9098
:10507000DF91CF911F910F910895B1D704960895B4
:105080008F929F92AF92BF92CF92DF92EF92FF9258
:105090000F931F93CF93DF9300D0CDB7DEB71A8263
:1050A0001982BC016F5F7F4F6330710598F0AA24AD
:1050B000AA94BA2CC5010F900F90DF91CF911F9148
:1050C0000F91FF90EF90DF90CF90BF90AF909F90A7
:1050D0008F9008954115510551F3480159018A01F6
:1050E0006C01CBDF8815990511F7E114F104F9F291
:1050F0008E0D9F1DA816B906D0F280915503882306
:10510000F1F0F894B501645071099701AE014F5F59
:105110005F4FC8010496D8D65C01892B71F4898150
:105120009A81F80193838283C601880F991F880FA3
:10513000991FB801865A9C4F9ADE7894BBCF87EFAF
:10514000A82EBB24BA94B6CFAF92BF92CF92DF9273
:10515000EF92FF920F931F93CF93DF9300D0CDB7C1
:10516000DEB71A821982892B09F047C061157105D3
:1051700009F443C04115510509F43FC0211531051B
:1051800009F43BC001151105C1F180915503882335
:10519000B9F179016A015B01F894BE016F5F7F4F3D
:1051A00086E593E073DE789489819A81009759F1BE
:1051B000DC0112966D917C91A80104969ED68C011B
:1051C000E981FA81D501ED93FC9382819381049664
:1051D000F6019183808351DFD7018D939C93C801A1
:1051E0000F900F90DF91CF911F910F91FF90EF9053
:1051F000DF90CF90BF90AF9008950FEF1FEFEFCFEC
:1052000007EF1FEFECCF0EEF1FEFE9CFCF93DF9348
:10521000EC01672B71F4ECD68C179D0760F0DFD69C
:105220002496C80FD91FDED68C0F9D1FDF91CF911A
:105230000895DBD6F1CF90E080E0F8CF0F931F9375
:10524000CF93DF932091550321112BC08B01EC01EB
:105250008AE593E006DE8EE593E003DE86E593E0E3
:1052600000DE97D00097C1F4C3D670E060E0CEDFD7
:1052700041E751E062E070E07ED1009769F48091EF
:10528000710190917201C6D6B801CE01FBD400978E
:1052900019F421E020935503DF91CF911F910F91D5
:1052A000089584EF9FEFF8CFA0C6A2C6CF93DF93F7
:1052B000A2D6EC01892B11F40FDE3ADECE01DF918C
:1052C000CF910895CF93DF9396D6EC01892B09F403
:1052D00003DECE01DF91CF9108958091710190910D
:1052E00072010895CF93DF9380915503D0E0C0E021
:1052F0008823D1F094D6EC01892BB1F4EDDD18DED2
:105300008091710190917201E4D1E5D2EC01892B79
:1053100059F48AE593E0DADD8EE593E0D7DD86E5A2
:1053200093E0D4DD10925503CE01DF91CF91089523
:10533000EF92FF920F931F93CF93DF93EC017A01CB
:105340008B010F5F1F4F0E9DA0010F9D500D1E9DE5
:10535000500D112470E060E00E94E33990E080E09D
:10536000F0E0E0E02FEFE816F90639F4DF91CF9195
:105370001F910F91FF90EF9008951A821982288350
:10538000309711F0D283C1830196FE01C00FD11F67
:10539000EACFCF92DF92EF92FF920F931F93CF93BA
:1053A000DF9306E614E00C7F43E050E063E771E032
:1053B00089E791E014D483E7E82E81E0F82E99E79D
:1053C000C92E91E0D92ECDEFD4E0D7014D915D915A
:1053D0007D01F601619171916F01198308835D83ED
:1053E0004C835B834A837F836E839B012F5F3F4F98
:1053F000249FC001259F900D349F900D1124998703
:1054000088870115110511F0C80192DF88859985FB
:10541000080F191F2A96F9E7EF16F1E0FF06A9F623
:10542000E4E6F3E08FEFDF011D928A95E9F7109231
:1054300063031092620310921C0510921B051092D8
:10544000200510921F0510921E0510921D05109246
:105450002205109221051092240510922305109226
:1054600026051092250510922A0510922905109202
:1054700028051092270510922C0510922B051092EA
:105480002E0510922D051092FA041092F904109234
:10549000FC041092FB0490E080E0DF91CF911F911B
:1054A0000F91FF90EF90DF90CF9008950097F1F06B
:1054B000F894A9E7B1E0EDEFF4E030E020E04D91A1
:1054C0005D9148175907A8F0428153814115510554
:1054D00081F08AE0829FF001839FF00D1124E35058
:1054E000FB4F80819181009759F4789490E080E09F
:1054F00008952F5F3F4F3A962330310501F7F5CFDE
:10550000DC0111966D917C9171836083415051094A
:1055100053834283FC012193CF017894089500972F
:1055200049F1DC018E91853041F4E091FB04F0916A
:10553000FC043097F9F0CD0109948530D8F4282F78
:1055400030E0F8948FEF8C938AE0829FF001839F84
:10555000F00D1124E350FB4F8081918112969C93B2
:105560008E931197B183A083828193810196938357
:10557000828378940895CF92DF92EF92FF920F93F7
:105580001F93CF93DF939C0187E693E08C7F4115B7
:10559000510509F49BC02115310509F497C0611527
:1055A000710509F493C07A01AB01B9016D5F7F4FBA
:1055B0006C7F9B012F5F3F4F249F8001259F100D23
:1055C000349F100D1124F89420911B0530911C0577
:1055D000232B59F420912305309124052115310501
:1055E00069F12017310708F058C020912505309146
:1055F0002605232B91F42091230530912405820F59
:10560000931F20912D0530912E052115310509F4A8
:1056100041C02017310708F056C07894CFEFDFEF74
:1056200086EF9FEFF701D183C083DF91CF911F9168
:105630000F91FF90EF90DF90CF900895C3E0D0E0FE
:10564000C0906203D09063032CEF30E02C193D0929
:105650002017310710F32AE02C9FF0012D9FF00D49
:105660001124E350FB4F91838083558344835383FC
:1056700042837783668311870087009709F058DE9D
:105680000C0D1D1D1093630300936203789490E04A
:1056900080E0C8CFC4E0D0E0D3CFC3E0D0E02AE0C0
:1056A0002C9FF0012D9FF00D1124E350FB4F9183AF
:1056B0008083558344835383428377836683009733
:1056C00029F336DEE3CFC4E0D0E0E9CF8FEF9FEFE0
:1056D000ACCF9C010397029708F069C0F89484E06E
:1056E0009AE0482F50E0241735070CF44DC091E0A4
:1056F0008AE0829FF001839FF00D1124E350FB4F5D
:1057000011821082158214821382128217821682ED
:105710009923B1F180911B0590911C05892BA9F467
:1057200020912305309124052115310571F08091D8
:10573000620390916303821B930B909363038093A6
:105740006203109224051092230580912505909103
:105750002605892BA9F420912D0530912E052115C0
:10576000310571F08091620390916303821B930B6A
:10577000909363038093620310922E0510922D057F
:10578000789490E080E00895949FF001959FF00D4B
:105790001124E350FB4F40815181452B31F440856A
:1057A0005185452B11F481509CCF90E0A1CF8FEF14
:1057B0009FEF08954115510549F1009739F16115A1
:1057C000710521F1F8942091F9043091FA04232B0A
:1057D000B9F42091FB043091FC04232B89F49093BD
:1057E000FA048093F9047093FC046093FB047894AA
:1057F00025E030E090E080E0FA01318320830895D5
:1058000078942FEF3FEF86EF9FEFF6CF8FEF9FEF6C
:105810000895059769F4F8941092FA041092F90427
:105820001092FC041092FB04789490E080E00895BC
:105830008FEF9FEF08956115710519F4F0E0E0E036
:1058400011C08530910581F4E091F904F091FA04DA
:105850003097A1F3CB0101960995009779F3FC01EC
:1058600085E08193CF0108959C01235031092230B6
:10587000310520F72AE0289FD001299FB00D11247F
:10588000A350BB4F2D913C911197232BB9F2169643
:105890002D913C9117972617370780F2F8941296AE
:1058A0002D913C9113972115310529F0ED91FC9133
:1058B0001197309711F47894C1CF4181528111969C
:1058C0005C934E932150310913963C932E9312977B
:1058D00081937894C7CFE3E6F4E086E9DF011D9277
:1058E0008A95E9F7E4E6F3E08FEFDF011D928A95F0
:1058F000E9F71092630310926203EDEFF4E082E3A4
:10590000DF011D928A95E9F7E9EFF4E084E0DF0119
:105910001D928A95E9F790E080E00895CF93DF9398
:10592000C0917F01D0918001CF3FDC0759F445D46D
:105930009093800180937F0197FF09C0D0938001ED
:10594000C0937F0184EF9FEFDF91CF91089590E0A6
:1059500080E0FACF8230910528F480932F0590E003
:1059600080E008958FEF9FEF08954F925F926F92BE
:105970007F92AF92BF92CF92DF92EF92FF920F93FE
:105980001F93CF93DF9300D0CDB7DEB71A82198271
:10599000009709F479C06115710509F475C020916B
:1059A0007F013091800107EF1FEF2F3F3F4F09F438
:1059B00045C06B015C01412C512C3201F12CE12CD2
:1059C00010E000E09E012F5F3F4FA6014E195F09D6
:1059D000B5016E0D7F1D80917F01909180014CD4A7
:1059E000892B09F04BC089819A81009741F4E11419
:1059F000F10429F420912F05222309F442C0E80E76
:105A0000F91EEC14FD04D0F480E8481684E858062A
:105A10008EE16806710420F560E070E0CB010E9421
:105A200021362AE0420E511C611C711C0A3F4FEFC7
:105A3000140721F0043F8FEF1807A1F4C8010F905D
:105A40000F90DF91CF911F910F91FF90EF90DF901A
:105A5000CF90BF90AF907F906F905F904F900895E0
:105A600001EF1FEF81E090E0013F2FEF120711F0EF
:105A700090E080E0892B09F4A5CFE0CF04EF1FEF81
:105A8000DDCF0AEF1FEFDACF0FEF1FEFD7CF4F9227
:105A90005F926F927F92AF92BF92CF92DF92EF921E
:105AA000FF920F931F93CF93DF9300D0CDB7DEB754
:105AB0001A821982009709F479C06115710509F4F9
:105AC00075C020917F013091800107EF1FEF2F3FBC
:105AD0003F4F09F445C06B015C01412C512C320150
