:1000000061C000000C9465340C948C3483C00000F3
:1000100081C000007FC000007DC000007BC00000E8
:1000200079C0000077C0000075C0000073C00000F8
:1000300071C000000C94812F6DC000006BC00000E7
:100040000C94B33467C000000C94C5370C94F73798
:1000500061C000005FC000005DC000005BC0000028
:1000600059C0000057C00000000000080002010055
:100070000003040700000000000000000102040863
:100080001020408001020408102001020408102002
:10009000040404040404040402020202020203032E
:1000A00003030303000000002300260029000000D2
:1000B0000000250028002B0000000000240027007D
:1000C0002A001C3811241FBECFEFD8E0DEBFCDBF01
:1000D00012E0A0E0B1E0EAEDF1E702C005900D9278
:1000E000A631B107D9F727E0A6E1B2E001C01D9221
:1000F000AB32B207E1F710E0C2E6D0E004C02197CE
:10010000FE010E94BC38C136D107C9F70E940431F4
:100110000C94EB3875CFCF93DF93882349F0EB0134
:1001200081500E94933599838883DF91CF91089500
:10013000FB0111821082F9CF0F931F938B019C0159
:1001400083E036952795179507958A95D1F7015E37
:100150001D4F462F477021E030E0F90102C0EE0F3D
:10016000FF1F4A95E2F7AF01F80120812423CB015C
:100170000196211102C090E080E01F910F91089537
:100180000F931F938B019C0183E03695279517955C
:1001900007958A95D1F7677081E090E001C0880FDC
:1001A0006A95EAF7F801E15EFD4F2081452B31F4B5
:1001B0008095822380831F910F910895822BFACF1F
:1001C000CF92DF92EF92FF92CF93DF936B017C018E
:1001D00060E08EE0C816D104E104F10490F48EE0F2
:1001E0008C0D0E943236E6012196AE01C701B601A0
:1001F000C7DFCE01DF91CF91FF90EF90DF90CF90DE
:1002000008958C2DEECF882341F08150682F70E047
:1002100090E080E050E040E0B3CF0895CF93282FE6
:100220008823E1F0CB01BA01CFEFC20FEC2FF0E051
:10023000E85DFD4F2081213059F490580E947632BC
:100240009B01AC016C2F70E090E080E0CF91A2C0E8
:100250000E9471328C2FCF910C94AE35CF910895BE
:100260000F931F938B019C0183E03695279517957B
:1002700007958A95D1F70A5E1D4F462F477021E0FA
:1002800030E0F90102C0EE0FFF1F4A95E2F7AF011F
:10029000F80120812423CB010196211102C090E0B6
:1002A00080E01F910F9108950F931F938B019C0184
:1002B00083E036952795179507958A95D1F767704E
:1002C00081E090E001C0880F6A95EAF7F801EA5EE4
:1002D000FD4F2081452B31F48095822380831F912F
:1002E0000F910895822BFACF4F925F926F927F9277
:1002F0008F929F92AF92BF92CF92DF92EF92FF9236
:100300000F931F93CF93DF934B015C0129013A01B7
:10031000670161E0882D0E943236E4012196AE012A
:10032000C501B401C1DF20E030E0A901C801B60178
:100330000E94A73318168CF4F401E85DFD4F81E0AC
:100340008083C801B6010E9476326B01C301B201FD
:100350000E947632A601C40121D0CE01DF91CF9157
:100360001F910F91FF90EF90DF90CF90BF90AF90D3
:100370009F908F907F906F905F904F90089588230B
:1003800041F08150682F70E090E080E050E040E064
:100390008BCF0895862FB9010C94AE359C01FC01DA
:1003A000E859FF4FE491E33061F140F4E13011F19D
:1003B000E23021F160E0822F0C946E36E730C1F11B
:1003C000E83009F441C0E430A9F7809180008C7FC7
:1003D00082608093800090918100907E9061692B73
:1003E0006093810050938700409386008091800045
:1003F00080621BC084B5806884BDDCCF84B5806218
:10040000FBCF809180008C7F8260809380009091F0
:100410008100907E9061692B6093810050938700EA
:100420004093860080918000806880938000C2CFD6
:100430008091B00080688093B0008091B100887F87
:10044000682B6093B100B6CF8091B0008062F3CF8B
:10045000FC01A781B0858C9191858923A481B58108
:100460009C9140815181628173812681922359F050
:1004700081110BC04F5F5F4F6F4F7F4F40835183A0
:100480006283738308958111F5CF41505109610949
:100490007109F4CF8DE392E0DBCF88E492E0D8CF0E
:1004A00083E592E0D5CF8EE592E0D2CFFC01A48126
:1004B000B5818C9196818923A781B0859C914081DB
:1004C0005181628173812185922359F0882359F0EB
:1004D0004F5F5F4F6F4F7F4F4083518362837383C2
:1004E00008958823A9F34150510961097109F4CF96
:1004F0008DE392E0DBCF88E492E0D8CF83E592E011
:10050000D5CF8EE592E0D2CF0F931F93CF93DF9399
:10051000082F162FEA01A0913C028BE0A89FD00182
:100520001124A35CBD4F1D921D921D921C92139726
:1005300081E01A968C931A97802F90E0FC01E45882
:10054000FF4FE4911696EC931697FC01E057FF4F8E
:10055000E491F0E0EE0FFF1FEC55FF4F8591949171
:1005600015969C938E931497862F90E0FC01E45887
:10057000FF4FE4911996EC931997FC01E057FF4F58
:10058000E491F0E0EE0FFF1FEC55FF4F8591949141
:1005900018969C938E93179760E0802F0E943236B6
:1005A00060E0812F0E94323680913C02813081F1DF
:1005B000A0F0823009F445C0833009F45BC080911B
:1005C0003C0291E0980F90933C02888390E080E099
:1005D000DF91CF911F910F91089580E0023021F0BB
:1005E0008FEF033009F481E041E050E06AE472E00B
:1005F0000E94453480E0123021F08FEF133009F46F
:1006000081E041E050E068E772E00E944534D7CFD6
:1006100080E0023021F08FEF033009F481E041E007
:1006200050E06DE472E00E94453480E0123021F029
:100630008FEF133009F481E041E050E06BE772E0A6
:10064000E4CF80E0023021F08FEF033009F481E045
:1006500041E050E060E572E00E94453480E01230F5
:1006600021F08FEF133009F481E041E050E06EE7B4
:1006700072E0CBCF80E0023021F08FEF033009F43D
:1006800081E041E050E063E572E00E94453480E0A3
:10069000123021F08FEF133009F481E041E050E097
:1006A00061E872E0B2CF9BE0899FF0011124E35C26
:1006B000FD4F80819181A281B381FB018083918371
:1006C000A283B38390E080E008959BE0899FF001CE
:1006D0001124E35CFD4F108211821282138290E09C
:1006E00080E0089590E080E00895611102C00C94CC
:1006F00032366130E1F362E0FACF662319F061E04F
:100700000C946E3660E0FCCF90E080E008950F938B
:100710001F93009709F48AC06115710509F486C01A
:1007200000914E0110914F012091500130915101E3
:100730000E3F1F4F2F4F3F4F09F06AC0DB014D9115
:100740005D916D917C9140934E0150934F01609368
:1007500050017093510140914E0150914F016091B1
:10076000500170915101DC011296ED91FC91808154
:100770009181A281B3818093F5029093F602A093B8
:10078000F702B093F80284819581A681B7818093A6
:10079000F1029093F202A093F302B093F4028085E9
:1007A0009185A285B3858093ED029093EE02A0938C
:1007B000EF02B093F00284859585A685B785809376
:1007C000E9029093EA02A093EB02B093EC0210923C
:1007D000E5021092E6021092E7021092E8020E94EF
:1007E000411386E693E190936A02809369029093A5
:1007F0006C0280936B020E942012009731F421E07A
:1008000030E03093FA022093F9021F910F9108957E
:1008100000914E0110914F012091500130915101F2
:10082000FB01008311832283338395CF8FEF9FEFEA
:10083000ECCF8F929F92AF92BF92CF92DF92EF92C6
:10084000FF921F93CF93DF934B015C011091FC0249
:1008500082E090E09093FA028093F902811491046F
:10086000A104B10441F48091FC02811104C0809183
:10087000FB02C1E08111C0E0C12CD12C7601809136
:10088000FC02811106C08091FB02811102C0CC23C1
:10089000D9F083E090E09093FA028093F902CC23A0
:1008A00081F1CCE9DFEF111102C00E94CA16CE011E
:1008B000DF91CF911F91FF90EF90DF90CF90BF908D
:1008C000AF909F908F9008956AE070E080E090E094
:1008D0000E94223580E1C80E87E2D81EE11CF11C7F
:1008E0008FEF88169806A806B80631F0C1E08C1480
:1008F0009D04AE04BF0408F0C0E080E00E946412D2
:10090000BECFD0E0C0E0CFCFCF92DF92EF92FF9288
:100910000F931F93CF93DF938F3F910511F008F052
:1009200051C02091F9023091FA022330310539F09B
:100930002091F9023091FA022130310531F424E09E
:1009400030E03093FA022093F9026A017B01EC0156
:1009500082309105A8F011E0AE01C701B6010E94F6
:100960001F12AB01BC01CE011123F9F0DF91CF9131
:100970001F910F91FF90EF90DF90CF900C94EF18A4
:100980008C01000F111F07591D4FD8018D919C91AB
:10099000892B09F30E94F9180297E9F6D801ED9125
:1009A000FC91CE010995182FD7CF0E94111990E024
:1009B00080E0DF91CF911F910F91FF90EF90DF903A
:1009C000CF9008958FEF9FEFF4CF80E00C946412E6
:1009D000CF93DF9386E090E09093FA028093F90240
:1009E0000E94BD12EC01E9E6F2E084E0DF011D9215
:1009F0008A95E9F70E9462161092FA021092F902A3
:100A0000CE01DF91CF9108958091FB0208958091EE
:100A1000E402089560934E0170934F01809350015A
:100A20009093510190E080E008952F923F924F9271
:100A30005F926F927F928F929F92AF92BF92CF926E
:100A4000DF92EF92FF920F931F93CF93DF93CDB777
:100A5000DEB7CB54D1090FB6F894DEBF0FBECDBFC1
:100A600026967FAF6EAF269728965FAF4EAF28973A
:100A70003E8B2D8B2C96FFAEEEAE2C97FB01E150FA
:100A8000F04CEE0FFF1FEE0FFF1FE80FF91F8080E5
:100A90009180A280B3808F8A988EA98EBA8EB5017C
:100AA000A401442777FD4395552766277727299684
:100AB0004FAF2997F901E150F04CEE0FFF1FEE0FF9
:100AC000FF1F2896AEACBFAC2897EA0DFB1DC08077
:100AD000D180E280F380CB8EDC8EED8EFE8EB7016E
:100AE000A601442777FD43955527662777272A9641
:100AF0004FAF2A97188B0F87F80130E020E02C9633
:100B0000EEACFFAC2C972E153F050CF43FC022969F
:100B10009FAF8EAF22971A8B098B312C212C812C01
:100B2000912C540183948D829E82AF82B886269642
:100B30008EAC9FAC2697281439047CF129969FAC83
:100B400029972A96AFAC2A9730E020E041E050E0A8
:100B500060E070E09A10F5C1C55BDF4F0FB6F89406
:100B6000DEBF0FBECDBFDF91CF911F910F91FF90E0
:100B7000EF90DF90CF90BF90AF909F908F907F903D
:100B80006F905F904F903F902F9008951192119227
:100B9000119211922F5F3F4FB2CF2296EEADFFAD73
:100BA000229781919191A191B1912296FFAFEEAFE1
:100BB00022978F88988CA98CBA8CB7FE23C04D8160
:100BC0005E816F81788541505109610971095A012F
:100BD0006B01A81AB90ACA0ADB0AD601C50121E0CD
:100BE000CD80DE80EF80F8848C159D05AE05BF05B5
:100BF00008F020E0822E912CB12CA12C8D829E82B7
:100C0000AF82B8865D01CC24DD24A8A2B9A2CAA215
:100C1000DBA29C01AD01442755272CA33DA34EA385
:100C20005FA32C96EEADFFAD2C97E219F3098D88EA
:100C30009E888E169F060CF4F4012896AEACBFACCD
:100C400028972496BFAEAEAE2497C988DA88DC8A8E
:100C5000CB8A1E861D86812C912C54018394898613
:100C60009A86AB86BC86812C912C5401CD84DE847F
:100C7000CE16DF0604F1F7FF02C0F0E0E0E0E20D7F
:100C8000F31D2C96EEACFFAC2C97EE15FF0554F43B
:100C9000EE0FFF1FEE0FFF1FE00FF11F808291820A
:100CA000A282B3822FEF221A320AE989FA89349696
:100CB000FA8BE98B3CCF2496AEADBFAD2497CD9097
:100CC000DD90ED90FD902496BFAFAEAF24972B8DB5
:100CD0003C8D4D8D5E8D57FF22C089859A85AB85F1
:100CE000BC850197A109B109AC01BD014C195D0991
:100CF0006E097F096A017B0181E029853A854B8570
:100D00005C85C216D306E406F50608F080E0482F9D
:100D100050E070E060E049875A876B877C87B701B5
:100D20008827992768A779A78AA79BA7EE24FF247D
:100D300028A139A14AA15BA1C701B6010E94773859
:100D40002B013C012CA13DA14EA15FA168A579A575
:100D50008AA59BA50E9477386CA77DA78EA79FA721
:100D6000AB89BC894D915D916D917D91BC8BAB8BB5
:100D7000DB01CA01880D991DAA1DBB1D89839A83B9
:100D8000AB83BC8391E09F8F29813A814B815C8149
:100D9000281539054A055B0508F01F8E2CA13DA1D9
:100DA0004EA15FA1C701B6010E9477386B017C019B
:100DB00089809A80AB80BC808C0C9D1CAE1CBF1CB3
:100DC00089829A82AB82BC8252019924882488AAA3
:100DD00099AAAAAABBAA29813A814B815C81280DD4
:100DE000391D4A1D5B1D2CAB3DAB4EAB5FAB8CA4DC
:100DF0009DA4AEA4BFA454019924882488AE99AEC2
:100E0000AAAEBBAE280D391D4A1D5B1D2CAF3DAFF0
:100E10004EAF5FAFAB89BC8914972D933D934D9333
:100E20005C93139728A139A14AA15BA168A579A574
:100E30008AA59BA50E9477389F8C690D711D811D25
:100E4000911D230166247724460E571E681E791EC5
:100E50002CA53DA54EA55FA54A01AA24BB24840C60
:100E6000951CA61CB71C81E090E0A0E0B0E0498191
:100E70005A816B817C814C155D056E057F0518F0EC
:100E800080E090E0DC01880D991DAA1DBB1D41E0AA
:100E900050E060E070E088A899A8AAA8BBA8CCA8F8
:100EA000DDA8EEA8FFA8C814D904EA04FB0418F0D2
:100EB00040E050E0BA01840F951FA61FB71F812C98
:100EC000912C54018394C8ACD9ACEAACFBAC2CADEA
:100ED0003DAD4EAD5FAD2C153D054E055F0518F0DF
:100EE000812C912C5401880E991EAA1EBB1E4D8583
:100EF0005E854F5F5F4F5E874D87B8CEEF85F8897F
:100F0000C190D190E190F190F88BEF87DB01CA019D
:100F10000197A109B1098C199D09AE09BF09349740
:100F200080839183A283B383E1E084179507A607AA
:100F3000B70708F0E0E04E2F50E070E060E02F5F70
:100F40003F4F2C968EAC9FAC2C9728153905B4F2E8
:100F500003CE2F923F924F925F926F927F928F9229
:100F60009F92AF92BF92CF92DF92EF92FF920F9338
:100F70001F93CF93DF9300D000D0CDB7DEB78B01A6
:100F80005C834B83FB01E150F04CEE0FFF1FEE0F33
:100F9000FF1FE80FF91F408151816281738177FD46
:100FA00027C04C01B12CA12CC12CD12C7601A0164C
:100FB000B10664F5F40161917191819191914F01B4
:100FC0000E94A2324B815C810E94AD339B01AC0137
:100FD000C701B6010E948E316B017C012B813C81DF
:100FE000205E3F4F3C832B833FEFA31AB30ADFCF32
:100FF0009A838983312C212C81E090E0A0E0B0E03D
:10100000C12CD12C760120163106CCF0C701B601D7
:101010000F900F900F900F90DF91CF911F910F9134
:10102000FF90EF90DF90CF90BF90AF909F908F9008
:101030007F906F905F904F903F902F900895E9813F
:10104000FA814190519061907190FA83E9834094C4
:1010500050946094709453014201880E991EAA1E08
:10106000BB1EC501B4010E94A2324B815C810E946B
:10107000AD339B01AC01C701B6010E948D316B01FC
:101080007C0181E084149504A604B70408F080E094
:1010900090E0B0E0A0E02B813C81205E3F4F3C839C
:1010A0002B833FEF231A330AAECFFC0191E08091EE
:1010B000BA02811190E091830895CF92DF92EF926E
:1010C000FF926B017C019F7720E030E040E859E51A
:1010D0000E94053287FF2BC020E030E040E05FE354
:1010E000C701B6010E94A73387FD0EC020E030E0A3
:1010F00040E05FE3C701B6010E948E31FF90EF90A0
:10110000DF90CF900C94DF3220E030E040E05FEBE6
:10111000C701B6010E94A733181684F420E030E01E
:10112000A901C701B6010E94E1336B017C01C7012F
:10113000B601FF90EF90DF90CF90089520E030E06F
:1011400040E05FE3C701B6010E948D31FF90EF9050
:10115000DF90CF900C94F2318091BA028F5F823091
:1011600068F58093BA028091A9029091AA02A09199
:10117000AB02B091AC020196A11DB11D8093A902F2
:101180009093AA02A093AB02B093AC02892B8A2B56
:101190008B2B99F48091AD029091AE02A091AF0299
:1011A000B091B0020196A11DB11D8093AD02909344
:1011B000AE02A093AF02B093B00208951092BA02AB
:1011C000D2CF4F925F926F927F928F929F92AF9207
:1011D000BF92CF92DF92EF92FF920F931F93CF9324
:1011E000DF93CDB7DEB7A2970FB6F894DEBF0FBE80
:1011F000CDBF8091CE069091CF06A091D006B09140
:10120000D1068093050790930607A0930707B09334
:1012100008078091BC0681111092BC0665E277E058
:101220008091BD0640DA8091BD064FDA8FEF9FEFC7
:10123000DC018093E6069093E706A093E806B0935E
:10124000E9062091F3068091250790912607A09149
:101250002707B091280721110BC08093EA069093CD
:10126000EB06A093EC06B093ED0621E02093F30685
:101270004091EA065091EB066091EC067091ED0604
:101280008C019D01B7FD2EC00F5F1F4F2F4F3F47B1
:1012900040175107620773075CF18C019D01041B25
:1012A000150B260B370BB901A80177FF0DC04115AF
:1012B0005105610510E87107D9F07095609550955A
:1012C00041955F4F6F4F7F4F493C51056105710557
:1012D0007CF48093EA069093EB06A093EC06B0931F
:1012E000ED0606C030580417150726073707ACF679
:1012F0008091480190914901A0914A01B0914B0120
:101300008D879E87AF87B88B8091EA069091EB0618
:10131000A091EC06B091ED0689879A87AB87BC87D0
:1013200052E0E52EF12C8E010F5F1F4F21E030E0DF
:10133000AE01475F5F4F61E070E0CE010D9675DB57
:1013400080911A06811110921A06109221071092AC
:101350002207109223071092240750E040E062E039
:1013600070E0CE010196F5DD20E030E040E051E391
:101370000E94E1336B8B7C8B8D8B9E8B209143067F
:101380003091440640914506509146060E948E31A8
:101390002B013C01C0905706D0905806E0905906AA
:1013A000F0905A068090530690905406A0905506EF
:1013B000B0905606C501B4010E9471328B010150F4
:1013C000110920E030E0A901C701B6010E940532F1
:1013D000000F111F000F111F81119AC3F801EC5E5D
:1013E000F94F23A934A945A956A9C301B2010E9406
:1013F0008E316F8B788F898F9A8F0C5E194F8B8906
:101400009C89AD89BE89F80183AB94ABA5ABB6AB23
:1014100020E030E040E450E4C501B4010E94053210
:10142000882309F47AC320E030E040E85FE3C50197
:10143000B4010E948E314B015C0120E030E0A90133
:10144000C701B6010E940532811112C020E030E0D0
:1014500040E85EE36F89788D898D9A8D0E94E13333
:1014600060932107709322078093230790932407AA
:10147000409243065092440660924506709246069A
:101480008092530690925406A0925506B09256064A
:1014900020E030E0A901C701B6010E94A733181669
:1014A0000CF073C320E030E040E85FE3C701B60111
:1014B0000E948D31609357067093580680935906A9
:1014C00090935A06209121073091220740912307DB
:1014D00050912407609114017091150180911601BB
:1014E000909117010E94E133209118013091190168
:1014F00040911A0150911B010E94E1336093F9065B
:101500007093FA068093FB069093FC06609309079C
:1015100070930A0780930B0790930C076EE070E0BE
:1015200080E090E00E949C009093A5068093A40622
:1015300043E050E0BE016F5E7F4F0E948B00209120
:101540004C0130914D01A989BA890E94C2380E948C
:10155000A23220E030E040E054E30E94E1332091E9
:101560001C0130911D0140911E0150911F010E94EC
:101570008E316B017C01C092FD06D092FE06E09296
:10158000FF06F09200072091200130912101409147
:101590002201509123010E94E1336F8B788F898F54
:1015A0009A8F2091D2063091D3064091D406509163
:1015B000D5060E948D316B8F7C8F8D8F9E8F809191
:1015C00061068111109261061092010710920207C4
:1015D000109203071092040720918A0630918B061F
:1015E00040918C0650918D066B8D7C8D8D8D9E8DDE
:1015F0000E948E312B013C0180909A0690909B06B0
:10160000A0909C06B0909D060091960610919706BA
:1016100020919806309199060F8F18A329A33AA319
:10162000C901B8010E9471328B010150110920E0FB
:1016300030E0A901C501B4010E940532000F111F5D
:10164000000F111F8111AAC2F801E257F94F208142
:10165000318142815381C301B2010E948E316B8B73
:101660007C8B8D8B9E8B0257194F8B8D9C8DAD8DF6
:10167000BE8DF80180839183A283B38320E030E0A4
:1016800040E050E46F8D78A189A19AA10E940532B3
:1016900002E010E081111FC0209192063091930664
:1016A000409194065091950660918E0670918F0638
:1016B00080919006909191060E948E3160938E06E3
:1016C00070938F06809390069093910601E010E04E
:1016D000412C512C320120E030E0A901C501B401B8
:1016E0000E940532811112C020E030E040E450E455
:1016F0006B897C898D899E890E94093260930107DC
:1017000070930207809303079093040740928A0620
:1017100050928B0660928C0670928D06B801110F64
:10172000880B990B0E94A4326093960670939706DB
:10173000809398069093990620E030E0A901C501B6
:10174000B4010E94A73318160CF02DC220E030E03F
:1017500040E85FE3C501B4010E948D3160939A06B1
:1017600070939B0680939C0690939D068090010742
:1017700090900207A0900307B090040720912401E5
:101780003091250140912601509127016091050774
:101790007091060780910707909108070E948D318C
:1017A00060930507709306078093070790930807D7
:1017B000209128013091290140912A0150912B015B
:1017C0006091090770910A0780910B0790910C07AF
:1017D0000E948D316093090770930A0780930B076D
:1017E00090930C0720912C0130912D0140912E01F6
:1017F00050912F01C701B6010E948D3160930D07F2
:1018000070930E0780930F0790931007209130017B
:10181000309131014091320150913301C501B40141
:101820000E948D3160931107709312078093130704
:101830009093140720913401309135014091360185
:1018400050913701C701B6010E948D319F77609397
:101850001507709316078093170790931807209128
:1018600038013091390140913A0150913B010E9479
:10187000A73318160CF0A0C18091040190910501C6
:10188000A0910601B09107018093190790931A0760
:10189000A0931B07B0931C078FEF9FEFDC01809391
:1018A000E2069093E306A093E406B093E5068090E9
:1018B000190790901A07A0901B07B0901C0720E012
:1018C00030E0A901C501B4010E94A733C12CD12C7D
:1018D000760118164CF075016401F7FAF094F7F8E8
:1018E000F094812C912C540165E070E080E090E050
:1018F0000E9430018C019093B5068093B40620E0DD
:1019000030E04FE753E4C501B4010E9405321816D8
:101910000CF45BC120E030E0A901C501B4010E94D4
:10192000A73387FD59C1B501A401C8010E940E016A
:1019300066E070E080E090E00E9430018C019093BE
:10194000AD068093AC0620E030E04FE753E4C701DA
:10195000B6010E94053218160CF442C120E030E0B6
:10196000A901C701B6010E94A73387FD40C1B70195
:10197000A601C8010E940E0120913C0130913D0159
:1019800040913E0150913F016091400170914101B1
:1019900080914201909143010E94E13360931D07C1
:1019A00070931E0780931F07909320076091440156
:1019B0007091450180914601909147017EDB6B015A
:1019C0007C0120E030E040E853E40E9405326FEFF4
:1019D00087FF0EC020E030E0A901C701B6010E94D8
:1019E000A73360E087FD04C0C701B6010E947632CC
:1019F00087E00E947D0320E030E040E853E4C70127
:101A0000B6010E9405326FEF87FF0EC020E030E084
:101A1000A901C701B6010E94A73360E087FD04C099
:101A2000C701B6010E94763288E00E947D032091B2
:101A3000F9063091FA064091FB065091FC06609140
:101A40000C0170910D0180910E0190910F010E9487
:101A5000E1332091CE063091CF064091D0065091CF
:101A6000D1060E948E316093CE067093CF0680938C
:101A7000D0069093D1060F89188D298D3A8D009349
:101A8000D2061093D3062093D4063093D5068091C6
:101A9000B1029091B202A091B302B091B40201964A
:101AA000A11DB11D8093B1029093B202A093B30225
:101AB000B093B402892B8A2B8B2B99F48091B502B9
:101AC0009091B602A091B702B091B8020196A11D03
:101AD000B11D8093B5029093B602A093B702B09364
:101AE000B802A2960FB6F894DEBF0FBECDBFDF914D
:101AF000CF911F910F91FF90EF90DF90CF90BF900B
:101B0000AF909F908F907F906F905F904F900895CF
:101B10001F8A188E198E1A8E70CC20914F06309124
:101B20005006409151065091520660914B067091BB
:101B30004C0680914D0690914E060E948E319B017D
:101B4000AC0120934B0630934C0640934D065093C6
:101B50004E06609147067091480680914906909123
:101B60004A060E948E316093470670934806809320
:101B7000490690934A06812C912C30E8A32E3FE32E
:101B8000B32E412C512C320158CC10925706109292
:101B900058061092590610925A0694CC1B8A1C8A39
:101BA0001D8A1E8A60CD10929A0610929B06109292
:101BB0009C0610929D06DACD809108019091090152
:101BC000A0910A01B0910B015FCE812C912C9FE76F
:101BD000A92E93E4B92EA7CE812C912C5401A3CE2B
:101BE000C12CD12C8FE7E82E83E4F82EC0CEC12C77
:101BF000D12C7601BCCE2F923F924F925F926F9282
:101C00007F928F929F92AF92BF92CF92DF92EF928C
:101C1000FF920F931F93CF93E3E9F2E08DE2DF0190
:101C20001D928A95E9F780E090E0A0E8BFEB80A7DD
:101C300091A7A2A7B3A784EB9DE3AEEFB5ED848394
:101C40009583A683B7838CEA97E0A6E5B8EE8087F4
:101C50009187A287B38781EE95EBA4ECB1E48487EA
:101C60009587A687B7878EED92E0A1E8BCE0808BD0
:101C7000918BA28BB38BA7E8B2E0B383A283EDE68E
:101C8000F2E01196FC93EE938CE791E091838083D0
:101C900093838283958384839783868391878087C8
:101CA000938782879587848797878687918B808B98
:101CB000938B828B958B848B978B868B918F808F68
:101CC00087EA92E015969C938E93149787E992E0A9
:101CD00013969C938E9312972FEF3FEFA9011896BE
:101CE0002D933D934D935C931B97E9EFF6E080E3D2
:101CF000DF011D928A95E9F784E1C82E86E0D82E8F
:101D000085EEF60111928A95E9F7C1E0C093F406D9
:101D1000812C912C540183948092B7069092B8063E
:101D2000A092B906B092BA064DEB56E063E082E0AD
:101D30000E948402C093BB061092BC06D6011C927E
:101D4000C093F106F60181829282A382B4829796B3
:101D50008D929D92AD92BC929A9783A694A6A5A6C9
:101D6000B6A69F961D921D921D921C92D29713AA01
:101D700014AA15AA16AAD7961D921D921D921C92FE
:101D8000DA9713AE14AE15AE16AE23E5222E26E07A
:101D9000322E412C512C30E8632E3FE3732ED101BB
:101DA0004D925D926D927C921397E7E5F6E010827A
:101DB000118212821382D6011596CC93159716962E
:101DC0001C9210929E06C093F80680929F069092F5
:101DD000A006A092A106B092A2066EE070E080E09C
:101DE00090E00E94E0009093A5068093A406C09323
:101DF000A30610925B06C093F70680925C06909251
:101E00005D06A0925E06B0925F0680928206909276
:101E10008306A0928406B0928506809286069092F0
:101E20008706A0928806B0928906EAE8F6E010825A
:101E3000118212821382AEE8B6E01D921D921D92AD
:101E40001C921397E2E9F6E010821182128213824B
:101E5000A6E9B6E04D925D926D927C921397EAE905
:101E6000F6E01082118212821382C09360061092F3
:101E700061061092AE06C093F6068092AF0690926D
:101E8000B006A092B106B092B206E12CF12C870107
:101E9000A801970165E070E080E090E00E94740185
:101EA0009093B5068093B406C093B3061092A6062D
:101EB000C093F5068092A7069092A806A092A90664
:101EC000B092AA06A801970166E070E080E090E079
:101ED0000E9474019093AD068093AC06C093AB064C
:101EE0001092C606C093EF068092C7069092C8066D
:101EF000A092C906B092CA0661E087E00E9475030D
:101F0000C093CB061092BE06C093EE068092BF0629
:101F10009092C006A092C106B092C20661E088E02D
:101F20000E947503C093C306E0E0F1E080899189C7
:101F3000A289B3898093CE069093CF06A093D00652
:101F4000B093D10680819181A281B3818093D20622
:101F50009093D306A093D406B093D5061092F306BF
:101F60002FEF3FEFA9012093E6063093E706409359
:101F7000E8065093E9062093E2063093E306409387
:101F8000E4065093E5068091BD060E946503D601E4
:101F90009F96ED92FD920D931C93D297F601E3AAC2
:101FA000F4AA05AB16ABD796ED92FD920D931C9358
:101FB000DA97E3AEF4AE05AF16AFD1014D925D9264
:101FC0006D927C921397E7E5F6E0E082F18202835E
:101FD0001383AAE8B6E0ED92FD920D931C9313973C
:101FE000EEE8F6E0E082F18202831383A2E9B6E034
:101FF000ED92FD920D931C931397E6E9F6E0408273
:10200000518262827382AAE9B6E0ED92FD920D934D
:102010001C931397CF911F910F91FF90EF90DF903A
:10202000CF90BF90AF909F908F907F906F905F9078
:102030004F903F902F9008958091B606811114C063
:1020400081E08093B6068091B7069091B806A09182
:10205000B906B091BA060197A105B10529F480919E
:10206000BB0681110E94720380911406811126C063
:1020700081E0809314068091150690911606A09138
:102080001706B09118060197A105B105B9F4809122
:102090001906882399F08FEF9FEFDC0180933B06B0
:1020A00090933C06A0933D06B0933E0680933F0676
:1020B00090934006A0934106B093420680919E06FD
:1020C00081111FC081E080939E0680919F069091B0
:1020D000A006A091A106B091A2060197A105B105A5
:1020E00081F48091A306882361F06EE070E080E0C7
:1020F00090E00E949C009093A5068093A4060E9405
:10210000030180915B06811126C081E080935B060C
:1021100080915C0690915D06A0915E06B0915F068D
:102120000197A105B105B9F480916006882399F063
:102130008FEF9FEFDC018093820690938306A0933C
:102140008406B09385068093860690938706A093B5
:102150008806B09389068091AE0681112EC081E079
:102160008093AE068091AF069091B006A091B10623
:10217000B091B2060197A105B105F9F48091B306BB
:102180008823D9F065E070E080E090E00E943001A3
:102190009093B5068093B40640E050E0BA010E94E7
:1021A0000E0165E070E080E090E00E9430019093C5
:1021B000B5068093B4060E94BF018091A6068111E6
:1021C0002EC081E08093A6068091A7069091A80674
:1021D000A091A906B091AA060197A105B105F9F44D
:1021E0008091AB068823D9F066E070E080E090E053
:1021F0000E9430019093AD068093AC0640E050E021
:10220000BA010E940E0166E070E080E090E00E945A
:1022100030019093AD068093AC060E94BF0180917F
:10222000C606811103C081E08093C6068091BE0678
:10223000811103C081E08093BE0608954F925F92A2
:102240006F927F928F929F92AF92BF92CF92DF92C6
:10225000EF92FF920F931F93F8944090CC0250900E
:10226000CD026090CE027090CF02C090C002D0909C
:10227000C102E090C202F090C302452B09F0A4C055
:102280009B01AC01241935094609570929013A0176
:102290000091C8021091C9022091CA023091CB026C
:1022A00048015901840C951CA61CB71C8016910688
:1022B000A206B306A0F40091C4021091C5022091B9
:1022C000C6023091C7020F5F1F4F2F4F3F4F009341
:1022D000C4021093C5022093C6023093C7028092B5
:1022E000C8029092C902A092CA02B092CB02009199
:1022F000C4021091C5022091C6023091C70280929B
:10230000D0029092D102A092D202B092D302009356
:10231000D4021093D5022093D6023093D702609353
:10232000CC027093CD028093CE029093CF02A0E1B5
:10233000B7E2A30192010E94D1386C0D7D1D8E1D64
:102340009F1D6093C0027093C1028093C20290935C
:10235000C30200914E0110914F0120915001309124
:1023600051010F3F1F4F2F4F3F4FF1F000914E0192
:1023700010914F0120915001309151010E3F1F4F9C
:102380002F4F3F4F89F0C0904E01D0904F01E09009
:102390005001F090510121E08C149D04AE04BF0463
:1023A00008F420E02093E40278941F910F91FF90AD
:1023B000EF90DF90CF90BF90AF909F908F907F90E5
:1023C0006F905F904F9008954B015C0184189508C1
:1023D000A608B708A3019201261B370B480B590B1F
:1023E0006415750586059705D0F082169306A40638
:1023F000B50640F420E030E0A90181149104A10465
:10240000B10491F4A0E1B7E20E94D138A70196018E
:10241000261B370B480B590BCA01B901C5CF8216D1
:102420009306A406B50670F7A0E1B7E2A5019401F2
:102430000E94D1386C0D7D1D8E1D9F1DB5CFFECE27
:10244000CF93DF9300D000D0CDB7DEB71C821B82C4
:102450001A8219821092E0021092E1021092E202B6
:102460001092E3021092D8021092D9021092DA026E
:102470001092DB021092DC021092DD021092DE025A
:102480001092DF02BE016F5F7F4FCE0103960E9464
:10249000292F69817A818B819C810E94192800975C
:1024A00061F4BE016F5F7F4FCE0103960E94352F0E
:1024B00069817A818B819C8128D50F900F900F9034
:1024C0000F90DF91CF910895FF920F931F93CF93B9
:1024D000DF93082F60E070E0CB010E942235FF24DB
:1024E000F3940E940427EC01892B89F010E0CE3F81
:1024F0008FEFD80769F0002361F160E070E0CB0155
:102500000E94223581E090E0892B59F322C011E02E
:102510001FD5EC01892B21F0CE3F8FEFD80759F75B
:1025200011111EC011E0229609F410E00E94B52698
:10253000EC01892B21F0CE3F8FEFD807E1F6111186
:1025400011C011E0CE3F8FEFD80709F410E0011160
:102550000BC0CE01DF91CF911F910F91FF90089595
:1025600011E0E4CF11E0F3CF60E070E0CB010E9416
:1025700022351F25812F90E0C7CFCF93DF93809125
:10258000E402882321F060E070E0CB0148D631D628
:10259000D0E0C0E0892B71F06AE070E080E090E06C
:1025A0000E94223581E090DF24D62196C03727E1B2
:1025B000D20781F723D60E946D281092FC02109258
:1025C000FB021092F5021092F6021092F70210929E
:1025D000F8021092F1021092F2021092F30210929D
:1025E000F4021092ED021092EE021092EF0210929D
:1025F000F0021092E9021092EA021092EB0210929D
:10260000EC021092E5021092E6021092E70210929C
:10261000E8024EEF5FEF6FEF7FEF40934E01509374
:102620004F0160935001709351011092E402E0ED6C
:10263000F2E028E0DF011D922A95E9F71092CC0222
:102640001092CD021092CE021092CF021092C802C8
:102650001092C9021092CA021092CB021092C402C8
:102660001092C5021092C6021092C7021092C002C8
:102670001092C1021092C2021092C302DF91CF9158
:102680000895109208031092090310920A03109201
:102690000B03109207038091100390911103909304
:1026A0000603809305031092040310920303109213
:1026B000FF02109200031092010310920203109285
:1026C0000D0310920C0390E080E00895CF92DF920A
:1026D000EF92FF920F931F93CF938C01892B09F0F8
:1026E00055C0209110033091110380910503909102
:1026F0000603409110035091110350930603409339
:1027000005032817390781F0109204031092030380
:102710001092FF0210920003109201031092020324
:1027200010920D0310920C038091100390911103ED
:10273000019761F580910C0390910D03892B21F491
:1027400080915201811112C080910C0390910D0370
:102750000197E1F48091FF0290910003A0910103A1
:10276000B09102030197A105B10581F41092FF0217
:102770001092000310920103109202031092520172
:1027800082E090E090930D0380930C0380911003FE
:1027900090911103019709F01CC18091260390913B
:1027A00027038017910709F014C1809122039091AB
:1027B0002303A0912403B0912503009709F409C1D4
:1027C0002091210321110DC0409122035091230338
:1027D0006091240370912503452B462B472B09F468
:1027E000F8C020910C0330910D032230310509F01F
:1027F000F0C0209103032111ECC0FC01C080D18006
:10280000E280F38080910703882309F4D3C080918C
:10281000130390911403892B09F4FDC02091130335
:102820003091140381E02230310509F080E02091DD
:10283000130330911403C1E02130310549F0209198
:10284000130330911403C1E02230310509F0C0E0D8
:10285000882309F456C020911D0330911E03409136
:102860001F0350912003C701B6010E94A73387FDC3
:1028700014C020911D0330911E0340911F035091FD
:102880002003609108037091090380910A039091DD
:102890000B030E94053287FD22C020911D03309159
:1028A0001E0340911F0350912003C701B6010E94EF
:1028B000A733181634F520911D0330911E03409163
:1028C0001F035091200360910803709109038091C8
:1028D0000A0390910B030E940532811112C080916E
:1028E000150390911603A0911703B0911803892B3B
:1028F0008A2B8B2B19F481E08093040381E0809371
:102900000303CC2309F456C020911D0330911E030C
:1029100040911F0350912003C701B6010E94053268
:1029200087FF14C020911D0330911E0340911F03A7
:1029300050912003609108037091090380910A036C
:1029400090910B030E94A73387FF22C020911D03A3
:1029500030911E0340911F0350912003C701B6011F
:102960000E940532811126C020911D0330911E0363
:1029700040911F0350912003609108037091090357
:1029800080910A0390910B030E94A733181694F4C8
:102990008091150390911603A0911703B09118032D
:1029A000892B8A2B8B2B19F481E08093040381E01F
:1029B0008093030381E090910303911180E0809361
:1029C0000703C0920803D0920903E0920A03F09231
:1029D0000B03012B09F067C180910C0390910D034B
:1029E000892BD9F4109212031092030380915201A3
:1029F000882379F082E090E090930D0380930C039C
:102A000010925201209110033091110381E0232B89
:102A1000E9F080E01BC081E00ACF10925201809162
:102A20001203882349F01092040310920D031092B0
:102A30000C0310921203EDCF8091100390911103BB
:102A4000892BE1F0809103031092030320910C0382
:102A500030910D032230310509F45EC088F4211550
:102A6000310509F448C02130310509F4F3C0109252
:102A70000403109203031092120338C081E0E6CFE2
:102A80002330310509F4B1C02430310581F740917C
:102A9000FF02509100036091010370910203411500
:102AA00051056105710561F04150510961097109D4
:102AB0004093FF025093000360930103709302035D
:102AC0004091FF0250910003609101037091020355
:102AD000452B462B472BD9F420910E0330910F0341
:102AE0002130310509F046C01092040310920D0305
:102AF00010920C030CC080915201882341F082E0B7
:102B000090E090930D0380930C0310925201109269
:102B1000FD0280910403CEC08823C9F38091150380
:102B200090911603A0911703B09118031816190677
:102B30001A061B060CF07DC08091100390911103C2
:102B4000019709F076C08091150390911603A0912A
:102B50001703B09118038093FF0290930003A09392
:102B60000103B093020383E090E090930D03809300
:102B70000C03CDCF4091190350911A0360911B03B0
:102B800070911C03452B462B472BA9F01092040390
:102B90008091190390911A03A0911B03B0911C031B
:102BA0008093FF0290930003A0930103B09302036C
:102BB00081E090E0DACF882399F0809153019091E1
:102BC0005401A0915501B09156018093FF0290935A
:102BD0000003A0930103B093020384E090E0C5CF0B
:102BE0001092040382E090E0C0CF8091FF029091A8
:102BF0000003A0910103B09102030097A105B10564
:102C000059F00197A109B1098093FF029093000345
:102C1000A0930103B09302038091FF0290910003FF
:102C2000A0910103B0910203892B8A2B8B2B09F011
:102C30006ECF8091530190915401A0915501B091B4
:102C40005601892B8A2B8B2B09F44ECF81E0809380
:102C50000403B3CF4091FF02509100036091010340
:102C600070910203411551056105710561F04150F4
:102C70005109610971094093FF0250930003609369
:102C80000103709302034091FF0250910003609191
:102C9000010370910203452B462B472B09F037CFD8
:102CA0008111C7CF9FCF8091FD02882309F431CFD6
:102CB0008091FE02CF911F910F91FF90EF90DF90D6
:102CC000CF900895109208031092090310920A03FE
:102CD00010920B031092070310920D0310920C0335
:102CE00010920603109205031092270310922603F8
:102CF00010920403109203031092FF02109200033B
:102D000010920103109202031092FE021092FD0233
:102D10001092220310922303109224031092250391
:102D20001092210310921D0310921E0310921F0394
:102D30001092200388EE93E0A0E0B0E0809353016E
:102D400090935401A0935501B0935601109219032A
:102D500010921A0310921B0310921C031092150379
:102D60001092160310921703109218031092140376
:102D70001092130381E0809352011092120310927B
:102D800011031092100310920F0310920E0390E0A3
:102D900080E008958091100390911103892BE1F454
:102DA00080915201882351F080911203811106C055
:102DB00081E08093FE028093FD02089580911203CA
:102DC000882341F080915201811104C01092FE02CB
:102DD00081E0F1CF1092FD02089582E090E0FA01C7
:102DE000918380838FEF9FEF0895CF93DF93EA0164
:102DF000009711F00E948D291982188290E080E0DE
:102E0000DF91CF910895DB01009719F48FEF8C9338
:102E100008952EEF2C9340968031910508F036C02E
:102E2000FC01EB5EF84E0C94BC3844174217401777
:102E30003E173C173A173617381734173217301722
:102E40002D17291725172B17461780E311968C93FA
:102E5000089589E2FBCF82E2F9CF11961C92089582
:102E600083E2F4CF81E2F2CF81E1F0CF87E2EECFCF
:102E70008AE2ECCF80E1EACF84E2E8CF88E2E6CFD5
:102E800086E2E4CF81E3E2CF83E3E0CF80E2DECFEE
:102E90008091340390913503089590933503809386
:102EA0003403089580913303089590913303892B5F
:102EB000809333030895982F90958091330389234D
:102EC00080933303089580913203089580913003F5
:102ED0009091310308956115710559F0FB0130E0BF
:102EE00020E070E060E02417350719F061157105E6
:102EF00011F0CB010895A081B181A817B90709F499
:102F0000BF012F5F3F4F3696EECF80913603811180
:102F10001CC062D268D290932903809328030E9438
:102F20008F210E94A12190932D0380932C030E9456
:102F30001F260E94262690932B0380932A0381E06C
:102F40008093360390E080E0089584EF9FEF08952A
:102F50008F929F92AF92BF92CF92DF92EF92FF92A9
:102F60000F931F93CF93DF93CDB7DEB72A970FB69A
:102F7000F894DEBF0FBECDBF1A86198618861F8251
:102F80001E821D821C821B821A8219828091360346
:102F900007EF1FEF882309F49CC08E010D5F1F4FC0
:102FA0009E012B5F3F4FAE01495F5F4FBE01675FE0
:102FB0007F4F90E080E00E949F278C01009721F0D6
:102FC0000596029708F0DBC029853A852115310561
:102FD00009F402C1ED80FE804B815C81B701640F72
:102FE000751F8F8198858617970708F4F5C0E20E44
:102FF000F31ED7019C91903C09F07FC042305105EF
:1030000008F47BC011968C914091340350913503A4
:10301000452B09F49CC0913F08F071C02CE1290FA9
:103020002D3008F48BC02DE2290F203108F489C01F
:10303000903C21F48150823008F483C088E3890FEA
:103040008B3008F481C093E0C92E97E1D92EEDEEC4
:10305000F6E16D817E81AE014F5F5F4F89859A8574
:1030600009955C01C114D104A1F189809A80811471
:10307000910479F18B819C818815990508F487C0AA
:1030800010E000E04B815C8170E060E0C7010E94CD
:10309000E43801151105E9F449815A8169857A8579
:1030A0008D819E81680F791FC501F6010995E98020
:1030B000FA800D811E812F81388549855A856FEFF1
:1030C0007FEF81E090E00E943B278C01892B09F083
:1030D00056C0C8012A960FB6F894DEBF0FBECDBF0A
:1030E000DF91CF911F910F91FF90EF90DF90CF90E4
:1030F000BF90AF909F908F90089580E085CF30E093
:1031000020E0220F331FF901E85DFC4F0190F081B0
:10311000E02D309709F497CF892F90E0099500971B
:1031200009F491CFDC011296ED91FC91139714965E
:10313000CD90DC90309709F08CCF1FC021E030E0BB
:10314000E0CF22E030E0DDCF23E030E0DACFD12C59
:10315000C12CE5EFF6E19F3F09F07BCFE09128031A
:10316000F0912903309721F4C90104EF1FEF0CC03F
:103170008FEF90E009950097A9F604EF1FEF89857E
:103180009A85009709F4A5CF0E948D29A2CF0E94AD
:1031900068288C0189859A850E948D2970E060E0FD
:1031A000C4010E94012898878F830E9438279E833C
:1031B0008D836F8178856115710559F0C8010E9472
:1031C000192B9A87898706EF1FEF892B09F058CFB3
:1031D00059CF08EF1FEF56CF08EF1FEFD0CF209148
:1031E0003603222319F020E00C94A62187EF9FEFED
:1031F0000895809134039091350308950E942B2601
:103200000E948525F5D0E8E2F3E088E0DF011D9219
:103210008A95E9F71092360390E080E008950C94C7
:10322000E22321E040E050E0BA010C94A62186E0C0
:1032300090E0FA019183808390E080E0089547E078
:1032400050E06FE771E047CEDF92EF92FF920F936D
:103250001F93CF93DF938A01EC01C60FD71FE09035
:103260003A03F0903B03D9800E945028D8161906E3
:1032700078F082E090E0F801918380838EEF9FEFF9
:10328000DF91CF911F910F91FF90EF90DF90089504
:10329000EF2841F482E090E0F8019183808384EF8D
:1032A0009FEFEECF89818093390390E00196F8017A
:1032B0009183808390E080E0E3CFCF93DF93EA01B6
:1032C0000E949324882321F00E945D280E94942468
:1032D00082E090E0998388838BEF9FEFDF91CF911D
:1032E0000895CF93DF93EB0186E0FB0111928A955D
:1032F000E9F78FEF8883D6DD8983E5DD8A83E6DD14
:103300009D838C83DF91CF910895CF93DF93EA0162
:103310000E949624811109C082E090E099838883FD
:1033200085EF9FEFDF91CF91089590E080E0B5DDCC
:1033300081E090E09983888390E080E0F3CF0F9361
:103340001F93CF93DF93EA018C01060F171F0E9492
:10335000962481110BC082E090E09983888385EFE9
:103360009FEFDF91CF911F910F910895F801818117
:10337000823038F082E090E0998388838EEF9FEF6F
:10338000F0CF81E090E089DD88E090E09983888348
:1033900090E080E0E6CFCF93DF930097D1F4EB018C
:1033A000FB01329686E0DF011D928A95E9F78FEFE7
:1033B000888385E089831A820E9450288B830E942B
:1033C0004F289D838C8381E08E838F83DF91CF9103
:1033D0000895DF91CF9117CD8FE199E19093380354
:1033E00080933703089580913703909138030895AF
:1033F0001092380310923703089580913A03909108
:103400003B030895411105C06115710581059105C2
:1034100061F060933A0370933B0380933C03909375
:103420003D0340933E0381E0089580E00895FF92BC
:103430000F931F93CF93DF938A01EC01C60FD71F21
:10344000F9800E945028F816190668F082E090E092
:10345000F801918380838EEF9FEFDF91CF911F91D1
:103460000F91FF9008956C817D818E819F814B81AA
:10347000C9DF811108C082E090E0F8019183808368
:1034800084EF9FEFEACF89818093390390E0019622
:10349000F8019183808390E080E0DFCFCF93DF93CA
:1034A000EA01FC01E60FF71F64817581868197812F
:1034B0004381A8DF811109C082E090E0998388836D
:1034C00084EF9FEFDF91CF91089581E090E09983A1
:1034D000888390E080E0F6CFEAE3F3E04081518119
:1034E00062817381480F511D611D711D408351839D
:1034F000628373830895CF93C09139034C2F50E0BA
:1035000060913A0370913B0301960E94DB388C2F47
:10351000E3DF10923903CF910895009799F48091D9
:103520003A0390913B032FEFFB012083892B59F045
:103530002091390330E02F5F3F4F2417350719F4EE
:10354000CB01D9CF60CC0895009799F480913A03CC
:1035500090913B032FEFFB012083892B59F02091A1
:10356000390330E02F5F3F4F2417350719F4CB01A3
:10357000C2CF49CC089523E1AC01249FC001259F0F
:10358000900D1124E0914303F0914403E80FF91FDB
:10359000238134812250310981E02230310508F045
:1035A00080E008950F931F93CF93DF93009145031D
:1035B00010914603D0E0C0E080E00C171D0749F4ED
:1035C00091E0811190E0892FDF91CF911F910F91B0
:1035D00008958111F5CFCE01CEDF2196EECFA091D7
:1035E0004303B0914403109729F120914503309192
:1035F000460382179307F0F453E1589F9001599FB7
:10360000300D1124A20FB31FED91FC91119730974B
:1036100089F012968C91681768F48DE0689FE00D30
:10362000F11D112480819181892B21F081E092810B
:10363000491708F080E008959C0143E1429FC001D2
:10364000439F900D1124E0914303F0914403E80F50
:10365000F91F8385823091F481E090E06581768165
:1036600040915701509158016417750711F490E08B
:1036700080E0892B19F081E0232B09F080E0089588
:10368000FC01A081B1818DE0689FA00DB11D1124C6
:1036900013964D915C9185859685489F9001499F31
:1036A000300D589F300D1124C9010196611103C0DE
:1036B000478144FD04960895EF92FF920F931F9364
:1036C000CF93DF93EA01FC01E60FF71F028113811C
:1036D000E480F5804F2D6E2DC80181DF81110DC072
:1036E00082E090E0998388838EEF9FEFDF91CF9106
:1036F0001F910F91FF90EF900895C8013CDF882340
:1037000039F082E090E09983888388EF9FEFEECFD5
:1037100010935E0100935D01E0925F01F092600101
:1037200081E090E09983888390E080E0DFCFCF92C2
:10373000DF92EF92FF920F931F93CF93DF937A0163
:10374000EC01C60FD71FC0905D01D0905E010091C3
:103750005F0110916001412F602FC60140DF811190
:1037600010C082E090E0F701918380838AEF9FEFA1
:10377000DF91CF911F910F91FF90EF90DF90CF904D
:103780000895C601F8DE882341F082E090E0F70159
:103790009183808388EF9FEFEBCF4C815D816E81B9
:1037A0007F819A8189818F3F41F082E090E0F7012B
:1037B000918380838EEF9FEFDBCFE3E1EC9D90015F
:1037C000ED9D300D1124E0914303F0914403E20F8D
:1037D000F31F0190F081E02D2DE0029FE00DF11D1F
:1037E00011240190F081E02D27E0129FE00DF11DE2
:1037F0001124808391838B818283438354836583E7
:1038000076831F5F1093600181E090E0F701918360
:10381000808390E080E0ACCFEF92FF920F931F93F4
:10382000CF93DF937A018C01060F171FC0914303DA
:10383000D0914403209781F021E030E0F8018281AB
:10384000938140914503509146038417950710F0EA
:1038500030E020E0232B71F482E090E0F7019183C7
:1038600080838EEF9FEFDF91CF911F910F91FF909B
:10387000EF90089543E1489F9001499F300D112436
:10388000C20FD31F78DE882341F082E090E0F70179
:103890009183808388EF9FEFE6CFF8012481358103
:1038A00020383105C8F687818111D6CF4181842F18
:1038B00090E08F7E009741F082E090E0F7019183E5
:1038C000808386EF9FEFCFCF4F833E832D8326816A
:1038D00028871986223010F421E0288721E030E083
:1038E000F70131832083BFCF88E090E0FA01918314
:1038F000808390E080E00895FB018FEF808381E179
:1039000081838FEF9FEF9383828380E890E095839C
:103910008483168217820895FB018FEF808391E0E4
:10392000918382839383848384E3858381E090E021
:1039300097838683089582E090E0FA0191838083E3
:1039400080EF9FEF0895DF92EF92FF920F931F9306
:10395000CF93DF93EA01FC01E60FF71F81818130ED
:1039600071F082E090E0998388838FEF9FEFDF9181
:10397000CF911F910F91FF90EF90DF90089582817A
:103980009381D4802581E680F780009143031091D4
:1039900044030115110539F482E090E0998388838E
:1039A0008CEF9FEFE4CF409145035091460384177D
:1039B000950738F082E090E0998388838EEF9FEF3F
:1039C000D6CF892B39F082E090E09983888386EF07
:1039D0009FEFCDCF8D2D8D7FB1F72130A1F781E005
:1039E000D11006C091E0E916F10431F080E004C086
:1039F000E2E0EE16F104D0F3882329F390E080E0B2
:103A0000BADD882339F082E090E09983888388EFDB
:103A10009FEFADCFF801D38681E08487F686E586F7
:103A2000108A178681E090E09983888390E080E097
:103A30009ECF4DE050E069EA71E04DCA8F929F92AF
:103A4000BF92CF92DF92EF92FF920F931F93CF938B
:103A5000DF93EA01FC01E60FF71F82819381048165
:103A6000B580E0914303F0914403309791F482E0F4
:103A700090E0998388838CEF9FEFDF91CF911F9126
:103A80000F91FF90EF90DF90CF90BF909F908F901D
:103A9000089520914503309146038217930738F02B
:103AA00082E090E0998388838EEF9FEFE6CF23E159
:103AB000289F6001299FD00C1124EC0DFD1DE08092
:103AC000F180E114F10499F28281081748F78DE042
:103AD000089F80011124E00EF11EF7018081918181
:103AE000892B29F6BB20E1F2F7E0BF9E40011124AB
:103AF000C4010E945429F70191838083E09143031C
:103B0000F0914403EC0DFD1D0190F081E02DE00FDC
:103B1000F11F80819181009739F482E090E09983D0
:103B200088838DEF9FEFA9CFA40170E060E00E9431
:103B3000E4388091430390914403C80ED91EF601E6
:103B400080819181080F191FF801B28281E090E015
:103B50009983888390E080E090CFAF92BF92CF921C
:103B6000DF92FF920F931F93CF93DF93EA01FC0143
:103B7000E60FF71F82819381F48000914303109137
:103B800044030115110581F482E090E09983888354
:103B90008CEF9FEFDF91CF911F910F91FF90DF90FE
:103BA000CF90BF90AF900895209145033091460388
:103BB0008217930738F082E090E0998388838EEF34
:103BC0009FEFE8CF2FEF2F0D2C3FA8F723E1289F81
:103BD0006001299FD00C11240C0D1D1DF80180815E
:103BE0009181892B89F6FDE0FF9E50011124C501CA
:103BF0000E945429F80191838083E0914303F0915E
:103C00004403EC0DFD1D80819181009739F482E021
:103C100090E0998388838DEF9FEFBCCFA50170E082
:103C200060E00E94E438E0914303F0914403EC0D1E
:103C3000FD1DF28281E090E09983888390E080E02E
:103C4000A9CFCF92DF92EF92FF920F931F93CF9362
:103C5000DF93860F971FFC0102811381809143033C
:103C600090914403892B81F082E090E0FA019183E6
:103C700080838CEF9FEFDF91CF911F910F91FF9089
:103C8000EF90DF90CF900895C801B0E0A0E00197D9
:103C9000A109B1098F3F9F4FA105B10540F082E016
:103CA00090E0FA01918380838EEF9FEFE4CF7A0159
:103CB00083E1809F6001819FD00C1124C6010E9486
:103CC0005429EC01009741F482E090E0F7019183E0
:103CD00080838DEF9FEFCFCFA60170E060E00E9460
:103CE000E438D0934403C0934303109346030093F6
:103CF000450390E080E02FEF3FEF41E061E070E0AE
:103D00008017910741F481E090E0F701918380836F
:103D100090E080E0B0CF3A8B298B1B864C877E8762
:103D20006D87188A1F8601966396EACFEF92FF92FD
:103D30001F93CF93DF93EC0110E0F12CE12C6A810B
:103D40001617A8F070E0660F771FAE014F5E5F4F49
:103D5000C7010E94B929009721F02FEF3FEF3A8B5E
:103D6000298BDF91CF911F91FF90EF900895612FE4
:103D7000CE0186DC61E070E00E940128E816F906B9
:103D800008F47C011F5FDBCFF89420914103309150
:103D9000420381E02115310509F080E0232B09F071
:103DA000789408952F923F924F925F926F927F92F4
:103DB0008F929F92AF92BF92CF92DF92EF92FF923B
:103DC0000F931F93CF93DF933C01660E771EF30191
:103DD000828193814C01B12CA12CC0914303D091DD
:103DE0004403209769F021E030E060914503709131
:103DF00046038617970710F030E020E0232BD1F41C
:103E000082E090E0FA01918380838EEF9FEFDF9153
:103E1000CF911F910F91FF90EF90DF90CF90BF90C7
:103E2000AF909F908F907F906F905F904F903F905A
:103E30002F9008958092610190926201A092630197
:103E4000B092640163E1689F9001699F300D112475
:103E5000C20FD31FF3018181833040F082E090E0F4
:103E6000FA019183808386EF9FEFD1CF2A012B81C6
:103E70003C81232BF1F4288139819F8191FF2EC051
:103E8000232B09F46FC0209148039A81422F490FD8
:103E90005527551FBA0141E050E06138710514F013
:103EA00050E040E0452B09F45DC02A87920F9093C3
:103EB00048038150823008F481C066DF882309F40A
:103EC000D8C0F3018181813009F48DC008F47BC032
:103ED000823009F4C6C090E080E0ADC0232B09F425
:103EE00041C0209147039A81E22FE90FFF27FF1F6E
:103EF00041E050E0ED3FF10514F050E040E0452B8B
:103F000089F12A87920F90934703D3CFA081B18183
:103F1000A20FB31F11966C91060F111D0196295F18
:103F20003F4F8417950794F38D859E85089F100158
:103F3000099F300C189F300C1124C114D104D1F406
:103F40008F8184FF17C00E944F28F5E02F0E311C8F
:103F500021E08215930508F420E0A701435F5F4F3D
:103F600021110EC082E090E0F2019183808387EFFF
:103F70009FEF4DCF0E944F282FEF221A320AE8CF31
:103F800088819981E80EF91EF70114830383FFEFFE
:103F9000CF1ADF0A7A018A818C151D0409F00CF40E
:103FA0008CCFE881F981EE0DFF1D428150E030E0B9
:103FB00020E010E000E090E080E0B3CFF12CE12CB5
:103FC000D12CC12CE8CF81E090E09C838B83EADA8E
:103FD000882309F480CF81E090E00E944D1780E4AF
:103FE0000E945B1778CF89899A89019661F083E0F6
:103FF00090E09C838B8382E090E00E944D1780E4E8
:104000000E94551768CF8D819E8120915701309174
:10401000580182179307D1F460915B0170915C01A4
:10402000AE014F5E5F4F8091590190915A010E94FD
:10403000D82A0097E1F2789422E030E0F20131834F
:104040002083892B99F08DEF9FEFE1CE89288A2874
:104050008B2869F6029758F6CE0168DE188A1F860B
:10406000E8CF82E090E09C838B8335CF90E080E0C6
:10407000CECE82E090E0F2019183808385EF9FEFC6
:10408000C6CE8F929F92AF92BF92CF92DF92EF9265
:10409000FF920F931F93CF93DF93EA018C01060FDA
:1040A000171FF8018181833098F082E090E09983B6
:1040B000888386EF9FEFDF91CF911F910F91FF9043
:1040C000EF90DF90CF90BF90AF909F908F9008952A
:1040D0008091430390914403892B61F081E090E04B
:1040E0002091450330914603232B11F490E080E0AA
:1040F000892B39F482E090E0998388838EEF9FEFDB
:10410000DACF42DE882309F4E0C0F80181818130F2
:1041100009F496C0E8F0823099F42091450330917B
:104120004603E0914303F091440390E080E041E0D6
:1041300050E02817390709F0BEC034DA811117C0E2
:10414000789481E090E09983888390E080E0B3CF19
:104150002091450330914603E0914303F0914403DD
:1041600090E080E041E050E02817390741F481E019
:1041700090E00E944D1780E40E945B17E1CF6381BD
:104180007481672B11F05483438301967396ECCFAF
:10419000E0914303F0914403E00FF11F2381348148
:1041A00022303105D9F4218932892F3F3F4FB1F4B4
:1041B00025813681409157015091580124173507C8
:1041C00061F5AF014F5E5F4F60915B0170915C01E3
:1041D0008091590190915A010E94D82AEFEFCE1A8E
:1041E000DE0AEE0AFE0A0D5E1F4F40914503509114
:1041F000460370E060E0C416D506E606F70644F50F
:10420000009731F27894892B09F49BCF82E090E0FB
:10421000998388838DEF9FEF4ECFC114D104E104C1
:10422000F104E1F622303105C8F6CF017FDDE091DF
:104230004303F0914403E00FF11F108A1786CECF9D
:1042400010E000E090E080E0C12CD12C7601CDCFD1
:104250000097C1F610E000E0812C912C540183E01E
:10426000E82EF12C1AC0E0914303F0914403E00FD3
:10427000F11F83819481029749F4F482E38282E002
:1042800090E00E944D1780E40E945517FFEF8F1AAF
:104290009F0AAF0ABF0A0D5E1F4F809145039091A0
:1042A0004603B0E0A0E088169906AA06BB06DCF239
:1042B00090E080E0A7CF638174816230710511F4D2
:1042C000548343830196739634CF82E090E09983C0
:1042D000888385EF9FEFEFCE0097B9F48FEFFB0156
:1042E0008083209161013091620143E1429FC001CE
:1042F000439F900D1124E0914303F0914403E80F94
:10430000F91F8285FB01818308950C94031788E0CF
:1043100090E0FA019183808390E080E0089510920C
:10432000420310924103E3E4F3E086E0DF011D92D3
:104330008A95E9F789E19DE19093400380933F03DB
:10434000089580913F039091400308952F923F92EA
:104350004F925F926F927F928F929F92AF92BF9295
:10436000CF92DF92EF92FF920F931F93CF93DF9341
:10437000CDB7DEB72F970FB6F894DEBF0FBECDBF17
:10438000F894E0914103F09142033196F093420397
:10439000E0934103789440904303509044034114C8
:1043A000510409F40CC2E0914503F0914603EF2B50
:1043B00009F405C22D8749875A876B877C879887C0
:1043C0008F831201B12CA12C10E000E080914503F5
:1043D00090914603A816B90618F40115110529F1A4
:1043E000F894809141039091420301979093420386
:1043F000809341037894C8012F960FB6F894DEBFDE
:104400000FBECDBFDF91CF911F910F91FF90EF9025
:10441000DF90CF90BF90AF909F908F907F906F90E4
:104420005F904F903F902F9008957101E418F50828
:10443000D10117968C91179781FD54C013968D91D9
:104440009C911497039709F04DC015968D919C91FE
:10445000EF81F8858E179F0709F044C0B50190E001
:1044600080E07ED48A8320914303309144033D83CE
:104470002C833D85332309F44CC04C815D81452B51
:1044800009F49AC18091450390914603A816B90694
:1044900008F092C1C501D0D88823E9F06C817D81F4
:1044A0006E0D7F1D7D836C83DB011F968D919C912A
:1044B000892B89F0D12CC12CF12CE12CAC81BD8150
:1044C00012968C9112978E151F0409F094F4509651
:1044D0001C921E921F972A81222321F0B50190E0A1
:1044E00080E040D43FEFA31AB30A43E1240E311C0D
:1044F0006DCFAC81BD81ED91FC91EC0DFD1D8581F1
:1045000096810BD7BFEFEB1AFB0AEDE0CE0ED11C64
:10451000D5CFEC81FD81309709F44EC180914503E0
:1045200090914603A816B90608F046C1EE0DFF1D8E
:10453000FF87EE87C50180D88B83882339F1AE854C
:10454000BF851F968D919C915097019621E01D96F5
:104550004D915C918417950709F020E02E83198214
:10456000712C10E000E0AE85BF8512968C91781614
:1045700008F45DC0EE85FF85878590890196658585
:1045800076850E948638908B8787A5CFB1E0BE8361
:10459000E6CF992493946BC087D6F60196838583E2
:1045A00082C0D601ED90FC90B7E06B9EE00CF11C50
:1045B0001124F7016381748180818F3F61F121E0D3
:1045C00030E002C0220F331F8A95E2F7C901092E9D
:1045D000000CAA0BBB0BFB014081518162817381EE
:1045E00084239523A623B72321E0892B8A2B8B2BA9
:1045F00009F420E0D4012C93D70111968C91F60197
:1046000023853485820F932F911D880E991E148661
:10461000138663949BC0418150E0C4010E94DB3843
:10462000EBCF998206EF1FEFC5C01982C3C0F98195
:10463000F111A0CFEDE07E9E70011124AE85BF8503
:10464000CD90DC90CE0CDF1C13D49D838C83BB817A
:10465000BB2309F49ECF81E0EE85FF852785308955
:10466000232B09F080E0982E882309F458C0672D89
:104670008E859F8505D8D60118969C938E931797A3
:1046800061E070E0BED4EE85FF85218932892F3F3D
:10469000320709F481CFBC01C901CBD7D6011696E8
:1046A0009C938E931597D60115968D919C91169794
:1046B000009709F4B6CFEC81FD818E0F9F1F1A96EB
:1046C0009C938E931997AE85BF85ED91FC911197C0
:1046D000EE0EFF1EF70121853285148613861A9689
:1046E0008C91870DD9018D93711016C0EE85FF85D1
:1046F000878184FF11C049855A856B857C85F901C6
:104700004183528363837483F70183859485049680
:10471000A80FB91F14861386F701B287A187D601A7
:1047200015968D919C911697892B09F443C0EE85BF
:10473000FF85258136818091570190915801281776
:10474000390779F019968D909C90612CD6011296BC
:104750008C911297681608F424CF1A969C928E9228
:104760001997BE81BB2309F460CF61E070E0F601C8
:104770008781908546D4D6011796ED90FC901897C6
:1047800015964D915C91E1E0F0E0BA81BB2311F008
:10479000F0E0E0E00C811D819C01B501882799279C
:1047A0008E1B9F0B68D38C01892B21F0F60185812C
:1047B0009681B3D57394D7CE0FEF1FEF8CCE10E058
:1047C00000E00ECE2F923F924F925F926F927F92B7
:1047D0008F929F92AF92BF92CF92DF92EF92FF9211
:1047E0000F931F93CF93DF938091430390914403E2
:1047F00010E000E0892BA9F0C7DA0AEF1FEF882349
:1048000081F02090450330904603C0914303D0913E
:104810004403D12CC12C10E000E02C143D04A9F479
:104820007894C801DF91CF911F910F91FF90EF9085
:10483000DF90CF90BF90AF909F908F907F906F90C0
:104840005F904F903F902F900895C6010E941C1BCF
:10485000882309F18B819C810397E9F48F859889DE
:10486000892BC9F0B60190E080E07AD221E030E0F7
:10487000882311F030E020E044245524421A530AE2
:10488000B12CA12C912C812C8A818815190409F056
:1048900038F4188A1F864FEFC41AD40A6396BDCF26
:1048A000E881F981EA0DFB1D85819681892BA1F1B3
:1048B00061E070E087819085A4D33C01D9D28C015E
:1048C000E881F981EA0DFB1D81859285258136817C
:1048D000200F311FAC01421B530B9A0147815085B9
:1048E000421B530B70E060E00E94E438E881F981DC
:1048F000EA0DFB1DE780F084458156819301B601E6
:10490000C201B9D28C01892B39F0E881F981EA0D15
:10491000FB1D8581968101D55FEF851A950A8DE093
:10492000A80EB11CB1CF30CA789408952F923F924F
:104930004F925F926F927F929F92AF92BF92CF926F
:10494000DF92EF92FF920F931F93CF93DF9300D0EC
:1049500000D000D0CDB7DEB70091430310914403DF
:10496000992493940115110509F43EC0A0904503C4
:10497000B090460309DA982E8823B1F110924403CF
:10498000109243031092460310924503109247037E
:10499000109248038FEF9FEFDC01809361019093A9
:1049A0006201A0936301B093640178947AD31E836B
:1049B0000D83C12CD12C7601C501B0E0A0E0898324
:1049C0009A83AB83BC8322242A94322C89819A81D6
:1049D000AB81BC81C816D906EA06FB06F4F0C80113
:1049E0009CD480E40E945B17892D26960FB6F8941C
:1049F000DEBF0FBECDBFDF91CF911F910F91FF9012
:104A0000EF90DF90CF90BF90AF909F907F906F908E
:104A10005F904F903F902F900895AD81BE81159685
:104A20008D919C91169720915701309158018217D2
:104A30009307D1F451968D919C91E9D5ED81FE813A
:104A400080819181B12CA12C412C512C3201892BD8
:104A500089F5BFEFCB1ADB0AEB0AFB0AED81FE8179
:104A60007396FE83ED83B2CFC114D104E104F10447
:104A700029F7029718F7ED81FE81818992898F3F8E
:104A8000980709F024D5AD81BE8152963C922E92B2
:104A90005197D4CF8A0D9B1DDC018D919C9100977D
:104AA00009F03BD4BFEF4B1A5B0A6B0A7B0AEDE0BF
:104AB000AE0EB11CAD81BE818D919C911197129665
:104AC0004C9150E070E060E04416550666067706AB
:104AD0000CF323D4BECFCF93DF93EA0127DF8111FC
:104AE00009C082E090E09983888385EF9FEFDF9192
:104AF000CF91089581E090E00E944D1781E090E011
:104B00009983888390E080E0F2CF10DF1092400319
:104B100010923F03089542E050E067EF71E00C947B
:104B20006B17FF920F931F93CF93DF938A01EC01D2
:104B3000C60FD71FF980B4D20897F816190671F07E
:104B400068F082E090E0F801918380838EEF9FEF20
:104B5000DF91CF911F910F91FF9008956C817D811E
:104B60008E819F814B810E94021A811108C082E0D0
:104B700090E0F8019183808384EF9FEFE9CFF98083
:104B80000E94FD194F2D50E0BE01685F7F4F0E94CB
:104B9000DB3889810E946C1A81E090E0F8019183F2
:104BA000808390E080E0D4CFDF92EF92FF920F936A
:104BB0001F93CF93DF938A01EC01C60FD71F0E948A
:104BC000FD197C01D9806CD2DD2059F0029721E0DB
:104BD00030E0D816190619F010F030E020E0232B51
:104BE00079F482E090E0F801918380838EEF9FEF6B
:104BF000DF91CF911F910F91FF90EF90DF9008957B
:104C0000EF2841F482E090E0F8019183808384EF03
:104C10009FEFEECFF9800E94FD194F2D50E0BE01AD
:104C20006E5F7F4F0E94DB3889810E946C1A81E0A1
:104C300090E0F8019183808390E080E0D9CF8BE809
:104C400095E290934A038093490308958091490324
:104C500090914A0308950895FC0111821082938374
:104C600082830895DB011D921C92DC011296ED9166
:104C7000FC9113977183608313967C936E931297C4
:104C80000895FC0180819181DB018D939C93A0812B
:104C9000B181109741F08D919C9191838083892BF4
:104CA00011F4F383E2830895FC0180819181DB019B
:104CB0008D939C93892B11F473836283718360833A
:104CC0000895FC0111821082938382830895CF930B
:104CD000DF9300D0CDB7DEB71A821982F894BE01F7
:104CE0006F5F7F4F80E593E0CCDF89819A810097E9
:104CF00009F013D389819A81892B89F7BE016F5FEF
:104D00007F4F84E593E0BDDF89819A81009709F0A8
:104D100004D389819A81892B89F778940F900F9019
:104D2000DF91CF910895CF93DF9300D0CDB7DEB759
:104D30001A821982F894BE016F5F7F4F8CE493E072
:104D4000A0DF89819A81009709F0E7D289819A8151
:104D5000892B89F778940F900F90DF91CF91089568
:104D600081E0089590E080E00895EF92FF920F9324
:104D70001F93CF93DF9300D0CDB7DEB71A8219828D
:104D800080914B0307EF1FEF8823A1F1F894BE0138
:104D90006F5F7F4F84E593E074DF789489819A8117
:104DA000EE24E394F12C892B51F4F894BE016F5F4B
:104DB0007F4F80E593E065DF7894F12CE12C8981C9
:104DC0009A810EEF1FEF0097A9F0FC0142815381F9
:104DD00064E070E072D68C01892B61F0F8946981EF
:104DE0007A81C701880F991F880F991F805B9C4F9C
:104DF0005BDF7894C8010F900F90DF91CF911F91E6
:104E00000F91FF90EF9008950F931F93CF93DF932F
:104E100000D000D0CDB7DEB71C821B821A82198267
:104E200080914B0307EF1FEF8823C1F0AE014D5F68
:104E30005F4F64E070E0CE010196B2D68C01892B01
:104E400069F4E981FA818B819C8193838283F89450
:104E500069817A818CE493E005DF7894C8010F9032
:104E60000F900F900F90DF91CF911F910F910895A8
:104E7000B7D7049608958F929F92AF92BF92CF9228
:104E8000DF92EF92FF920F931F93CF93DF9300D0A7
:104E9000CDB7DEB71A821982BC016F5F7F4F6330D6
:104EA000710598F0AA24AA94BA2CC5010F900F900E
:104EB000DF91CF911F910F91FF90EF90DF90CF90F6
:104EC000BF90AF909F908F9008954115510551F379
:104ED000480159018A016C01CBDF8815990511F74A
:104EE000E114F104F9F28E0D9F1DA816B906D0F257
:104EF00080914B038823F1F0F894B5016450710957
:104F00009701AE014F5F5F4FC8010496DED65C018A
:104F1000892B71F489819A81F80193838283C60178
:104F2000880F991F880F991FB801805B9C4F9ADEEC
:104F30007894BBCF87EFA82EBB24BA94B6CFAF929C
:104F4000BF92CF92DF92EF92FF920F931F93CF9376
:104F5000DF9300D0CDB7DEB71A821982892B09F012
:104F600047C06115710509F443C04115510509F4A5
:104F70003FC02115310509F43BC001151105C1F1F0
:104F800080914B038823B9F179016A015B01F894A0
:104F9000BE016F5F7F4F8CE493E073DE789489816C
:104FA0009A81009759F1DC0112966D917C91A801CC
:104FB0000496A4D68C01E981FA81D501ED93FC9386
:104FC000828193810496F6019183808351DFD7011A
:104FD0008D939C93C8010F900F90DF91CF911F91FB
:104FE0000F91FF90EF90DF90CF90BF90AF9008951A
:104FF0000FEF1FEFEFCF07EF1FEFECCF0EEF1FEF1D
:10500000E9CFCF93DF93EC01672B71F4F2D68C17C5
:105010009D0760F0E5D62496C80FD91FE4D68C0F03
:105020009D1FDF91CF910895E1D6F1CF90E080E010
:10503000F8CF0F931F93CF93DF9320914B03211150
:105040002BC08B01EC0180E593E006DE84E593E064
:1050500003DE8CE493E000DE97D00097C1F4C9D65C
:1050600070E060E0CEDF45E651E062E070E081D1C3
:10507000009769F48091650190916601CCD6B801E2
:10508000CE0101D5009719F421E020934B03DF9165
:10509000CF911F910F91089584EF9FEFF8CFA6C68F
:1050A000A8C6CF93DF93A8D6EC01892B11F40FDEAD
:1050B0003ADECE01DF91CF910895CF93DF939CD656
:1050C000EC01892B09F403DECE01DF91CF91089525
:1050D00080916501909166010895CF93DF9380914F
:1050E0004B03D0E0C0E08823D1F09AD6EC01892BA5
:1050F000B1F4EDDD18DE8091650190916601E7D194
:10510000E8D2EC01892B59F480E593E0DADD84E5FF
:1051100093E0D7DD8CE493E0D4DD10924B03CE0115
:10512000DF91CF910895EF92FF920F931F93CF934A
:10513000DF93EC017A018B010F5F1F4F0E9DA001E1
:105140000F9D500D1E9D500D112470E060E00E94D7
:10515000E43890E080E0F0E0E0E02FEFE816F906B8
:1051600039F4DF91CF911F910F91FF90EF90089547
:105170001A8219822883309711F0D283C183019655
:10518000FE01C00FD11FEACFCF92DF92EF92FF92C4
:105190000F931F93CF93DF9304E814E00C7F43E059
:1051A00050E067E671E08DE691E01AD487E6E82EDC
:1051B00081E0F82E9DE6C92E91E0D92ECBE2D5E014
:1051C000D7014D915D917D01F601619171916F0162
:1051D000198308835D834C835B834A837F836E835B
:1051E0009B012F5F3F4F249FC001259F900D349F4F
:1051F000900D1124998788870115110511F0C801B8
:1052000092DF88859985080F191F2A96FDE6EF160B
:10521000F1E0FF06A9F6EAE5F3E087E291E0DF01BD
:105220009C011D9221503040E1F7109259031092D9
:10523000580310924A051092490510924E0510929B
:105240004D0510924C0510924B051092500510928E
:105250004F0510925205109251051092540510926C
:10526000530510925805109257051092560510924A
:10527000550510925A051092590510925C0510922E
:105280005B05109228051092270510922A051092AE
:10529000290590E080E0DF91CF911F910F91FF9061
:1052A000EF90DF90CF9008950097F1F0F894ADE67D
:1052B000B1E0EBE2F5E030E020E04D915D91481780
:1052C0005907A8F0428153814115510581F08AE0C8
:1052D000829FF001839FF00D1124E55DFA4F8081DC
:1052E0009181009759F4789490E080E008952F5FC1
:1052F0003F4F3A962330310501F7F5CFDC01119687
:105300006D917C9171836083415051095383428335
:10531000FC012193CF0178940895009749F1DC01B5
:105320008E91853041F4E0912905F0912A0530975E
:10533000F9F0CD0109948530D8F4282F30E0F894A5
:105340008FEF8C938AE0829FF001839FF00D1124F0
:10535000E55DFA4F8081918112969C938E9311970F
:10536000B183A08382819381019693838283789411
:105370000895CF92DF92EF92FF920F931F93CF93F6
:10538000DF939C018DE593E08C7F4115510509F475
:105390009BC02115310509F497C06115710509F409
:1053A00093C07A01AB01B9016D5F7F4F6C7F9B01A8
:1053B0002F5F3F4F249F8001259F100D349F100DBC
:1053C0001124F8942091490530914A05232B59F472
:1053D00020915105309152052115310569F12017B1
:1053E000310708F058C02091530530915405232B04
:1053F00091F42091510530915205820F931F209115
:105400005B0530915C052115310509F441C0201779
:10541000310708F056C07894CFEFDFEF86EF9FEFAB
:10542000F701D183C083DF91CF911F910F91FF903E
:10543000EF90DF90CF900895C3E0D0E0C090580384
:10544000D090590324E231E02C193D09201731078F
:1054500010F32AE02C9FF0012D9FF00D1124E55D43
:10546000FA4F9183808355834483538342837783A8
:10547000668311870087009709F055DE0C0D1D1D0E
:105480001093590300935803789490E080E0C8CFBC
:10549000C4E0D0E0D3CFC3E0D0E02AE02C9FF001FD
:1054A0002D9FF00D1124E55DFA4F91838083558384
:1054B00044835383428377836683009729F333DEE3
:1054C000E3CFC4E0D0E0E9CF8FEF9FEFACCF9C01FA
:1054D0000397029708F069C0F89484E09AE0482F97
:1054E00050E0241735070CF44DC091E08AE0829F0C
:1054F000F001839FF00D1124E55DFA4F11821082B7
:105500001582148213821282178216829923B1F1B6
:105510008091490590914A05892BA9F42091510564
:10552000309152052115310571F080915803909109
:105530005903821B930B9093590380935803109245
:105540005205109251058091530590915405892B75
:10555000A9F420915B0530915C052115310571F0AE
:105560008091580390915903821B930B9093590398
:105570008093580310925C0510925B05789490E03C
:1055800080E00895949FF001959FF00D1124E55D52
:10559000FA4F40815181452B31F440855185452B8F
:1055A00011F481509CCF90E0A1CF8FEF9FEF089531
:1055B0004115510549F1009739F16115710521F146
:1055C000F8942091270530912805232BB9F42091D8
:1055D000290530912A05232B89F49093280580937F
:1055E000270570932A0560932905789425E030E01B
:1055F00090E080E0FA0131832083089578942FEFC2
:105600003FEF86EF9FEFF6CF8FEF9FEF089505975F
:1056100069F4F894109228051092270510922A0533
:1056200010922905789490E080E008958FEF9FEF25
:1056300008956115710519F4F0E0E0E011C08530BE
:10564000910581F4E0912705F09128053097A1F3A9
:10565000CB0101960995009779F3FC0185E08193D0
:10566000CF0108959C01235031092230310520F7E4
:105670002AE0289FD001299FB00D1124A55DBA4FC3
:105680002D913C911197232BB9F216962D913C91B7
:1056900017972617370780F2F89412962D913C91B0
:1056A00013972115310529F0ED91FC911197309751
:1056B00011F47894C1CF4181528111965C934E933D
:1056C0002150310913963C932E931297819378942D
:1056D000C7CFE1E8F4E086EADF011D928A95E9F799
:1056E000EAE5F3E087E291E0DF019C011D922150A1
:1056F0003040E1F71092590310925803EBE2F5E0C5
:1057000082E3DF011D928A95E9F7E7E2F5E084E0A4
:10571000DF011D928A95E9F790E080E00895CF932C
:10572000DF93C0917301D0917401CF3FDC0759F42E
:1057300045D4909374018093730197FF09C0D0936F
:105740007401C093730184EF9FEFDF91CF910895AF
:1057500090E080E0FACF8230910528F480935D05D7
:1057600090E080E008958FEF9FEF08954F925F9251
:105770006F927F92AF92BF92CF92DF92EF92FF92A1
:105780000F931F93CF93DF9300D0CDB7DEB71A826C
:105790001982009709F479C06115710509F475C083
:1057A000209173013091740107EF1FEF2F3F3F4F9E
:1057B00009F445C06B015C01412C512C3201F12CE4
:1057C000E12C10E000E09E012F5F3F4FA6014E1933
:1057D0005F09B5016E0D7F1D809173019091740179
:1057E0004CD4892B09F04BC089819A81009741F4F0
:1057F000E114F10429F420915D05222309F442C04B
:10580000E80EF91EEC14FD04D0F480E8481684E894
:1058100058068EE16806710420F560E070E0CB0167
:105820000E9422352AE0420E511C611C711C0A3F65
:105830004FEF140721F0043F8FEF1807A1F4C801C0
:105840000F900F90DF91CF911F910F91FF90EF90EC
:10585000DF90CF90BF90AF907F906F905F904F9010
:10586000089501EF1FEF81E090E0013F2FEF120755
:1058700011F090E080E0892B09F4A5CFE0CF04EF90
:105880001FEFDDCF0AEF1FEFDACF0FEF1FEFD7CFFC
:105890004F925F926F927F92AF92BF92CF92DF92C0
:1058A000EF92FF920F931F93CF93DF9300D0CDB76A
:1058B000DEB71A821982009709F479C06115710563
:1058C00009F475C0209173013091740107EF1FEF47
:1058D0002F3F3F4F09F445C06B015C01412C512C17
:1058E0003201F12CE12C10E000E09E012F5F3F4FD0
:1058F000A6014E195F09B5016E0D7F1D80917301E0
:105900009091740170D3892B09F04BC089819A81E1
:10591000009741F4E114F10429F420915D0522235C
:1059200009F442C0E80EF91EEC14FD04D0F480E442
:10593000481682E458068FE06806710420F560E09E
:1059400070E0CB010E9422352AE0420E511C611CFE
:10595000711C0E3F4FEF140721F0043F8FEF180723
:10596000A1F4C8010F900F90DF91CF911F910F917B
:10597000FF90EF90DF90CF90BF90AF907F906F90AF
:105980005F904F90089502EF1FEF81E090E0023F9B
:105990002FEF120711F090E080E0892B09F4A5CFDA
:1059A000E0CF04EF1FEFDDCF0EEF1FEFDACF0FEFE9
:1059B0001FEFD7CF80917301909174018F3F9807AB
:1059C00049F0F4D2892B49F48FEF9FEF9093740143
:1059D0008093730190E080E0089584EF9FEF089535
:1059E000CF92DF92EF92FF920F931F93CF93DF93AB
:1059F00021E04115510509F020E0415051092111E4
:105A00002CC0DC01FB01D12CC12C21E022C03FEFD6
:105A1000C31AD30A7D010D911D91E701EA80FB8035
:105A2000E016F106A8F420813181E280F380F18252
:105A3000E08233832283ED90FC9011979D012250E8
:105A40003109E901F982E88211961C930E9320E056
:105A50003296C416D506D8F2D2CFDF91CF911F91DE
:105A60000F91FF90EF90DF90CF900895FC01680FA9
:105A7000791F90E080E0E617F70709F40895219177
:105A8000820F911DF8CF20915E05211113C047DED2
:105A9000009791F4109264051092630510926205CC
:105AA000109261051092600510925F0521E020932D
:105AB0005E05089584EF9FEF0895AF92BF92CF9255
:105AC000DF92EF92FF920F931F93CF93DF93009794
:105AD00009F460C04630510508F45CC020915E05B1
