:1000000052C0000078C0000076C0000074C000003C
:1000100072C0000070C000006EC000006CC0000024
:100020006AC0000068C0000066C0000064C0000034
:1000300062C000000C94E1215EC000005CC00000C2
:100040000C942F2558C000000C9490270C94C227C4
:1000500052C0000050C000004EC000004CC0000064
:100060004AC0000048C0000001020408102040807F
:1000700001020408102001020408102004040404F2
:100080000404040402020202020203030303030342
:1000900000000000250028002B00000000002400C4
:1000A00027002A00E72711241FBECFEFD8E0DEBFCC
:1000B000CDBF11E0A0E0B1E0E2E5F1E502C00590BE
:1000C0000D92AA3CB107D9F724E0AAECB1E001C037
:1000D0001D92AC3DB207E1F710E0C3E5D0E004C0EB
:1000E0002197FE010E947828C235D107C9F70E94E6
:1000F000F8220C94A72884CFCF93DF93882349F06C
:10010000EB0181500E940F2699838883DF91CF9164
:100110000895FB0111821082F9CF0F931F938B0179
:100120009C0183E036952795179507958A95D1F719
:1001300006531E4F462F477021E030E0F90102C000
:10014000EE0FFF1F4A95E2F7AF01F801208124234B
:10015000CB010196211102C090E080E01F910F9128
:1001600008950F931F938B019C0183E0369527958B
:10017000179507958A95D1F7677081E090E001C0E7
:10018000880F6A95EAF7F801E653FE4F2081452B68
:1001900031F48095822380831F910F910895822BE3
:1001A000FACFCF92DF92EF92FF92CF93DF936B0162
:1001B0007C0160E08EE0C816D104E104F10490F403
:1001C0008EE08C0D0E942A26E6012196AE01C70121
:1001D000B601C7DFCE01DF91CF91FF90EF90DF90A6
:1001E000CF9008958C2DEECF882341F08150682F59
:1001F00070E090E080E050E040E0B3CF089590E000
:1002000080E008950F931F93009709F488C061154B
:10021000710509F484C00091060110910701209135
:100220000801309109010E3F1F4F2F4F3F4F09F03A
:1002300068C0DB014D915D916D917C914093060109
:1002400050930701609308017093090140910601E2
:10025000509107016091080170910901DC0112962B
:10026000ED91FC9180819181A281B38180933F02C5
:1002700090934002A0934102B09342028481958101
:10028000A681B78180933B0290933C02A0933D02EC
:10029000B0933E0280859185A285B3858093370215
:1002A00090933802A0933902B0933A0284859585E1
:1002B000A685B7858093330290933402A0933502CC
:1002C000B093360210922F02109230021092310237
:1002D0001092320241D481ED95E09093D401809345
:1002E000D3019093D6018093D50115D3009731F4B3
:1002F00021E030E030934402209343021F910F919C
:100300000895009106011091070120910801309194
:100310000901FB01008311832283338397CF8FEF81
:100320009FEFECCF8F929F92AF92BF92CF92DF92CE
:10033000EF92FF921F93CF93DF934B015C011091DB
:10034000460282E090E0909344028093430281143D
:100350009104A104B10441F480914602811104C0CA
:1003600080914502C1E08111C0E0C12CD12C760101
:1003700080914602811106C080914502811102C020
:10038000CC23D1F083E090E0909344028093430229
:10039000CC2371F1CCE9DFEF111101C066D7CE019A
:1003A000DF91CF911F91FF90EF90DF90CF90BF90A2
:1003B000AF909F908F9008956AE070E080E090E0A9
:1003C0000E949E2580E1C80E87E2D81EE11CF11C28
:1003D0008FEF88169806A806B80631F0C1E08C1495
:1003E0009D04AE04BF0408F0C0E080E0D8D2C0CFC6
:1003F000D0E0C0E0D1CFCF92DF92EF92FF920F9387
:100400001F93CF93DF938F3F910511F008F050C0F9
:1004100020914302309144022330310539F020917C
:100420004302309144022130310531F424E030E0C0
:1004300030934402209343026A017B01EC01823035
:100440009105A0F011E0AE01C701B60163D2AB0186
:10045000BC01CE011123F9F0DF91CF911F910F91D3
:10046000FF90EF90DF90CF900C945A0B8C01000F0F
:10047000111F0D521E4FD8018D919C91892B11F3A4
:100480000E94640B0297F1F6D801ED91FC91CE0128
:100490000995182FD8CF0E947C0B90E080E0DF9167
:1004A000CF911F910F91FF90EF90DF90CF90089523
:1004B0008FEF9FEFF4CF80E072C2CF93DF9386E09F
:1004C00090E09093440280934302C2D2EC01E3EDAA
:1004D000F1E084E0DF011D928A95E9F75ED6109283
:1004E000440210924302CE01DF91CF910895809192
:1004F0004502089580912E0208956093060170933D
:100500000701809308019093090190E080E008952D
:10051000CF93DF9300D0CDB7DEB76EE070E080E020
:1005200090E0FBDD9093D2048093D10443E050E04F
:10053000BE016F5F7F4FE0DD209104013091050126
:10054000A981BA810E947E280E94162420E030E012
:1005500040E054E30E94CC2420910001309101013D
:1005600040910201509103010E9482236093D604BE
:100570007093D7048093D8049093D9048091FD019F
:100580009091FE01A091FF01B09100020196A11D82
:10059000B11D8093FD019093FE01A093FF01B093E4
:1005A0000002892B8A2B8B2B99F480910102909168
:1005B0000202A0910302B09104020196A11DB11D97
:1005C0008093010290930202A0930302B09304026D
:1005D0000F900F90DF91CF9108951F93CF93DF93EA
:1005E000E7EEF1E083E2DF011D928A95E9F780E012
:1005F00090E0A0E8BFEB868F978FA0A3B1A381EF17
:100600009EEFA3E1BCE984839583A683B78385E34A
:1006100090E5A7EAB2E280879187A287B38785EA4F
:1006200099E2A8E1BEED84879587A687B7878AE51A
:100630009FE2ADECBCE0808B918BA28BB38BABEDDA
:10064000B1E0B383A283E7EDF1E01196FC93EE9362
:1006500080E391E091838083938382838BEF91E0A9
:1006600015969C938E9314978BEE91E013969C9322
:100670008E9312974FEF5FEFBA0118964D935D93EB
:100680006D937C931B97E6EDF4E084E0DF011D920F
:100690008A95E9F7CBECD4E08BE0FE0111928A95C4
:1006A000E9F711E01A8781E090E0A0E0B0E08983EB
:1006B0009A83AB83BC836EE070E080E090E071DDF4
:1006C0009F838E831D83DF91CF911F910895809129
:1006D000CB0481111DC081E08093CB048091CC04B8
:1006E0009091CD04A091CE04B091CF040197A105C3
:1006F000B10571F48091D004882351F06EE070E070
:1007000080E090E00ADD9093D2048093D1046CCD18
:1007100008954F925F926F927F928F929F92AF92C5
:10072000BF92CF92DF92EF92FF920F931F93F894B4
:1007300040901602509017026090180270901902B3
:10074000C0900A02D0900B02E0900C02F0900D02D3
:10075000452B09F0A4C09B01AC01241935094609B9
:10076000570929013A0100911202109113022091B8
:1007700014023091150248015901840C951CA61CE5
:10078000B71C80169106A206B306A0F400910E02D3
:1007900010910F0220911002309111020F5F1F4F34
:1007A0002F4F3F4F00930E0210930F022093100221
:1007B000309311028092120290921302A0921402BE
:1007C000B092150200910E0210910F0220911002BA
:1007D0003091110280921A0290921B02A0921C0288
:1007E000B0921D0200931E0210931F02209320025C
:1007F00030932102609316027093170280931802BF
:1008000090931902A0E1B7E2A30192010E948D2802
:100810006C0D7D1D8E1D9F1D60930A0270930B024F
:1008200080930C0290930D02009106011091070134
:1008300020910801309109010F3F1F4F2F4F3F4F6B
:10084000F1F000910601109107012091080130910B
:1008500009010E3F1F4F2F4F3F4F89F0C0900601F7
:10086000D0900701E0900801F090090121E08C147C
:100870009D04AE04BF0408F420E020932E02789477
:100880001F910F91FF90EF90DF90CF90BF90AF90AE
:100890009F908F907F906F905F904F9008954B0145
:1008A0005C0184189508A608B708A3019201261BCD
:1008B000370B480B590B6415750586059705D0F065
:1008C00082169306A406B50640F420E030E0A901A4
:1008D00081149104A104B10491F4A0E1B7E20E9453
:1008E0008D28A7019601261B370B480B590BCA010F
:1008F000B901C5CF82169306A406B50670F7A0E12C
:10090000B7E2A50194010E948D286C0D7D1D8E1DFE
:100910009F1DB5CFFECECF93DF9300D000D0CDB7D3
:10092000DEB71C821B821A82198210922A02109250
:100930002B0210922C0210922D0210922202109281
:100940002302109224021092250210922602109285
:1009500027021092280210922902BE016F5F7F4F7A
:10096000CE0103960E948B2169817A818B819C81C3
:100970000E94831A009761F4BE016F5F7F4FCE0122
:1009800003960E94972169817A818B819C8128D569
:100990000F900F900F900F90DF91CF910895FF92DD
:1009A0000F931F93CF93DF93082F60E070E0CB018C
:1009B0000E949E25FF24F3940E946E19EC01892B5E
:1009C00089F010E0CE3F8FEFD80769F0002361F186
:1009D00060E070E0CB010E949E2581E090E0892BD1
:1009E00059F322C011E01FD5EC01892B21F0CE3F35
:1009F0008FEFD80759F711111EC011E0229609F4A4
:100A000010E00E941F19EC01892B21F0CE3F8FEFDF
:100A1000D807E1F6111111C011E0CE3F8FEFD807D2
:100A200009F410E001110BC0CE01DF91CF911F91AD
:100A30000F91FF90089511E0E4CF11E0F3CF60E053
:100A400070E0CB010E949E251F25812F90E0C7CF2B
:100A5000CF93DF9380912E02882321F060E070E035
:100A6000CB0148D631D6D0E0C0E0892B71F06AE0E6
:100A700070E080E090E00E949E2581E090DF24D627
:100A80002196C03727E1D20781F723D60E94D71AD3
:100A9000109246021092450210923F0210924002BC
:100AA000109241021092420210923B0210923C02BC
:100AB00010923D0210923E021092370210923802BC
:100AC0001092390210923A021092330210923402BC
:100AD000109235021092360210922F0210923002BC
:100AE00010923102109232024EEF5FEF6FEF7FEF04
:100AF0004093060150930701609308017093090128
:100B000010922E02EAE1F2E028E0DF011D922A9520
:100B1000E9F7109216021092170210921802109222
:100B200019021092120210921302109214021092E3
:100B3000150210920E0210920F02109210021092E3
:100B4000110210920A0210920B0210920C021092E3
:100B50000D02DF91CF91089510925202109253022C
:100B600010925402109255021092510280915A0232
:100B700090915B029093500280934F0210924E022C
:100B800010924D021092490210924A0210924B02AA
:100B900010924C02109257021092560290E080E0A0
:100BA0000895CF92DF92EF92FF920F931F93CF930E
:100BB0008C01892B09F055C020915A0230915B02BB
:100BC00080914F029091500240915A0250915B02E5
:100BD0005093500240934F022817390781F010922A
:100BE0004E0210924D021092490210924A02109247
:100BF0004B0210924C0210925702109256028091B2
:100C00005A0290915B02019761F580915602909192
:100C10005702892B21F480910A01811112C0809121
:100C20005602909157020197E1F480914902909108
:100C30004A02A0914B02B0914C020197A105B10567
:100C400081F41092490210924A0210924B021092C3
:100C50004C0210920A0182E090E090935702809338
:100C6000560280915A0290915B02019709F01CC1D3
:100C700080917002909171028017910709F014C160
:100C800080916C0290916D02A0916E02B0916F0202
:100C9000009709F409C120916B0221110DC0409108
:100CA0006C0250916D0260916E0270916F02452B43
:100CB000462B472B09F4F8C0209156023091570279
:100CC0002230310509F0F0C020914D022111ECC015
:100CD000FC01C080D180E280F380809151028823A2
:100CE00009F4D3C080915D0290915E02892B09F4D2
:100CF000FDC020915D0230915E0281E0223031051D
:100D000009F080E020915D0230915E02C1E0213067
:100D1000310549F020915D0230915E02C1E0223040
:100D2000310509F0C0E0882309F456C0209167021C
:100D3000309168024091690250916A02C701B60180
:100D40000E94C82487FD14C0209167023091680278
:100D50004091690250916A0260915202709153026F
:100D600080915402909155020E94E62387FD22C093
:100D700020916702309168024091690250916A02A5
:100D8000C701B6010E94C824181634F520916702E5
:100D9000309168024091690250916A02609152025A
:100DA0007091530280915402909155020E94E62363
:100DB000811112C080915F0290916002A091610246
:100DC000B0916202892B8A2B8B2B19F481E08093DE
:100DD0004E0281E080934D02CC2309F456C020914D
:100DE0006702309168024091690250916A02C7011E
:100DF000B6010E94E62387FF14C02091670230915C
:100E000068024091690250916A02609152027091A9
:100E1000530280915402909155020E94C82487FF8A
:100E200022C020916702309168024091690250917E
:100E30006A02C701B6010E94E623811126C02091F3
:100E40006702309168024091690250916A02609194
:100E500052027091530280915402909155020E9467
:100E6000C824181694F480915F0290916002A091BA
:100E70006102B0916202892B8A2B8B2B19F481E0DD
:100E800080934E0281E080934D0281E090914D026B
:100E9000911180E080935102C0925202D09253028D
:100EA000E0925402F0925502012B09F067C1809143
:100EB000560290915702892BD9F410925C0210923D
:100EC0004D0280910A01882379F082E090E09093AE
:100ED00057028093560210920A0120915A023091D3
:100EE0005B0281E0232BE9F080E01BC081E00ACFA8
:100EF00010920A0180915C02882349F010924E0200
:100F0000109257021092560210925C02EDCF80911F
:100F10005A0290915B02892BE1F080914D02109270
:100F20004D0220915602309157022230310509F4CA
:100F30005EC088F42115310509F448C0213031051F
:100F400009F4F3C010924E0210924D0210925C020E
:100F500038C081E0E6CF2330310509F4B1C0243038
:100F6000310581F74091490250914A0260914B024C
:100F700070914C02411551056105710561F04150B8
:100F80005109610971094093490250934A026093E3
:100F90004B0270934C024091490250914A02609179
:100FA0004B0270914C02452B462B472BD9F42091D4
:100FB0005802309159022130310509F046C0109293
:100FC0004E0210925702109256020CC080910A01F4
:100FD000882341F082E090E090935702809356027C
:100FE00010920A011092470280914E02CEC08823CF
:100FF000C9F380915F0290916002A0916102B0916B
:101000006202181619061A061B060CF07DC08091A4
:101010005A0290915B02019709F076C080915F02BD
:1010200090916002A0916102B091620280934902A6
:1010300090934A02A0934B02B0934C0283E090E05D
:101040009093570280935602CDCF40916302509106
:1010500064026091650270916602452B462B472B16
:10106000A9F010924E028091630290916402A091C7
:101070006502B09166028093490290934A02A09360
:101080004B02B0934C0281E090E0DACF882399F0D4
:1010900080910B0190910C01A0910D01B0910E0176
:1010A0008093490290934A02A0934B02B0934C0262
:1010B00084E090E0C5CF10924E0282E090E0C0CF75
:1010C0008091490290914A02A0914B02B0914C024A
:1010D0000097A105B10559F00197A109B1098093C5
:1010E000490290934A02A0934B02B0934C02809124
:1010F000490290914A02A0914B02B0914C02892B77
:101100008A2B8B2B09F06ECF80910B0190910C01F3
:10111000A0910D01B0910E01892B8A2B8B2B09F424
:101120004ECF81E080934E02B3CF4091490250915F
:101130004A0260914B0270914C02411551056105C4
:10114000710561F0415051096109710940934902EB
:1011500050934A0260934B0270934C0240914902B3
:1011600050914A0260914B0270914C02452B462BE4
:10117000472B09F037CF8111C7CF9FCF809147020E
:10118000882309F431CF80914802CF911F910F91AC
:10119000FF90EF90DF90CF9008951092520210923E
:1011A0005302109254021092550210925102109262
:1011B0005702109256021092500210924F02109253
:1011C00071021092700210924E0210924D02109213
:1011D000490210924A0210924B0210924C02109255
:1011E00048021092470210926C0210926D02109207
:1011F0006E0210926F0210926B02109267021092B0
:1012000068021092690210926A0288EE93E0A0E0F0
:10121000B0E080930B0190930C01A0930D01B0936B
:101220000E011092630210926402109265021092F5
:10123000660210925F021092600210926102109298
:10124000620210925E0210925D0281E080930A01B8
:1012500010925C0210925B0210925A021092590294
:101260001092580290E080E0089580915A02909187
:101270005B02892BE1F480910A01882351F080916F
:101280005C02811106C081E080934802809347028E
:10129000089580915C02882341F080910A018111B8
:1012A00004C01092480281E0F1CF109247020895E5
:1012B00082E090E0FA01918380838FEF9FEF0895A1
:1012C000CF93DF93EA01009711F00E94F41B19827B
:1012D000188290E080E0DF91CF910895DB010097C4
:1012E00019F48FEF8C9308952EEF2C934096803154
:1012F000910508F036C0FC01E058F64F0C947828B0
:10130000AF09AD09AB09A909A709A509A109A30955
:101310009F099D099B099809940990099609B109AB
:1013200080E311968C93089589E2FBCF82E2F9CF96
:1013300011961C92089583E2F4CF81E2F2CF81E10D
:10134000F0CF87E2EECF8AE2ECCF80E1EACF84E211
:10135000E8CF88E2E6CF86E2E4CF81E3E2CF83E321
:10136000E0CF80E2DECF80917E0290917F020895EF
:1013700090937F0280937E02089580917D0208956C
:1013800090917D02892B80937D020895982F9095EE
:1013900080917D02892380937D02089580917C0253
:1013A000089580917A0290917B02089561157105EC
:1013B00059F0FB0130E020E070E060E024173507D1
:1013C00019F06115710511F0CB010895A081B1816B
:1013D000A817B90709F4BF012F5F3F4F3696EECF2C
:1013E0008091800281111CC062D268D290937302F6
:1013F000809372020E94F9130E940B14909377025B
:10140000809376020E9489180E949018909375022A
:101410008093740281E08093800290E080E00895E0
:1014200084EF9FEF08958F929F92AF92BF92CF92D9
:10143000DF92EF92FF920F931F93CF93DF93CDB77D
:10144000DEB72A970FB6F894DEBF0FBECDBF1A865F
:10145000198618861F821E821D821C821B821A8298
:1014600019828091800207EF1FEF882309F49CC046
:101470008E010D5F1F4F9E012B5F3F4FAE01495FF5
:101480005F4FBE01675F7F4F90E080E00E94091AC6
:101490008C01009721F00596029708F0DBC02985A2
:1014A0003A852115310509F402C1ED80FE804B819A
:1014B0005C81B701640F751F8F8198858617970728
:1014C00008F4F5C0E20EF31ED7019C91903C09F0A0
:1014D0007FC04230510508F47BC011968C91409139
:1014E0007E0250917F02452B09F49CC0913F08F089
:1014F00071C02CE1290F2D3008F48BC02DE2290F8B
:10150000203108F489C0903C21F48150823008F4E5
:1015100083C088E3890F8B3008F481C09EE6C92E12
:1015200099E0D92EE8E5F9E06D817E81AE014F5F4B
:101530005F4F89859A8509955C01C114D104A1F199
:1015400089809A808114910479F18B819C8188151E
:10155000990508F487C010E000E04B815C8170E0E1
:1015600060E0C7010E94A02801151105E9F4498136
:101570005A8169857A858D819E81680F791FC501A1
:10158000F6010995E980FA800D811E812F81388549
:1015900049855A856FEF7FEF81E090E00E94A519A1
:1015A0008C01892B09F056C0C8012A960FB6F89411
:1015B000DEBF0FBECDBFDF91CF911F910F91FF9086
:1015C000EF90DF90CF90BF90AF909F908F90089555
:1015D00080E085CF30E020E0220F331FF901EE5884
:1015E000FD4F0190F081E02D309709F497CF892FBE
:1015F00090E00995009709F491CFDC011296ED91E6
:10160000FC9113971496CD90DC90309709F08CCF15
:101610001FC021E030E0E0CF22E030E0DDCF23E06A
:1016200030E0DACFD12CC12CE0E6F9E09F3F09F0A1
:101630007BCFE0917202F0917302309721F4C901DF
:1016400004EF1FEF0CC08FEF90E009950097A9F60B
:1016500004EF1FEF89859A85009709F4A5CF0E94B2
:10166000F41BA2CF0E94D21A8C0189859A850E9410
:10167000F41B70E060E0C4010E946B1A98878F83AE
:101680000E94A2199E838D836F81788561157105F3
:1016900059F0C8010E94801D9A87898706EF1FEFC5
:1016A000892B09F058CF59CF08EF1FEF56CF08EF1D
:1016B0001FEFD0CF20918002222319F020E00C945C
:1016C000101487EF9FEF089580917E0290917F0222
:1016D00008950E9495180E94EF17F5D0E2E7F2E016
:1016E00088E0DF011D928A95E9F71092800290E070
:1016F00080E008950C944C1621E040E050E0BA01DF
:101700000C94101486E090E0FA019183808390E0BD
:1017100080E0089547E050E063E371E047CEDF9258
:10172000EF92FF920F931F93CF93DF938A01EC0107
:10173000C60FD71FE0908402F0908502D9800E94E6
:10174000BA1AD816190678F082E090E0F801918371
:1017500080838EEF9FEFDF91CF911F910F91FF90CC
:10176000EF90DF900895EF2841F482E090E0F801D7
:101770009183808384EF9FEFEECF898180938302F2
:1017800090E00196F8019183808390E080E0E3CFC0
:10179000CF93DF93EA010E94FD16882321F00E9477
:1017A000C71A0E94FE1682E090E0998388838BEF2F
:1017B0009FEFDF91CF910895CF93DF93EB0186E008
:1017C000FB0111928A95E9F78FEF8883D6DD898333
:1017D000E5DD8A83E6DD9D838C83DF91CF910895DB
:1017E000CF93DF93EA010E940017811109C082E0C4
:1017F00090E09983888385EF9FEFDF91CF910895E3
:1018000090E080E0B5DD81E090E09983888390E00E
:1018100080E0F3CF0F931F93CF93DF93EA018C0106
:10182000060F171F0E94001781110BC082E090E085
:101830009983888385EF9FEFDF91CF911F910F915F
:101840000895F8018181823038F082E090E0998338
:1018500088838EEF9FEFF0CF81E090E089DD88E014
:1018600090E09983888390E080E0E6CFCF93DF9388
:101870000097D1F4EB01FB01329686E0DF011D9267
:101880008A95E9F78FEF888385E089831A820E9421
:10189000BA1A8B830E94B91A9D838C8381E08E8350
:1018A0008F83DF91CF910895DF91CF9117CD8AE893
:1018B0009BE090938202809381020895809181023F
:1018C00090918202089510928202109281020895EE
:1018D00080918402909185020895411105C061159F
:1018E00071058105910561F0609384027093850212
:1018F00080938602909387024093880281E0089546
:1019000080E00895FF920F931F93CF93DF938A0196
:10191000EC01C60FD71FF9800E94BA1AF8161906F3
:1019200068F082E090E0F801918380838EEF9FEF72
:10193000DF91CF911F910F91FF9008956C817D8170
:101940008E819F814B81C9DF811108C082E090E0C8
:10195000F8019183808384EF9FEFEACF89818093A0
:10196000830290E00196F8019183808390E080E00B
:10197000DFCFCF93DF93EA01FC01E60FF71F64810D
:101980007581868197814381A8DF811109C082E03A
:1019900090E09983888384EF9FEFDF91CF91089542
:1019A00081E090E09983888390E080E0F6CFE4E8DE
:1019B000F2E04081518162817381480F511D611DA8
:1019C000711D40835183628373830895CF93C091C7
:1019D00083024C2F50E06091840270918502019641
:1019E0000E9497288C2FE3DF10928302CF910895F5
:1019F000009799F480918402909185022FEFFB016A
:101A00002083892B59F02091830230E02F5F3F4FD4
:101A10002417350719F4CB01D9CF60CC089500976E
:101A200099F480918402909185022FEFFB0120832D
:101A3000892B59F02091830230E02F5F3F4F24170C
:101A4000350719F4CB01C2CF49CC089523E1AC018D
:101A5000249FC001259F900D1124E0918D02F091EB
:101A60008E02E80FF91F238134812250310981E071
:101A70002230310508F080E008950F931F93CF9333
:101A8000DF9300918F0210919002D0E0C0E080E0DF
:101A90000C171D0749F491E0811190E0892FDF9127
:101AA000CF911F910F9108958111F5CFCE01CEDF17
:101AB0002196EECFA0918D02B0918E02109729F160
:101AC00020918F023091900282179307F0F453E136
:101AD000589F9001599F300D1124A20FB31FED9113
:101AE000FC911197309789F012968C91681768F4E1
:101AF0008DE0689FE00DF11D112480819181892B7B
:101B000021F081E09281491708F080E008959C015E
:101B100043E1429FC001439F900D1124E0918D024B
:101B2000F0918E02E80FF91F8385823091F481E0F5
:101B300090E06581768140910F015091100164170A
:101B4000750711F490E080E0892B19F081E0232BD8
:101B500009F080E00895FC01A081B1818DE0689FCB
:101B6000A00DB11D112413964D915C91858596852C
:101B7000489F9001499F300D589F300D1124C90195
:101B80000196611103C0478144FD04960895EF92C8
:101B9000FF920F931F93CF93DF93EA01FC01E60FAF
:101BA000F71F02811381E480F5804F2D6E2DC8014F
:101BB00081DF81110DC082E090E0998388838EEFF0
:101BC0009FEFDF91CF911F910F91FF90EF900895BC
:101BD000C8013CDF882339F082E090E09983888354
:101BE00088EF9FEFEECF1093160100931501E0925E
:101BF0001701F092180181E090E09983888390E0CA
:101C000080E0DFCFCF92DF92EF92FF920F931F938E
:101C1000CF93DF937A01EC01C60FD71FC090150157
:101C2000D09016010091170110911801412F602FDB
:101C3000C60140DF811110C082E090E0F70191837E
:101C400080838AEF9FEFDF91CF911F910F91FF90DB
:101C5000EF90DF90CF900895C601F8DE882341F021
:101C600082E090E0F7019183808388EF9FEFEBCFD4
:101C70004C815D816E817F819A8189818F3F41F0A6
:101C800082E090E0F701918380838EEF9FEFDBCFBE
:101C9000E3E1EC9D9001ED9D300D1124E0918D026A
:101CA000F0918E02E20FF31F0190F081E02D2DE004
:101CB000029FE00DF11D11240190F081E02D27E03D
:101CC000129FE00DF11D1124808391838B8182830B
:101CD00043835483658376831F5F1093180181E0EB
:101CE00090E0F7019183808390E080E0ACCFEF92A9
:101CF000FF920F931F93CF93DF937A018C01060F0E
:101D0000171FC0918D02D0918E02209781F021E0A3
:101D100030E0F8018281938140918F0250919002CE
:101D20008417950710F030E020E0232B71F482E057
:101D300090E0F701918380838EEF9FEFDF91CF9149
:101D40001F910F91FF90EF90089543E1489F9001FC
:101D5000499F300D1124C20FD31F78DE882341F034
:101D600082E090E0F7019183808388EF9FEFE6CFD8
:101D7000F8012481358120383105C8F68781811129
:101D8000D6CF4181842F90E08F7E009741F082E092
:101D900090E0F7019183808386EF9FEFCFCF4F8351
:101DA0003E832D83268128871986223010F421E076
:101DB000288721E030E0F70131832083BFCF88E01E
:101DC00090E0FA019183808390E080E00895FB0128
:101DD0008FEF808381E181838FEF9FEF93838283F5
:101DE00080E890E095838483168217820895FB0132
:101DF0008FEF808391E0918382839383848384E354
:101E0000858381E090E097838683089582E090E067
:101E1000FA019183808380EF9FEF0895DF92EF9224
:101E2000FF920F931F93CF93DF93EA01FC01E60F1C
:101E3000F71F8181813071F082E090E0998388837F
:101E40008FEF9FEFDF91CF911F910F91FF90EF9058
:101E5000DF90089582819381D4802581E680F78088
:101E600000918D0210918E020115110539F482E066
:101E700090E0998388838CEF9FEFE4CF40918F02AD
:101E8000509190028417950738F082E090E0998392
:101E900088838EEF9FEFD6CF892B39F082E090E0D8
:101EA0009983888386EF9FEFCDCF8D2D8D7FB1F7FE
:101EB0002130A1F781E0D11006C091E0E916F104CC
:101EC00031F080E004C0E2E0EE16F104D0F38823A4
:101ED00029F390E080E0BADD882339F082E090E0D9
:101EE0009983888388EF9FEFADCFF801D38681E097
:101EF0008487F686E586108A178681E090E09983CC
:101F0000888390E080E09ECF4DE050E06DE571E089
:101F10004DCA8F929F92BF92CF92DF92EF92FF9223
:101F20000F931F93CF93DF93EA01FC01E60FF71F96
:101F3000828193810481B580E0918D02F0918E02BF
:101F4000309791F482E090E0998388838CEF9FEF43
:101F5000DF91CF911F910F91FF90EF90DF90CF9085
:101F6000BF909F908F90089520918F0230919002A2
:101F70008217930738F082E090E0998388838EEF90
:101F80009FEFE6CF23E1289F6001299FD00C112409
:101F9000EC0DFD1DE080F180E114F10499F28281E5
:101FA000081748F78DE0089F80011124E00EF11E0C
:101FB000F70180819181892B29F6BB20E1F2F7E0BE
:101FC000BF9E40011124C4010E94BB1BF7019183F5
:101FD0008083E0918D02F0918E02EC0DFD1D019049
:101FE000F081E02DE00FF11F80819181009739F49D
:101FF00082E090E0998388838DEF9FEFA9CFA401C1
:1020000070E060E00E94A02880918D0290918E0285
:10201000C80ED91EF60180819181080F191FF801A1
:10202000B28281E090E09983888390E080E090CF55
:10203000AF92BF92CF92DF92FF920F931F93CF93F5
:10204000DF93EA01FC01E60FF71F82819381F480A0
:1020500000918D0210918E020115110581F482E02C
:1020600090E0998388838CEF9FEFDF91CF911F9150
:102070000F91FF90DF90CF90BF90AF900895209187
:102080008F02309190028217930738F082E090E03F
:10209000998388838EEF9FEFE8CF2FEF2F0D2C3F92
:1020A000A8F723E1289F6001299FD00C11240C0D73
:1020B0001D1DF80180819181892B89F6FDE0FF9E2D
:1020C00050011124C5010E94BB1BF801918380833C
:1020D000E0918D02F0918E02EC0DFD1D80819181C9
:1020E000009739F482E090E0998388838DEF9FEF29
:1020F000BCCFA50170E060E00E94A028E0918D02B5
:10210000F0918E02EC0DFD1DF28281E090E099834A
:10211000888390E080E0A9CFCF92DF92EF92FF9288
:102120000F931F93CF93DF93860F971FFC010281BC
:10213000138180918D0290918E02892B81F082E033
:1021400090E0FA01918380838CEF9FEFDF91CF9134
:102150001F910F91FF90EF90DF90CF900895C801ED
:10216000B0E0A0E00197A109B1098F3F9F4FA10501
:10217000B10540F082E090E0FA01918380838EEF18
:102180009FEFE4CF7A0183E1809F6001819FD00CB3
:102190001124C6010E94BB1BEC01009741F482E0B0
:1021A00090E0F701918380838DEF9FEFCFCFA60161
:1021B00070E060E00E94A028D0938E02C0938D0250
:1021C0001093900200938F0290E080E02FEF3FEF9A
:1021D00041E061E070E08017910741F481E090E018
:1021E000F7019183808390E080E0B0CF3A8B298B18
:1021F0001B864C877E876D87188A1F86019663969B
:10220000EACFEF92FF921F93CF93DF93EC0110E0A0
:10221000F12CE12C6A811617A8F070E0660F771F89
:10222000AE014F5E5F4FC7010E94201C009721F056
:102230002FEF3FEF3A8B298BDF91CF911F91FF90CA
:10224000EF900895612FCE0186DC61E070E00E947E
:102250006B1AE816F90608F47C011F5FDBCFF894CF
:1022600020918B0230918C0281E02115310509F01B
:1022700080E0232B09F0789408952F923F924F929B
:102280005F926F927F928F929F92AF92BF92CF9206
:10229000DF92EF92FF920F931F93CF93DF933C0156
:1022A000660E771EF301828193814C01B12CA12C23
:1022B000C0918D02D0918E02209769F021E030E02C
:1022C00060918F02709190028617970710F030E0AE
:1022D00020E0232BD1F482E090E0FA019183808307
:1022E0008EEF9FEFDF91CF911F910F91FF90EF90B5
:1022F000DF90CF90BF90AF909F908F907F906F9026
:102300005F904F903F902F90089580921901909286
:102310001A01A0921B01B0921C0163E1689F900119
:10232000699F300D1124C20FD31FF30181818330C7
:1023300040F082E090E0FA019183808386EF9FEF86
:10234000D1CF2A012B813C81232BF1F428813981C3
:102350009F8191FF2EC0232B09F46FC02091920220
:102360009A81422F490F5527551FBA0141E050E08D
:102370006138710514F050E040E0452B09F45DC070
:102380002A87920F909392028150823008F481C084
:1023900066DF882309F4D8C0F3018181813009F414
:1023A0008DC008F47BC0823009F4C6C090E080E0A4
:1023B000ADC0232B09F441C0209191029A81E22FF4
:1023C000E90FFF27FF1F41E050E0ED3FF10514F05A
:1023D00050E040E0452B89F12A87920F90939102BB
:1023E000D3CFA081B181A20FB31F11966C91060FBC
:1023F000111D0196295F3F4F8417950794F38D8532
:102400009E85089F1001099F300C189F300C1124E5
:10241000C114D104D1F48F8184FF17C00E94B91A6E
:10242000F5E02F0E311C21E08215930508F420E021
:10243000A701435F5F4F21110EC082E090E0F201DF
:102440009183808387EF9FEF4DCF0E94B91A2FEFC2
:10245000221A320AE8CF88819981E80EF91EF70125
:1024600014830383FFEFCF1ADF0A7A018A818C1568
:102470001D0409F00CF48CCFE881F981EE0DFF1DED
:10248000428150E030E020E010E000E090E080E0A9
:10249000B3CFF12CE12CD12CC12CE8CF81E090E01E
:1024A0009C838B83EADA882309F480CF81E090E073
:1024B0000E94B80980E40E94C60978CF89899A8968
:1024C000019661F083E090E09C838B8382E090E052
:1024D0000E94B80980E40E94C00968CF8D819E8166
:1024E00020910F013091100182179307D1F4609170
:1024F000130170911401AE014F5E5F4F8091110185
:10250000909112010E943F1D0097E1F2789422E021
:1025100030E0F20131832083892B99F08DEF9FEF1A
:10252000E1CE89288A288B2869F6892B59F6CE01B5
:1025300068DE188A1F86E8CF82E090E09C838B8358
:1025400035CF90E080E0CECE82E090E0F201918342
:10255000808385EF9FEFC6CE8F929F92AF92BF92FE
:10256000CF92DF92EF92FF920F931F93CF93DF935F
:10257000EA018C01060F171FF8018181833098F062
:1025800082E090E09983888386EF9FEFDF91CF917F
:102590001F910F91FF90EF90DF90CF90BF90AF9081
:1025A0009F908F90089580918D0290918E02892B3B
:1025B00061F081E090E020918F0230919002232B16
:1025C00011F490E080E0892B39F482E090E0998367
:1025D00088838EEF9FEFDACF42DE882309F4DFC0D5
:1025E000F8018181813009F495C0E8F0823099F4D6
:1025F00020918F0230919002E0918D02F0918E0235
:1026000090E080E041E050E02817390709F0BDC0B4
:1026100034DA811117C0789481E090E0998388833F
:1026200090E080E0B3CF20918F0230919002E09152
:102630008D02F0918E0290E080E041E050E028179A
:10264000390741F481E090E00E94B80980E40E94DB
:10265000C609E1CF63817481672B11F054834383F2
:1026600001967396ECCFE0918D02F0918E02E00F0F
:10267000F11F2381348122303105D9F42189328937
:102680002F3F3F4FB1F42581368140910F0150918A
:1026900010012417350761F5AF014F5E5F4F609160
:1026A00013017091140180911101909112010E9407
:1026B0003F1DEFEFCE1ADE0AEE0AFE0A0D5E1F4F37
:1026C00040918F025091900270E060E0C416D506F0
:1026D000E606F7063CF5009731F27894892B09F469
:1026E0009BCF82E090E0998388838DEF9FEF4ECF60
:1026F000C114D104E104F104E1F6232BD1F6CF019A
:1027000080DDE0918D02F0918E02E00FF11F108AC2
:102710001786CFCF10E000E090E080E0C12CD12CF4
:102720007601CECF0097C9F610E000E0812C912C05
:10273000540183E0E82EF12C1AC0E0918D02F09153
:102740008E02E00FF11F83819481029749F4F48295
:10275000E38282E090E00E94B80980E40E94C00910
:10276000FFEF8F1A9F0AAF0ABF0A0D5E1F4F8091BD
:102770008F0290919002B0E0A0E088169906AA0618
:10278000BB06DCF290E080E0A8CF63817481623008
:10279000710511F4548343830196739635CF82E01B
:1027A00090E09983888385EF9FEFF0CE0097B9F48E
:1027B0008FEFFB0180832091190130911A0143E1D1
:1027C000429FC001439F900D1124E0918D02F09132
:1027D0008E02E80FF91F8285FB01818308950C9416
:1027E0006E0988E090E0FA019183808390E080E0B8
:1027F000089510928C0210928B02EDE8F2E086E0D0
:10280000DF011D928A95E9F784E89FE090938A02A0
:102810008093890208958091890290918A02089597
:102820002F923F924F925F926F927F928F929F92E0
:10283000AF92BF92CF92DF92EF92FF920F931F93CE
:10284000CF93DF93CDB7DEB72F970FB6F894DEBFE7
:102850000FBECDBFF894E0918B02F0918C023196BF
:10286000F0938C02E0938B02789440908D0250900C
:102870008E024114510409F40CC2E0918F02F091D0
:102880009002EF2B09F405C22D8749875A876B8781
:102890007C8798878F831201B12CA12C10E000E077
:1028A00080918F0290919002A816B90618F4011534
:1028B000110529F1F89480918B0290918C02019777
:1028C00090938C0280938B027894C8012F960FB658
:1028D000F894DEBF0FBECDBFDF91CF911F910F9156
:1028E000FF90EF90DF90CF90BF90AF909F908F9030
:1028F0007F906F905F904F903F902F90089571015F
:10290000E418F508D10117968C91179781FD54C0F2
:1029100013968D919C911497039709F04DC01596CD
:102920008D919C91EF81F8858E179F0709F044C027
:10293000B50190E080E07ED48A8320918D023091B1
:102940008E023D832C833D85332309F44CC04C819A
:102950005D81452B09F49AC180918F02909190027C
:10296000A816B90608F092C1C501D1D88823E9F0AC
:102970006C817D816E0D7F1D7D836C83DB011F96D5
:102980008D919C91892B89F0D12CC12CF12CE12CBB
:10299000AC81BD8112968C9112978E151F0409F09F
:1029A00094F450961C921E921F972A81222321F0A4
:1029B000B50190E080E040D43FEFA31AB30A43E1B1
:1029C000240E311C6DCFAC81BD81ED91FC91EC0DDD
:1029D000FD1D8581968108D7BFEFEB1AFB0AEDE05C
:1029E000CE0ED11CD5CFEC81FD81309709F44EC1BC
:1029F00080918F0290919002A816B90608F046C106
:102A0000EE0DFF1DFF87EE87C50181D88B838823DC
:102A100039F1AE85BF851F968D919C915097019697
:102A200021E01D964D915C918417950709F020E0F7
:102A30002E831982712C10E000E0AE85BF851296BE
:102A40008C91781608F45DC0EE85FF8587859089A6
:102A50000196658576850E944228908B8787A5CF51
:102A6000B1E0BE83E6CF992493946BC084D6F6017F
:102A70009683858382C0D601ED90FC90B7E06B9E73
:102A8000E00CF11C1124F7016381748180818F3F78
:102A900061F121E030E002C0220F331F8A95E2F796
:102AA000C901092E000CAA0BBB0BFB01408151810F
:102AB0006281738184239523A623B72321E0892B88
:102AC0008A2B8B2B09F420E0D4012C93D70111968B
:102AD0008C91F60123853485820F932F911D880EEA
:102AE000991E1486138663949BC0418150E0C401F3
:102AF0000E949728EBCF998206EF1FEFC5C019827D
:102B0000C3C0F981F111A0CFEDE07E9E70011124C8
:102B1000AE85BF85CD90DC90CE0CDF1C13D49D8399
:102B20008C83BB81BB2309F49ECF81E0EE85FF85BA
:102B300027853089232B09F080E0982E882309F41B
:102B400058C0672D8E859F8506D8D60118969C9310
:102B50008E93179761E070E0BED4EE85FF852189E2
:102B600032892F3F320709F481CFBC01C901C8D790
:102B7000D60116969C938E931597D60115968D9136
:102B80009C911697009709F4B6CFEC81FD818E0FCA
:102B90009F1F1A969C938E931997AE85BF85ED91D2
:102BA000FC911197EE0EFF1EF701218532851486E8
:102BB00013861A968C91870DD9018D93711016C0CA
:102BC000EE85FF85878184FF11C049855A856B8515
:102BD0007C85F9014183528363837483F701838584
:102BE00094850496A80FB91F14861386F701B2873F
:102BF000A187D60115968D919C911697892B09F482
:102C000043C0EE85FF852581368180910F0190912B
:102C100010012817390779F019968D909C90612C36
:102C2000D60112968C911297681608F424CF1A9642
:102C30009C928E921997BE81BB2309F460CF61E00C
:102C400070E0F6018781908546D4D6011796ED9005
:102C5000FC90189715964D915C91E1E0F0E0BA81F7
:102C6000BB2311F0F0E0E0E00C811D819C01B50177
:102C7000882799278E1B9F0B68D38C01892B21F005
:102C8000F60185819681B0D57394D7CE0FEF1FEFF3
:102C90008CCE10E000E00ECE2F923F924F925F92CA
:102CA0006F927F928F929F92AF92BF92CF92DF925C
:102CB000EF92FF920F931F93CF93DF9380918D023A
:102CC00090918E0210E000E0892BA9F0C8DA0AEF9B
:102CD0001FEF882381F020908F0230909002C091E6
:102CE0008D02D0918E02D12CC12C10E000E02C146A
:102CF0003D04A9F47894C801DF91CF911F910F9101
:102D0000FF90EF90DF90CF90BF90AF909F908F900B
:102D10007F906F905F904F903F902F900895C601E5
:102D20000E94870D882309F18B819C810397E9F428
:102D30008F859889892BC9F0B60190E080E07AD21E
:102D400021E030E0882311F030E020E044245524D5
:102D5000421A530AB12CA12C912C812C8A818815FE
:102D6000190409F038F4188A1F864FEFC41AD40AE0
:102D70006396BDCFE881F981EA0DFB1D85819681BF
:102D8000892BA1F161E070E087819085A4D33C019B
:102D9000D9D28C01E881F981EA0DFB1D81859285EC
:102DA00025813681200F311FAC01421B530B9A0144
:102DB00047815085421B530B70E060E00E94A028C1
:102DC000E881F981EA0DFB1DE780F0844581568199
:102DD0009301B601C201B9D28C01892B39F0E88187
:102DE000F981EA0DFB1D85819681FED45FEF851A7E
:102DF000950A8DE0A80EB11CB1CF31CA7894089520
:102E00002F923F924F925F926F927F929F92AF92DA
:102E1000BF92CF92DF92EF92FF920F931F93CF93C7
:102E2000DF9300D000D000D0CDB7DEB700918D0287
:102E300010918E02992493940115110509F43EC056
:102E4000A0908F02B09090020ADA982E8823B1F1F8
:102E500010928E0210928D021092900210928F02A8
:102E600010929102109292028FEF9FEFDC018093FB
:102E7000190190931A01A0931B01B0931C0178943F
:102E80007AD31E830D83C12CD12C7601C501B0E00D
:102E9000A0E089839A83AB83BC8322242A94322CBA
:102EA00089819A81AB81BC81C816D906EA06FB06E6
:102EB000F4F0C80199D480E40E94C609892D2696B1
:102EC0000FB6F894DEBF0FBECDBFDF91CF911F913B
:102ED0000F91FF90EF90DF90CF90BF90AF909F90B9
:102EE0007F906F905F904F903F902F900895AD81AD
:102EF000BE8115968D919C91169720910F0130916E
:102F0000100182179307D1F451968D919C91E6D5CB
:102F1000ED81FE8180819181B12CA12C412C512C1D
:102F20003201892B89F5BFEFCB1ADB0AEB0AFB0ACA
:102F3000ED81FE817396FE83ED83B2CFC114D1047F
:102F4000E104F10429F7892B19F7ED81FE818189CC
:102F500092898F3F980709F021D5AD81BE815296A5
:102F60003C922E925197D4CF8A0D9B1DDC018D91FE
:102F70009C91009709F038D4BFEF4B1A5B0A6B0A9B
:102F80007B0AEDE0AE0EB11CAD81BE818D919C91AE
:102F9000119712964C9150E070E060E0441655068F
:102FA000660677060CF320D4BECFCF93DF93EA01F9
:102FB00027DF811109C082E090E09983888385EF43
:102FC0009FEFDF91CF91089581E090E00E94B809D2
:102FD00081E090E09983888390E080E0F2CF10DF79
:102FE00010928A0210928902089542E050E06BEA42
:102FF00071E00C94D609FF920F931F93CF93DF9348
:103000008A01EC01C60FD71FF980B4D20897F816D1
:10301000190671F068F082E090E0F80191838083F6
:103020008EEF9FEFDF91CF911F910F91FF90089549
:103030006C817D818E819F814B810E946D0C8111FD
:1030400008C082E090E0F8019183808384EF9FEFD5
:10305000E9CFF9800E94680C4F2D50E0BE01685FF7
:103060007F4F0E94972889810E94D70C81E090E0D1
:10307000F8019183808390E080E0D4CFDF92EF92DB
:10308000FF920F931F93CF93DF938A01EC01C60F3A
:10309000D71F0E94680C7C01D9806CD2DD2059F0CA
:1030A000029721E030E0D816190619F010F030E050
:1030B00020E0232B79F482E090E0F8019183808373
:1030C0008EEF9FEFDF91CF911F910F91FF90EF90C7
:1030D000DF900895EF2841F482E090E0F8019183B9
:1030E000808384EF9FEFEECFF9800E94680C4F2D14
:1030F00050E0BE016E5F7F4F0E94972889810E9439
:10310000D70C81E090E0F8019183808390E080E02B
:10311000D9CF85EF97E1909394028093930208951D
:10312000809193029091940208950895FC01118278
:103130001082938382830895DB011D921C92DC012F
:103140001296ED91FC9113977183608313967C9393
:103150006E9312970895FC0180819181DB018D931C
:103160009C93A081B181109741F08D919C919183A6
:103170008083892B11F4F383E2830895FC0180811D
:103180009181DB018D939C93892B11F4738362836E
:10319000718360830895FC0111821082938382837E
:1031A0000895CF93DF9300D0CDB7DEB71A8219828E
:1031B000F894BE016F5F7F4F8AE992E0CCDF89818E
:1031C0009A81009709F010D389819A81892B89F718
:1031D000BE016F5F7F4F8EE992E0BDDF89819A81EA
:1031E000009709F001D389819A81892B89F7789416
:1031F0000F900F90DF91CF910895CF93DF9300D080
:10320000CDB7DEB71A821982F894BE016F5F7F4F87
:1032100086E992E0A0DF89819A81009709F0E4D2E3
:1032200089819A81892B89F778940F900F90DF918B
:10323000CF91089581E0089590E080E00895EF92A5
:10324000FF920F931F93CF93DF9300D0CDB7DEB7DC
:103250001A8219828091950207EF1FEF8823A1F14E
:10326000F894BE016F5F7F4F8EE992E074DF78942F
:1032700089819A81EE24E394F12C892B51F4F894FE
:10328000BE016F5F7F4F8AE992E065DF7894F12C91
:10329000E12C89819A810EEF1FEF0097A9F0FC01C4
:1032A0004281538164E070E06AD68C01892B61F021
:1032B000F89469817A81C701880F991F880F991F37
:1032C00086569D4F5BDF7894C8010F900F90DF9179
:1032D000CF911F910F91FF90EF9008950F931F933F
:1032E000CF93DF9300D000D0CDB7DEB71C821B8216
:1032F0001A8219828091950207EF1FEF8823C1F08F
:10330000AE014D5F5F4F64E070E0CE010196AAD63A
:103310008C01892B69F4E981FA818B819C819383EB
:103320008283F89469817A8186E992E005DF789456
:10333000C8010F900F900F900F90DF91CF911F91C8
:103340000F910895AFD7049608958F929F92AF92F0
:10335000BF92CF92DF92EF92FF920F931F93CF9382
:10336000DF9300D0CDB7DEB71A821982BC016F5F40
:103370007F4F6330710598F0AA24AA94BA2CC50136
:103380000F900F90DF91CF911F910F91FF90EF90D1
:10339000DF90CF90BF90AF909F908F900895411590
:1033A000510551F3480159018A016C01CBDF8815A1
:1033B000990511F7E114F104F9F28E0D9F1DA8167D
:1033C000B906D0F2809195028823F1F0F894B50106
:1033D000645071099701AE014F5F5F4FC8010496B9
:1033E000D6D65C01892B71F489819A81F801938387
:1033F0008283C601880F991F880F991FB8018656CE
:103400009D4F9ADE7894BBCF87EFA82EBB24BA9449
:10341000B6CFAF92BF92CF92DF92EF92FF920F930F
:103420001F93CF93DF9300D0CDB7DEB71A821982F6
:10343000892B09F047C06115710509F443C0411596
:10344000510509F43FC02115310509F43BC00115B0
:103450001105C1F1809195028823B9F179016A01C2
:103460005B01F894BE016F5F7F4F86E992E073DEE7
:10347000789489819A81009759F1DC0112966D91B7
:103480007C91A80104969CD68C01E981FA81D50132
:10349000ED93FC93828193810496F601918380835E
:1034A00051DFD7018D939C93C8010F900F90DF914E
:1034B000CF911F910F91FF90EF90DF90CF90BF9031
:1034C000AF9008950FEF1FEFEFCF07EF1FEFECCF97
:1034D0000EEF1FEFE9CFCF93DF93EC01672B71F471
:1034E000EAD68C179D0760F0DDD62496C80FD91F49
:1034F000DCD68C0F9D1FDF91CF910895D9D6F1CFE7
:1035000090E080E0F8CF0F931F93CF93DF9320914B
:10351000950221112BC08B01EC018AE992E006DEB5
:103520008EE992E003DE86E992E000DE97D0009714
:10353000C1F4C1D670E060E0CEDF4DE151E062E061
:1035400070E07ED1009769F480911D0190911E0179
:10355000C4D6B801CE01F9D4009719F421E0209324
:103560009502DF91CF911F910F91089584EF9FEF06
:10357000F8CF9EC6A0C6CF93DF93A0D6EC01892BCF
:1035800011F40FDE3ADECE01DF91CF910895CF9393
:10359000DF9394D6EC01892B09F403DECE01DF9191
:1035A000CF91089580911D0190911E010895CF93B0
:1035B000DF9380919502D0E0C0E08823D1F092D6CD
:1035C000EC01892BB1F4EDDD18DE80911D019091A5
:1035D0001E01E4D1E5D2EC01892B59F48AE992E08D
:1035E000DADD8EE992E0D7DD86E992E0D4DD109253
:1035F0009502CE01DF91CF910895EF92FF920F9344
:103600001F93CF93DF93EC017A018B010F5F1F4F64
:103610000E9DA0010F9D500D1E9D500D112470E0B8
:1036200060E00E94A02890E080E0F0E0E0E02FEF72
:10363000E816F90639F4DF91CF911F910F91FF90B1
:10364000EF9008951A8219822883309711F0D2835F
:10365000C1830196FE01C00FD11FEACFCF92DF9246
:10366000EF92FF920F931F93CF93DF930EE713E038
:103670000C7F43E050E06FE171E085E291E012D40D
:103680008FE1E82E81E0F82E95E2C92E91E0D92E47
:10369000C5EED3E0D7014D915D917D01F6016191B9
:1036A00071916F01198308835D834C835B834A8327
:1036B0007F836E839B012F5F3F4F249FC001259F17
:1036C000900D349F900D112499878887011511055D
:1036D00011F0C80192DF88859985080F191F2A9675
:1036E000F5E2EF16F1E0FF06A9F6E4EAF2E087ED75
:1036F000DF011D928A95E9F71092A3021092A202AF
:10370000109204041092030410920804109207040B
:10371000109206041092050410920A0410920904F3
:1037200010920C0410920B0410920E0410920D04CF
:1037300010921204109211041092100410920F04AF
:10374000109214041092130410921604109215048F
:103750001092E2031092E1031092E4031092E3034B
:1037600090E080E0DF91CF911F910F91FF90EF905B
:10377000DF90CF9008950097F1F0F894A5E2B1E0C2
:10378000E5EEF3E030E020E04D915D9148175907F8
:10379000A8F0428153814115510581F08AE0829F52
:1037A000F001839FF00D1124EB51FC4F808191813A
:1037B000009759F4789490E080E008952F5F3F4F90
:1037C0003A962330310501F7F5CFDC0111966D9162
:1037D0007C91718360834150510953834283FC0182
:1037E0002193CF0178940895009749F1DC018E91DF
:1037F000853041F4E091E303F091E4033097F9F070
:10380000CD0109948530D8F4282F30E0F8948FEF5B
:103810008C938AE0829FF001839FF00D1124EB517D
:10382000FC4F8081918112969C938E931197B18366
:10383000A0838281938101969383828378940895F3
:10384000CF92DF92EF92FF920F931F93CF93DF936C
:103850009C0187EA92E08C7F4115510509F49BC0D9
:103860002115310509F497C06115710509F493C05C
:103870007A01AB01B9016D5F7F4F6C7F9B012F5FB8
:103880003F4F249F8001259F100D349F100D112460
:10389000F8942091030430910404232B59F42091CF
:1038A0000B0430910C042115310569F12017310703
:1038B00008F058C020910D0430910E04232B91F490
:1038C00020910B0430910C04820F931F209115045A
:1038D000309116042115310509F441C02017310734
:1038E00008F056C07894CFEFDFEF86EF9FEFF70137
:1038F000D183C083DF91CF911F910F91FF90EF9003
:10390000DF90CF900895C3E0D0E0C090A202D090A5
:10391000A30224ED30E02C193D092017310710F3E4
:103920002AE02C9FF0012D9FF00D1124EB51FC4F4C
:103930009183808355834483538342837783668353
:1039400011870087009709F058DE0C0D1D1D10939C
:10395000A3020093A202789490E080E0C8CFC4E074
:10396000D0E0D3CFC3E0D0E02AE02C9FF0012D9F20
:10397000F00D1124EB51FC4F9183808355834483D8
:103980005383428377836683009729F336DEE3CF40
:10399000C4E0D0E0E9CF8FEF9FEFACCF9C0103975D
:1039A000029708F069C0F89484E09AE0482F50E04C
:1039B000241735070CF44DC091E08AE0829FF00196
:1039C000839FF00D1124EB51FC4F11821082158260
:1039D000148213821282178216829923B1F1809188
:1039E000030490910404892BA9F420910B043091D5
:1039F0000C042115310571F08091A2029091A3026F
:103A0000821B930B9093A3028093A20210920C044A
:103A100010920B0480910D0490910E04892BA9F44F
:103A200020911504309116042115310571F0809113
:103A3000A2029091A302821B930B9093A302809306
:103A4000A2021092160410921504789490E080E07F
:103A50000895949FF001959FF00D1124EB51FC4FB8
:103A600040815181452B31F440855185452B11F41E
:103A700081509CCF90E0A1CF8FEF9FEF089541152B
:103A8000510549F1009739F16115710521F1F8945B
:103A90002091E1033091E203232BB9F42091E30359
:103AA0003091E403232B89F49093E2038093E103A4
:103AB0007093E4036093E303789425E030E090E0B2
:103AC00080E0FA0131832083089578942FEF3FEF4F
:103AD00086EF9FEFF6CF8FEF9FEF0895059769F47C
:103AE000F8941092E2031092E1031092E403109212
:103AF000E303789490E080E008958FEF9FEF0895BE
:103B00006115710519F4F0E0E0E011C08530910510
:103B100081F4E091E103F091E2033097A1F3CB014E
:103B200001960995009779F3FC0185E08193CF0117
:103B300008959C01235031092230310520F72AE0F5
:103B4000289FD001299FB00D1124AB51BC4F2D915E
:103B50003C911197232BB9F216962D913C91179712
:103B60002617370780F2F89412962D913C911397FF
:103B70002115310529F0ED91FC911197309711F441
:103B80007894C1CF4181528111965C934E9321501C
:103B9000310913963C932E93129781937894C7CF53
:103BA000EBE7F3E086E6DF011D928A95E9F7E4EAA8
:103BB000F2E087EDDF011D928A95E9F71092A302EA
:103BC0001092A202E5EEF3E082E3DF011D928A95F6
:103BD000E9F7E1EEF3E084E0DF011D928A95E9F771
:103BE00090E080E00895CF93DF93C0912B01D091B6
:103BF0002C01CF3FDC0759F441D490932C018093E2
:103C00002B0197FF09C0D0932C01C0932B0184EFA7
:103C10009FEFDF91CF91089590E080E0FACF82305E
:103C2000910528F48093170490E080E008958FEFC9
:103C30009FEF08954F925F926F927F92AF92BF92E3
:103C4000CF92DF92EF92FF920F931F93CF93DF9368
:103C500000D0CDB7DEB71A821982009709F478C078
:103C60006115710509F474C020912B0130912C016C
:103C700007EF1FEF2F3F3F4F09F444C06B015C017A
:103C8000412C512C3201F12CE12C10E000E09E017E
:103C90002F5F3F4FA6014E195F09B5016E0D7F1DC5
:103CA00080912B0190912C0148D4892B09F04AC0B6
:103CB00089819A81009741F4E114F10429F420915B
:103CC0001704222309F441C0E80EF91EEC14FD0488
:103CD000C8F480E8481684E858068EE16806710446
:103CE00018F560E070E0CB0129D72AE0420E511CA4
:103CF000611C711C0A3F4FEF140721F0043F8FEF46
:103D00001807A1F4C8010F900F90DF91CF911F9178
:103D10000F91FF90EF90DF90CF90BF90AF907F908A
:103D20006F905F904F90089501EF1FEF81E090E05A
:103D3000013F2FEF120711F090E080E0892B09F48A
:103D4000A6CFE0CF04EF1FEFDDCF0AEF1FEFDACFF2
:103D50000FEF1FEFD7CF4F925F926F927F92AF928C
:103D6000BF92CF92DF92EF92FF920F931F93CF9368
:103D7000DF9300D0CDB7DEB71A821982009709F41D
:103D800078C06115710509F474C020912B01309140
:103D90002C0107EF1FEF2F3F3F4F09F444C06B0189
:103DA0005C01412C512C3201F12CE12C10E000E09F
:103DB0009E012F5F3F4FA6014E195F09B5016E0DA1
:103DC0007F1D80912B0190912C016DD3892B09F0DF
:103DD0004AC089819A81009741F4E114F10429F4E1
:103DE00020911704222309F441C0E80EF91EEC14B7
:103DF000FD04C8F480E4481682E458068FE06806A3
:103E0000710418F560E070E0CB0198D62AE0420E0C
:103E1000511C611C711C0E3F4FEF140721F0043F31
:103E20008FEF1807A1F4C8010F900F90DF91CF9189
:103E30001F910F91FF90EF90DF90CF90BF90AF90C8
:103E40007F906F905F904F90089502EF1FEF81E099
:103E500090E0023F2FEF120711F090E080E0892BF5
:103E600009F4A6CFE0CF04EF1FEFDDCF0EEF1FEF79
:103E7000DACF0FEF1FEFD7CF80912B0190912C015C
:103E80008F3F980749F0F2D2892B49F48FEF9FEFCB
:103E900090932C0180932B0190E080E0089584EFB3
:103EA0009FEF0895CF92DF92EF92FF920F931F93AF
:103EB000CF93DF9321E04115510509F020E04150F7
:103EC000510921112CC0DC01FB01D12CC12C21E0B6
:103ED00022C03FEFC31AD30A7D010D911D91E70166
:103EE000EA80FB80E016F106A8F420813181E280AF
:103EF000F380F182E08233832283ED90FC9011976E
:103F00009D0122503109E901F982E88211961C9342
:103F10000E9320E03296C416D506D8F2D2CFDF91A8
:103F2000CF911F910F91FF90EF90DF90CF90089568
:103F3000FC01680F791F90E080E0E617F70709F4AD
:103F400008952191820F911DF8CF2091180421111D
:103F500013C049DE009791F410921E0410921D04C4
:103F600010921C0410921B0410921A04109219044F
:103F700021E020931804089584EF9FEF0895AF92F5
:103F8000BF92CF92DF92EF92FF920F931F93CF9346
:103F9000DF93009709F460C04630510508F45CC017
:103FA00020911804C7EFDFEF222309F449C08C01E8
:103FB000060F171FF801C080D180C114D10409F485
:103FC0004EC096012A5F3F4F4217530708F447C07F
:103FD0007C0180911D0490911E0493838283B6011D
:103FE0006C5F7F4F5801A60EB71EC801A1DFF50117
:103FF0009183808364E070E0C8011CDEEC01892BB2
:10400000F9F481E090E00BDEB601C801049612DEFF
:10401000EC01892B91F462E070E0C5010BDEEC014C
:10402000892B59F4C701E0DB80911D0490911E0497
:10403000019690931E0480931D0490E080E0EFDDD4
:10404000CE01DF91CF911F910F91FF90EF90DF9004
:10405000CF90BF90AF900895CFEFDFEFF1CFC9EFD2
:10406000DFEFEECF6F927F928F929F92AF92BF92CF
:10407000CF92DF92EF92FF920F931F93CF93DF9334
:1040800000D000D0CDB7DEB7009709F47AC0411553
:10409000510509F476C02091180407EF1FEF222381
:1040A00009F44DC03A017B015C0164E070E0CE018F
:1040B000019651DE8C01892B09F041C009811A81DA
:1040C0000115110509F45AC0480186E0880E911CBB
:1040D000B701680D791D80912D0190912E0110DDA1
:1040E0006C01009709F450C0A70170E060E00E94E5
:1040F000A02889819A81AB81BC81EC0CFD1CF70161
:1041000081939193A193B1937F0181E090E087DD4A
:10411000B801C70120DE892B31F562E070E0C701EC
:10412000800F911F18DE8C01892BE9F490E080E06C
:1041300076DDF501D182C082F30191828082C801CF
:104140000F900F900F900F90DF91CF911F910F91D3
:10415000FF90EF90DF90CF90BF90AF909F908F90A7
:104160007F906F90089590E080E059DDF501118215
:104170001082F30111821082C60136DB09EF1FEFB6
:10418000DECF0FEF1FEFDBCF06EF1FEFD8CF00978B
:10419000A1F04115510589F02115310571F0F901A2
:1041A00036966E177F0748F0DC012D933C93DA01B9
:1041B000ED93FC9390E080E008958FEF9FEF0895DA
:1041C000AF92BF92CF92DF92EF92FF920F931F9325
:1041D000CF93DF93009709F45FC04115510509F4AF
:1041E0005BC06530710508F457C020911804C7EF13
:1041F000DFEF222391F1DC01CD90DC901197129634
:10420000ED91FC9196012A5F3F4FC9EFDFEF261732
:10421000370719F5C0911904D0911A04209749F570
:1042200021E030E030931A04209319047A018C01C4
:10423000F0931C04E0931B045601B4E0AB0EB11CD8
:10424000B50176DE0A0D1B1DF80120813181821730
:10425000930729F5D701CD92DC92CE01DF91CF9162
:104260001F910F91FF90EF90DF90CF90BF90AF9094
:10427000089520911B0430911C042F5F3F4FCCEF19
:10428000DFEFE217F30790F2CBEFDFEF2E173F07D8
:1042900068F2D0E0C0E0CACFCFEFDFEFDECFC3EFF0
:1042A000DFEFDBCF84E090E0089582E090E00895B6
:1042B0008CEF9FEF089580E290E0089510921E0425
:1042C00010921D0410921C0410921B0410921A04E8
:1042D0001092190490E080E0089590932E0180934D
:1042E0002D01089580911804882391F0C5DD009771
:1042F00089F410921E0410921D0410921C04109256
:104300001B0410921A0410921904109218040895B4
:1043100090E080E00895009749F06115710531F053
:10432000FC0111821082FB01118210820895F3CFEB
:10433000089526E030E040E855E260E070E090E06B
:1043400080E000C01092200410921F048930910573
:10435000E0F483559E4DFC01CBC6B621BF21C6219A
:10436000C921CC21CF21D221D521DB2181E090E0D0
:104370009093200480931F048EE294E071C582E044
:1043800090E09093200480931F04089584E090E0CF
:10439000F8CF88E090E0F5CF80E190E0F2CF80E2C6
:1043A00090E0EFCF80E490E0ECCF80E890E0909355
:1043B000200480931F0480911F0490912004916039
:1043C000E0CF1F920F920FB60F9211242F933F93BD
:1043D0004F935F936F937F938F939F93AF93BF930D
:1043E000EF93FF938FE89DEF909385008093840077
:1043F000B7D0FF91EF91BF91AF919F918F917F9136
:104400006F915F914F913F912F910F900FBE0F9041
:104410001F9018958FE89DEF9093850080938400FE
:10442000AFE6B0E08C918E7F8C93E0E8F0E0808185
:104430008C7F8083E1E8F0E08081877E80838081CB
:104440008460808380818C7F80838C9181608C9359
:104450000895EFE6F0E0808190819E7F90838170E7
:10446000089581E0089510922104089568EE73E0A4
:1044700080E090E063D390E080E0089526E030E0B3
:1044800040E052EC61E070E090E080E05BDF8EE2C3
:1044900094E01CD4892B21F08EE294E031D4F7CF44
:1044A00090E080E00895CF92DF92EF92FF920F9319
:1044B0001F93CF93DF936B017A01E9011982188270
:1044C0008EE294E003D4892B69F18601CC24C39455
:1044D00082E0D82E80912104811110C08EE294E0F8
:1044E0000FD40297B9F7C0922104F801D1928F013D
:1044F00088819981019699838883ECCF88819981FD
:104500008E159F0578F48EE294E0FAD38F3F9807DA
:10451000A9F3F80181938F0188819981019699838C
:104520008883ECCF90E080E0DF91CF911F910F91D5
:10453000FF90EF90DF90CF9008950F931F93CF934C
:10454000DF93EA0189018EE294E06ED5F801D18310
:10455000C08390E080E0DF91CF911F910F9108958B
:10456000CF92DF92EF92FF92CF93DF93809122045C
:1045700091E0980F90932204882379F021E030E0B5
:10458000309324042093230480932204DF91CF915D
:10459000FF90EF90DF90CF9008957894C091310113
:1045A000D09132016A8D7B8D8C8D9D8D3FD120E025
:1045B00030E040E85FE4F0D16B017C016E897F89D7
:1045C000888D998D33D19B01AC01C701B6019AD07A
:1045D00001D16B017C010E948802B701A60190E025
:1045E00080E00E94FB01F894809122048150CCCF9E
:1045F0000F931F93CF93DF931092DB041092DA0492
:10460000D3D297DEC0913101D09132011982188244
:104610006FEF7FEFCB010E947D0270E060E090E0E1
:1046200080E00E94FF00009709F03AC00E94ED026E
:10463000F89478948A819B81BC01685F7F4F0E94C7
:104640000201892B59F46FEF7FEFCB010E94920199
:104650000E947702882311F081E08AA3F894DADEC1
:104660000E947A02882311F080E008C00E9477023D
:104670008111FACF81E09AA19111F6CF8093DA04EB
:1046800078940E94B3098C0178948091DA048111A6
:104690000CC00E9467030E945D02F89490E080E0E5
:1046A000DF91CF911F910F9108950E945B020E94AC
:1046B0007A028823E1F081E08093DB049091DB04AF
:1046C00081E0911180E08093DA048091DB04811114
:1046D000C0DE0130110529F40E94B309892B09F4C9
:1046E000C2DE0E94B3098C01BCDE22DECECF0E9466
:1046F00077028111E0CF81E09AA19111DDCF80E0B6
:10470000DBCF5058BB27AA270ED008C1F9D030F014
:10471000FED020F031F49F3F11F41EF4EEC00EF4F1
:10472000E095E7FBE4C0E92F0AD180F3BA176207EE
:1047300073078407950718F071F49EF522C10EF4F3
:10474000E0950B2EBA2FA02D0B01B90190010C01A1
:10475000CA01A0011124FF27591B99F0593F50F4B9
:10476000503E68F11A16F040A22F232F342F442711
:10477000585FF3CF469537952795A795F040539509
:10478000C9F77EF41F16BA0B620B730B840BBAF0D9
:104790009150A1F0FF0FBB1F661F771F881FC2F744
:1047A0000EC0BA0F621F731F841F48F48795779558
:1047B0006795B795F7959E3F08F0B3CF9395880F0F
:1047C00008F09927EE0F9795879508956CD008F417
:1047D00081E00895BCD088F09F5790F0B92F9927B9
:1047E000B751A0F0D1F0660F771F881F991F1AF0FC
:1047F000BA95C9F712C0B13081F0C3D0B1E00895C5
:10480000C0C0672F782F8827B85F39F0B93FCCF345
:10481000869577956795B395D9F73EF490958095F1
:10482000709561957F4F8F4F9F4F0895E89409C011
:1048300097FB3EF490958095709561957F4F8F4FD3
:104840009F4F9923A9F0F92F96E9BB279395F695E9
:10485000879577956795B795F111F8CFFAF4BB0F67
:1048600011F460FF1BC06F5F7F4F8F4F9F4F16C0CB
:10487000882311F096E911C0772321F09EE8872F55
:10488000762F05C0662371F096E8862F70E060E011
:104890002AF09A95660F771F881FDAF7880F96958A
:1048A000879597F90895990F0008550FAA0BE0E82E
:1048B000FEEF16161706E807F907C0F012161306E2
:1048C000E407F50798F0621B730B840B950B39F422
:1048D0000A2661F0232B242B252B21F408950A2688
:1048E00009F4A140A6958FEF811D811D089597F9C8
:1048F0009F6780E870E060E008959FEF80EC089586
:1049000000240A94161617061806090608950024AE
:104910000A9412161306140605060895092E039428
:10492000000C11F4882352F0BB0F40F4BF2B11F49C
:1049300060FF04C06F5F7F4F8F4F9F4F089557FDFB
:104940009058440F551F59F05F3F71F04795880FFD
:1049500097FB991F61F09F3F79F087950895121694
:1049600013061406551FF2CF4695F1DF08C0161640
:1049700017061806991FF1CF8695710561050894F1
:104980000895E894BB2766277727CB0197F9089508
:104990008ADF08F48FEF08950BD0C0CFB1DF28F085
:1049A000B6DF18F0952309F0A2CFA7CF1124EACFE4
:1049B000C6DFA0F3959FD1F3950F50E0551F629F7E
:1049C000F001729FBB27F00DB11D639FAA27F00D68
:1049D000B11DAA1F649F6627B00DA11D661F829F8F
:1049E0002227B00DA11D621F739FB00DA11D621F74
:1049F000839FA00D611D221F749F3327A00D611D91
:104A0000231F849F600D211D822F762F6A2F112472
:104A10009F5750408AF0E1F088234AF0EE0FFF1FC5
:104A2000BB1F661F771F881F91505040A9F79E3FFC
:104A3000510570F05CCFA6CF5F3FECF3983EDCF3FE
:104A4000869577956795B795F795E7959F5FC1F739
:104A5000FE2B880F911D9695879597F908951F92C3
:104A60000F920FB60F9211242F933F938F939F9322
:104A7000AF93BF938091260490912704A0912804BE
:104A8000B09129043091250423E0230F2D3758F5E8
:104A90000196A11DB11D20932504809326049093B7
:104AA0002704A0932804B093290480912A049091AC
:104AB0002B04A0912C04B0912D040196A11DB11DD1
:104AC00080932A0490932B04A0932C04B0932D047C
:104AD000BF91AF919F918F913F912F910F900FBEFA
:104AE0000F901F90189526E8230F0296A11DB11D67
:104AF000D2CF3FB7F89480912A0490912B04A091D3
:104B00002C04B0912D0426B5A89B05C02F3F19F0A9
:104B10000196A11DB11D3FBFBA2FA92F982F88273D
:104B2000BC01CD01620F711D811D911D42E0660F18
:104B3000771F881F991F4A95D1F708958F929F92EA
:104B4000AF92BF92CF92DF92EF92FF926B017C0106
:104B5000D0DF4B015C01C114D104E104F104D9F0B0
:104B600090D2C7DF681979098A099B09683E7340AA
:104B70008105910580F321E0C21AD108E108F1080E
:104B800088EE880E83E0981EA11CB11CC114D104CC
:104B9000E104F10431F7FF90EF90DF90CF90BF90E8
:104BA000AF909F908F900895789484B5826084BD73
:104BB00084B5816084BD85B5826085BD85B5816021
:104BC00085BDEEE6F0E0808181608083E1E8F0E081
:104BD0001082808182608083808181608083E0E8B0
:104BE000F0E0808181608083E1EBF0E0808184608F
:104BF0008083E0EBF0E0808181608083EAE7F0E091
:104C000080818460808380818260808380818160F4
:104C100080838081806880831092C10008958E30E7
:104C200008F08E5020912F0190E4299F90011124CB
:104C30008770822B80937C0080917A0080648093BF
:104C40007A0080917A0086FDFCCF80917800909167
:104C500079000895CF93DF9390E0FC01E859FF4F6E
:104C6000249184589F4FFC0184918823C9F090E0DF
:104C7000880F991FFC01E656FF4FA591B491FC01E6
:104C8000E057FF4FC591D49161110DC09FB7F894C3
:104C90008C91209582238C938881282328839FBF21
:104CA000DF91CF910895623051F49FB7F8943C9111
:104CB000822F809583238C93E8812E2BEFCF8FB7A3
:104CC000F894EC912E2B2C938FBFEACFFC01918DA1
:104CD000228D892F90E0805C9F4F821B91098F73FA
:104CE00099270895FC01918D828D981731F0828D5E
:104CF000E80FF11D858D90E008958FEF9FEF0895E7
:104D0000FC01918D828D981761F0A28DAE0FBF2F9F
:104D1000B11D5D968C91928D9F5F9F73928F90E0F5
:104D200008958FEF9FEF0895FC01538D448D252F3B
:104D300030E0842F90E0821B930B541710F0CF9635
:104D4000089501970895FC01A48DA80FB92FB11DF6
:104D5000A35ABF4F2C91848D90E001968F739927B1
:104D6000848FA689B7892C93A089B1898C9183708F
:104D700080648C93938D848D981306C00288F38988
:104D8000E02D80818F7D80830895CF93DF93EC01A8
:104D9000888D8823B1F0AA89BB89E889F9898C912B
:104DA00085FD03C0808186FD0CC00FB607FCF7CFE0
:104DB0008C9185FFF2CF808185FFEDCFCE01C3DFDF
:104DC000EACFDF91CF910895EF92FF920F931F9357
:104DD000CF93DF93EC0181E0888F9B8D8C8D9813AE
:104DE0001AC0E889F989808185FF15C09FB7F894BA
:104DF000EE89FF896083E889F98980818370806406
:104E000080839FBF81E090E0DF91CF911F910F9150
:104E1000FF90EF900895F62E0B8D10E00F5F1F4F5F
:104E20000F731127E02E8C8D8E110BC00FB607FC6F
:104E3000FACFE889F989808185FFF5CFCE0183DF3C
:104E4000F2CFEB8DEC0FFD2FF11DE35AFF4FF082F7
:104E50009FB7F8940B8FEA89FB8980818062D0CF5D
:104E6000CF92DF92EF92FF921F93CF93DF93EC01EB
:104E70006A017B01122FE889F98982E08083C114DD
:104E800081EED806E104F10499F060E079E08DE369
:104E900090E0A70196010AD1215031094109510939
:104EA0005695479537952795211580E1380790F05D
:104EB000E889F989108260E874E88EE190E0A70142
:104EC0009601F4D021503109410951095695479571
:104ED00037952795EC85FD853083EE85FF8520830A
:104EE000188EEC89FD891083EA89FB8980818061B5
:104EF0008083EA89FB89808188608083EA89FB89D5
:104F0000808180688083EA89FB8980818F7D8083AE
:104F1000DF91CF911F91FF90EF90DF90CF90089598
:104F20001F920F920FB60F9211242F938F939F937E
:104F3000EF93FF93E0913E04F0913F048081E09174
:104F40004404F091450482FD1BC090818091470488
:104F50008F5F8F7320914804821741F0E0914704DE
:104F6000F0E0E25DFB4F958F80934704FF91EF9156
:104F70009F918F912F910F900FBE0F901F901895BA
:104F80008081F4CF1F920F920FB60F9211242F93AE
:104F90003F934F935F936F937F938F939F93AF93C1
:104FA000BF93EF93FF938EE294E0CDDEFF91EF91FC
:104FB000BF91AF919F918F917F916F915F914F9131
:104FC0003F912F910F900FBE0F901F901895EEE21A
:104FD000F4E01382128288EE93E0A0E0B0E08483D4
:104FE0009583A683B7838BEB91E09183808385ECD7
:104FF00090E09587848784EC90E09787868780ECA3
:1050000090E0918B808B81EC90E0938B828B82EC93
:1050100090E0958B848B86EC90E0978B868B118E3D
:10502000128E138E148E0895AF92BF92CF92DF929C
:10503000EF92FF920F931F93CF93DF936C017B014D
:105040008B01040F151FEB015E01AE18BF08C017DE
:10505000D10759F06991D601ED91FC910190F08151
:10506000E02DC6010995892B79F7C501DF91CF9114
:105070001F910F91FF90EF90DF90CF90BF90AF9076
:1050800008950895AA1BBB1B51E107C0AA1FBB1FAF
:10509000A617B70710F0A61BB70B881F991F5A95C4
:1050A000A9F780959095BC01CD010895A1E21A2E33
:1050B000AA1BBB1BFD010DC0AA1FBB1FEE1FFF1FBC
:1050C000A217B307E407F50720F0A21BB30BE40B0C
:1050D000F50B661F771F881F991F1A9469F7609553
:1050E0007095809590959B01AC01BD01CF0108950D
:1050F000EE0FFF1F0590F491E02D0994A29FB001DF
:10510000B39FC001A39F700D811D1124911DB29FFB
:10511000700D811D1124911D0895F0DFA59F900D44
:10512000B49F900DA49F800D911D11240895FB0143
:10513000DC0102C001900D9241505040D8F7089513
:10514000DC0101C06D9341505040E0F70895F894A0
:02515000FFCF8F
:10515200DB0FC93F42C9FEFFFFFF01E8030000FF6A
:10516200FF00000000FFFFFFFFFFFFFFFFFFFF0147
:105172000001000100200038000800FFFFFFFF01CE
:1051820001E701FF000A0C360CFE00F00B6E09FD70
:1051920000820BDC0BFC00C80B6E09F600B90C6E2A
:1051A20009F5008F0BF80CF400820C0F0DDE003DA8
:1051B20011D613DD00AC126E09DA00DF0EE70ED94C
:1051C20000F113F70EE200C70D6E09E100020E6E48
:1051D20009E000770E6E09D600D5176E09D5008C4E
:1051E200106E09D40018106E09D300890F6E09DC05
:1051F20000060F6E09C0000E0F6E09F0003E186E19
:1052020009ED00FB176E0900000000E42614289443
:0A52120026C52666268026722600B7
:00000001FF
