:1000000061C000000C94AE320C94D53283C0000065
:1000100081C000007FC000007DC000007BC00000E8
:1000200079C0000077C0000075C0000073C00000F8
:1000300071C000000C94332E6DC000006BC0000036
:100040000C94FC3267C000000C940E360C944036C1
:1000500061C000005FC000005DC000005BC0000028
:1000600059C0000057C00000000000080002010055
:100070000003040700000000000000000102040863
:100080001020408001020408102001020408102002
:10009000040404040404040402020202020203032E
:1000A00003030303000000002300260029000000D2
:1000B0000000250028002B0000000000240027007D
:1000C0002A00653611241FBECFEFD8E0DEBFCDBFBA
:1000D00012E0A0E0B1E0ECE6FEE602C005900D9271
:1000E000A231B107D9F726E0A2E1B2E001C01D922A
:1000F000AF3EB207E1F710E0C2E6D0E004C02197BE
:10010000FE010E940537C136D107C9F70E94B52FFD
:100110000C94343775CFCF93DF93882349F0EB01EC
:1001200081500E94DC3399838883DF91CF910895B9
:10013000FB0111821082F9CF0F931F938B019C0159
:1001400083E036952795179507958A95D1F7055E33
:100150001D4F462F477021E030E0F90102C0EE0F3D
:10016000FF1F4A95E2F7AF01F80120812423CB015C
:100170000196211102C090E080E01F910F91089537
:100180000F931F938B019C0183E03695279517955C
:1001900007958A95D1F7677081E090E001C0880FDC
:1001A0006A95EAF7F801E55EFD4F2081452B31F4B1
:1001B0008095822380831F910F910895822BFACF1F
:1001C000CF92DF92EF92FF92CF93DF936B017C018E
:1001D00060E08EE0C816D104E104F10490F48EE0F2
:1001E0008C0D0E947B34E6012196AE01C701B60159
:1001F000C7DFCE01DF91CF91FF90EF90DF90CF90DE
:1002000008958C2DEECF882341F08150682F70E047
:1002100090E080E050E040E0B3CF0895CF93282FE6
:100220008823E1F0CB01BA01CFEFC20FEC2FF0E051
:10023000EC5DFD4F2081213059F490580E94BF3071
:100240009B01AC016C2F70E090E080E0CF91A2C0E8
:100250000E94BA308C2FCF910C94F733CF91089530
:100260000F931F938B019C0183E03695279517957B
:1002700007958A95D1F70E5E1D4F462F477021E0F6
:1002800030E0F90102C0EE0FFF1F4A95E2F7AF011F
:10029000F80120812423CB010196211102C090E0B6
:1002A00080E01F910F9108950F931F938B019C0184
:1002B00083E036952795179507958A95D1F767704E
:1002C00081E090E001C0880F6A95EAF7F801EE5EE0
:1002D000FD4F2081452B31F48095822380831F912F
:1002E0000F910895822BFACF4F925F926F927F9277
:1002F0008F929F92AF92BF92CF92DF92EF92FF9236
:100300000F931F93CF93DF934B015C0129013A01B7
:10031000670161E0882D0E947B34E4012196AE01E3
:10032000C501B401C1DF20E030E0A901C801B60178
:100330000E94F03118168CF4F401EC5DFD4F81E061
:100340008083C801B6010E94BF306B01C301B201B6
:100350000E94BF30A601C40121D0CE01DF91CF9110
:100360001F910F91FF90EF90DF90CF90BF90AF90D3
:100370009F908F907F906F905F904F90089588230B
:1003800041F08150682F70E090E080E050E040E064
:100390008BCF0895862FB9010C94F7339C01FC0193
:1003A000E859FF4FE491E33061F140F4E13011F19D
:1003B000E23021F160E0822F0C94B734E730C1F1D4
:1003C000E83009F441C0E430A9F7809180008C7FC7
:1003D00082608093800090918100907E9061692B73
:1003E0006093810050938700409386008091800045
:1003F00080621BC084B5806884BDDCCF84B5806218
:10040000FBCF809180008C7F8260809380009091F0
:100410008100907E9061692B6093810050938700EA
:100420004093860080918000806880938000C2CFD6
:100430008091B00080688093B0008091B100887F87
:10044000682B6093B100B6CF8091B0008062F3CF8B
:10045000FC01A781B0858C9191858923A481B58108
:100460009C9140815181628173812681922359F050
:1004700081110BC04F5F5F4F6F4F7F4F40835183A0
:100480006283738308958111F5CF41505109610949
:100490007109F4CF89E392E0DBCF84E492E0D8CF16
:1004A0008FE492E0D5CF8AE592E0D2CFFC01A4811F
:1004B000B5818C9196818923A781B0859C914081DB
:1004C0005181628173812185922359F0882359F0EB
:1004D0004F5F5F4F6F4F7F4F4083518362837383C2
:1004E00008958823A9F34150510961097109F4CF96
:1004F00089E392E0DBCF84E492E0D8CF8FE492E00E
:10050000D5CF8AE592E0D2CF0F931F93CF93DF939D
:10051000082F162FEA01A09138028BE0A89FD00186
:100520001124A75CBD4F1D921D921D921C92139722
:1005300081E01A968C931A97802F90E0FC01E45882
:10054000FF4FE4911696EC931697FC01E057FF4F8E
:10055000E491F0E0EE0FFF1FEC55FF4F8591949171
:1005600015969C938E931497862F90E0FC01E45887
:10057000FF4FE4911996EC931997FC01E057FF4F58
:10058000E491F0E0EE0FFF1FEC55FF4F8591949141
:1005900018969C938E93179760E0802F0E947B346F
:1005A00060E0812F0E947B3480913802813081F19C
:1005B000A0F0823009F445C0833009F45BC080911B
:1005C000380291E0980F90933802888390E080E0A1
:1005D000DF91CF911F910F91089580E0023021F0BB
:1005E0008FEF033009F481E041E050E06AE472E00B
:1005F0000E948E3280E0123021F08FEF133009F428
:1006000081E041E050E068E772E00E948E32D7CF8F
:1006100080E0023021F08FEF033009F481E041E007
:1006200050E06DE472E00E948E3280E0123021F0E2
:100630008FEF133009F481E041E050E06BE772E0A6
:10064000E4CF80E0023021F08FEF033009F481E045
:1006500041E050E060E572E00E948E3280E01230AE
:1006600021F08FEF133009F481E041E050E06EE7B4
:1006700072E0CBCF80E0023021F08FEF033009F43D
:1006800081E041E050E063E572E00E948E3280E05C
:10069000123021F08FEF133009F481E041E050E097
:1006A00061E872E0B2CF9BE0899FF0011124E75C22
:1006B000FD4F80819181A281B381FB018083918371
:1006C000A283B38390E080E008959BE0899FF001CE
:1006D0001124E75CFD4F108211821282138290E098
:1006E00080E0089590E080E00895611102C00C94CC
:1006F0007B346130E1F362E0FACF662319F061E008
:100700000C94B73460E0FCCF90E080E008950F9344
:100710001F93009709F48AC06115710509F486C01A
:1007200000914A0110914B0120914C0130914D01F3
:100730000E3F1F4F2F4F3F4F09F06AC0DB014D9115
:100740005D916D917C9140934A0150934B01609370
:100750004C0170934D0140914A0150914B016091C1
:100760004C0170914D01DC011296ED91FC9180815C
:100770009181A281B3818093ED029093EE02A093C8
:10078000EF02B093F00284819581A681B7818093B6
:10079000E9029093EA02A093EB02B093EC02808509
:1007A0009185A285B3858093E5029093E602A0939C
:1007B000E702B093E80284859585A685B785809386
:1007C000E1029093E202A093E302B093E40210925C
:1007D000DD021092DE021092DF021092E0020E940F
:1007E000F41189E192E190936602809365029093FF
:1007F0006802809367020E94D310009731F421E0D1
:1008000030E03093F2022093F1021F910F9108958E
:1008100000914A0110914B0120914C0130914D0102
:10082000FB01008311832283338395CF8FEF9FEFEA
:10083000ECCF8F929F92AF92BF92CF92DF92EF92C6
:10084000FF921F93CF93DF934B015C011091F40251
:1008500082E090E09093F2028093F102811491047F
:10086000A104B10441F48091F402811104C080918B
:10087000F302C1E08111C0E0C12CD12C760180913E
:10088000F402811106C08091F302811102C0CC23D1
:10089000D9F083E090E09093F2028093F102CC23B0
:1008A00081F1CCE9DFEF111102C00E947D15CE016C
:1008B000DF91CF911F91FF90EF90DF90CF90BF908D
:1008C000AF909F908F9008956AE070E080E090E094
:1008D0000E946B3380E1C80E87E2D81EE11CF11C38
:1008E0008FEF88169806A806B80631F0C1E08C1480
:1008F0009D04AE04BF0408F0C0E080E00E94171120
:10090000BECFD0E0C0E0CFCFCF92DF92EF92FF9288
:100910000F931F93CF93DF938F3F910511F008F052
:1009200051C02091F1023091F2022330310539F0AB
:100930002091F1023091F2022130310531F424E0AE
:1009400030E03093F2022093F1026A017B01EC0166
:1009500082309105A8F011E0AE01C701B6010E94F6
:10096000D210AB01BC01CE011123F9F0DF91CF9180
:100970001F910F91FF90EF90DF90CF900C94A217F2
:100980008C01000F111F0B591D4FD8018D919C91A7
:10099000892B09F30E94AC170297E9F6D801ED9173
:1009A000FC91CE010995182FD7CF0E94C41790E073
:1009B00080E0DF91CF911F910F91FF90EF90DF903A
:1009C000CF9008958FEF9FEFF4CF80E00C94171134
:1009D000CF93DF9386E090E09093F2028093F10250
:1009E0000E947011EC01E5E6F2E084E0DF011D9267
:1009F0008A95E9F70E9415151092F2021092F10201
:100A0000CE01DF91CF9108958091F30208958091F6
:100A1000DC02089560934A0170934B0180934C016E
:100A200090934D0190E080E008952F923F924F9275
:100A30005F926F927F928F929F92AF92BF92CF926E
:100A4000DF92EF92FF920F931F93CF93DF93CDB777
:100A5000DEB7CB54D1090FB6F894DEBF0FBECDBFC1
:100A600026967FAF6EAF269728965FAF4EAF28973A
:100A70003E8B2D8B2C96FFAEEEAE2C97FB01E150FA
:100A8000F04CEE0FFF1FEE0FFF1FE80FF91F8080E5
:100A90009180A280B3808F8A988EA98EBA8EB5017C
:100AA000A401442777FD4395552766277727299684
:100AB0004FAF2997F901E150F04CEE0FFF1FEE0FF9
:100AC000FF1F2896AEACBFAC2897EA0DFB1DC08077
:100AD000D180E280F380CB8EDC8EED8EFE8EB7016E
:100AE000A601442777FD43955527662777272A9641
:100AF0004FAF2A97188B0F87F80130E020E02C9633
:100B0000EEACFFAC2C972E153F050CF43FC022969F
:100B10009FAF8EAF22971A8B098B312C212C812C01
:100B2000912C540183948D829E82AF82B886269642
:100B30008EAC9FAC2697281439047CF129969FAC83
:100B400029972A96AFAC2A9730E020E041E050E0A8
:100B500060E070E09A10F5C1C55BDF4F0FB6F89406
:100B6000DEBF0FBECDBFDF91CF911F910F91FF90E0
:100B7000EF90DF90CF90BF90AF909F908F907F903D
:100B80006F905F904F903F902F9008951192119227
:100B9000119211922F5F3F4FB2CF2296EEADFFAD73
:100BA000229781919191A191B1912296FFAFEEAFE1
:100BB00022978F88988CA98CBA8CB7FE23C04D8160
:100BC0005E816F81788541505109610971095A012F
:100BD0006B01A81AB90ACA0ADB0AD601C50121E0CD
:100BE000CD80DE80EF80F8848C159D05AE05BF05B5
:100BF00008F020E0822E912CB12CA12C8D829E82B7
:100C0000AF82B8865D01CC24DD24A8A2B9A2CAA215
:100C1000DBA29C01AD01442755272CA33DA34EA385
:100C20005FA32C96EEADFFAD2C97E219F3098D88EA
:100C30009E888E169F060CF4F4012896AEACBFACCD
:100C400028972496BFAEAEAE2497C988DA88DC8A8E
:100C5000CB8A1E861D86812C912C54018394898613
:100C60009A86AB86BC86812C912C5401CD84DE847F
:100C7000CE16DF0604F1F7FF02C0F0E0E0E0E20D7F
:100C8000F31D2C96EEACFFAC2C97EE15FF0554F43B
:100C9000EE0FFF1FEE0FFF1FE00FF11F808291820A
:100CA000A282B3822FEF221A320AE989FA89349696
:100CB000FA8BE98B3CCF2496AEADBFAD2497CD9097
:100CC000DD90ED90FD902496BFAFAEAF24972B8DB5
:100CD0003C8D4D8D5E8D57FF22C089859A85AB85F1
:100CE000BC850197A109B109AC01BD014C195D0991
:100CF0006E097F096A017B0181E029853A854B8570
:100D00005C85C216D306E406F50608F080E0482F9D
:100D100050E070E060E049875A876B877C87B701B5
:100D20008827992768A779A78AA79BA7EE24FF247D
:100D300028A139A14AA15BA1C701B6010E94C03612
:100D40002B013C012CA13DA14EA15FA168A579A575
:100D50008AA59BA50E94C0366CA77DA78EA79FA7DA
:100D6000AB89BC894D915D916D917D91BC8BAB8BB5
:100D7000DB01CA01880D991DAA1DBB1D89839A83B9
:100D8000AB83BC8391E09F8F29813A814B815C8149
:100D9000281539054A055B0508F01F8E2CA13DA1D9
:100DA0004EA15FA1C701B6010E94C0366B017C0154
:100DB00089809A80AB80BC808C0C9D1CAE1CBF1CB3
:100DC00089829A82AB82BC8252019924882488AAA3
:100DD00099AAAAAABBAA29813A814B815C81280DD4
:100DE000391D4A1D5B1D2CAB3DAB4EAB5FAB8CA4DC
:100DF0009DA4AEA4BFA454019924882488AE99AEC2
:100E0000AAAEBBAE280D391D4A1D5B1D2CAF3DAFF0
:100E10004EAF5FAFAB89BC8914972D933D934D9333
:100E20005C93139728A139A14AA15BA168A579A574
:100E30008AA59BA50E94C0369F8C690D711D811DDE
:100E4000911D230166247724460E571E681E791EC5
:100E50002CA53DA54EA55FA54A01AA24BB24840C60
:100E6000951CA61CB71C81E090E0A0E0B0E0498191
:100E70005A816B817C814C155D056E057F0518F0EC
:100E800080E090E0DC01880D991DAA1DBB1D41E0AA
:100E900050E060E070E088A899A8AAA8BBA8CCA8F8
:100EA000DDA8EEA8FFA8C814D904EA04FB0418F0D2
:100EB00040E050E0BA01840F951FA61FB71F812C98
:100EC000912C54018394C8ACD9ACEAACFBAC2CADEA
:100ED0003DAD4EAD5FAD2C153D054E055F0518F0DF
:100EE000812C912C5401880E991EAA1EBB1E4D8583
:100EF0005E854F5F5F4F5E874D87B8CEEF85F8897F
:100F0000C190D190E190F190F88BEF87DB01CA019D
:100F10000197A109B1098C199D09AE09BF09349740
:100F200080839183A283B383E1E084179507A607AA
:100F3000B70708F0E0E04E2F50E070E060E02F5F70
:100F40003F4F2C968EAC9FAC2C9728153905B4F2E8
:100F500003CE2F923F924F925F926F927F928F9229
:100F60009F92AF92BF92CF92DF92EF92FF920F9338
:100F70001F93CF93DF9300D000D0CDB7DEB78B01A6
:100F80005C834B83FB01E150F04CEE0FFF1FEE0F33
:100F9000FF1FE80FF91F408151816281738177FD46
:100FA00027C04C01B12CA12CC12CD12C7601A0164C
:100FB000B10664F5F40161917191819191914F01B4
:100FC0000E94EB304B815C810E94F6319B01AC01A9
:100FD000C701B6010E943F306B017C012B813C812F
:100FE000205E3F4F3C832B833FEFA31AB30ADFCF32
:100FF0009A838983312C212C81E090E0A0E0B0E03D
:10100000C12CD12C760120163106CCF0C701B601D7
:101010000F900F900F900F90DF91CF911F910F9134
:10102000FF90EF90DF90CF90BF90AF909F908F9008
:101030007F906F905F904F903F902F900895E9813F
:10104000FA814190519061907190FA83E9834094C4
:1010500050946094709453014201880E991EAA1E08
:10106000BB1EC501B4010E94EB304B815C810E9424
:10107000F6319B01AC01C701B6010E943E306B0105
:101080007C0181E084149504A604B70408F080E094
:1010900090E0B0E0A0E02B813C81205E3F4F3C839C
:1010A0002B833FEF231A330AAECFFC0191E08091EE
:1010B000B202811190E091830895CF92DF92EF9276
:1010C000FF926B017C019F7720E030E040E859E51A
:1010D0000E94B63087FF2BC020E030E040E05FE3A5
:1010E000C701B6010E94F03187FD0EC020E030E05C
:1010F00040E05FE3C701B6010E943F30FF90EF90F0
:10110000DF90CF900C94283120E030E040E05FEB9E
:10111000C701B6010E94F031181684F420E030E0D7
:10112000A901C701B6010E942A326B017C01C701E7
:10113000B601FF90EF90DF90CF90089520E030E06F
:1011400040E05FE3C701B6010E943E30FF90EF90A0
:10115000DF90CF900C94A3308091B2028F5F8230E9
:1011600068F58093B2028091A1029091A202A091B1
:10117000A302B091A4020196A11DB11D8093A1020A
:101180009093A202A093A302B093A402892B8A2B6E
:101190008B2B99F48091A5029091A602A091A702B1
:1011A000B091A8020196A11DB11D8093A502909354
:1011B000A602A093A702B093A80208951092B202CB
:1011C000D2CF4F925F926F927F928F929F92AF9207
:1011D000BF92CF92DF92EF92FF920F931F93CF9324
:1011E000DF93CDB7DEB7A2970FB6F894DEBF0FBE80
:1011F000CDBF8091710681111092710661ED76E08C
:101200008091720650DA809172065FDA8FEF9FEF5D
:10121000DC018093970690939806A0939906B0936B
:101220009A062091A4068091D1069091D206A091B1
:10123000D306B091D40621110BC080939B069093E6
:101240009C06A0939D06B0939E0621E02093A406E1
:1012500040919B0650919C0660919D0670919E0660
:101260008C019D01B7FD2EC00F5F1F4F2F4F3F47D1
:1012700040175107620773075CF18C019D01041B45
:10128000150B260B370BB901A80177FF0DC04115CF
:101290005105610510E87107D9F07095609550957A
:1012A00041955F4F6F4F7F4F493C51056105710577
:1012B0007CF480939B0690939C06A0939D06B0932C
:1012C0009E0606C030580417150726073707ACF6E8
:1012D0008091440190914501A0914601B091470150
:1012E0008D879E87AF87B88B80919B0690919C06D7
:1012F000A0919D06B0919E0689879A87AB87BC878F
:1013000042E0E42EF12C8E010F5F1F4F21E030E010
:10131000AE01475F5F4F61E070E0CE010D9685DB67
:10132000809112068111109212061092CD06109231
:10133000CE061092CF061092D00650E040E062E058
:1013400070E0CE01019605DE20E030E040E051E3A0
:101350000E942A326B8B7C8B8D8B9E8B20913B065F
:1013600030913C0640913D0650913E060E943F3030
:101370002B013C01C0904F06D0905006E0905106E2
:10138000F090520680904B0690904C06A0904D062F
:10139000B0904E06C501B4010E94BA308B010150D5
:1013A000110920E030E0A901C701B6010E94B63062
:1013B000000F111F000F111F8111D4C2F801E45F4B
:1013C000F94F23A934A945A956A9C301B2010E9426
:1013D0003F306F8B788F898F9A8F045F194F2B89DD
:1013E0003C894D895E89D801D3962D933D934D93C9
:1013F0005C93D69720E030E040E450E4C501B401AE
:101400000E94B630882309F4B2C220E030E040E800
:101410005FE3C501B4010E943F304B015C0120E055
:1014200030E0A901C701B6010E94B630811112C097
:1014300020E030E040E85EE36F89788D898D9A8DF9
:101440000E942A326093CD067093CE068093CF0619
:101450009093D00640923B0650923C0660923D0627
:1014600070923E0680924B0690924C06A0924D06DA
:10147000B0924E0620E030E0A901C701B6010E94FB
:10148000F03118160CF0ABC220E030E040E85FE32A
:10149000C701B6010E943E3060934F06709350061C
:1014A00080935106909352062091CD063091CE063E
:1014B0004091CF065091D0066091080170910901CA
:1014C00080910A0190910B010E942A326F8B788FD4
:1014D000898F9A8F9B01AC0160910C0170910D0175
:1014E00080910E0190910F010E942A326093B906FB
:1014F0007093BA068093BB069093BC066EE070E0D2
:1015000080E090E00E949C0090935A0680935906D8
:1015100043E050E0BE016F5E7F4F0E948B00209140
:10152000480130914901A989BA890E940B370E946C
:10153000EB3020E030E040E054E30E942A3220917A
:1015400010013091110140911201509113010E943C
:101550003F306B017C01C092A906D092AA06E092AE
:10156000AB06F092AC062091140130911501409128
:101570001601509117010E943E302B013C01409210
:10158000BD065092BE066092BF067092C0062091C2
:1015900018013091190140911A0150911B01C701A6
:1015A000B6010E942A326B8F7C8F8D8F9E8F209187
:1015B00083063091840640918506509186060E94EC
:1015C0003E304B015C018092AD069092AE06A09237
:1015D000AF06B092B0068092C1069092C206A09269
:1015E000C306B092C40620911C0130911D014091A8
:1015F0001E0150911F01C701B6010E943E308B01B0
:101600009C013F770B8B1C8B2D8B3E8B0093B1067F
:101610001093B2062093B3063093B406C0908706A9
:10162000D0908806E0908906F0908A06C092B506B0
:10163000D092B606E092B706F092B8062091B906AD
:101640003091BA064091BB065091BC0660912C01C6
:1016500070912D0180912E0190912F010E942A32CC
:101660006F8F78A389A39AA3209128013091290133
:1016700040912A0150912B01C701B6010E942A32E4
:101680009B01AC016F8D78A189A19AA10E943F3086
:101690006B017C0120913001309131014091320188
:1016A00050913301C301B2010E942A329B01AC0167
:1016B000C701B6010E943F306B017C0120913401CB
:1016C000309135014091360150913701C501B40187
:1016D0000E942A329B01AC01C701B6010E943F3033
:1016E0006093C5067093C6068093C7069093C8069C
:1016F000209138013091390140913A0150913B01DC
:101700000E942A324B015C018092C9069092CA065F
:10171000A092CB06B092CC0620913C0130913D01C5
:1017200040913E0150913F016B897C898D899E8952
:101730000E94F031181644F4809004019090050145
:10174000A0900601B09007018FEF9FEFDC0180931E
:10175000930690939406A0939506B093960620E086
:1017600030E0A901C501B4010E94F031C12CD12C97
:10177000760118164CF075016401F7FAF094F7F849
:10178000F094812C912C540165E070E080E090E0B1
:101790000E9430018C0190936A068093690620E0D4
:1017A00030E04FE753E4C501B4010E94B63018168B
:1017B00034F4812C912C9FE7A92E93E4B92EB50126
:1017C000A401C8010E940E0166E070E080E090E094
:1017D0000E9430018C01909362068093610620E0A4
:1017E00030E04FE753E4C701B6010E94B630181647
:1017F00034F4C12CD12C8FE7E82E83E4F82EB70106
:10180000A601C8010E940E01609140017091410142
:10181000809142019091430150DC6B017C0120E0FA
:1018200030E040E853E40E94B6306FEF87FF0EC00F
:1018300020E030E0A901C701B6010E94F03160E06C
:1018400087FD04C0C701B6010E94BF3087E00E9437
:101850007D0320E030E040E853E4C701B6010E9478
:10186000B6306FEF87FF0EC020E030E0A901C7015E
:10187000B6010E94F03160E087FD04C0C701B601E7
:101880000E94BF3088E00E947D032B8D3C8D4D8DE2
:101890005E8D209383063093840640938506509393
:1018A0008606209120013091210140912201509122
:1018B00023016F89788D898D9A8D0E942A3220911B
:1018C0008706309188064091890650918A060E94C9
:1018D0003F306093870670938806809389069093C3
:1018E0008A068091A9029091AA02A091AB02B091C0
:1018F000AC020196A11DB11D8093A9029093AA028A
:10190000A093AB02B093AC02892B8A2B8B2B99F45A
:101910008091AD029091AE02A091AF02B091B00261
:101920000196A11DB11D8093AD029093AE02A093CC
:10193000AF02B093B002A2960FB6F894DEBF0FBE0E
:10194000CDBFDF91CF911F910F91FF90EF90DF906E
:10195000CF90BF90AF909F908F907F906F905F904F
:101960004F9008951F8A188E198E1A8E36CD2091A9
:101970004706309148064091490650914A066091C9
:1019800043067091440680914506909146060E9458
:101990003F309B01AC0120934306309344064093B3
:1019A00045065093460660913F067091400680912F
:1019B0004106909142060E943F3060933F0670932B
:1019C00040068093410690934206812C912C20E89A
:1019D000A22E2FE3B22E412C512C320120CD109299
:1019E0004F061092500610925106109252065CCD8E
:1019F0002F923F924F925F926F927F928F929F921F
:101A0000AF92BF92DF92EF92FF920F931F93CF930B
:101A1000DF9384E090E08ED2EBE8F2E08DE2DF012C
:101A20001D928A95E9F780E090E0A0E8BFEB80A7DF
:101A300091A7A2A7B3A785E097E1A2EFBFE58483B2
:101A40009583A683B7838CE093E2A3E0B3E5808718
:101A50009187A287B38785EC9FEDA1EFB4EC8487D3
:101A60009587A687B78787EB9FE6A1E9B8E2808BC9
:101A7000918BA28BB38BAFE7B2E0B383A283E9E68D
:101A8000F2E01196FC93EE9388E791E091838083D6
:101A900093838283958384839783868391878087CA
:101AA000938782879587848797878687918B808B9A
:101AB000938B828B958B848B8FE992E015969C9308
:101AC0008E9314978FE892E013969C938E931297BF
:101AD00044244A94542C320118964D925D926D9292
:101AE0007C921B97E9EAF6E08CE2DF011D928A9571
:101AF000E9F7CCE0D6E08DE9FE0111928A95E9F78D
:101B0000DD24D394D092A506812C912C540183948A
:101B100080926C0690926D06A0926E06B0926F064F
:101B200042E756E063E082E00E948402D0927006B1
:101B3000109271061882D092A20689829A82AB8294
:101B4000BC828FA298A6A9A6BAA68BA69CA6ADA673
:101B5000BEA61FA618AA19AA1AAA1BAA1CAA1DAAC1
:101B60001EAA1FAA18AE19AE1AAE1BAE1CAE1DAE31
:101B70001EAE2BE4222E26E0322E80E090E0A0E87C
:101B8000BFE3F10180839183A283B383AFE4B6E026
:101B90001D921D921D921C921397DD821E8210923F
:101BA0005306D092A8068092540690925506A092B1
:101BB0005606B09257066EE070E080E090E00E941A
:101BC000E00090935A0680935906D09258061092DE
:101BD0006306D092A7068092640690926506A09252
:101BE0006606B0926706E12CF12C8701A8019701E7
:101BF00065E070E080E090E00E94740190936A06D6
:101C000080936906D092680610925B06D092A60671
:101C100080925C0690925D06A0925E06B0925F068E
:101C2000A801970166E070E080E090E00E947401F6
:101C30009093620680936106D092600610927B06B4
:101C4000D092A00680927C0690927D06A0927E069D
:101C5000B0927F0661E087E00E947503D092800613
:101C600010927306D0929F06809274069092750629
:101C7000A0927606B092770661E088E00E94750334
:101C8000D0927806E0E0F1E080819181A281B38179
:101C90008093830690938406A0938506B09386066E
:101CA00084A195A1A6A1B7A18093870690938806E9
:101CB000A0938906B0938A061092A40640929706D4
:101CC000509298066092990670929A0640929306F6
:101CD00050929406609295067092960680917206D4
:101CE0000E946503EFA6F8AA09AB1AABEBAAFCAAFF
:101CF0000DAB1EABEFAAF8AE09AF1AAFEBAEFCAE60
:101D00000DAF1EAF80E090E0A0E8BFE3F10180835B
:101D10009183A283B383AFE4B6E0ED92FD920D937D
:101D20001C931397DF91CF911F910F91FF90EF902C
:101D3000DF90BF90AF909F908F907F906F905F905B
:101D40004F903F902F90089580916B06811114C0A1
:101D500081E080936B0680916C0690916D06A09156
:101D60006E06B0916F060197A105B10529F4809127
:101D7000700681110E94720380910C06811126C0A9
:101D800081E080930C0680910D0690910E06A09143
:101D90000F06B09110060197A105B105B9F4809125
:101DA0001106882399F08FEF9FEFDC0180933306B3
:101DB00090933406A0933506B09336068093370689
:101DC00090933806A0933906B0933A068091530653
:101DD00081111FC081E08093530680915406909139
:101DE0005506A0915606B09157060197A105B10579
:101DF00081F480915806882361F06EE070E080E005
:101E000090E00E949C0090935A06809359060E948D
:101E100003018091630681112EC081E080936306E7
:101E20008091640690916506A0916606B091670660
:101E30000197A105B105F9F4809168068823D9F0CE
:101E400065E070E080E090E00E94300190936A06C7
:101E50008093690640E050E0BA010E940E0165E0FF
:101E600070E080E090E00E94300190936A068093D9
:101E700069060E94BF0180915B0681112EC081E03E
:101E800080935B0680915C0690915D06A0915E0652
:101E9000B0915F060197A105B105F9F48091600644
:101EA0008823D9F066E070E080E090E00E94300185
:101EB000909362068093610640E050E0BA010E9470
:101EC0000E0166E070E080E090E00E9430019093A7
:101ED0006206809361060E94BF0180917B0681119A
:101EE00003C081E080937B0680917306811103C05B
:101EF00081E080937306089560E070E080E89FE7DA
:101F0000089560E070E080E89FE7089560E070E089
:101F100080E89FEF089560E070E080E89FEF08950B
:101F200060E070E080EC9FEF089560E070E080EC8E
:101F30009FEF0895F5DF6093E1067093E2068093CA
:101F4000E3069093E406F1DF6093D5067093D6061E
:101F50008093D7069093D806CFDF6093DD06709309
:101F6000DE068093DF069093E006CBDF6093D90610
:101F70007093DA068093DB069093DC06C7DF6093EC
:101F8000E5067093E6068093E7069093E806C3DFC4
:101F90006093E9067093EA068093EB069093EC0653
:101FA00008954F925F926F927F928F929F92AF921D
:101FB000BF92CF92DF92EF92FF920F931F93F8940C
:101FC0004090C4025090C5026090C6027090C70253
:101FD000C090B802D090B902E090BA02F090BB0273
:101FE000452B09F0A4C09B01AC0124193509460911
:101FF000570929013A010091C0021091C1022091B4
:10200000C2023091C30248015901840C951CA61CE0
:10201000B71C80169106A206B306A0F40091BC027C
:102020001091BD022091BE023091BF020F5F1F4F81
:102030002F4F3F4F0093BC021093BD022093BE026E
:102040003093BF028092C0029092C102A092C2025D
:10205000B092C3020091BC021091BD022091BE0259
:102060003091BF028092C8029092C902A092CA0227
:10207000B092CB020093CC021093CD022093CE02FB
:102080003093CF026093C4027093C5028093C6025E
:102090009093C702A0E1B7E2A30192010E941A3710
:1020A0006C0D7D1D8E1D9F1D6093B8027093B9024B
:1020B0008093BA029093BB0200914A0110914B01A8
:1020C00020914C0130914D010F3F1F4F2F4F3F4F3B
:1020D000F1F000914A0110914B0120914C01309197
:1020E0004D010E3F1F4F2F4F3F4F89F0C0904A01C7
:1020F000D0904B01E0904C01F0904D0121E08C1408
:102100009D04AE04BF0408F420E02093DC02789420
:102110001F910F91FF90EF90DF90CF90BF90AF9005
:102120009F908F907F906F905F904F9008954B019C
:102130005C0184189508A608B708A3019201261B24
:10214000370B480B590B6415750586059705D0F0BC
:1021500082169306A406B50640F420E030E0A901FB
:1021600081149104A104B10491F4A0E1B7E20E94AA
:102170001A37A7019601261B370B480B590BCA01CA
:10218000B901C5CF82169306A406B50670F7A0E183
:10219000B7E2A50194010E941A376C0D7D1D8E1DBA
:1021A0009F1DB5CFFECECF93DF9300D000D0CDB72B
:1021B000DEB71C821B821A8219821092D8021092FA
:1021C000D9021092DA021092DB021092D002109221
:1021D000D1021092D2021092D3021092D402109225
:1021E000D5021092D6021092D702BE016F5F7F4FC8
:1021F000CE0103960E94DC2D69817A818B819C81BE
:102200000E94CC26009761F4BE016F5F7F4FCE0124
:1022100003960E94E82D69817A818B819C8128D563
:102220000F900F900F900F90DF91CF910895FF9234
:102230000F931F93CF93DF93082F60E070E0CB01E3
:102240000E946B33FF24F3940E94B725EC01892B85
:1022500089F010E0CE3F8FEFD80769F0002361F1DD
:1022600060E070E0CB010E946B3381E090E0892B4D
:1022700059F322C011E01FD5EC01892B21F0CE3F8C
:102280008FEFD80759F711111EC011E0229609F4FB
:1022900010E00E946825EC01892B21F0CE3F8FEFE2
:1022A000D807E1F6111111C011E0CE3F8FEFD8072A
:1022B00009F410E001110BC0CE01DF91CF911F9105
:1022C0000F91FF90089511E0E4CF11E0F3CF60E0AB
:1022D00070E0CB010E946B331F25812F90E0C7CFA8
:1022E000CF93DF938091DC02882321F060E070E0DF
:1022F000CB0148D631D6D0E0C0E0892B71F06AE03E
:1023000070E080E090E00E946B3381E090DF24D6A3
:102310002196C03727E1D20781F723D60E942027D4
:102320001092F4021092F3021092ED021092EE025B
:102330001092EF021092F0021092E9021092EA025B
:102340001092EB021092EC021092E5021092E6025B
:102350001092E7021092E8021092E1021092E2025B
:102360001092E3021092E4021092DD021092DE025B
:102370001092DF021092E0024EEF5FEF6FEF7FEFFF
:1023800040934A0150934B0160934C0170934D016F
:102390001092DC02E8ECF2E028E0DF011D922A95C1
:1023A000E9F71092C4021092C5021092C602109270
:1023B000C7021092C0021092C1021092C202109283
:1023C000C3021092BC021092BD021092BE02109283
:1023D000BF021092B8021092B9021092BA02109283
:1023E000BB02DF91CF910895109200031092010378
:1023F00010920203109203031092FF0280910803CF
:10240000909109039093FE028093FD021092FC02CA
:102410001092FB021092F7021092F8021092F90249
:102420001092FA02109205031092040390E080E0EB
:102430000895CF92DF92EF92FF920F931F93CF9365
:102440008C01892B09F055C02091080330910903B4
:102450008091FD029091FE02409108035091090382
:102460005093FE024093FD022817390781F0109225
:10247000FC021092FB021092F7021092F8021092E6
:10248000F9021092FA02109205031092040380914F
:10249000080390910903019761F5809104039091DD
:1024A0000503892B21F480914E01811112C0809186
:1024B0000403909105030197E1F48091F702909154
:1024C000F802A091F902B091FA020197A105B105B5
:1024D00081F41092F7021092F8021092F902109211
:1024E000FA0210924E0182E090E0909305038093EF
:1024F00004038091080390910903019709F01CC11E
:1025000080911E0390911F038017910709F014C159
:1025100080911A0390911B03A0911C03B0911D039D
:10252000009709F409C12091190321110DC04091B0
:102530001A0350911B0360911C0370911D03452BDE
:10254000462B472B09F4F8C0209104033091050372
:102550002230310509F0F0C02091FB022111ECC0BE
:10256000FC01C080D180E280F3808091FF0288234B
:1025700009F4D3C080910B0390910C03892B09F4CB
:10258000FDC020910B0330910C0381E02230310516
:1025900009F080E020910B0330910C03C1E0213061
:1025A000310549F020910B0330910C03C1E022303A
:1025B000310509F0C0E0882309F456C020911503C5
:1025C000309116034091170350911803C701B601CB
:1025D0000E94F03187FD14C020911503309116033D
:1025E000409117035091180360910003709101030B
:1025F00080910203909103030E94B63087FD22C0B0
:102600002091150330911603409117035091180340
:10261000C701B6010E94F031181634F52091150358
:1026200030911603409117035091180360910003F5
:102630007091010380910203909103030E94B630D0
:10264000811112C080910D0390910E03A0910F0390
:10265000B0911003892B8A2B8B2B19F481E0809386
:10266000FC0281E08093FB02CC2309F456C0209148
:102670001503309116034091170350911803C701B9
:10268000B6010E94B63087FF14C020911503309127
:102690001603409117035091180360910003709145
:1026A000010380910203909103030E94F03187FFA0
:1026B00022C02091150330911603409117035091C9
:1026C0001803C701B6010E94B630811126C02091BF
:1026D0001503309116034091170350911803609130
:1026E00000037091010380910203909103030E9403
:1026F000F031181694F480910D0390910E03A0917F
:102700000F03B0911003892B8A2B8B2B19F481E0D6
:102710008093FC0281E08093FB0281E09091FB02B8
:10272000911180E08093FF02C0920003D0920103D8
:10273000E0920203F0920303012B09F067C180913C
:10274000040390910503892BD9F410920A03109287
:10275000FB0280914E01882379F082E090E0909313
:1027600005038093040310924E01209108033091D9
:10277000090381E0232BE9F080E01BC081E00ACF50
:1027800010924E0180910A03882349F01092FC02B6
:10279000109205031092040310920A03EDCF80916A
:1027A000080390910903892BE1F08091FB021092BC
:1027B000FB0220910403309105032230310509F416
:1027C0005EC088F42115310509F448C02130310577
:1027D00009F4F3C01092FC021092FB0210920A035B
:1027E00038C081E0E6CF2330310509F4B1C0243090
:1027F000310581F74091F7025091F8026091F9029A
:102800007091FA02411551056105710561F0415061
:102810005109610971094093F7025093F8026093DE
:10282000F9027093FA024091F7025091F802609118
:10283000F9027091FA02452B462B472BD9F42091CF
:102840000603309107032130310509F046C010928C
:10285000FC0210920503109204030CC080914E01FB
:10286000882341F082E090E0909305038093040375
:1028700010924E011092F5028091FC02CEC0882386
:10288000C9F380910D0390910E03A0910F03B091B5
:102890001003181619061A061B060CF07DC080914D
:1028A000080390910903019709F076C080910D0308
:1028B00090910E03A0910F03B09110038093F70243
:1028C0009093F802A093F902B093FA0283E090E0AB
:1028D0009093050380930403CDCF40911103509151
:1028E00012036091130370911403452B462B472B61
:1028F000A9F01092FC028091110390911203A09113
:102900001303B09114038093F7029093F802A093FD
:10291000F902B093FA0281E090E0DACF882399F0CF
:1029200080914F0190915001A0915101B0915201BD
:102930008093F7029093F802A093F902B093FA0201
:1029400084E090E0C5CF1092FC0282E090E0C0CF1E
:102950008091F7029091F802A091F902B091FA02E9
:102960000097A105B10559F00197A109B10980931C
:10297000F7029093F802A093F902B093FA028091C3
:10298000F7029091F802A091F902B091FA02892B16
:102990008A2B8B2B09F06ECF80914F0190915001C3
:1029A000A0915101B0915201892B8A2B8B2B09F4F4
:1029B0004ECF81E08093FC02B3CF4091F70250915B
:1029C000F8026091F9027091FA0241155105610512
:1029D000710561F041505109610971094093F70295
:1029E0005093F8026093F9027093FA024091F70253
:1029F0005091F8026091F9027091FA02452B462B32
:102A0000472B09F037CF8111C7CF9FCF8091F502B7
:102A1000882309F431CF8091F602CF911F910F9155
:102A2000FF90EF90DF90CF900895109200031092E6
:102A3000010310920203109203031092FF021092FE
:102A40000503109204031092FE021092FD021092F0
:102A50001F0310921E031092FC021092FB021092B0
:102A6000F7021092F8021092F9021092FA021092F4
:102A7000F6021092F50210921A0310921B031092A4
:102A80001C0310921D03109219031092150310924B
:102A90001603109217031092180388EE93E0A0E03B
:102AA000B0E080934F0190935001A0935101B093F7
:102AB00052011092110310921203109213031092FC
:102AC000140310920D0310920E0310920F03109234
:102AD000100310920C0310920B0381E080934E01BF
:102AE00010920A0310920903109208031092070330
:102AF0001092060390E080E0089580910803909181
:102B00000903892BE1F480914E01882351F08091D3
:102B10000A03811106C081E08093F6028093F502DA
:102B2000089580910A03882341F080914E0181111C
:102B300004C01092F60281E0F1CF1092F5020895E0
:102B400082E090E0FA01918380838FEF9FEF0895F8
:102B5000CF93DF93EA01009711F00E944028198279
:102B6000188290E080E0DF91CF910895DB0100971B
:102B700019F48FEF8C9308952EEF2C9340968031AB
:102B8000910508F036C0FC01E853FA4E0C94053765
:102B9000F715F515F315F115EF15ED15E915EB150D
:102BA000E715E515E315E015DC15D815DE15F91563
:102BB00080E311968C93089589E2FBCF82E2F9CFEE
:102BC00011961C92089583E2F4CF81E2F2CF81E165
:102BD000F0CF87E2EECF8AE2ECCF80E1EACF84E269
:102BE000E8CF88E2E6CF86E2E4CF81E3E2CF83E379
:102BF000E0CF80E2DECF80912C0390912D030895E9
:102C000090932D0380932C03089580912B030895B6
:102C100090912B03892B80932B030895982F9095E7
:102C200080912B03892380932B03089580912A039D
:102C300008958091280390912903089561157105E5
:102C400059F0FB0130E020E070E060E02417350728
:102C500019F06115710511F0CB010895A081B181C2
:102C6000A817B90709F4BF012F5F3F4F3696EECF83
:102C700080912E0381111CC062D268D290932103EF
:102C8000809320030E9442200E94542090932503A9
:102C9000809324030E94D2240E94D924909323037A
:102CA0008093220381E080932E0390E080E00895DA
:102CB00084EF9FEF08958F929F92AF92BF92CF9231
:102CC000DF92EF92FF920F931F93CF93DF93CDB7D5
:102CD000DEB72A970FB6F894DEBF0FBECDBF1A86B7
:102CE000198618861F821E821D821C821B821A82F0
:102CF000198280912E0307EF1FEF882309F49CC0EF
:102D00008E010D5F1F4F9E012B5F3F4FAE01495F4C
:102D10005F4FBE01675F7F4F90E080E00E945226C8
:102D20008C01009721F00596029708F0DBC02985F9
:102D30003A852115310509F402C1ED80FE804B81F1
:102D40005C81B701640F751F8F819885861797077F
:102D500008F4F5C0E20EF31ED7019C91903C09F0F7
:102D60007FC04230510508F47BC011968C91409190
:102D70002C0350912D03452B09F49CC0913F08F082
:102D800071C02CE1290F2D3008F48BC02DE2290FE2
:102D9000203108F489C0903C21F48150823008F43D
:102DA00083C088E3890F8B3008F481C096EBC92E6D
:102DB00095E1D92EE0EAF5E16D817E81AE014F5FAC
:102DC0005F4F89859A8509955C01C114D104A1F1F1
:102DD00089809A808114910479F18B819C81881576
:102DE000990508F487C010E000E04B815C8170E039
:102DF00060E0C7010E942D3701151105E9F44981F2
:102E00005A8169857A858D819E81680F791FC501F8
:102E1000F6010995E980FA800D811E812F813885A0
:102E200049855A856FEF7FEF81E090E00E94EE25A3
:102E30008C01892B09F056C0C8012A960FB6F89468
:102E4000DEBF0FBECDBFDF91CF911F910F91FF90DD
:102E5000EF90DF90CF90BF90AF909F908F900895AC
:102E600080E085CF30E020E0220F331FF901E05EE3
:102E7000FC4F0190F081E02D309709F497CF892F16
:102E800090E00995009709F491CFDC011296ED913D
:102E9000FC9113971496CD90DC90309709F08CCF6D
:102EA0001FC021E030E0E0CF22E030E0DDCF23E0C2
:102EB00030E0DACFD12CC12CE8EAF5E19F3F09F0F0
:102EC0007BCFE0912003F0912103309721F4C901D9
:102ED00004EF1FEF0CC08FEF90E009950097A9F663
:102EE00004EF1FEF89859A85009709F4A5CF0E940A
:102EF0004028A2CF0E941B278C0189859A850E94B9
:102F0000402870E060E0C4010E94B42698878F8357
:102F10000E94EB259E838D836F81788561157105F5
:102F200059F0C8010E94CC299A87898706EF1FEFC4
:102F3000892B09F058CF59CF08EF1FEF56CF08EF74
:102F40001FEFD0CF20912E03222319F020E00C9404
:102F5000592087EF9FEF089580912C0390912D03C6
:102F600008950E94DE240E943824F5D0E0E2F3E0C8
:102F700088E0DF011D928A95E9F710922E0390E018
:102F800080E008950C94952221E040E050E0BA01E1
:102F90000C94592086E090E0FA019183808390E0C0
:102FA00080E0089547E050E06BE771E047CEDF92A4
:102FB000EF92FF920F931F93CF93DF938A01EC015F
:102FC000C60FD71FE0903203F0903303D9800E94E0
:102FD0000327D816190678F082E090E0F801918373
:102FE00080838EEF9FEFDF91CF911F910F91FF9024
:102FF000EF90DF900895EF2841F482E090E0F8012F
:103000009183808384EF9FEFEECF8981809331039A
:1030100090E00196F8019183808390E080E0E3CF17
:10302000CF93DF93EA010E944623882321F00E9478
:1030300010270E94472382E090E0998388838BEFDA
:103040009FEFDF91CF910895CF93DF93EB0186E05F
:10305000FB0111928A95E9F78FEF8883D6DD89838A
:10306000E5DD8A83E6DD9D838C83DF91CF91089532
:10307000CF93DF93EA010E944923811109C082E0C6
:1030800090E09983888385EF9FEFDF91CF9108953A
:1030900090E080E0B5DD81E090E09983888390E066
:1030A00080E0F3CF0F931F93CF93DF93EA018C015E
:1030B000060F171F0E94492381110BC082E090E088
:1030C0009983888385EF9FEFDF91CF911F910F91B7
:1030D0000895F8018181823038F082E090E0998390
:1030E00088838EEF9FEFF0CF81E090E089DD88E06C
:1030F00090E09983888390E080E0E6CFCF93DF93E0
:103100000097D1F4EB01FB01329686E0DF011D92BE
:103110008A95E9F78FEF888385E089831A820E9478
:1031200003278B830E9402279D838C8381E08E83FB
:103130008F83DF91CF910895DF91CF9117CD82EDED
:1031400097E19093300380932F03089580912F038C
:103150009091300308951092300310922F03089538
:1031600080913203909133030895411105C0611598
:1031700071058105910561F060933203709333030B
:1031800080933403909335034093360381E0089590
:1031900080E00895FF920F931F93CF93DF938A01EE
:1031A000EC01C60FD71FF9800E940327F8161906F5
:1031B00068F082E090E0F801918380838EEF9FEFCA
:1031C000DF91CF911F910F91FF9008956C817D81C8
:1031D0008E819F814B81C9DF811108C082E090E020
:1031E000F8019183808384EF9FEFEACF89818093F8
:1031F000310390E00196F8019183808390E080E0B4
:10320000DFCFCF93DF93EA01FC01E60FF71F648164
:103210007581868197814381A8DF811109C082E091
:1032200090E09983888384EF9FEFDF91CF91089599
:1032300081E090E09983888390E080E0F6CFE2E33C
:10324000F3E04081518162817381480F511D611DFE
:10325000711D40835183628373830895CF93C0911E
:1032600031034C2F50E0609132037091330301968B
:103270000E9424378C2FE3DF10923103CF91089501
:10328000009799F480913203909133032FEFFB0163
:103290002083892B59F02091310330E02F5F3F4F7D
:1032A0002417350719F4CB01D9CF60CC08950097C6
:1032B00099F480913203909133032FEFFB01208327
:1032C000892B59F02091310330E02F5F3F4F2417B5
:1032D000350719F4CB01C2CF49CC089523E1AC01E5
:1032E000249FC001259F900D1124E0913B03F09194
:1032F0003C03E80FF91F238134812250310981E01A
:103300002230310508F080E008950F931F93CF938A
:10331000DF9300913D0310913E03D0E0C0E080E0D8
:103320000C171D0749F491E0811190E0892FDF917E
:10333000CF911F910F9108958111F5CFCE01CEDF6E
:103340002196EECFA0913B03B0913C03109729F159
:1033500020913D0330913E0382179307F0F453E12F
:10336000589F9001599F300D1124A20FB31FED916A
:10337000FC911197309789F012968C91681768F438
:103380008DE0689FE00DF11D112480819181892BD2
:1033900021F081E09281491708F080E008959C01B6
:1033A00043E1429FC001439F900D1124E0913B03F4
:1033B000F0913C03E80FF91F8385823091F481E09E
:1033C00090E06581768140915301509154016417DA
:1033D000750711F490E080E0892B19F081E0232B30
:1033E00009F080E00895FC01A081B1818DE0689F23
:1033F000A00DB11D112413964D915C918585968584
:10340000489F9001499F300D589F300D1124C901EC
:103410000196611103C0478144FD04960895EF921F
:10342000FF920F931F93CF93DF93EA01FC01E60F06
:10343000F71F02811381E480F5804F2D6E2DC801A6
:1034400081DF81110DC082E090E0998388838EEF47
:103450009FEFDF91CF911F910F91FF90EF90089513
:10346000C8013CDF882339F082E090E099838883AB
:1034700088EF9FEFEECF10935A0100935901E0922D
:103480005B01F0925C0181E090E09983888390E099
:1034900080E0DFCFCF92DF92EF92FF920F931F93E6
:1034A000CF93DF937A01EC01C60FD71FC09059016B
:1034B000D0905A0100915B0110915C01412F602F67
:1034C000C60140DF811110C082E090E0F7019183D6
:1034D00080838AEF9FEFDF91CF911F910F91FF9033
:1034E000EF90DF90CF900895C601F8DE882341F079
:1034F00082E090E0F7019183808388EF9FEFEBCF2C
:103500004C815D816E817F819A8189818F3F41F0FD
:1035100082E090E0F701918380838EEF9FEFDBCF15
:10352000E3E1EC9D9001ED9D300D1124E0913B0312
:10353000F0913C03E20FF31F0190F081E02D2DE0AC
:10354000029FE00DF11D11240190F081E02D27E094
:10355000129FE00DF11D1124808391838B81828362
:1035600043835483658376831F5F10935C0181E0FE
:1035700090E0F7019183808390E080E0ACCFEF9200
:10358000FF920F931F93CF93DF937A018C01060F65
:10359000171FC0913B03D0913C03209781F021E09D
:1035A00030E0F8018281938140913D0350913E03C8
:1035B0008417950710F030E020E0232B71F482E0AF
:1035C00090E0F701918380838EEF9FEFDF91CF91A1
:1035D0001F910F91FF90EF90089543E1489F900154
:1035E000499F300D1124C20FD31F78DE882341F08C
:1035F00082E090E0F7019183808388EF9FEFE6CF30
:10360000F8012481358120383105C8F68781811180
:10361000D6CF4181842F90E08F7E009741F082E0E9
:1036200090E0F7019183808386EF9FEFCFCF4F83A8
:103630003E832D83268128871986223010F421E0CD
:10364000288721E030E0F70131832083BFCF88E075
:1036500090E0FA019183808390E080E00895FB017F
:103660008FEF808381E181838FEF9FEF938382834C
:1036700080E890E095838483168217820895FB0189
:103680008FEF808391E0918382839383848384E3AB
:10369000858381E090E097838683089582E090E0BF
:1036A000FA019183808380EF9FEF0895DF92EF927C
:1036B000FF920F931F93CF93DF93EA01FC01E60F74
:1036C000F71F8181813071F082E090E099838883D7
:1036D0008FEF9FEFDF91CF911F910F91FF90EF90B0
:1036E000DF90089582819381D4802581E680F780E0
:1036F00000913B0310913C030115110539F482E060
:1037000090E0998388838CEF9FEFE4CF40913D0355
:1037100050913E038417950738F082E090E099833A
:1037200088838EEF9FEFD6CF892B39F082E090E02F
:103730009983888386EF9FEFCDCF8D2D8D7FB1F755
:103740002130A1F781E0D11006C091E0E916F10423
:1037500031F080E004C0E2E0EE16F104D0F38823FB
:1037600029F390E080E0BADD882339F082E090E030
:103770009983888388EF9FEFADCFF801D38681E0EE
:103780008487F686E586108A178681E090E0998323
:10379000888390E080E09ECF4DE050E065EA71E0E4
:1037A0004DCA8F929F92BF92CF92DF92EF92FF927B
:1037B0000F931F93CF93DF93EA01FC01E60FF71FEE
:1037C000828193810481B580E0913B03F0913C03B9
:1037D000309791F482E090E0998388838CEF9FEF9B
:1037E000DF91CF911F910F91FF90EF90DF90CF90DD
:1037F000BF909F908F90089520913D0330913E039C
:103800008217930738F082E090E0998388838EEFE7
:103810009FEFE6CF23E1289F6001299FD00C112460
:10382000EC0DFD1DE080F180E114F10499F282813C
:10383000081748F78DE0089F80011124E00EF11E63
:10384000F70180819181892B29F6BB20E1F2F7E015
:10385000BF9E40011124C4010E940728F7019183F3
:103860008083E0913B03F0913C03EC0DFD1D019042
:10387000F081E02DE00FF11F80819181009739F4F4
:1038800082E090E0998388838DEF9FEFA9CFA40118
:1038900070E060E00E942D3780913B0390913C03E3
:1038A000C80ED91EF60180819181080F191FF801F9
:1038B000B28281E090E09983888390E080E090CFAD
:1038C000AF92BF92CF92DF92FF920F931F93CF934D
:1038D000DF93EA01FC01E60FF71F82819381F480F8
:1038E00000913B0310913C030115110581F482E026
:1038F00090E0998388838CEF9FEFDF91CF911F91A8
:103900000F91FF90DF90CF90BF90AF9008952091DE
:103910003D0330913E038217930738F082E090E038
:10392000998388838EEF9FEFE8CF2FEF2F0D2C3FE9
:10393000A8F723E1289F6001299FD00C11240C0DCA
:103940001D1DF80180819181892B89F6FDE0FF9E84
:1039500050011124C5010E940728F801918380833A
:10396000E0913B03F0913C03EC0DFD1D80819181C2
:10397000009739F482E090E0998388838DEF9FEF80
:10398000BCCFA50170E060E00E942D37E0913B03C1
:10399000F0913C03EC0DFD1DF28281E090E09983F3
:1039A000888390E080E0A9CFCF92DF92EF92FF92E0
:1039B0000F931F93CF93DF93860F971FFC01028114
:1039C000138180913B0390913C03892B81F082E02D
:1039D00090E0FA01918380838CEF9FEFDF91CF918C
:1039E0001F910F91FF90EF90DF90CF900895C80145
:1039F000B0E0A0E00197A109B1098F3F9F4FA10559
:103A0000B10540F082E090E0FA01918380838EEF6F
:103A10009FEFE4CF7A0183E1809F6001819FD00C0A
:103A20001124C6010E940728EC01009741F482E0AE
:103A300090E0F701918380838DEF9FEFCFCFA601B8
:103A400070E060E00E942D37D0933C03C0933B03AD
:103A500010933E0300933D0390E080E02FEF3FEF93
:103A600041E061E070E08017910741F481E090E06F
:103A7000F7019183808390E080E0B0CF3A8B298B6F
:103A80001B864C877E876D87188A1F8601966396F2
:103A9000EACFEF92FF921F93CF93DF93EC0110E0F8
:103AA000F12CE12C6A811617A8F070E0660F771FE1
:103AB000AE014F5E5F4FC7010E946C28009721F056
:103AC0002FEF3FEF3A8B298BDF91CF911F91FF9022
:103AD000EF900895612FCE0186DC61E070E00E94D6
:103AE000B426E816F90608F47C011F5FDBCFF894D2
:103AF0002091390330913A0381E02115310509F015
:103B000080E0232B09F0789408952F923F924F92F2
:103B10005F926F927F928F929F92AF92BF92CF925D
:103B2000DF92EF92FF920F931F93CF93DF933C01AD
:103B3000660E771EF301828193814C01B12CA12C7A
:103B4000C0913B03D0913C03209769F021E030E025
:103B500060913D0370913E038617970710F030E0A7
:103B600020E0232BD1F482E090E0FA01918380835E
:103B70008EEF9FEFDF91CF911F910F91FF90EF900C
:103B8000DF90CF90BF90AF909F908F907F906F907D
:103B90005F904F903F902F90089580925D0190929A
:103BA0005E01A0925F01B092600163E1689F9001A5
:103BB000699F300D1124C20FD31FF301818183301F
:103BC00040F082E090E0FA019183808386EF9FEFDE
:103BD000D1CF2A012B813C81232BF1F4288139811B
:103BE0009F8191FF2EC0232B09F46FC020914003C9
:103BF0009A81422F490F5527551FBA0141E050E0E5
:103C00006138710514F050E040E0452B09F45DC0C7
:103C10002A87920F909340038150823008F481C02C
:103C200066DF882309F4D8C0F3018181813009F46B
:103C30008DC008F47BC0823009F4C6C090E080E0FB
:103C4000ADC0232B09F441C020913F039A81E22F9C
:103C5000E90FFF27FF1F41E050E0ED3FF10514F0B1
:103C600050E040E0452B89F12A87920F90933F0363
:103C7000D3CFA081B181A20FB31F11966C91060F13
:103C8000111D0196295F3F4F8417950794F38D8589
:103C90009E85089F1001099F300C189F300C11243D
:103CA000C114D104D1F48F8184FF17C00E94022770
:103CB000F5E02F0E311C21E08215930508F420E079
:103CC000A701435F5F4F21110EC082E090E0F20137
:103CD0009183808387EF9FEF4DCF0E9402272FEFC4
:103CE000221A320AE8CF88819981E80EF91EF7017D
:103CF00014830383FFEFCF1ADF0A7A018A818C15C0
:103D00001D0409F00CF48CCFE881F981EE0DFF1D44
:103D1000428150E030E020E010E000E090E080E000
:103D2000B3CFF12CE12CD12CC12CE8CF81E090E075
:103D30009C838B83EADA882309F480CF81E090E0CA
:103D40000E94001680E40E940E1678CF89899A8915
:103D5000019661F083E090E09C838B8382E090E0A9
:103D60000E94001680E40E94081668CF8D819E8113
:103D7000209153013091540182179307D1F460913F
:103D8000570170915801AE014F5E5F4F8091550110
:103D9000909156010E948B290097E1F2789422E0DD
:103DA00030E0F20131832083892B99F08DEF9FEF72
:103DB000E1CE89288A288B2869F6029758F6CE0129
:103DC00068DE188A1F86E8CF82E090E09C838B83B0
:103DD00035CF90E080E0CECE82E090E0F20191839A
:103DE000808385EF9FEFC6CE8F929F92AF92BF9256
:103DF000CF92DF92EF92FF920F931F93CF93DF93B7
:103E0000EA018C01060F171FF8018181833098F0B9
:103E100082E090E09983888386EF9FEFDF91CF91D6
:103E20001F910F91FF90EF90DF90CF90BF90AF90D8
:103E30009F908F90089580913B0390913C03892B34
:103E400061F081E090E020913D0330913E03232B0F
:103E500011F490E080E0892B39F482E090E09983BE
:103E600088838EEF9FEFDACF42DE882309F4E0C02B
:103E7000F8018181813009F496C0E8F0823099F42C
:103E800020913D0330913E03E0913B03F0913C03D0
:103E900090E080E041E050E02817390709F0BEC00B
:103EA00034DA811117C0789481E090E09983888397
:103EB00090E080E0B3CF20913D0330913E03E0914C
:103EC0003B03F0913C0390E080E041E050E0281794
:103ED000390741F481E090E00E94001680E40E94DE
:103EE0000E16E1CF63817481672B11F054834383F5
:103EF00001967396ECCFE0913B03F0913C03E00F09
:103F0000F11F2381348122303105D9F4218932898E
:103F10002F3F3F4FB1F4258136814091530150919D
:103F200054012417350761F5AF014F5E5F4F609173
:103F300057017091580180915501909156010E944E
:103F40008B29EFEFCE1ADE0AEE0AFE0A0D5E1F4F36
:103F500040913D0350913E0370E060E0C416D506E9
:103F6000E606F70644F5009731F27894892B09F4B8
:103F70009BCF82E090E0998388838DEF9FEF4ECFB7
:103F8000C114D104E104F104E1F622303105C8F690
:103F9000CF017FDDE0913B03F0913C03E00FF11F87
:103FA000108A1786CECF10E000E090E080E0C12CB0
:103FB000D12C7601CDCF0097C1F610E000E0812C26
:103FC000912C540183E0E82EF12C1AC0E0913B03C0
:103FD000F0913C03E00FF11F83819481029749F433
:103FE000F482E38282E090E00E94001680E40E9466
:103FF0000816FFEF8F1A9F0AAF0ABF0A0D5E1F4F08
:1040000080913D0390913E03B0E0A0E088169906B0
:10401000AA06BB06DCF290E080E0A7CF6381748142
:104020006230710511F4548343830196739634CF43
:1040300082E090E09983888385EF9FEFEFCE009731
:10404000B9F48FEFFB01808320915D0130915E0117
:1040500043E1429FC001439F900D1124E0913B0337
:10406000F0913C03E80FF91F8285FB0181830895DD
:104070000C94B61588E090E0FA019183808390E07B
:1040800080E0089510923A0310923903EBE3F3E0D5
:1040900086E0DF011D928A95E9F78CEC9BE1909315
:1040A0003803809337030895809137039091380344
:1040B00008952F923F924F925F926F927F928F92CC
:1040C0009F92AF92BF92CF92DF92EF92FF920F93A7
:1040D0001F93CF93DF93CDB7DEB72F970FB6F8942A
:1040E000DEBF0FBECDBFF894E0913903F0913A03E3
:1040F0003196F0933A03E0933903789440903B0370
:1041000050903C034114510409F40CC2E0913D036A
:10411000F0913E03EF2B09F405C22D8749875A879A
:104120006B877C8798878F831201B12CA12C10E0BC
:1041300000E080913D0390913E03A816B90618F463
:104140000115110529F1F8948091390390913A03F2
:10415000019790933A03809339037894C8012F967E
:104160000FB6F894DEBF0FBECDBFDF91CF911F9188
:104170000F91FF90EF90DF90CF90BF90AF909F9006
:104180008F907F906F905F904F903F902F90089509
:104190007101E418F508D10117968C91179781FDEC
:1041A00054C013968D919C911497039709F04DC0BC
:1041B00015968D919C91EF81F8858E179F0709F0D8
:1041C00044C0B50190E080E07ED48A8320913B0317
:1041D00030913C033D832C833D85332309F44CC04F
:1041E0004C815D81452B09F49AC180913D039091EA
:1041F0003E03A816B90608F092C1C501D0D888239D
:10420000E9F06C817D816E0D7F1D7D836C83DB0108
:104210001F968D919C91892B89F0D12CC12CF12C6A
:10422000E12CAC81BD8112968C9112978E151F04E2
:1042300009F094F450961C921E921F972A81222313
:1042400021F0B50190E080E040D43FEFA31AB30A1B
:1042500043E1240E311C6DCFAC81BD81ED91FC9109
:10426000EC0DFD1D858196810BD7BFEFEB1AFB0A84
:10427000EDE0CE0ED11CD5CFEC81FD81309709F455
:104280004EC180913D0390913E03A816B90608F0F7
:1042900046C1EE0DFF1DFF87EE87C50180D88B83D9
:1042A000882339F1AE85BF851F968D919C915097DB
:1042B000019621E01D964D915C918417950709F0B8
:1042C00020E02E831982712C10E000E0AE85BF85BE
:1042D00012968C91781608F45DC0EE85FF8587856F
:1042E00090890196658576850E94CF36908B878769
:1042F000A5CFB1E0BE83E6CF992493946BC087D657
:10430000F6019683858382C0D601ED90FC90B7E0DC
:104310006B9EE00CF11C1124F70163817481808194
:104320008F3F61F121E030E002C0220F331F8A95F8
:10433000E2F7C901092E000CAA0BBB0BFB0140815F
:1043400051816281738184239523A623B72321E0C1
:10435000892B8A2B8B2B09F420E0D4012C93D701D5
:1043600011968C91F60123853485820F932F911D30
:10437000880E991E1486138663949BC0418150E079
:10438000C4010E942437EBCF998206EF1FEFC5C00E
:104390001982C3C0F981F111A0CFEDE07E9E7001BA
:1043A0001124AE85BF85CD90DC90CE0CDF1C13D4DC
:1043B0009D838C83BB81BB2309F49ECF81E0EE8576
:1043C000FF8527853089232B09F080E0982E8823EC
:1043D00009F458C0672D8E859F8505D8D60118969B
:1043E0009C938E93179761E070E0BED4EE85FF85B5
:1043F000218932892F3F320709F481CFBC01C901DD
:10440000CBD7D60116969C938E931597D601159609
:104410008D919C911697009709F4B6CFEC81FD81A0
:104420008E0F9F1F1A969C938E931997AE85BF850A
:10443000ED91FC911197EE0EFF1EF701218532855B
:10444000148613861A968C91870DD9018D9371105D
:1044500016C0EE85FF85878184FF11C049855A8586
:104460006B857C85F9014183528363837483F701F3
:10447000838594850496A80FB91F14861386F701C7
:10448000B287A187D60115968D919C911697892B9D
:1044900009F443C0EE85FF85258136818091530163
:1044A000909154012817390779F019968D909C90B6
:1044B000612CD60112968C911297681608F424CFBD
:1044C0001A969C928E921997BE81BB2309F460CFF5
:1044D00061E070E0F6018781908546D4D601179699
:1044E000ED90FC90189715964D915C91E1E0F0E00D
:1044F000BA81BB2311F0F0E0E0E00C811D819C014A
:10450000B501882799278E1B9F0B68D38C01892BB7
:1045100021F0F60185819681B3D57394D7CE0FEF44
:104520001FEF8CCE10E000E00ECE2F923F924F9204
:104530005F926F927F928F929F92AF92BF92CF9233
:10454000DF92EF92FF920F931F93CF93DF938091AF
:104550003B0390913C0310E000E0892BA9F0C7DAFF
:104560000AEF1FEF882381F020903D0330903E0337
:10457000C0913B03D0913C03D12CC12C10E000E052
:104580002C143D04A9F47894C801DF91CF911F91B8
:104590000F91FF90EF90DF90CF90BF90AF909F90E2
:1045A0008F907F906F905F904F903F902F900895E5
:1045B000C6010E94CF19882309F18B819C81039742
:1045C000E9F48F859889892BC9F0B60190E080E0E5
:1045D0007AD221E030E0882311F030E020E044245A
:1045E0005524421A530AB12CA12C912C812C8A817A
:1045F0008815190409F038F4188A1F864FEFC41A79
:10460000D40A6396BDCFE881F981EA0DFB1D85814F
:104610009681892BA1F161E070E087819085A4D318
:104620003C01D9D28C01E881F981EA0DFB1D81851D
:10463000928525813681200F311FAC01421B530B1F
:104640009A0147815085421B530B70E060E00E9445
:104650002D37E881F981EA0DFB1DE780F084458163
:1046600056819301B601C201B9D28C01892B39F070
:10467000E881F981EA0DFB1D8581968101D55FEF07
:10468000851A950A8DE0A80EB11CB1CF30CA789476
:1046900008952F923F924F925F926F927F929F92D6
:1046A000AF92BF92CF92DF92EF92FF920F931F9340
:1046B000CF93DF9300D000D000D0CDB7DEB700910C
:1046C0003B0310913C03992493940115110509F4BF
:1046D0003EC0A0903D03B0903E0309DA982E882397
:1046E000B1F110923C0310923B0310923E031092E2
:1046F0003D0310923F03109240038FEF9FEFDC01C8
:1047000080935D0190935E01A0935F01B09360017F
:1047100078947AD31E830D83C12CD12C7601C501E8
:10472000B0E0A0E089839A83AB83BC8322242A94DF
:10473000322C89819A81AB81BC81C816D906EA06E0
:10474000FB06F4F0C8019CD480E40E940E16892D6B
:1047500026960FB6F894DEBF0FBECDBFDF91CF9186
:104760001F910F91FF90EF90DF90CF90BF90AF908F
:104770009F907F906F905F904F903F902F90089503
:10478000AD81BE8115968D919C9116972091530114
:104790003091540182179307D1F451968D919C91D9
:1047A000E9D5ED81FE8180819181B12CA12C412C34
:1047B000512C3201892B89F5BFEFCB1ADB0AEB0AAA
:1047C000FB0AED81FE817396FE83ED83B2CFC114A7
:1047D000D104E104F10429F7029718F7ED81FE8175
:1047E000818992898F3F980709F024D5AD81BE81D8
:1047F00052963C922E925197D4CF8A0D9B1DDC018C
:104800008D919C91009709F03BD4BFEF4B1A5B0A46
:104810006B0A7B0AEDE0AE0EB11CAD81BE818D91BD
:104820009C91119712964C9150E070E060E0441614
:104830005506660677060CF323D4BECFCF93DF93DD
:10484000EA0127DF811109C082E090E09983888323
:1048500085EF9FEFDF91CF91089581E090E00E9476
:10486000001681E090E09983888390E080E0F2CFA9
:1048700010DF1092380310923703089542E050E0A1
:1048800063EF71E00C941E16FF920F931F93CF936A
:10489000DF938A01EC01C60FD71FF980B4D20897C5
:1048A000F816190671F068F082E090E0F801918343
:1048B00080838EEF9FEFDF91CF911F910F91FF903B
:1048C00008956C817D818E819F814B810E94B518F6
:1048D000811108C082E090E0F8019183808384EF29
:1048E0009FEFE9CFF9800E94B0184F2D50E0BE0134
:1048F000685F7F4F0E94243789810E941F1981E0E1
:1049000090E0F8019183808390E080E0D4CFDF9243
:10491000EF92FF920F931F93CF93DF938A01EC01E5
:10492000C60FD71F0E94B0187C01D9806CD2DD2041
:1049300059F0029721E030E0D816190619F010F06E
:1049400030E020E0232B79F482E090E0F8019183BD
:1049500080838EEF9FEFDF91CF911F910F91FF909A
:10496000EF90DF900895EF2841F482E090E0F801A5
:104970009183808384EF9FEFEECFF9800E94B0187F
:104980004F2D50E0BE016E5F7F4F0E94243789811A
:104990000E941F1981E090E0F8019183808390E0EC
:1049A00080E0D9CF8EE394E2909342038093410359
:1049B0000895809141039091420308950895FC0168
:1049C00011821082938382830895DB011D921C92D1
:1049D000DC011296ED91FC9113977183608313961D
:1049E0007C936E9312970895FC0180819181DB0185
:1049F0008D939C93A081B181109741F08D919C91F2
:104A000091838083892B11F4F383E2830895FC0161
:104A100080819181DB018D939C93892B11F47383A9
:104A20006283718360830895FC01118210829383F5
:104A300082830895CF93DF9300D0CDB7DEB71A827B
:104A40001982F894BE016F5F7F4F88E493E0CCDF5A
:104A500089819A81009709F013D389819A81892BE2
:104A600089F7BE016F5F7F4F8CE493E0BDDF8981E2
:104A70009A81009709F004D389819A81892B89F75B
:104A800078940F900F90DF91CF910895CF93DF939B
:104A900000D0CDB7DEB71A821982F894BE016F5FDD
:104AA0007F4F84E493E0A0DF89819A81009709F029
:104AB000E7D289819A81892B89F778940F900F909A
:104AC000DF91CF91089581E0089590E080E008950E
:104AD000EF92FF920F931F93CF93DF9300D0CDB748
:104AE000DEB71A8219828091430307EF1FEF8823F4
:104AF000A1F1F894BE016F5F7F4F8CE493E074DF07
:104B0000789489819A81EE24E394F12C892B51F4D5
:104B1000F894BE016F5F7F4F88E493E065DF78947F
:104B2000F12CE12C89819A810EEF1FEF0097A9F0FB
:104B3000FC014281538164E070E072D68C01892BC4
:104B400061F0F89469817A81C701880F991F880FF5
:104B5000991F885B9C4F5BDF7894C8010F900F9082
:104B6000DF91CF911F910F91FF90EF9008950F93D8
:104B70001F93CF93DF9300D000D0CDB7DEB71C8258
:104B80001B821A8219828091430307EF1FEF88234B
:104B9000C1F0AE014D5F5F4F64E070E0CE01019661
:104BA000B2D68C01892B69F4E981FA818B819C81D1
:104BB00093838283F89469817A8184E493E005DFAA
:104BC0007894C8010F900F900F900F90DF91CF91C4
:104BD0001F910F910895B7D7049608958F929F92D1
:104BE000AF92BF92CF92DF92EF92FF920F931F93FB
:104BF000CF93DF9300D0CDB7DEB71A821982BC0104
:104C00006F5F7F4F6330710598F0AA24AA94BA2C85
:104C1000C5010F900F90DF91CF911F910F91FF90E1
:104C2000EF90DF90CF90BF90AF909F908F900895BE
:104C30004115510551F3480159018A016C01CBDF3F
:104C40008815990511F7E114F104F9F28E0D9F1DF5
:104C5000A816B906D0F2809143038823F1F0F894A6
:104C6000B501645071099701AE014F5F5F4FC801F4
:104C70000496DED65C01892B71F489819A81F80152
:104C800093838283C601880F991F880F991FB801EB
:104C9000885B9C4F9ADE7894BBCF87EFA82EBB240D
:104CA000BA94B6CFAF92BF92CF92DF92EF92FF92BB
:104CB0000F931F93CF93DF9300D0CDB7DEB71A8247
:104CC0001982892B09F047C06115710509F443C0A9
:104CD0004115510509F43FC02115310509F43BC0C8
:104CE00001151105C1F1809143038823B9F17901C0
:104CF0006A015B01F894BE016F5F7F4F84E493E02B
:104D000073DE789489819A81009759F1DC011296BB
:104D10006D917C91A8010496A4D68C01E981FA8159
:104D2000D501ED93FC93828193810496F6019183E2
:104D3000808351DFD7018D939C93C8010F900F9012
:104D4000DF91CF911F910F91FF90EF90DF90CF9067
:104D5000BF90AF9008950FEF1FEFEFCF07EF1FEF5A
:104D6000ECCF0EEF1FEFE9CFCF93DF93EC01672B72
:104D700071F4F2D68C179D0760F0E5D62496C80F23
:104D8000D91FE4D68C0F9D1FDF91CF910895E1D6F6
:104D9000F1CF90E080E0F8CF0F931F93CF93DF9394
:104DA0002091430321112BC08B01EC0188E493E097
:104DB00006DE8CE493E003DE84E493E000DE97D02B
:104DC0000097C1F4C9D670E060E0CEDF41E651E063
:104DD00062E070E081D1009769F480916101909167
:104DE0006201CCD6B801CE0101D5009719F421E0BB
:104DF00020934303DF91CF911F910F91089584EF8A
:104E00009FEFF8CFA6C6A8C6CF93DF93A8D6EC0134
:104E1000892B11F40FDE3ADECE01DF91CF91089598
:104E2000CF93DF939CD6EC01892B09F403DECE01EE
:104E3000DF91CF9108958091610190916201089571
:104E4000CF93DF9380914303D0E0C0E08823D1F07B
:104E50009AD6EC01892BB1F4EDDD18DE8091610169
:104E600090916201E7D1E8D2EC01892B59F488E4F2
:104E700093E0DADD8CE493E0D7DD84E493E0D4DDE5
:104E800010924303CE01DF91CF910895EF92FF92EC
:104E90000F931F93CF93DF93EC017A018B010F5F88
:104EA0001F4F0E9DA0010F9D500D1E9D500D1124F2
:104EB00070E060E00E942D3790E080E0F0E0E0E0FC
:104EC0002FEFE816F90639F4DF91CF911F910F917A
:104ED000FF90EF9008951A8219822883309711F07D
:104EE000D283C1830196FE01C00FD11FEACFCF92BA
:104EF000DF92EF92FF920F931F93CF93DF930CE714
:104F000014E00C7F43E050E063E671E089E691E055
:104F10001AD483E6E82E81E0F82E99E6C92E91E0B6
:104F2000D92EC3E2D5E0D7014D915D917D01F60107
:104F3000619171916F01198308835D834C835B8359
:104F40004A837F836E839B012F5F3F4F249FC00165
:104F5000259F900D349F900D112499878887011506
:104F6000110511F0C80192DF88859985080F191F76
:104F70002A96F9E6EF16F1E0FF06A9F6E2E5F3E07E
:104F800087E291E0DF019C011D9221503040E1F762
:104F90001092510310925003109242051092410555
:104FA0001092460510924505109244051092430553
:104FB000109248051092470510924A051092490533
:104FC00010924C0510924B051092500510924F050F
:104FD00010924E0510924D051092520510925105F7
:104FE00010925405109253051092200510921F053F
:104FF000109222051092210590E080E0DF91CF9180
:105000001F910F91FF90EF90DF90CF900895009740
:10501000F1F0F894A9E6B1E0E3E2F5E030E020E059
:105020004D915D9148175907A8F042815381411570
:10503000510581F08AE0829FF001839FF00D1124D9
:10504000ED5DFA4F80819181009759F4789490E05A
:1050500080E008952F5F3F4F3A962330310501F7E6
:10506000F5CFDC0111966D917C9171836083415085
:10507000510953834283FC012193CF017894089511
:10508000009749F1DC018E91853041F4E0912105D2
:10509000F09122053097F9F0CD0109948530D8F4CC
:1050A000282F30E0F8948FEF8C938AE0829FF001F4
:1050B000839FF00D1124ED5DFA4F8081918112964E
:1050C0009C938E931197B183A083828193810196E3
:1050D0009383828378940895CF92DF92EF92FF9228
:1050E0000F931F93CF93DF939C0185E593E08C7F13
:1050F0004115510509F49BC02115310509F497C0EC
:105100006115710509F493C07A01AB01B9016D5FB6
:105110007F4F6C7F9B012F5F3F4F249F8001259F16
:10512000100D349F100D1124F894209141053091F9
:105130004205232B59F42091490530914A05211548
:10514000310569F12017310708F058C020914B054F
:1051500030914C05232B91F42091490530914A055B
:10516000820F931F2091530530915405211531056D
:1051700009F441C02017310708F056C07894CFEFEA
:10518000DFEF86EF9FEFF701D183C083DF91CF91EF
:105190001F910F91FF90EF90DF90CF900895C3E0A3
:1051A000D0E0C0905003D090510324E231E02C199C
:1051B0003D092017310710F32AE02C9FF0012D9FA5
:1051C000F00D1124ED5DFA4F918380835583448364
:1051D000538342837783668311870087009709F0A2
:1051E00055DE0C0D1D1D1093510300935003789450
:1051F00090E080E0C8CFC4E0D0E0D3CFC3E0D0E0FF
:105200002AE02C9FF0012D9FF00D1124ED5DFA4F47
:10521000918380835583448353834283778366835A
:10522000009729F333DEE3CFC4E0D0E0E9CF8FEF7E
:105230009FEFACCF9C010397029708F069C0F894E8
:1052400084E09AE0482F50E0241735070CF44DC055
:1052500091E08AE0829FF001839FF00D1124ED5DC3
:10526000FA4F1182108215821482138212821782E1
:1052700016829923B1F18091410590914205892BC5
:10528000A9F42091490530914A052115310571F0A5
:105290008091500390915103821B930B9093510383
:1052A0008093500310924A051092490580914B0556
:1052B00090914C05892BA9F4209153053091540508
:1052C0002115310571F08091500390915103821B9B
:1052D000930B9093510380935003109254051092B6
:1052E0005305789490E080E00895949FF001959F95
:1052F000F00D1124ED5DFA4F40815181452B31F4C1
:1053000040855185452B11F481509CCF90E0A1CF71
:105310008FEF9FEF08954115510549F1009739F13D
:105320006115710521F1F89420911F053091200538
:10533000232BB9F42091210530912205232B89F4E8
:105340009093200580931F0570932205609321059B
:10535000789425E030E090E080E0FA01318320830A
:10536000089578942FEF3FEF86EF9FEFF6CF8FEF02
:105370009FEF0895059769F4F89410922005109214
:105380001F051092220510922105789490E080E08C
:1053900008958FEF9FEF08956115710519F4F0E0FE
:1053A000E0E011C08530910581F4E0911F05F09196
:1053B00020053097A1F3CB0101960995009779F369
:1053C000FC0185E08193CF0108959C0123503109B0
:1053D0002230310520F72AE0289FD001299FB00D07
:1053E0001124AD5DBA4F2D913C911197232BB9F249
:1053F00016962D913C9117972617370780F2F8944F
:1054000012962D913C9113972115310529F0ED91BC
:10541000FC911197309711F47894C1CF418152815A
:1054200011965C934E932150310913963C932E9321
:10543000129781937894C7CFE9E7F4E086EADF0119
:105440001D928A95E9F7E2E5F3E087E291E0DF015A
:105450009C011D9221503040E1F7109251031092AF
:105460005003E3E2F5E082E3DF011D928A95E9F75C
:10547000EFE1F5E084E0DF011D928A95E9F790E025
:1054800080E00895CF93DF93C0916F01D0917001B8
:10549000CF3FDC0759F444D49093700180936F019F
:1054A00097FF09C0D0937001C0936F0184EF9FEF05
:1054B000DF91CF91089590E080E0FACF823091059E
:1054C00028F48093550590E080E008958FEF9FEFDA
:1054D00008954F925F926F927F92AF92BF92CF9258
:1054E000DF92EF92FF920F931F93CF93DF9300D041
:1054F000CDB7DEB71A821982009709F479C0611519
:10550000710509F475C020916F013091700107EFAA
:105510001FEF2F3F3F4F09F445C06B015C01412C49
:10552000512C3201F12CE12C10E000E09E012F5FA4
:105530003F4FA6014E195F09B5016E0D7F1D809189
:105540006F01909170014BD4892B09F04BC0898178
:105550009A81009741F4E114F10429F42091550552
:10556000222309F442C0E80EF91EEC14FD04D0F425
:1055700080E8481684E858068EE16806710420F534
:1055800060E070E0CB010E946B332AE0420E511CB8
:10559000611C711C0A3F4FEF140721F0043F8FEF8D
:1055A0001807A1F4C8010F900F90DF91CF911F91C0
:1055B0000F91FF90EF90DF90CF90BF90AF907F90D2
:1055C0006F905F904F90089501EF1FEF81E090E0A2
:1055D000013F2FEF120711F090E080E0892B09F4D2
:1055E000A5CFE0CF04EF1FEFDDCF0AEF1FEFDACF3B
:1055F0000FEF1FEFD7CF4F925F926F927F92AF92D4
:10560000BF92CF92DF92EF92FF920F931F93CF93AF
:10561000DF9300D0CDB7DEB71A821982009709F464
:1056200079C06115710509F475C020916F01309141
:10563000700107EF1FEF2F3F3F4F09F445C06B018B
:105640005C01412C512C3201F12CE12C10E000E0E6
:105650009E012F5F3F4FA6014E195F09B5016E0DE8
:105660007F1D80916F01909170016FD3892B09F09C
:105670004BC089819A81009741F4E114F10429F427
:1056800020915505222309F442C0E80EF91EEC14BE
:10569000FD04D0F480E4481682E458068FE06806E2
:1056A000710420F560E070E0CB010E946B332AE0CA
:1056B000420E511C611C711C0E3F4FEF140721F06C
:1056C000043F8FEF1807A1F4C8010F900F90DF91EE
:1056D000CF911F910F91FF90EF90DF90CF90BF90EF
:1056E000AF907F906F905F904F90089502EF1FEF03
:1056F00081E090E0023F2FEF120711F090E080E090
:10570000892B09F4A5CFE0CF04EF1FEFDDCF0EEF1B
:105710001FEFDACF0FEF1FEFD7CF80916F0190917E
:1057200070018F3F980749F0F3D2892B49F48FEF2E
:105730009FEF9093700180936F0190E080E0089557
:1057400084EF9FEF0895CF92DF92EF92FF920F9335
:105750001F93CF93DF9321E04115510509F020E01D
:105760004150510921112CC0DC01FB01D12CC12C6D
:1057700021E022C03FEFC31AD30A7D010D911D9194
:10578000E701EA80FB80E016F106A8F42081318170
:10579000E280F380F182E08233832283ED90FC90FB
:1057A00011979D0122503109E901F982E882119691
:1057B0001C930E9320E03296C416D506D8F2D2CFB1
:1057C000DF91CF911F910F91FF90EF90DF90CF90DD
:1057D0000895FC01680F791F90E080E0E617F70755
:1057E00009F408952191820F911DF8CF209156055B
:1057F000211113C047DE009791F410925C051092BE
:105800005B0510925A051092590510925805109296
:10581000570521E020935605089584EF9FEF0895E2
:10582000AF92BF92CF92DF92EF92FF920F931F93AE
:10583000CF93DF93009709F460C04630510508F418
:105840005CC020915605C7EFDFEF222309F449C061
:105850008C01060F171FF801C080D180C114D1043C
:1058600009F44EC096012A5F3F4F4217530708F4D0
:1058700047C07C0180915B0590915C059383828396
:10588000B6016C5F7F4F5801A60EB71EC801A1DF9D
:10589000F5019183808364E070E0C8011ADEEC01B9
:1058A000892BF9F481E090E009DEB601C801049685
:1058B00010DEEC01892B91F462E070E0C50109DE95
:1058C000EC01892B59F4C701DBDB80915B059091DA
:1058D0005C05019690935C0580935B0590E080E009
:1058E000EDDDCE01DF91CF911F910F91FF90EF90F1
:1058F000DF90CF90BF90AF900895CFEFDFEFF1CF63
:10590000C9EFDFEFEECF6F927F928F929F92AF92AF
:10591000BF92CF92DF92EF92FF920F931F93CF939C
:10592000DF9300D000D0CDB7DEB7009709F47AC07E
:105930004115510509F476C02091560507EF1FEF78
:10594000222309F44DC03A017B015C0164E070E060
:10595000CE01019650DE8C01892B09F041C00981EE
:105960001A810115110509F45AC0480186E0880E14
:10597000911CB701680D791D8091710190917201A0
:105980000BDD6C01009709F450C0A70170E060E0E6
:105990000E942D3789819A81AB81BC81EC0CFD1C62
:1059A000F70181939193A193B1937F0181E090E0FE
:1059B00085DDB801C7011FDE892B31F562E070E09B
:1059C000C701800F911F17DE8C01892BE9F490E04D
:1059D00080E074DDF501D182C082F3019182808282
:1059E000C8010F900F900F900F90DF91CF911F91F2
:1059F0000F91FF90EF90DF90CF90BF90AF909F906E
:105A00008F907F906F90089590E080E057DDF501D2
:105A100011821082F30111821082C60131DB09EF7D
:105A20001FEFDECF0FEF1FEFDBCF06EF1FEFD8CF5B
:105A30000097A1F04115510589F02115310571F04C
:105A4000F90136966E177F0748F0DC012D933C93E1
:105A5000DA01ED93FC9390E080E008958FEF9FEFE3
:105A60000895AF92BF92CF92DF92EF92FF920F9381
:105A70001F93CF93DF93009709F45FC04115510541
:105A800009F45BC06530710508F457C020915605D4
:105A9000C7EFDFEF222391F1DC01CD90DC9011976D
:105AA0001296ED91FC9196012A5F3F4FC9EFDFEF0F
:105AB0002617370719F5C0915705D091580520973B
:105AC00049F521E030E030935805209357057A01DD
:105AD0008C01F0935A05E09359055601B4E0AB0EE2
